{
  "_format": "hh-sol-artifact-1",
  "contractName": "Campaign",
  "sourceName": "contracts/Campaign.sol",
  "abi": [
    {
      "inputs": [],
      "stateMutability": "nonpayable",
      "type": "constructor"
    },
    {
      "inputs": [],
      "name": "Campaign_AmountExceedTotalSupply",
      "type": "error"
    },
    {
      "inputs": [],
      "name": "Campaign_TokenAmountIsZero",
      "type": "error"
    },
    {
      "inputs": [],
      "name": "Campaign__AddressIsZeroAddress",
      "type": "error"
    },
    {
      "inputs": [],
      "name": "Campaign__FundingFinished",
      "type": "error"
    },
    {
      "inputs": [],
      "name": "Campaign__FundingNotFinished",
      "type": "error"
    },
    {
      "inputs": [],
      "name": "Campaign__NotTheSubmitter",
      "type": "error"
    },
    {
      "anonymous": false,
      "inputs": [
        {
          "indexed": false,
          "internalType": "uint8",
          "name": "version",
          "type": "uint8"
        }
      ],
      "name": "Initialized",
      "type": "event"
    },
    {
      "anonymous": false,
      "inputs": [
        {
          "indexed": true,
          "internalType": "address",
          "name": "previousOwner",
          "type": "address"
        },
        {
          "indexed": true,
          "internalType": "address",
          "name": "newOwner",
          "type": "address"
        }
      ],
      "name": "OwnershipTransferred",
      "type": "event"
    },
    {
      "anonymous": false,
      "inputs": [
        {
          "indexed": false,
          "internalType": "address",
          "name": "newAddress",
          "type": "address"
        }
      ],
      "name": "SubmitterAddressChanged",
      "type": "event"
    },
    {
      "anonymous": false,
      "inputs": [
        {
          "indexed": false,
          "internalType": "address",
          "name": "to",
          "type": "address"
        },
        {
          "indexed": false,
          "internalType": "uint256",
          "name": "amount",
          "type": "uint256"
        }
      ],
      "name": "TokensTransfered",
      "type": "event"
    },
    {
      "anonymous": false,
      "inputs": [
        {
          "indexed": false,
          "internalType": "address",
          "name": "contributor",
          "type": "address"
        },
        {
          "indexed": false,
          "internalType": "uint256",
          "name": "amount",
          "type": "uint256"
        }
      ],
      "name": "UpdateContributor",
      "type": "event"
    },
    {
      "inputs": [
        {
          "internalType": "address",
          "name": "_contributor",
          "type": "address"
        },
        {
          "internalType": "uint256",
          "name": "_amount",
          "type": "uint256"
        }
      ],
      "name": "addContributor",
      "outputs": [],
      "stateMutability": "nonpayable",
      "type": "function"
    },
    {
      "inputs": [
        {
          "internalType": "address",
          "name": "",
          "type": "address"
        }
      ],
      "name": "contributor",
      "outputs": [
        {
          "internalType": "uint256",
          "name": "",
          "type": "uint256"
        }
      ],
      "stateMutability": "view",
      "type": "function"
    },
    {
      "inputs": [],
      "name": "duration",
      "outputs": [
        {
          "internalType": "uint256",
          "name": "",
          "type": "uint256"
        }
      ],
      "stateMutability": "view",
      "type": "function"
    },
    {
      "inputs": [],
      "name": "finishFunding",
      "outputs": [],
      "stateMutability": "nonpayable",
      "type": "function"
    },
    {
      "inputs": [
        {
          "internalType": "address",
          "name": "_contributor",
          "type": "address"
        }
      ],
      "name": "getContributor",
      "outputs": [
        {
          "internalType": "uint256",
          "name": "",
          "type": "uint256"
        }
      ],
      "stateMutability": "view",
      "type": "function"
    },
    {
      "inputs": [],
      "name": "getDuration",
      "outputs": [
        {
          "internalType": "uint256",
          "name": "",
          "type": "uint256"
        }
      ],
      "stateMutability": "view",
      "type": "function"
    },
    {
      "inputs": [],
      "name": "getEndDate",
      "outputs": [
        {
          "internalType": "uint256",
          "name": "",
          "type": "uint256"
        }
      ],
      "stateMutability": "view",
      "type": "function"
    },
    {
      "inputs": [],
      "name": "getNumberOfContributor",
      "outputs": [
        {
          "internalType": "uint256",
          "name": "",
          "type": "uint256"
        }
      ],
      "stateMutability": "view",
      "type": "function"
    },
    {
      "inputs": [],
      "name": "getRemainingFundingTime",
      "outputs": [
        {
          "internalType": "uint256",
          "name": "",
          "type": "uint256"
        }
      ],
      "stateMutability": "view",
      "type": "function"
    },
    {
      "inputs": [],
      "name": "getStartDate",
      "outputs": [
        {
          "internalType": "uint256",
          "name": "",
          "type": "uint256"
        }
      ],
      "stateMutability": "view",
      "type": "function"
    },
    {
      "inputs": [],
      "name": "getSubmitter",
      "outputs": [
        {
          "internalType": "address",
          "name": "",
          "type": "address"
        }
      ],
      "stateMutability": "view",
      "type": "function"
    },
    {
      "inputs": [],
      "name": "getTotalSupply",
      "outputs": [
        {
          "internalType": "uint256",
          "name": "",
          "type": "uint256"
        }
      ],
      "stateMutability": "view",
      "type": "function"
    },
    {
      "inputs": [
        {
          "internalType": "uint256",
          "name": "_duration",
          "type": "uint256"
        },
        {
          "internalType": "address",
          "name": "_submitter",
          "type": "address"
        },
        {
          "internalType": "address",
          "name": "_token",
          "type": "address"
        }
      ],
      "name": "initialize",
      "outputs": [],
      "stateMutability": "nonpayable",
      "type": "function"
    },
    {
      "inputs": [],
      "name": "isFundingActive",
      "outputs": [
        {
          "internalType": "bool",
          "name": "",
          "type": "bool"
        }
      ],
      "stateMutability": "view",
      "type": "function"
    },
    {
      "inputs": [],
      "name": "owner",
      "outputs": [
        {
          "internalType": "address",
          "name": "",
          "type": "address"
        }
      ],
      "stateMutability": "view",
      "type": "function"
    },
    {
      "inputs": [],
      "name": "renounceOwnership",
      "outputs": [],
      "stateMutability": "nonpayable",
      "type": "function"
    },
    {
      "inputs": [],
      "name": "submitter",
      "outputs": [
        {
          "internalType": "address",
          "name": "",
          "type": "address"
        }
      ],
      "stateMutability": "view",
      "type": "function"
    },
    {
      "inputs": [],
      "name": "totalSupply",
      "outputs": [
        {
          "internalType": "uint256",
          "name": "",
          "type": "uint256"
        }
      ],
      "stateMutability": "view",
      "type": "function"
    },
    {
      "inputs": [
        {
          "internalType": "address",
          "name": "newOwner",
          "type": "address"
        }
      ],
      "name": "transferOwnership",
      "outputs": [],
      "stateMutability": "nonpayable",
      "type": "function"
    },
    {
      "inputs": [
        {
          "internalType": "address",
          "name": "_to",
          "type": "address"
        },
        {
          "internalType": "uint256",
          "name": "_amount",
          "type": "uint256"
        }
      ],
      "name": "transferStableTokens",
      "outputs": [],
      "stateMutability": "nonpayable",
      "type": "function"
    },
    {
      "inputs": [
        {
          "internalType": "address",
          "name": "_submitter",
          "type": "address"
        }
      ],
      "name": "updateSubmitterAddress",
      "outputs": [],
      "stateMutability": "nonpayable",
      "type": "function"
    }
  ],
  "bytecode": "0x60806040523480156200001157600080fd5b50620000226200002860201b60201c565b620001d3565b600060019054906101000a900460ff16156200007b576040517f08c379a0000000000000000000000000000000000000000000000000000000008152600401620000729062000127565b60405180910390fd5b60ff801660008054906101000a900460ff1660ff161015620000ed5760ff6000806101000a81548160ff021916908360ff1602179055507f7f26b83ff96e1f2b6a682f133852f6798a09c465da95921460cefb384740249860ff604051620000e4919062000149565b60405180910390a15b565b6000620000fe60278362000166565b91506200010b8262000184565b604082019050919050565b620001218162000177565b82525050565b600060208201905081810360008301526200014281620000ef565b9050919050565b600060208201905062000160600083018462000116565b92915050565b600082825260208201905092915050565b600060ff82169050919050565b7f496e697469616c697a61626c653a20636f6e747261637420697320696e69746960008201527f616c697a696e6700000000000000000000000000000000000000000000000000602082015250565b61160080620001e36000396000f3fe608060405234801561001057600080fd5b50600436106101375760003560e01c8063ad2e8c9b116100b8578063ceb356051161007c578063ceb35605146102f8578063e0bd7d1514610328578063e67a31a514610344578063ebae46be14610360578063f2fde38b1461036a578063fe5a30d71461038657610137565b8063ad2e8c9b14610264578063b135648814610282578063b4988fd0146102a0578063c4e41b22146102bc578063ca53951d146102da57610137565b806370a84fe4116100ff57806370a84fe4146101e4578063715018a61461020057806378f305c61461020a5780638da5cb5b146102285780638dc45d9a1461024657610137565b80630fb5a6b41461013c57806318160ddd1461015a57806322701a3d146101785780633d8270f514610196578063636d6c9d146101c6575b600080fd5b6101446103a4565b60405161015191906112f5565b60405180910390f35b6101626103aa565b60405161016f91906112f5565b60405180910390f35b6101806103b0565b60405161018d91906112f5565b60405180910390f35b6101b060048036038101906101ab9190611003565b6103ba565b6040516101bd91906112f5565b60405180910390f35b6101ce610403565b6040516101db919061121f565b60405180910390f35b6101fe60048036038101906101f99190611003565b61041a565b005b61020861050d565b005b610212610521565b60405161021f91906112f5565b60405180910390f35b61023061052b565b60405161023d91906111db565b60405180910390f35b61024e610555565b60405161025b91906111db565b60405180910390f35b61026c61057b565b60405161027991906112f5565b60405180910390f35b61028a610585565b60405161029791906112f5565b60405180910390f35b6102ba60048036038101906102b5919061109d565b61058f565b005b6102c461078f565b6040516102d191906112f5565b60405180910390f35b6102e2610799565b6040516102ef91906111db565b60405180910390f35b610312600480360381019061030d9190611003565b6107c3565b60405161031f91906112f5565b60405180910390f35b610342600480360381019061033d9190611030565b6107db565b005b61035e60048036038101906103599190611030565b6109de565b005b610368610ca5565b005b610384600480360381019061037f9190611003565b610cec565b005b61038e610d70565b60405161039b91906112f5565b60405180910390f35b60655481565b60665481565b6000606c54905090565b6000606b60008373ffffffffffffffffffffffffffffffffffffffff1673ffffffffffffffffffffffffffffffffffffffff168152602001908152602001600020549050919050565b6000606960149054906101000a900460ff16905090565b610422610d9b565b600073ffffffffffffffffffffffffffffffffffffffff168173ffffffffffffffffffffffffffffffffffffffff161415610492576040517f08c379a000000000000000000000000000000000000000000000000000000000815260040161048990611255565b60405180910390fd5b80606960006101000a81548173ffffffffffffffffffffffffffffffffffffffff021916908373ffffffffffffffffffffffffffffffffffffffff1602179055507f1617854bea3963c5538d74739e0115563c2cf0c7481642f43c90eb94a453f0c18160405161050291906111db565b60405180910390a150565b610515610d9b565b61051f6000610e19565b565b6000606754905090565b6000603360009054906101000a900473ffffffffffffffffffffffffffffffffffffffff16905090565b606960009054906101000a900473ffffffffffffffffffffffffffffffffffffffff1681565b6000606554905090565b6000606854905090565b60008060019054906101000a900460ff161590508080156105c05750600160008054906101000a900460ff1660ff16105b806105ed57506105cf30610edf565b1580156105ec5750600160008054906101000a900460ff1660ff16145b5b61062c576040517f08c379a000000000000000000000000000000000000000000000000000000000815260040161062390611295565b60405180910390fd5b60016000806101000a81548160ff021916908360ff1602179055508015610669576001600060016101000a81548160ff0219169083151502179055505b8360658190555082606960006101000a81548173ffffffffffffffffffffffffffffffffffffffff021916908373ffffffffffffffffffffffffffffffffffffffff16021790555081606a60006101000a81548173ffffffffffffffffffffffffffffffffffffffff021916908373ffffffffffffffffffffffffffffffffffffffff16021790555042606781905550836067546107079190611321565b6068819055506001606960146101000a81548160ff021916908315150217905550610730610f02565b80156107895760008060016101000a81548160ff0219169083151502179055507f7f26b83ff96e1f2b6a682f133852f6798a09c465da95921460cefb38474024986001604051610780919061123a565b60405180910390a15b50505050565b6000606654905090565b6000606960009054906101000a900473ffffffffffffffffffffffffffffffffffffffff16905090565b606b6020528060005260406000206000915090505481565b6107e3610d9b565b600073ffffffffffffffffffffffffffffffffffffffff168273ffffffffffffffffffffffffffffffffffffffff161415610853576040517f08c379a000000000000000000000000000000000000000000000000000000000815260040161084a90611255565b60405180910390fd5b60001515606960149054906101000a900460ff16151514156108a1576040517fb4fbe6ed00000000000000000000000000000000000000000000000000000000815260040160405180910390fd5b80606b60008473ffffffffffffffffffffffffffffffffffffffff1673ffffffffffffffffffffffffffffffffffffffff168152602001908152602001600020546108ec9190611321565b606b60008473ffffffffffffffffffffffffffffffffffffffff1673ffffffffffffffffffffffffffffffffffffffff168152602001908152602001600020819055506001606c60008282546109429190611321565b92505081905550806066600082825461095b9190611321565b925050819055507f84d28c8df6c0c66c1b9604d24b222f20a3ebb752c68b984d2eb7fd99e982e4a482606b60008573ffffffffffffffffffffffffffffffffffffffff1673ffffffffffffffffffffffffffffffffffffffff168152602001908152602001600020546040516109d29291906111f6565b60405180910390a15050565b606960009054906101000a900473ffffffffffffffffffffffffffffffffffffffff1673ffffffffffffffffffffffffffffffffffffffff163373ffffffffffffffffffffffffffffffffffffffff1614610a65576040517fab0b798900000000000000000000000000000000000000000000000000000000815260040160405180910390fd5b60011515606960149054906101000a900460ff1615151415610ab3576040517f7fd60da200000000000000000000000000000000000000000000000000000000815260040160405180910390fd5b6000811415610aee576040517f23980e3a00000000000000000000000000000000000000000000000000000000815260040160405180910390fd5b600073ffffffffffffffffffffffffffffffffffffffff168273ffffffffffffffffffffffffffffffffffffffff161415610b55576040517f3a80886f00000000000000000000000000000000000000000000000000000000815260040160405180910390fd5b6000606654905081811015610b96576040517ffe271bd100000000000000000000000000000000000000000000000000000000815260040160405180910390fd5b606a60009054906101000a900473ffffffffffffffffffffffffffffffffffffffff1673ffffffffffffffffffffffffffffffffffffffff1663a9059cbb84846040518363ffffffff1660e01b8152600401610bf39291906111f6565b602060405180830381600087803b158015610c0d57600080fd5b505af1158015610c21573d6000803e3d6000fd5b505050506040513d601f19601f82011682018060405250810190610c459190611070565b610c4e57600080fd5b8160666000828254610c609190611377565b925050819055507fa267b5cf59cf96d97abf36d29c63cf7bdef867c208ca8575c47f2cafda39abc98383604051610c989291906111f6565b60405180910390a1505050565b6068544210610cce576000606960146101000a81548160ff021916908315150217905550610cea565b6001606960146101000a81548160ff0219169083151502179055505b565b610cf4610d9b565b600073ffffffffffffffffffffffffffffffffffffffff168173ffffffffffffffffffffffffffffffffffffffff161415610d64576040517f08c379a0000000000000000000000000000000000000000000000000000000008152600401610d5b90611275565b60405180910390fd5b610d6d81610e19565b50565b6000804260685411610d83576000610d92565b42606854610d919190611377565b5b90508091505090565b610da3610f5b565b73ffffffffffffffffffffffffffffffffffffffff16610dc161052b565b73ffffffffffffffffffffffffffffffffffffffff1614610e17576040517f08c379a0000000000000000000000000000000000000000000000000000000008152600401610e0e906112b5565b60405180910390fd5b565b6000603360009054906101000a900473ffffffffffffffffffffffffffffffffffffffff16905081603360006101000a81548173ffffffffffffffffffffffffffffffffffffffff021916908373ffffffffffffffffffffffffffffffffffffffff1602179055508173ffffffffffffffffffffffffffffffffffffffff168173ffffffffffffffffffffffffffffffffffffffff167f8be0079c531659141344cd1fd0a4f28419497f9722a3daafe3b4186f6b6457e060405160405180910390a35050565b6000808273ffffffffffffffffffffffffffffffffffffffff163b119050919050565b600060019054906101000a900460ff16610f51576040517f08c379a0000000000000000000000000000000000000000000000000000000008152600401610f48906112d5565b60405180910390fd5b610f59610f63565b565b600033905090565b600060019054906101000a900460ff16610fb2576040517f08c379a0000000000000000000000000000000000000000000000000000000008152600401610fa9906112d5565b60405180910390fd5b610fc2610fbd610f5b565b610e19565b565b600081359050610fd381611585565b92915050565b600081519050610fe88161159c565b92915050565b600081359050610ffd816115b3565b92915050565b60006020828403121561101957611018611441565b5b600061102784828501610fc4565b91505092915050565b6000806040838503121561104757611046611441565b5b600061105585828601610fc4565b925050602061106685828601610fee565b9150509250929050565b60006020828403121561108657611085611441565b5b600061109484828501610fd9565b91505092915050565b6000806000606084860312156110b6576110b5611441565b5b60006110c486828701610fee565b93505060206110d586828701610fc4565b92505060406110e686828701610fc4565b9150509250925092565b6110f9816113ab565b82525050565b611108816113bd565b82525050565b61111781611400565b82525050565b600061112a600f83611310565b915061113582611446565b602082019050919050565b600061114d602683611310565b91506111588261146f565b604082019050919050565b6000611170602e83611310565b915061117b826114be565b604082019050919050565b6000611193602083611310565b915061119e8261150d565b602082019050919050565b60006111b6602b83611310565b91506111c182611536565b604082019050919050565b6111d5816113e9565b82525050565b60006020820190506111f060008301846110f0565b92915050565b600060408201905061120b60008301856110f0565b61121860208301846111cc565b9392505050565b600060208201905061123460008301846110ff565b92915050565b600060208201905061124f600083018461110e565b92915050565b6000602082019050818103600083015261126e8161111d565b9050919050565b6000602082019050818103600083015261128e81611140565b9050919050565b600060208201905081810360008301526112ae81611163565b9050919050565b600060208201905081810360008301526112ce81611186565b9050919050565b600060208201905081810360008301526112ee816111a9565b9050919050565b600060208201905061130a60008301846111cc565b92915050565b600082825260208201905092915050565b600061132c826113e9565b9150611337836113e9565b9250827fffffffffffffffffffffffffffffffffffffffffffffffffffffffffffffffff0382111561136c5761136b611412565b5b828201905092915050565b6000611382826113e9565b915061138d836113e9565b9250828210156113a05761139f611412565b5b828203905092915050565b60006113b6826113c9565b9050919050565b60008115159050919050565b600073ffffffffffffffffffffffffffffffffffffffff82169050919050565b6000819050919050565b600060ff82169050919050565b600061140b826113f3565b9050919050565b7f4e487b7100000000000000000000000000000000000000000000000000000000600052601160045260246000fd5b600080fd5b7f496e76616c696420616464726573730000000000000000000000000000000000600082015250565b7f4f776e61626c653a206e6577206f776e657220697320746865207a65726f206160008201527f6464726573730000000000000000000000000000000000000000000000000000602082015250565b7f496e697469616c697a61626c653a20636f6e747261637420697320616c72656160008201527f647920696e697469616c697a6564000000000000000000000000000000000000602082015250565b7f4f776e61626c653a2063616c6c6572206973206e6f7420746865206f776e6572600082015250565b7f496e697469616c697a61626c653a20636f6e7472616374206973206e6f74206960008201527f6e697469616c697a696e67000000000000000000000000000000000000000000602082015250565b61158e816113ab565b811461159957600080fd5b50565b6115a5816113bd565b81146115b057600080fd5b50565b6115bc816113e9565b81146115c757600080fd5b5056fea2646970667358221220886c38e94e1d0cea207f27d2683b750c399b6a748cf9ee5c76ef5d5ff58bcbb164736f6c63430008070033",
  "linkReferences": {},
  "deployedLinkReferences": {}
}