{
  "_format": "hh-sol-artifact-1",
  "contractName": "Campaign",
  "sourceName": "contracts/Campaign.sol",
  "abi": [
    {
      "inputs": [],
      "stateMutability": "nonpayable",
      "type": "constructor"
    },
    {
      "inputs": [],
      "name": "Campaign_AmountExceedTotalSupply",
      "type": "error"
    },
    {
      "inputs": [],
      "name": "Campaign_SuccessfulFunded",
      "type": "error"
    },
    {
      "inputs": [],
      "name": "Campaign_TokenAmountIsZero",
      "type": "error"
    },
    {
      "inputs": [],
      "name": "Campaign__AddressIsZeroAddress",
      "type": "error"
    },
    {
      "inputs": [],
      "name": "Campaign__FundingFinished",
      "type": "error"
    },
    {
      "inputs": [],
      "name": "Campaign__FundingNotFinished",
      "type": "error"
    },
    {
      "inputs": [],
      "name": "Campaign__NotSuccessfulFunded",
      "type": "error"
    },
    {
      "inputs": [],
      "name": "Campaign__NotTheSubmitter",
      "type": "error"
    },
    {
      "anonymous": false,
      "inputs": [
        {
          "indexed": false,
          "internalType": "uint8",
          "name": "version",
          "type": "uint8"
        }
      ],
      "name": "Initialized",
      "type": "event"
    },
    {
      "anonymous": false,
      "inputs": [
        {
          "indexed": true,
          "internalType": "address",
          "name": "previousOwner",
          "type": "address"
        },
        {
          "indexed": true,
          "internalType": "address",
          "name": "newOwner",
          "type": "address"
        }
      ],
      "name": "OwnershipTransferred",
      "type": "event"
    },
    {
      "anonymous": false,
      "inputs": [
        {
          "indexed": false,
          "internalType": "address",
          "name": "newAddress",
          "type": "address"
        }
      ],
      "name": "SubmitterAddressChanged",
      "type": "event"
    },
    {
      "anonymous": false,
      "inputs": [
        {
          "indexed": false,
          "internalType": "address",
          "name": "to",
          "type": "address"
        },
        {
          "indexed": false,
          "internalType": "uint256",
          "name": "amount",
          "type": "uint256"
        }
      ],
      "name": "TokensTransfered",
      "type": "event"
    },
    {
      "anonymous": false,
      "inputs": [
        {
          "indexed": false,
          "internalType": "address",
          "name": "contributor",
          "type": "address"
        },
        {
          "indexed": false,
          "internalType": "uint256",
          "name": "amount",
          "type": "uint256"
        }
      ],
      "name": "UpdateContributor",
      "type": "event"
    },
    {
      "inputs": [
        {
          "internalType": "address",
          "name": "_contributor",
          "type": "address"
        },
        {
          "internalType": "uint256",
          "name": "_amount",
          "type": "uint256"
        }
      ],
      "name": "addContributor",
      "outputs": [],
      "stateMutability": "nonpayable",
      "type": "function"
    },
    {
      "inputs": [
        {
          "internalType": "address",
          "name": "",
          "type": "address"
        }
      ],
      "name": "contributor",
      "outputs": [
        {
          "internalType": "uint256",
          "name": "",
          "type": "uint256"
        }
      ],
      "stateMutability": "view",
      "type": "function"
    },
    {
      "inputs": [],
      "name": "duration",
      "outputs": [
        {
          "internalType": "uint256",
          "name": "",
          "type": "uint256"
        }
      ],
      "stateMutability": "view",
      "type": "function"
    },
    {
      "inputs": [],
      "name": "finishFunding",
      "outputs": [
        {
          "internalType": "bool",
          "name": "successful",
          "type": "bool"
        }
      ],
      "stateMutability": "nonpayable",
      "type": "function"
    },
    {
      "inputs": [],
      "name": "getCampaignURI",
      "outputs": [
        {
          "internalType": "string",
          "name": "",
          "type": "string"
        }
      ],
      "stateMutability": "view",
      "type": "function"
    },
    {
      "inputs": [
        {
          "internalType": "address",
          "name": "_contributor",
          "type": "address"
        }
      ],
      "name": "getContributor",
      "outputs": [
        {
          "internalType": "uint256",
          "name": "",
          "type": "uint256"
        }
      ],
      "stateMutability": "view",
      "type": "function"
    },
    {
      "inputs": [],
      "name": "getDuration",
      "outputs": [
        {
          "internalType": "uint256",
          "name": "",
          "type": "uint256"
        }
      ],
      "stateMutability": "view",
      "type": "function"
    },
    {
      "inputs": [],
      "name": "getEndDate",
      "outputs": [
        {
          "internalType": "uint256",
          "name": "",
          "type": "uint256"
        }
      ],
      "stateMutability": "view",
      "type": "function"
    },
    {
      "inputs": [],
      "name": "getFundingStatus",
      "outputs": [
        {
          "internalType": "bool",
          "name": "",
          "type": "bool"
        }
      ],
      "stateMutability": "view",
      "type": "function"
    },
    {
      "inputs": [],
      "name": "getMinAmount",
      "outputs": [
        {
          "internalType": "uint256",
          "name": "",
          "type": "uint256"
        }
      ],
      "stateMutability": "view",
      "type": "function"
    },
    {
      "inputs": [],
      "name": "getNumberOfContributor",
      "outputs": [
        {
          "internalType": "uint256",
          "name": "",
          "type": "uint256"
        }
      ],
      "stateMutability": "view",
      "type": "function"
    },
    {
      "inputs": [],
      "name": "getRemainingFundingTime",
      "outputs": [
        {
          "internalType": "uint256",
          "name": "",
          "type": "uint256"
        }
      ],
      "stateMutability": "view",
      "type": "function"
    },
    {
      "inputs": [],
      "name": "getStartDate",
      "outputs": [
        {
          "internalType": "uint256",
          "name": "",
          "type": "uint256"
        }
      ],
      "stateMutability": "view",
      "type": "function"
    },
    {
      "inputs": [],
      "name": "getSubmitter",
      "outputs": [
        {
          "internalType": "address",
          "name": "",
          "type": "address"
        }
      ],
      "stateMutability": "view",
      "type": "function"
    },
    {
      "inputs": [],
      "name": "getTotalSupply",
      "outputs": [
        {
          "internalType": "uint256",
          "name": "",
          "type": "uint256"
        }
      ],
      "stateMutability": "view",
      "type": "function"
    },
    {
      "inputs": [
        {
          "internalType": "uint256",
          "name": "_duration",
          "type": "uint256"
        },
        {
          "internalType": "address",
          "name": "_submitter",
          "type": "address"
        },
        {
          "internalType": "address",
          "name": "_token",
          "type": "address"
        },
        {
          "internalType": "uint256",
          "name": "_minAmount",
          "type": "uint256"
        },
        {
          "internalType": "string",
          "name": "_campaignURI",
          "type": "string"
        }
      ],
      "name": "initialize",
      "outputs": [],
      "stateMutability": "nonpayable",
      "type": "function"
    },
    {
      "inputs": [],
      "name": "isFundingActive",
      "outputs": [
        {
          "internalType": "bool",
          "name": "",
          "type": "bool"
        }
      ],
      "stateMutability": "view",
      "type": "function"
    },
    {
      "inputs": [],
      "name": "owner",
      "outputs": [
        {
          "internalType": "address",
          "name": "",
          "type": "address"
        }
      ],
      "stateMutability": "view",
      "type": "function"
    },
    {
      "inputs": [],
      "name": "renounceOwnership",
      "outputs": [],
      "stateMutability": "nonpayable",
      "type": "function"
    },
    {
      "inputs": [
        {
          "internalType": "address",
          "name": "_contributor",
          "type": "address"
        }
      ],
      "name": "setContributionToZero",
      "outputs": [
        {
          "internalType": "uint256",
          "name": "",
          "type": "uint256"
        }
      ],
      "stateMutability": "nonpayable",
      "type": "function"
    },
    {
      "inputs": [],
      "name": "submitter",
      "outputs": [
        {
          "internalType": "address",
          "name": "",
          "type": "address"
        }
      ],
      "stateMutability": "view",
      "type": "function"
    },
    {
      "inputs": [],
      "name": "totalSupply",
      "outputs": [
        {
          "internalType": "uint256",
          "name": "",
          "type": "uint256"
        }
      ],
      "stateMutability": "view",
      "type": "function"
    },
    {
      "inputs": [
        {
          "internalType": "address",
          "name": "newOwner",
          "type": "address"
        }
      ],
      "name": "transferOwnership",
      "outputs": [],
      "stateMutability": "nonpayable",
      "type": "function"
    },
    {
      "inputs": [
        {
          "internalType": "address",
          "name": "_to",
          "type": "address"
        },
        {
          "internalType": "uint256",
          "name": "_amount",
          "type": "uint256"
        }
      ],
      "name": "transferStableTokens",
      "outputs": [],
      "stateMutability": "nonpayable",
      "type": "function"
    },
    {
      "inputs": [
        {
          "internalType": "string",
          "name": "_newURI",
          "type": "string"
        }
      ],
      "name": "updateCampaignURI",
      "outputs": [],
      "stateMutability": "nonpayable",
      "type": "function"
    },
    {
      "inputs": [
        {
          "internalType": "address",
          "name": "_submitter",
          "type": "address"
        }
      ],
      "name": "updateSubmitterAddress",
      "outputs": [],
      "stateMutability": "nonpayable",
      "type": "function"
    }
  ],
  "bytecode": "0x60806040523480156200001157600080fd5b50620000226200002860201b60201c565b620001d3565b600060019054906101000a900460ff16156200007b576040517f08c379a0000000000000000000000000000000000000000000000000000000008152600401620000729062000127565b60405180910390fd5b60ff801660008054906101000a900460ff1660ff161015620000ed5760ff6000806101000a81548160ff021916908360ff1602179055507f7f26b83ff96e1f2b6a682f133852f6798a09c465da95921460cefb384740249860ff604051620000e4919062000149565b60405180910390a15b565b6000620000fe60278362000166565b91506200010b8262000184565b604082019050919050565b620001218162000177565b82525050565b600060208201905081810360008301526200014281620000ef565b9050919050565b600060208201905062000160600083018462000116565b92915050565b600082825260208201905092915050565b600060ff82169050919050565b7f496e697469616c697a61626c653a20636f6e747261637420697320696e69746960008201527f616c697a696e6700000000000000000000000000000000000000000000000000602082015250565b611da580620001e36000396000f3fe608060405234801561001057600080fd5b506004361061018e5760003560e01c80638dc45d9a116100de578063cfc7e2da11610097578063ebae46be11610071578063ebae46be1461043f578063f2dfc3fc1461045d578063f2fde38b1461047b578063fe5a30d7146104975761018e565b8063cfc7e2da146103e9578063e0bd7d1514610407578063e67a31a5146104235761018e565b80638dc45d9a14610323578063ad2e8c9b14610341578063b13564881461035f578063c4e41b221461037d578063ca53951d1461039b578063ceb35605146103b95761018e565b80634a932bb91161014b57806370a84fe41161012557806370a84fe4146102c1578063715018a6146102dd57806378f305c6146102e75780638da5cb5b146103055761018e565b80634a932bb9146102695780634d695bdb14610287578063636d6c9d146102a35761018e565b80630fb5a6b41461019357806318160ddd146101b15780631c8deddf146101cf57806322701a3d146101ff57806336ce7df71461021d5780633d8270f514610239575b600080fd5b61019b6104b5565b6040516101a89190611916565b60405180910390f35b6101b96104bb565b6040516101c69190611916565b60405180910390f35b6101e960048036038101906101e4919061153c565b6104c1565b6040516101f69190611916565b60405180910390f35b6102076105f2565b6040516102149190611916565b60405180910390f35b6102376004803603810190610232919061161f565b6105fc565b005b610253600480360381019061024e919061153c565b61081c565b6040516102609190611916565b60405180910390f35b610271610865565b60405161027e9190611854565b60405180910390f35b6102a1600480360381019061029c91906115d6565b6108f7565b005b6102ab610967565b6040516102b8919061181e565b60405180910390f35b6102db60048036038101906102d6919061153c565b61097e565b005b6102e5610a71565b005b6102ef610a85565b6040516102fc9190611916565b60405180910390f35b61030d610a8f565b60405161031a91906117da565b60405180910390f35b61032b610ab9565b60405161033891906117da565b60405180910390f35b610349610adf565b6040516103569190611916565b60405180910390f35b610367610ae9565b6040516103749190611916565b60405180910390f35b610385610af3565b6040516103929190611916565b60405180910390f35b6103a3610afd565b6040516103b091906117da565b60405180910390f35b6103d360048036038101906103ce919061153c565b610b27565b6040516103e09190611916565b60405180910390f35b6103f1610b3f565b6040516103fe9190611916565b60405180910390f35b610421600480360381019061041c9190611569565b610b49565b005b61043d60048036038101906104389190611569565b610d4c565b005b610447611061565b604051610454919061181e565b60405180910390f35b6104656110fb565b604051610472919061181e565b60405180910390f35b6104956004803603810190610490919061153c565b611112565b005b61049f611196565b6040516104ac9190611916565b60405180910390f35b60655481565b60665481565b60006104cb6111c1565b60011515606c60009054906101000a900460ff1615151415610519576040517f7fd60da200000000000000000000000000000000000000000000000000000000815260040160405180910390fd5b606c60019054906101000a900460ff1615610560576040517f40a49e5d00000000000000000000000000000000000000000000000000000000815260040160405180910390fd5b6000606d60008473ffffffffffffffffffffffffffffffffffffffff1673ffffffffffffffffffffffffffffffffffffffff1681526020019081526020016000205490506000606d60008573ffffffffffffffffffffffffffffffffffffffff1673ffffffffffffffffffffffffffffffffffffffff1681526020019081526020016000208190555080915050919050565b6000606e54905090565b60008060019054906101000a900460ff1615905080801561062d5750600160008054906101000a900460ff1660ff16105b8061065a575061063c3061123f565b1580156106595750600160008054906101000a900460ff1660ff16145b5b610699576040517f08c379a0000000000000000000000000000000000000000000000000000000008152600401610690906118b6565b60405180910390fd5b60016000806101000a81548160ff021916908360ff16021790555080156106d6576001600060016101000a81548160ff0219169083151502179055505b8560658190555084606a60006101000a81548173ffffffffffffffffffffffffffffffffffffffff021916908373ffffffffffffffffffffffffffffffffffffffff16021790555083606c60026101000a81548173ffffffffffffffffffffffffffffffffffffffff021916908373ffffffffffffffffffffffffffffffffffffffff160217905550426067819055508560675461077491906119a3565b6068819055508260698190555081606b90805190602001906107979291906113ea565b506001606c60006101000a81548160ff0219169083151502179055506107bb611262565b80156108145760008060016101000a81548160ff0219169083151502179055507f7f26b83ff96e1f2b6a682f133852f6798a09c465da95921460cefb3847402498600160405161080b9190611839565b60405180910390a15b505050505050565b6000606d60008373ffffffffffffffffffffffffffffffffffffffff1673ffffffffffffffffffffffffffffffffffffffff168152602001908152602001600020549050919050565b6060606b805461087490611ad6565b80601f01602080910402602001604051908101604052809291908181526020018280546108a090611ad6565b80156108ed5780601f106108c2576101008083540402835291602001916108ed565b820191906000526020600020905b8154815290600101906020018083116108d057829003601f168201915b5050505050905090565b6108ff6111c1565b60001515606c60009054906101000a900460ff161515141561094d576040517fb4fbe6ed00000000000000000000000000000000000000000000000000000000815260040160405180910390fd5b80606b90805190602001906109639291906113ea565b5050565b6000606c60009054906101000a900460ff16905090565b6109866111c1565b600073ffffffffffffffffffffffffffffffffffffffff168173ffffffffffffffffffffffffffffffffffffffff1614156109f6576040517f08c379a00000000000000000000000000000000000000000000000000000000081526004016109ed90611876565b60405180910390fd5b80606a60006101000a81548173ffffffffffffffffffffffffffffffffffffffff021916908373ffffffffffffffffffffffffffffffffffffffff1602179055507f1617854bea3963c5538d74739e0115563c2cf0c7481642f43c90eb94a453f0c181604051610a6691906117da565b60405180910390a150565b610a796111c1565b610a8360006112bb565b565b6000606754905090565b6000603360009054906101000a900473ffffffffffffffffffffffffffffffffffffffff16905090565b606a60009054906101000a900473ffffffffffffffffffffffffffffffffffffffff1681565b6000606554905090565b6000606854905090565b6000606654905090565b6000606a60009054906101000a900473ffffffffffffffffffffffffffffffffffffffff16905090565b606d6020528060005260406000206000915090505481565b6000606954905090565b610b516111c1565b60001515606c60009054906101000a900460ff1615151415610b9f576040517fb4fbe6ed00000000000000000000000000000000000000000000000000000000815260040160405180910390fd5b600073ffffffffffffffffffffffffffffffffffffffff168273ffffffffffffffffffffffffffffffffffffffff161415610c0f576040517f08c379a0000000000000000000000000000000000000000000000000000000008152600401610c0690611876565b60405180910390fd5b80606d60008473ffffffffffffffffffffffffffffffffffffffff1673ffffffffffffffffffffffffffffffffffffffff16815260200190815260200160002054610c5a91906119a3565b606d60008473ffffffffffffffffffffffffffffffffffffffff1673ffffffffffffffffffffffffffffffffffffffff168152602001908152602001600020819055506001606e6000828254610cb091906119a3565b925050819055508060666000828254610cc991906119a3565b925050819055507f84d28c8df6c0c66c1b9604d24b222f20a3ebb752c68b984d2eb7fd99e982e4a482606d60008573ffffffffffffffffffffffffffffffffffffffff1673ffffffffffffffffffffffffffffffffffffffff16815260200190815260200160002054604051610d409291906117f5565b60405180910390a15050565b606a60009054906101000a900473ffffffffffffffffffffffffffffffffffffffff1673ffffffffffffffffffffffffffffffffffffffff163373ffffffffffffffffffffffffffffffffffffffff1614610dd3576040517fab0b798900000000000000000000000000000000000000000000000000000000815260040160405180910390fd5b60011515606c60009054906101000a900460ff1615151415610e21576040517f7fd60da200000000000000000000000000000000000000000000000000000000815260040160405180910390fd5b60001515606c60019054906101000a900460ff1615151415610e6f576040517f631773e400000000000000000000000000000000000000000000000000000000815260040160405180910390fd5b6000811415610eaa576040517f23980e3a00000000000000000000000000000000000000000000000000000000815260040160405180910390fd5b600073ffffffffffffffffffffffffffffffffffffffff168273ffffffffffffffffffffffffffffffffffffffff161415610f11576040517f3a80886f00000000000000000000000000000000000000000000000000000000815260040160405180910390fd5b6000606654905081811015610f52576040517ffe271bd100000000000000000000000000000000000000000000000000000000815260040160405180910390fd5b606c60029054906101000a900473ffffffffffffffffffffffffffffffffffffffff1673ffffffffffffffffffffffffffffffffffffffff1663a9059cbb84846040518363ffffffff1660e01b8152600401610faf9291906117f5565b602060405180830381600087803b158015610fc957600080fd5b505af1158015610fdd573d6000803e3d6000fd5b505050506040513d601f19601f8201168201806040525081019061100191906115a9565b61100a57600080fd5b816066600082825461101c91906119f9565b925050819055507fa267b5cf59cf96d97abf36d29c63cf7bdef867c208ca8575c47f2cafda39abc983836040516110549291906117f5565b60405180910390a1505050565b6000606854421061108c576000606c60006101000a81548160ff0219169083151502179055506110a8565b6001606c60006101000a81548160ff0219169083151502179055505b60695460665410156110d8576000606c60016101000a81548160ff021916908315150217905550600090506110f8565b6001606c60016101000a81548160ff021916908315150217905550600190505b90565b6000606c60019054906101000a900460ff16905090565b61111a6111c1565b600073ffffffffffffffffffffffffffffffffffffffff168173ffffffffffffffffffffffffffffffffffffffff16141561118a576040517f08c379a000000000000000000000000000000000000000000000000000000000815260040161118190611896565b60405180910390fd5b611193816112bb565b50565b60008042606854116111a95760006111b8565b426068546111b791906119f9565b5b90508091505090565b6111c9611381565b73ffffffffffffffffffffffffffffffffffffffff166111e7610a8f565b73ffffffffffffffffffffffffffffffffffffffff161461123d576040517f08c379a0000000000000000000000000000000000000000000000000000000008152600401611234906118d6565b60405180910390fd5b565b6000808273ffffffffffffffffffffffffffffffffffffffff163b119050919050565b600060019054906101000a900460ff166112b1576040517f08c379a00000000000000000000000000000000000000000000000000000000081526004016112a8906118f6565b60405180910390fd5b6112b9611389565b565b6000603360009054906101000a900473ffffffffffffffffffffffffffffffffffffffff16905081603360006101000a81548173ffffffffffffffffffffffffffffffffffffffff021916908373ffffffffffffffffffffffffffffffffffffffff1602179055508173ffffffffffffffffffffffffffffffffffffffff168173ffffffffffffffffffffffffffffffffffffffff167f8be0079c531659141344cd1fd0a4f28419497f9722a3daafe3b4186f6b6457e060405160405180910390a35050565b600033905090565b600060019054906101000a900460ff166113d8576040517f08c379a00000000000000000000000000000000000000000000000000000000081526004016113cf906118f6565b60405180910390fd5b6113e86113e3611381565b6112bb565b565b8280546113f690611ad6565b90600052602060002090601f016020900481019282611418576000855561145f565b82601f1061143157805160ff191683800117855561145f565b8280016001018555821561145f579182015b8281111561145e578251825591602001919060010190611443565b5b50905061146c9190611470565b5090565b5b80821115611489576000816000905550600101611471565b5090565b60006114a061149b84611956565b611931565b9050828152602081018484840111156114bc576114bb611bcb565b5b6114c7848285611a94565b509392505050565b6000813590506114de81611d2a565b92915050565b6000815190506114f381611d41565b92915050565b600082601f83011261150e5761150d611bc6565b5b813561151e84826020860161148d565b91505092915050565b60008135905061153681611d58565b92915050565b60006020828403121561155257611551611bd5565b5b6000611560848285016114cf565b91505092915050565b600080604083850312156115805761157f611bd5565b5b600061158e858286016114cf565b925050602061159f85828601611527565b9150509250929050565b6000602082840312156115bf576115be611bd5565b5b60006115cd848285016114e4565b91505092915050565b6000602082840312156115ec576115eb611bd5565b5b600082013567ffffffffffffffff81111561160a57611609611bd0565b5b611616848285016114f9565b91505092915050565b600080600080600060a0868803121561163b5761163a611bd5565b5b600061164988828901611527565b955050602061165a888289016114cf565b945050604061166b888289016114cf565b935050606061167c88828901611527565b925050608086013567ffffffffffffffff81111561169d5761169c611bd0565b5b6116a9888289016114f9565b9150509295509295909350565b6116bf81611a2d565b82525050565b6116ce81611a3f565b82525050565b6116dd81611a82565b82525050565b60006116ee82611987565b6116f88185611992565b9350611708818560208601611aa3565b61171181611bda565b840191505092915050565b6000611729600f83611992565b915061173482611beb565b602082019050919050565b600061174c602683611992565b915061175782611c14565b604082019050919050565b600061176f602e83611992565b915061177a82611c63565b604082019050919050565b6000611792602083611992565b915061179d82611cb2565b602082019050919050565b60006117b5602b83611992565b91506117c082611cdb565b604082019050919050565b6117d481611a6b565b82525050565b60006020820190506117ef60008301846116b6565b92915050565b600060408201905061180a60008301856116b6565b61181760208301846117cb565b9392505050565b600060208201905061183360008301846116c5565b92915050565b600060208201905061184e60008301846116d4565b92915050565b6000602082019050818103600083015261186e81846116e3565b905092915050565b6000602082019050818103600083015261188f8161171c565b9050919050565b600060208201905081810360008301526118af8161173f565b9050919050565b600060208201905081810360008301526118cf81611762565b9050919050565b600060208201905081810360008301526118ef81611785565b9050919050565b6000602082019050818103600083015261190f816117a8565b9050919050565b600060208201905061192b60008301846117cb565b92915050565b600061193b61194c565b90506119478282611b08565b919050565b6000604051905090565b600067ffffffffffffffff82111561197157611970611b97565b5b61197a82611bda565b9050602081019050919050565b600081519050919050565b600082825260208201905092915050565b60006119ae82611a6b565b91506119b983611a6b565b9250827fffffffffffffffffffffffffffffffffffffffffffffffffffffffffffffffff038211156119ee576119ed611b39565b5b828201905092915050565b6000611a0482611a6b565b9150611a0f83611a6b565b925082821015611a2257611a21611b39565b5b828203905092915050565b6000611a3882611a4b565b9050919050565b60008115159050919050565b600073ffffffffffffffffffffffffffffffffffffffff82169050919050565b6000819050919050565b600060ff82169050919050565b6000611a8d82611a75565b9050919050565b82818337600083830152505050565b60005b83811015611ac1578082015181840152602081019050611aa6565b83811115611ad0576000848401525b50505050565b60006002820490506001821680611aee57607f821691505b60208210811415611b0257611b01611b68565b5b50919050565b611b1182611bda565b810181811067ffffffffffffffff82111715611b3057611b2f611b97565b5b80604052505050565b7f4e487b7100000000000000000000000000000000000000000000000000000000600052601160045260246000fd5b7f4e487b7100000000000000000000000000000000000000000000000000000000600052602260045260246000fd5b7f4e487b7100000000000000000000000000000000000000000000000000000000600052604160045260246000fd5b600080fd5b600080fd5b600080fd5b600080fd5b6000601f19601f8301169050919050565b7f496e76616c696420616464726573730000000000000000000000000000000000600082015250565b7f4f776e61626c653a206e6577206f776e657220697320746865207a65726f206160008201527f6464726573730000000000000000000000000000000000000000000000000000602082015250565b7f496e697469616c697a61626c653a20636f6e747261637420697320616c72656160008201527f647920696e697469616c697a6564000000000000000000000000000000000000602082015250565b7f4f776e61626c653a2063616c6c6572206973206e6f7420746865206f776e6572600082015250565b7f496e697469616c697a61626c653a20636f6e7472616374206973206e6f74206960008201527f6e697469616c697a696e67000000000000000000000000000000000000000000602082015250565b611d3381611a2d565b8114611d3e57600080fd5b50565b611d4a81611a3f565b8114611d5557600080fd5b50565b611d6181611a6b565b8114611d6c57600080fd5b5056fea2646970667358221220e3fa9c754b04415e883586a094a8b27d46e3ad7a61fc962cefda0f106fe1033a64736f6c63430008070033",
  "linkReferences": {},
  "deployedLinkReferences": {}
}