{
  "_format": "hh-sol-artifact-1",
  "contractName": "CampaignManager",
  "sourceName": "contracts/CampaignManager.sol",
  "abi": [
    {
      "inputs": [
        {
          "internalType": "address",
          "name": "_campaignFactory",
          "type": "address"
        },
        {
          "internalType": "address",
          "name": "_stableTokenAddress",
          "type": "address"
        }
      ],
      "stateMutability": "nonpayable",
      "type": "constructor"
    },
    {
      "inputs": [],
      "name": "CampaignManager__AmountIsZero",
      "type": "error"
    },
    {
      "inputs": [],
      "name": "CampaignManager__CampaignDoesNotExist",
      "type": "error"
    },
    {
      "inputs": [],
      "name": "CampaignManager__NoTokenPoolIsDefined",
      "type": "error"
    },
    {
      "inputs": [],
      "name": "CampaignManager__TokenPoolAlreadyDefined",
      "type": "error"
    },
    {
      "inputs": [],
      "name": "OnlySimulatedBackend",
      "type": "error"
    },
    {
      "anonymous": false,
      "inputs": [
        {
          "indexed": true,
          "internalType": "address",
          "name": "campaign",
          "type": "address"
        },
        {
          "indexed": false,
          "internalType": "uint256",
          "name": "funds",
          "type": "uint256"
        }
      ],
      "name": "CampaignFinished",
      "type": "event"
    },
    {
      "anonymous": false,
      "inputs": [
        {
          "indexed": true,
          "internalType": "address",
          "name": "contributor",
          "type": "address"
        },
        {
          "indexed": true,
          "internalType": "uint256",
          "name": "amount",
          "type": "uint256"
        },
        {
          "indexed": true,
          "internalType": "address",
          "name": "campaign",
          "type": "address"
        }
      ],
      "name": "ContributorsUpdated",
      "type": "event"
    },
    {
      "anonymous": false,
      "inputs": [
        {
          "indexed": false,
          "internalType": "uint256",
          "name": "newFee",
          "type": "uint256"
        }
      ],
      "name": "FeesUpdated",
      "type": "event"
    },
    {
      "anonymous": false,
      "inputs": [
        {
          "indexed": false,
          "internalType": "address",
          "name": "newCampaign",
          "type": "address"
        },
        {
          "indexed": false,
          "internalType": "uint256",
          "name": "duration",
          "type": "uint256"
        }
      ],
      "name": "NewCampaignCreated",
      "type": "event"
    },
    {
      "anonymous": false,
      "inputs": [
        {
          "indexed": true,
          "internalType": "address",
          "name": "previousOwner",
          "type": "address"
        },
        {
          "indexed": true,
          "internalType": "address",
          "name": "newOwner",
          "type": "address"
        }
      ],
      "name": "OwnershipTransferred",
      "type": "event"
    },
    {
      "inputs": [
        {
          "internalType": "uint256",
          "name": "_amount",
          "type": "uint256"
        }
      ],
      "name": "calculateFees",
      "outputs": [
        {
          "internalType": "uint256",
          "name": "_fees",
          "type": "uint256"
        }
      ],
      "stateMutability": "view",
      "type": "function"
    },
    {
      "inputs": [
        {
          "internalType": "bytes",
          "name": "",
          "type": "bytes"
        }
      ],
      "name": "checkUpkeep",
      "outputs": [
        {
          "internalType": "bool",
          "name": "upkeepNeeded",
          "type": "bool"
        },
        {
          "internalType": "bytes",
          "name": "performData",
          "type": "bytes"
        }
      ],
      "stateMutability": "view",
      "type": "function"
    },
    {
      "inputs": [
        {
          "internalType": "uint256",
          "name": "_amount",
          "type": "uint256"
        },
        {
          "internalType": "address",
          "name": "_campaignAddress",
          "type": "address"
        }
      ],
      "name": "contributeCampaign",
      "outputs": [],
      "stateMutability": "nonpayable",
      "type": "function"
    },
    {
      "inputs": [
        {
          "internalType": "uint256",
          "name": "_deadline",
          "type": "uint256"
        }
      ],
      "name": "createNewCampaign",
      "outputs": [],
      "stateMutability": "nonpayable",
      "type": "function"
    },
    {
      "inputs": [],
      "name": "getActiveCampaigns",
      "outputs": [
        {
          "internalType": "address[]",
          "name": "",
          "type": "address[]"
        }
      ],
      "stateMutability": "view",
      "type": "function"
    },
    {
      "inputs": [],
      "name": "getFees",
      "outputs": [
        {
          "internalType": "uint256",
          "name": "",
          "type": "uint256"
        }
      ],
      "stateMutability": "view",
      "type": "function"
    },
    {
      "inputs": [],
      "name": "owner",
      "outputs": [
        {
          "internalType": "address",
          "name": "",
          "type": "address"
        }
      ],
      "stateMutability": "view",
      "type": "function"
    },
    {
      "inputs": [
        {
          "internalType": "bytes",
          "name": "performData",
          "type": "bytes"
        }
      ],
      "name": "performUpkeep",
      "outputs": [],
      "stateMutability": "nonpayable",
      "type": "function"
    },
    {
      "inputs": [],
      "name": "renounceOwnership",
      "outputs": [],
      "stateMutability": "nonpayable",
      "type": "function"
    },
    {
      "inputs": [
        {
          "internalType": "uint256",
          "name": "_newFees",
          "type": "uint256"
        }
      ],
      "name": "setFees",
      "outputs": [],
      "stateMutability": "nonpayable",
      "type": "function"
    },
    {
      "inputs": [
        {
          "internalType": "address",
          "name": "_newAddress",
          "type": "address"
        }
      ],
      "name": "setTokenPoolAddress",
      "outputs": [],
      "stateMutability": "nonpayable",
      "type": "function"
    },
    {
      "inputs": [
        {
          "internalType": "address",
          "name": "newOwner",
          "type": "address"
        }
      ],
      "name": "transferOwnership",
      "outputs": [],
      "stateMutability": "nonpayable",
      "type": "function"
    }
  ],
  "bytecode": "0x60806040523480156200001157600080fd5b506040516200203e3803806200203e8339818101604052810190620000379190620001c4565b620000576200004b620000e160201b60201c565b620000e960201b60201c565b81600160006101000a81548173ffffffffffffffffffffffffffffffffffffffff021916908373ffffffffffffffffffffffffffffffffffffffff16021790555080600360006101000a81548173ffffffffffffffffffffffffffffffffffffffff021916908373ffffffffffffffffffffffffffffffffffffffff16021790555050506200025e565b600033905090565b60008060009054906101000a900473ffffffffffffffffffffffffffffffffffffffff169050816000806101000a81548173ffffffffffffffffffffffffffffffffffffffff021916908373ffffffffffffffffffffffffffffffffffffffff1602179055508173ffffffffffffffffffffffffffffffffffffffff168173ffffffffffffffffffffffffffffffffffffffff167f8be0079c531659141344cd1fd0a4f28419497f9722a3daafe3b4186f6b6457e060405160405180910390a35050565b600081519050620001be8162000244565b92915050565b60008060408385031215620001de57620001dd6200023f565b5b6000620001ee85828601620001ad565b92505060206200020185828601620001ad565b9150509250929050565b600062000218826200021f565b9050919050565b600073ffffffffffffffffffffffffffffffffffffffff82169050919050565b600080fd5b6200024f816200020b565b81146200025b57600080fd5b50565b611dd0806200026e6000396000f3fe608060405234801561001057600080fd5b50600436106100b45760003560e01c80638da5cb5b116100715780638da5cb5b14610178578063c088c86714610196578063c362b156146101b2578063db8d55f1146101d0578063f03cb74b146101ee578063f2fde38b1461020a576100b4565b80633d18678e146100b95780634585e33b146100d557806352238fdd146100f157806366661cc5146101215780636e04ff0d1461013d578063715018a61461016e575b600080fd5b6100d360048036038101906100ce919061160c565b610226565b005b6100ef60048036038101906100ea91906115bf565b610271565b005b61010b6004803603810190610106919061160c565b6106da565b60405161011891906118ad565b60405180910390f35b61013b6004803603810190610136919061160c565b6106fe565b005b610157600480360381019061015291906115bf565b6108f5565b60405161016592919061183d565b60405180910390f35b610176610abc565b005b610180610ad0565b60405161018d91906117d7565b60405180910390f35b6101b060048036038101906101ab9190611666565b610af9565b005b6101ba610d93565b6040516101c7919061181b565b60405180910390f35b6101d8610e21565b6040516101e591906118ad565b60405180910390f35b610208600480360381019061020391906114ef565b610e2b565b005b610224600480360381019061021f91906114ef565b610e9a565b005b61022e610f1e565b806002819055507f9fe6eeb0f0541c644a56c67efeb872dbadd803a60b909d7dde1b35a3fe230b0e60025460405161026691906118ad565b60405180910390a150565b60008282810190610282919061160c565b90506000816005805490506102979190611ace565b67ffffffffffffffff8111156102b0576102af611c84565b5b6040519080825280602002602001820160405280156102de5781602001602082028036833780820191505090505b509050600080600580548060200260200160405190810160405280929190818152602001828054801561036657602002820191906000526020600020905b8160009054906101000a900473ffffffffffffffffffffffffffffffffffffffff1673ffffffffffffffffffffffffffffffffffffffff168152602001906001019080831161031c575b5050505050905060005b81518110156106ba57600082828151811061038e5761038d611c55565b5b6020026020010151905060008173ffffffffffffffffffffffffffffffffffffffff1663b13564886040518163ffffffff1660e01b815260040160206040518083038186803b1580156103e057600080fd5b505afa1580156103f4573d6000803e3d6000fd5b505050506040513d601f19601f820116820180604052508101906104189190611639565b905060008273ffffffffffffffffffffffffffffffffffffffff1663636d6c9d6040518163ffffffff1660e01b815260040160206040518083038186803b15801561046257600080fd5b505afa158015610476573d6000803e3d6000fd5b505050506040513d601f19601f8201168201806040525081019061049a9190611592565b90508142101580156104a95750805b1561062c578273ffffffffffffffffffffffffffffffffffffffff1663ebae46be6040518163ffffffff1660e01b8152600401600060405180830381600087803b1580156104f657600080fd5b505af115801561050a573d6000803e3d6000fd5b5050505060008373ffffffffffffffffffffffffffffffffffffffff1663c4e41b226040518163ffffffff1660e01b815260040160206040518083038186803b15801561055657600080fd5b505afa15801561056a573d6000803e3d6000fd5b505050506040513d601f19601f8201168201806040525081019061058e9190611639565b905060008111156105be576105bd818787815181106105b0576105af611c55565b5b6020026020010151610f9c565b5b8585815181106105d1576105d0611c55565b5b602002602001015173ffffffffffffffffffffffffffffffffffffffff167fa85ac7d62649cc2726b112fc359349a7791739466033858786c160854ba90dfb8260405161061e91906118ad565b60405180910390a2506106a4565b84848151811061063f5761063e611c55565b5b602002602001015187878151811061065a57610659611c55565b5b602002602001019073ffffffffffffffffffffffffffffffffffffffff16908173ffffffffffffffffffffffffffffffffffffffff16815250506001866106a191906119ed565b95505b50505080806106b290611bae565b915050610370565b5082600590805190602001906106d19291906112eb565b50505050505050565b6000612710600254836106ed9190611a74565b6106f79190611a43565b9050919050565b600160009054906101000a900473ffffffffffffffffffffffffffffffffffffffff1673ffffffffffffffffffffffffffffffffffffffff16638e64be168233600360009054906101000a900473ffffffffffffffffffffffffffffffffffffffff166040518463ffffffff1660e01b815260040161077f939291906118c8565b600060405180830381600087803b15801561079957600080fd5b505af11580156107ad573d6000803e3d6000fd5b505050506000600160009054906101000a900473ffffffffffffffffffffffffffffffffffffffff1673ffffffffffffffffffffffffffffffffffffffff1663bd4b63dd6040518163ffffffff1660e01b815260040160206040518083038186803b15801561081b57600080fd5b505afa15801561082f573d6000803e3d6000fd5b505050506040513d601f19601f82011682018060405250810190610853919061151c565b90506005819080600181540180825580915050600190039060005260206000200160009091909190916101000a81548173ffffffffffffffffffffffffffffffffffffffff021916908373ffffffffffffffffffffffffffffffffffffffff1602179055507f34f5d2a9569e43b69e468b45005e7086a8e49cd01087306ceb30f8cc24e04f9781836040516108e99291906117f2565b60405180910390a15050565b60006060600091506000805b600580549050811015610a915760006005828154811061092457610923611c55565b5b9060005260206000200160009054906101000a900473ffffffffffffffffffffffffffffffffffffffff16905060008173ffffffffffffffffffffffffffffffffffffffff1663b13564886040518163ffffffff1660e01b815260040160206040518083038186803b15801561099957600080fd5b505afa1580156109ad573d6000803e3d6000fd5b505050506040513d601f19601f820116820180604052508101906109d19190611639565b905060008273ffffffffffffffffffffffffffffffffffffffff1663636d6c9d6040518163ffffffff1660e01b815260040160206040518083038186803b158015610a1b57600080fd5b505afa158015610a2f573d6000803e3d6000fd5b505050506040513d601f19601f82011682018060405250810190610a539190611592565b9050814210158015610a625750805b15610a7b5760019650600185610a7891906119ed565b94505b5050508080610a8990611bae565b915050610901565b5080604051602001610aa391906118ad565b6040516020818303038152906040529150509250929050565b610ac4610f1e565b610ace60006110b8565b565b60008060009054906101000a900473ffffffffffffffffffffffffffffffffffffffff16905090565b816000811415610b35576040517f52c9e25e00000000000000000000000000000000000000000000000000000000815260040160405180910390fd5b816000600160009054906101000a900473ffffffffffffffffffffffffffffffffffffffff1673ffffffffffffffffffffffffffffffffffffffff16638871dc886040518163ffffffff1660e01b815260040160006040518083038186803b158015610ba057600080fd5b505afa158015610bb4573d6000803e3d6000fd5b505050506040513d6000823e3d601f19601f82011682018060405250810190610bdd9190611549565b9050600080600090505b8251811015610c5a578373ffffffffffffffffffffffffffffffffffffffff16838281518110610c1a57610c19611c55565b5b602002602001015173ffffffffffffffffffffffffffffffffffffffff161415610c475760019150610c5a565b8080610c5290611bae565b915050610be7565b50600015158115151415610c9a576040517fd3e706df00000000000000000000000000000000000000000000000000000000815260040160405180910390fd5b60008590506000610caa886106da565b90508173ffffffffffffffffffffffffffffffffffffffff1663e0bd7d1533838b610cd59190611ace565b6040518363ffffffff1660e01b8152600401610cf29291906117f2565b600060405180830381600087803b158015610d0c57600080fd5b505af1158015610d20573d6000803e3d6000fd5b50505050610d2e888261117c565b8673ffffffffffffffffffffffffffffffffffffffff16883373ffffffffffffffffffffffffffffffffffffffff167fdb364312c6ad49227bda6a781eaa0e75a1f5b4c5ba947db13a9392830fe36e9160405160405180910390a45050505050505050565b60606005805480602002602001604051908101604052809291908181526020018280548015610e1757602002820191906000526020600020905b8160009054906101000a900473ffffffffffffffffffffffffffffffffffffffff1673ffffffffffffffffffffffffffffffffffffffff1681526020019060010190808311610dcd575b5050505050905090565b6000600254905090565b610e33610f1e565b610e3b61129a565b6001600460146101000a81548160ff02191690831515021790555080600460006101000a81548173ffffffffffffffffffffffffffffffffffffffff021916908373ffffffffffffffffffffffffffffffffffffffff16021790555050565b610ea2610f1e565b600073ffffffffffffffffffffffffffffffffffffffff168173ffffffffffffffffffffffffffffffffffffffff161415610f12576040517f08c379a0000000000000000000000000000000000000000000000000000000008152600401610f099061186d565b60405180910390fd5b610f1b816110b8565b50565b610f266112e3565b73ffffffffffffffffffffffffffffffffffffffff16610f44610ad0565b73ffffffffffffffffffffffffffffffffffffffff1614610f9a576040517f08c379a0000000000000000000000000000000000000000000000000000000008152600401610f919061188d565b60405180910390fd5b565b600073ffffffffffffffffffffffffffffffffffffffff16600460009054906101000a900473ffffffffffffffffffffffffffffffffffffffff1673ffffffffffffffffffffffffffffffffffffffff161415611025576040517fab9bf64900000000000000000000000000000000000000000000000000000000815260040160405180910390fd5b600460009054906101000a900473ffffffffffffffffffffffffffffffffffffffff1673ffffffffffffffffffffffffffffffffffffffff16631c5e2fd782846040518363ffffffff1660e01b81526004016110829291906117f2565b600060405180830381600087803b15801561109c57600080fd5b505af11580156110b0573d6000803e3d6000fd5b505050505050565b60008060009054906101000a900473ffffffffffffffffffffffffffffffffffffffff169050816000806101000a81548173ffffffffffffffffffffffffffffffffffffffff021916908373ffffffffffffffffffffffffffffffffffffffff1602179055508173ffffffffffffffffffffffffffffffffffffffff168173ffffffffffffffffffffffffffffffffffffffff167f8be0079c531659141344cd1fd0a4f28419497f9722a3daafe3b4186f6b6457e060405160405180910390a35050565b600073ffffffffffffffffffffffffffffffffffffffff16600460009054906101000a900473ffffffffffffffffffffffffffffffffffffffff1673ffffffffffffffffffffffffffffffffffffffff161415611205576040517fab9bf64900000000000000000000000000000000000000000000000000000000815260040160405180910390fd5b600460009054906101000a900473ffffffffffffffffffffffffffffffffffffffff1673ffffffffffffffffffffffffffffffffffffffff16634c51951c8383336040518463ffffffff1660e01b8152600401611264939291906118ff565b600060405180830381600087803b15801561127e57600080fd5b505af1158015611292573d6000803e3d6000fd5b505050505050565b600460149054906101000a900460ff16156112e1576040517fd42863e400000000000000000000000000000000000000000000000000000000815260040160405180910390fd5b565b600033905090565b828054828255906000526020600020908101928215611364579160200282015b828111156113635782518260006101000a81548173ffffffffffffffffffffffffffffffffffffffff021916908373ffffffffffffffffffffffffffffffffffffffff1602179055509160200191906001019061130b565b5b5090506113719190611375565b5090565b5b8082111561138e576000816000905550600101611376565b5090565b60006113a56113a08461195b565b611936565b905080838252602082019050828560208602820111156113c8576113c7611cbd565b5b60005b858110156113f857816113de8882611417565b8452602084019350602083019250506001810190506113cb565b5050509392505050565b60008135905061141181611d55565b92915050565b60008151905061142681611d55565b92915050565b600082601f83011261144157611440611cb8565b5b8151611451848260208601611392565b91505092915050565b60008151905061146981611d6c565b92915050565b60008083601f84011261148557611484611cb8565b5b8235905067ffffffffffffffff8111156114a2576114a1611cb3565b5b6020830191508360018202830111156114be576114bd611cbd565b5b9250929050565b6000813590506114d481611d83565b92915050565b6000815190506114e981611d83565b92915050565b60006020828403121561150557611504611cc7565b5b600061151384828501611402565b91505092915050565b60006020828403121561153257611531611cc7565b5b600061154084828501611417565b91505092915050565b60006020828403121561155f5761155e611cc7565b5b600082015167ffffffffffffffff81111561157d5761157c611cc2565b5b6115898482850161142c565b91505092915050565b6000602082840312156115a8576115a7611cc7565b5b60006115b68482850161145a565b91505092915050565b600080602083850312156115d6576115d5611cc7565b5b600083013567ffffffffffffffff8111156115f4576115f3611cc2565b5b6116008582860161146f565b92509250509250929050565b60006020828403121561162257611621611cc7565b5b6000611630848285016114c5565b91505092915050565b60006020828403121561164f5761164e611cc7565b5b600061165d848285016114da565b91505092915050565b6000806040838503121561167d5761167c611cc7565b5b600061168b858286016114c5565b925050602061169c85828601611402565b9150509250929050565b60006116b283836116be565b60208301905092915050565b6116c781611b02565b82525050565b6116d681611b02565b82525050565b60006116e782611997565b6116f181856119ba565b93506116fc83611987565b8060005b8381101561172d57815161171488826116a6565b975061171f836119ad565b925050600181019050611700565b5085935050505092915050565b61174381611b14565b82525050565b6000611754826119a2565b61175e81856119cb565b935061176e818560208601611b4a565b61177781611ccc565b840191505092915050565b600061178f6026836119dc565b915061179a82611cdd565b604082019050919050565b60006117b26020836119dc565b91506117bd82611d2c565b602082019050919050565b6117d181611b40565b82525050565b60006020820190506117ec60008301846116cd565b92915050565b600060408201905061180760008301856116cd565b61181460208301846117c8565b9392505050565b6000602082019050818103600083015261183581846116dc565b905092915050565b6000604082019050611852600083018561173a565b81810360208301526118648184611749565b90509392505050565b6000602082019050818103600083015261188681611782565b9050919050565b600060208201905081810360008301526118a6816117a5565b9050919050565b60006020820190506118c260008301846117c8565b92915050565b60006060820190506118dd60008301866117c8565b6118ea60208301856116cd565b6118f760408301846116cd565b949350505050565b600060608201905061191460008301866117c8565b61192160208301856117c8565b61192e60408301846116cd565b949350505050565b6000611940611951565b905061194c8282611b7d565b919050565b6000604051905090565b600067ffffffffffffffff82111561197657611975611c84565b5b602082029050602081019050919050565b6000819050602082019050919050565b600081519050919050565b600081519050919050565b6000602082019050919050565b600082825260208201905092915050565b600082825260208201905092915050565b600082825260208201905092915050565b60006119f882611b40565b9150611a0383611b40565b9250827fffffffffffffffffffffffffffffffffffffffffffffffffffffffffffffffff03821115611a3857611a37611bf7565b5b828201905092915050565b6000611a4e82611b40565b9150611a5983611b40565b925082611a6957611a68611c26565b5b828204905092915050565b6000611a7f82611b40565b9150611a8a83611b40565b9250817fffffffffffffffffffffffffffffffffffffffffffffffffffffffffffffffff0483118215151615611ac357611ac2611bf7565b5b828202905092915050565b6000611ad982611b40565b9150611ae483611b40565b925082821015611af757611af6611bf7565b5b828203905092915050565b6000611b0d82611b20565b9050919050565b60008115159050919050565b600073ffffffffffffffffffffffffffffffffffffffff82169050919050565b6000819050919050565b60005b83811015611b68578082015181840152602081019050611b4d565b83811115611b77576000848401525b50505050565b611b8682611ccc565b810181811067ffffffffffffffff82111715611ba557611ba4611c84565b5b80604052505050565b6000611bb982611b40565b91507fffffffffffffffffffffffffffffffffffffffffffffffffffffffffffffffff821415611bec57611beb611bf7565b5b600182019050919050565b7f4e487b7100000000000000000000000000000000000000000000000000000000600052601160045260246000fd5b7f4e487b7100000000000000000000000000000000000000000000000000000000600052601260045260246000fd5b7f4e487b7100000000000000000000000000000000000000000000000000000000600052603260045260246000fd5b7f4e487b7100000000000000000000000000000000000000000000000000000000600052604160045260246000fd5b600080fd5b600080fd5b600080fd5b600080fd5b600080fd5b6000601f19601f8301169050919050565b7f4f776e61626c653a206e6577206f776e657220697320746865207a65726f206160008201527f6464726573730000000000000000000000000000000000000000000000000000602082015250565b7f4f776e61626c653a2063616c6c6572206973206e6f7420746865206f776e6572600082015250565b611d5e81611b02565b8114611d6957600080fd5b50565b611d7581611b14565b8114611d8057600080fd5b50565b611d8c81611b40565b8114611d9757600080fd5b5056fea26469706673582212203733e19ba554ab81d03824b5315cf0cf65ec8722b42d88becab0fdbee4fc4f3264736f6c63430008070033",
  "linkReferences": {},
  "deployedLinkReferences": {}
}