{
  "_format": "hh-sol-artifact-1",
  "contractName": "CampaignManager",
  "sourceName": "contracts/CampaignManager.sol",
  "abi": [
    {
      "inputs": [
        {
          "internalType": "address",
          "name": "_campaignFactory",
          "type": "address"
        },
        {
          "internalType": "address",
          "name": "_stableTokenAddress",
          "type": "address"
        }
      ],
      "stateMutability": "nonpayable",
      "type": "constructor"
    },
    {
      "inputs": [],
      "name": "CampaignManager__AmountIsZero",
      "type": "error"
    },
    {
      "inputs": [],
      "name": "CampaignManager__CampaignDoesNotExist",
      "type": "error"
    },
    {
      "inputs": [],
      "name": "CampaignManager__NoTokenPoolIsDefined",
      "type": "error"
    },
    {
      "inputs": [],
      "name": "CampaignManager__TokenPoolAlreadyDefined",
      "type": "error"
    },
    {
      "inputs": [],
      "name": "OnlySimulatedBackend",
      "type": "error"
    },
    {
      "anonymous": false,
      "inputs": [
        {
          "indexed": true,
          "internalType": "address",
          "name": "campaign",
          "type": "address"
        },
        {
          "indexed": false,
          "internalType": "uint256",
          "name": "funds",
          "type": "uint256"
        },
        {
          "indexed": false,
          "internalType": "bool",
          "name": "successful",
          "type": "bool"
        }
      ],
      "name": "CampaignFinished",
      "type": "event"
    },
    {
      "anonymous": false,
      "inputs": [
        {
          "indexed": true,
          "internalType": "address",
          "name": "contributor",
          "type": "address"
        },
        {
          "indexed": true,
          "internalType": "uint256",
          "name": "amount",
          "type": "uint256"
        },
        {
          "indexed": true,
          "internalType": "address",
          "name": "campaign",
          "type": "address"
        }
      ],
      "name": "ContributorsUpdated",
      "type": "event"
    },
    {
      "anonymous": false,
      "inputs": [
        {
          "indexed": false,
          "internalType": "uint256",
          "name": "newFee",
          "type": "uint256"
        }
      ],
      "name": "FeesUpdated",
      "type": "event"
    },
    {
      "anonymous": false,
      "inputs": [
        {
          "indexed": false,
          "internalType": "address",
          "name": "newCampaign",
          "type": "address"
        },
        {
          "indexed": false,
          "internalType": "uint256",
          "name": "duration",
          "type": "uint256"
        }
      ],
      "name": "NewCampaignCreated",
      "type": "event"
    },
    {
      "anonymous": false,
      "inputs": [
        {
          "indexed": true,
          "internalType": "address",
          "name": "previousOwner",
          "type": "address"
        },
        {
          "indexed": true,
          "internalType": "address",
          "name": "newOwner",
          "type": "address"
        }
      ],
      "name": "OwnershipTransferred",
      "type": "event"
    },
    {
      "anonymous": false,
      "inputs": [
        {
          "indexed": true,
          "internalType": "address",
          "name": "contributor",
          "type": "address"
        },
        {
          "indexed": true,
          "internalType": "uint256",
          "name": "totalAmount",
          "type": "uint256"
        }
      ],
      "name": "TokenTransferedToContributor",
      "type": "event"
    },
    {
      "inputs": [
        {
          "internalType": "uint256",
          "name": "_amount",
          "type": "uint256"
        }
      ],
      "name": "calculateFees",
      "outputs": [
        {
          "internalType": "uint256",
          "name": "_fees",
          "type": "uint256"
        }
      ],
      "stateMutability": "view",
      "type": "function"
    },
    {
      "inputs": [
        {
          "internalType": "bytes",
          "name": "",
          "type": "bytes"
        }
      ],
      "name": "checkUpkeep",
      "outputs": [
        {
          "internalType": "bool",
          "name": "upkeepNeeded",
          "type": "bool"
        },
        {
          "internalType": "bytes",
          "name": "performData",
          "type": "bytes"
        }
      ],
      "stateMutability": "view",
      "type": "function"
    },
    {
      "inputs": [
        {
          "internalType": "address[]",
          "name": "_campaignAddresses",
          "type": "address[]"
        }
      ],
      "name": "claimTokensFromUnsuccessfulCampaigns",
      "outputs": [],
      "stateMutability": "nonpayable",
      "type": "function"
    },
    {
      "inputs": [
        {
          "internalType": "uint256",
          "name": "_amount",
          "type": "uint256"
        },
        {
          "internalType": "address",
          "name": "_campaignAddress",
          "type": "address"
        }
      ],
      "name": "contributeCampaign",
      "outputs": [],
      "stateMutability": "nonpayable",
      "type": "function"
    },
    {
      "inputs": [
        {
          "internalType": "uint256",
          "name": "_deadline",
          "type": "uint256"
        },
        {
          "internalType": "uint256",
          "name": "_minAmount",
          "type": "uint256"
        },
        {
          "internalType": "string",
          "name": "_campaignURI",
          "type": "string"
        }
      ],
      "name": "createNewCampaign",
      "outputs": [],
      "stateMutability": "nonpayable",
      "type": "function"
    },
    {
      "inputs": [],
      "name": "getActiveCampaigns",
      "outputs": [
        {
          "internalType": "address[]",
          "name": "",
          "type": "address[]"
        }
      ],
      "stateMutability": "view",
      "type": "function"
    },
    {
      "inputs": [],
      "name": "getFees",
      "outputs": [
        {
          "internalType": "uint256",
          "name": "",
          "type": "uint256"
        }
      ],
      "stateMutability": "view",
      "type": "function"
    },
    {
      "inputs": [],
      "name": "getStableTokenAddress",
      "outputs": [
        {
          "internalType": "address",
          "name": "",
          "type": "address"
        }
      ],
      "stateMutability": "view",
      "type": "function"
    },
    {
      "inputs": [],
      "name": "owner",
      "outputs": [
        {
          "internalType": "address",
          "name": "",
          "type": "address"
        }
      ],
      "stateMutability": "view",
      "type": "function"
    },
    {
      "inputs": [
        {
          "internalType": "bytes",
          "name": "performData",
          "type": "bytes"
        }
      ],
      "name": "performUpkeep",
      "outputs": [],
      "stateMutability": "nonpayable",
      "type": "function"
    },
    {
      "inputs": [],
      "name": "renounceOwnership",
      "outputs": [],
      "stateMutability": "nonpayable",
      "type": "function"
    },
    {
      "inputs": [
        {
          "internalType": "uint256",
          "name": "_newFees",
          "type": "uint256"
        }
      ],
      "name": "setFees",
      "outputs": [],
      "stateMutability": "nonpayable",
      "type": "function"
    },
    {
      "inputs": [
        {
          "internalType": "address",
          "name": "_newAddress",
          "type": "address"
        }
      ],
      "name": "setTokenPoolAddress",
      "outputs": [],
      "stateMutability": "nonpayable",
      "type": "function"
    },
    {
      "inputs": [
        {
          "internalType": "address",
          "name": "newOwner",
          "type": "address"
        }
      ],
      "name": "transferOwnership",
      "outputs": [],
      "stateMutability": "nonpayable",
      "type": "function"
    }
  ],
  "bytecode": "0x60806040523480156200001157600080fd5b50604051620028f3380380620028f38339818101604052810190620000379190620001c4565b620000576200004b620000e160201b60201c565b620000e960201b60201c565b81600160006101000a81548173ffffffffffffffffffffffffffffffffffffffff021916908373ffffffffffffffffffffffffffffffffffffffff16021790555080600360006101000a81548173ffffffffffffffffffffffffffffffffffffffff021916908373ffffffffffffffffffffffffffffffffffffffff16021790555050506200025e565b600033905090565b60008060009054906101000a900473ffffffffffffffffffffffffffffffffffffffff169050816000806101000a81548173ffffffffffffffffffffffffffffffffffffffff021916908373ffffffffffffffffffffffffffffffffffffffff1602179055508173ffffffffffffffffffffffffffffffffffffffff168173ffffffffffffffffffffffffffffffffffffffff167f8be0079c531659141344cd1fd0a4f28419497f9722a3daafe3b4186f6b6457e060405160405180910390a35050565b600081519050620001be8162000244565b92915050565b60008060408385031215620001de57620001dd6200023f565b5b6000620001ee85828601620001ad565b92505060206200020185828601620001ad565b9150509250929050565b600062000218826200021f565b9050919050565b600073ffffffffffffffffffffffffffffffffffffffff82169050919050565b600080fd5b6200024f816200020b565b81146200025b57600080fd5b50565b612685806200026e6000396000f3fe608060405234801561001057600080fd5b50600436106100ea5760003560e01c80638da5cb5b1161008c578063c362b15611610066578063c362b15614610222578063db8d55f114610240578063f03cb74b1461025e578063f2fde38b1461027a576100ea565b80638da5cb5b146101cc578063b4c97e13146101ea578063c088c86714610206576100ea565b80635eaf2ea7116100c85780635eaf2ea7146101575780636e04ff0d14610175578063715018a6146101a65780637e90b497146101b0576100ea565b80633d18678e146100ef5780634585e33b1461010b57806352238fdd14610127575b600080fd5b61010960048036038101906101049190611d2b565b610296565b005b61012560048036038101906101209190611cde565b6102e1565b005b610141600480360381019061013c9190611d2b565b6107a3565b60405161014e91906120ab565b60405180910390f35b61015f6107c7565b60405161016c9190611f9e565b60405180910390f35b61018f600480360381019061018a9190611cde565b6107f1565b60405161019d92919061203b565b60405180910390f35b6101ae6109b8565b005b6101ca60048036038101906101c59190611c1f565b6109cc565b005b6101d4610ab7565b6040516101e19190611f9e565b60405180910390f35b61020460048036038101906101ff9190611dc5565b610ae0565b005b610220600480360381019061021b9190611d85565b610cdd565b005b61022a611241565b6040516102379190612019565b60405180910390f35b6102486112cf565b60405161025591906120ab565b60405180910390f35b61027860048036038101906102739190611bc5565b6112d9565b005b610294600480360381019061028f9190611bc5565b611348565b005b61029e6113cc565b806002819055507f9fe6eeb0f0541c644a56c67efeb872dbadd803a60b909d7dde1b35a3fe230b0e6002546040516102d691906120ab565b60405180910390a150565b600082828101906102f29190611d2b565b9050600081600580549050610307919061236f565b67ffffffffffffffff8111156103205761031f612534565b5b60405190808252806020026020018201604052801561034e5781602001602082028036833780820191505090505b50905060008060058054806020026020016040519081016040528092919081815260200182805480156103d657602002820191906000526020600020905b8160009054906101000a900473ffffffffffffffffffffffffffffffffffffffff1673ffffffffffffffffffffffffffffffffffffffff168152602001906001019080831161038c575b5050505050905060005b81518110156107835760008282815181106103fe576103fd612505565b5b6020026020010151905060008173ffffffffffffffffffffffffffffffffffffffff1663b13564886040518163ffffffff1660e01b815260040160206040518083038186803b15801561045057600080fd5b505afa158015610464573d6000803e3d6000fd5b505050506040513d601f19601f820116820180604052508101906104889190611d58565b905060008273ffffffffffffffffffffffffffffffffffffffff1663636d6c9d6040518163ffffffff1660e01b815260040160206040518083038186803b1580156104d257600080fd5b505afa1580156104e6573d6000803e3d6000fd5b505050506040513d601f19601f8201168201806040525081019061050a9190611cb1565b90508142101580156105195750805b156106f55760008373ffffffffffffffffffffffffffffffffffffffff1663ebae46be6040518163ffffffff1660e01b8152600401602060405180830381600087803b15801561056857600080fd5b505af115801561057c573d6000803e3d6000fd5b505050506040513d601f19601f820116820180604052508101906105a09190611cb1565b905060008473ffffffffffffffffffffffffffffffffffffffff1663c4e41b226040518163ffffffff1660e01b815260040160206040518083038186803b1580156105ea57600080fd5b505afa1580156105fe573d6000803e3d6000fd5b505050506040513d601f19601f820116820180604052508101906106229190611d58565b90506000811180156106315750815b1561065f5761065a8188888151811061064d5761064c612505565b5b602002602001015161144a565b610684565b6106838188888151811061067657610675612505565b5b6020026020010151611566565b5b86868151811061069757610696612505565b5b602002602001015173ffffffffffffffffffffffffffffffffffffffff167f6fa7e87ebbd87ed4f1c40bba63144f68fd2bb022fb748ab3b61b5411c39bd47482846040516106e6929190612149565b60405180910390a2505061076d565b84848151811061070857610707612505565b5b602002602001015187878151811061072357610722612505565b5b602002602001019073ffffffffffffffffffffffffffffffffffffffff16908173ffffffffffffffffffffffffffffffffffffffff168152505060018661076a919061228e565b95505b505050808061077b9061245e565b9150506103e0565b50826005908051906020019061079a9291906118b3565b50505050505050565b6000612710600254836107b69190612315565b6107c091906122e4565b9050919050565b6000600360009054906101000a900473ffffffffffffffffffffffffffffffffffffffff16905090565b60006060600091506000805b60058054905081101561098d576000600582815481106108205761081f612505565b5b9060005260206000200160009054906101000a900473ffffffffffffffffffffffffffffffffffffffff16905060008173ffffffffffffffffffffffffffffffffffffffff1663b13564886040518163ffffffff1660e01b815260040160206040518083038186803b15801561089557600080fd5b505afa1580156108a9573d6000803e3d6000fd5b505050506040513d601f19601f820116820180604052508101906108cd9190611d58565b905060008273ffffffffffffffffffffffffffffffffffffffff1663636d6c9d6040518163ffffffff1660e01b815260040160206040518083038186803b15801561091757600080fd5b505afa15801561092b573d6000803e3d6000fd5b505050506040513d601f19601f8201168201806040525081019061094f9190611cb1565b905081421015801561095e5750805b156109775760019650600185610974919061228e565b94505b50505080806109859061245e565b9150506107fd565b508060405160200161099f91906120ab565b6040516020818303038152906040529150509250929050565b6109c06113cc565b6109ca6000611682565b565b600080600090505b8251811015610aa85760008382815181106109f2576109f1612505565b5b602002602001015173ffffffffffffffffffffffffffffffffffffffff16631c8deddf336040518263ffffffff1660e01b8152600401610a329190611f9e565b602060405180830381600087803b158015610a4c57600080fd5b505af1158015610a60573d6000803e3d6000fd5b505050506040513d601f19601f82011682018060405250810190610a849190611d58565b90508083610a92919061228e565b9250508080610aa09061245e565b9150506109d4565b50610ab38133611746565b5050565b60008060009054906101000a900473ffffffffffffffffffffffffffffffffffffffff16905090565b600160009054906101000a900473ffffffffffffffffffffffffffffffffffffffff1673ffffffffffffffffffffffffffffffffffffffff1663675bf5918433600360009054906101000a900473ffffffffffffffffffffffffffffffffffffffff1686866040518663ffffffff1660e01b8152600401610b659594939291906120ef565b600060405180830381600087803b158015610b7f57600080fd5b505af1158015610b93573d6000803e3d6000fd5b505050506000600160009054906101000a900473ffffffffffffffffffffffffffffffffffffffff1673ffffffffffffffffffffffffffffffffffffffff1663bd4b63dd6040518163ffffffff1660e01b815260040160206040518083038186803b158015610c0157600080fd5b505afa158015610c15573d6000803e3d6000fd5b505050506040513d601f19601f82011682018060405250810190610c399190611bf2565b90506005819080600181540180825580915050600190039060005260206000200160009091909190916101000a81548173ffffffffffffffffffffffffffffffffffffffff021916908373ffffffffffffffffffffffffffffffffffffffff1602179055507f34f5d2a9569e43b69e468b45005e7086a8e49cd01087306ceb30f8cc24e04f978185604051610ccf929190611ff0565b60405180910390a150505050565b816000811415610d19576040517f52c9e25e00000000000000000000000000000000000000000000000000000000815260040160405180910390fd5b816000600160009054906101000a900473ffffffffffffffffffffffffffffffffffffffff1673ffffffffffffffffffffffffffffffffffffffff16638871dc886040518163ffffffff1660e01b815260040160006040518083038186803b158015610d8457600080fd5b505afa158015610d98573d6000803e3d6000fd5b505050506040513d6000823e3d601f19601f82011682018060405250810190610dc19190611c68565b9050600080600090505b8251811015610e3e578373ffffffffffffffffffffffffffffffffffffffff16838281518110610dfe57610dfd612505565b5b602002602001015173ffffffffffffffffffffffffffffffffffffffff161415610e2b5760019150610e3e565b8080610e369061245e565b915050610dcb565b50600015158115151415610e7e576040517fd3e706df00000000000000000000000000000000000000000000000000000000815260040160405180910390fd5b60008590506000600360009054906101000a900473ffffffffffffffffffffffffffffffffffffffff1673ffffffffffffffffffffffffffffffffffffffff166323b872dd33308b6040518463ffffffff1660e01b8152600401610ee493929190611fb9565b602060405180830381600087803b158015610efe57600080fd5b505af1158015610f12573d6000803e3d6000fd5b505050506040513d601f19601f82011682018060405250810190610f369190611cb1565b90508015611237576000600360009054906101000a900473ffffffffffffffffffffffffffffffffffffffff1673ffffffffffffffffffffffffffffffffffffffff166370a08231306040518263ffffffff1660e01b8152600401610f9b9190611f9e565b60206040518083038186803b158015610fb357600080fd5b505afa158015610fc7573d6000803e3d6000fd5b505050506040513d601f19601f82011682018060405250810190610feb9190611d58565b90506000610ff8826107a3565b905060008183611008919061236f565b9050600360009054906101000a900473ffffffffffffffffffffffffffffffffffffffff1673ffffffffffffffffffffffffffffffffffffffff1663a9059cbb600460009054906101000a900473ffffffffffffffffffffffffffffffffffffffff16856040518363ffffffff1660e01b8152600401611089929190611ff0565b602060405180830381600087803b1580156110a357600080fd5b505af11580156110b7573d6000803e3d6000fd5b505050506040513d601f19601f820116820180604052508101906110db9190611cb1565b50600460009054906101000a900473ffffffffffffffffffffffffffffffffffffffff1673ffffffffffffffffffffffffffffffffffffffff1663cff5b2d284846040518363ffffffff1660e01b8152600401611139929190612172565b600060405180830381600087803b15801561115357600080fd5b505af1158015611167573d6000803e3d6000fd5b505050508473ffffffffffffffffffffffffffffffffffffffff1663e0bd7d1533836040518363ffffffff1660e01b81526004016111a6929190611ff0565b600060405180830381600087803b1580156111c057600080fd5b505af11580156111d4573d6000803e3d6000fd5b505050508973ffffffffffffffffffffffffffffffffffffffff16813373ffffffffffffffffffffffffffffffffffffffff167fdb364312c6ad49227bda6a781eaa0e75a1f5b4c5ba947db13a9392830fe36e9160405160405180910390a45050505b5050505050505050565b606060058054806020026020016040519081016040528092919081815260200182805480156112c557602002820191906000526020600020905b8160009054906101000a900473ffffffffffffffffffffffffffffffffffffffff1673ffffffffffffffffffffffffffffffffffffffff168152602001906001019080831161127b575b5050505050905090565b6000600254905090565b6112e16113cc565b6112e9611862565b6001600460146101000a81548160ff02191690831515021790555080600460006101000a81548173ffffffffffffffffffffffffffffffffffffffff021916908373ffffffffffffffffffffffffffffffffffffffff16021790555050565b6113506113cc565b600073ffffffffffffffffffffffffffffffffffffffff168173ffffffffffffffffffffffffffffffffffffffff1614156113c0576040517f08c379a00000000000000000000000000000000000000000000000000000000081526004016113b79061206b565b60405180910390fd5b6113c981611682565b50565b6113d46118ab565b73ffffffffffffffffffffffffffffffffffffffff166113f2610ab7565b73ffffffffffffffffffffffffffffffffffffffff1614611448576040517f08c379a000000000000000000000000000000000000000000000000000000000815260040161143f9061208b565b60405180910390fd5b565b600073ffffffffffffffffffffffffffffffffffffffff16600460009054906101000a900473ffffffffffffffffffffffffffffffffffffffff1673ffffffffffffffffffffffffffffffffffffffff1614156114d3576040517fab9bf64900000000000000000000000000000000000000000000000000000000815260040160405180910390fd5b600460009054906101000a900473ffffffffffffffffffffffffffffffffffffffff1673ffffffffffffffffffffffffffffffffffffffff16631c5e2fd782846040518363ffffffff1660e01b8152600401611530929190611ff0565b600060405180830381600087803b15801561154a57600080fd5b505af115801561155e573d6000803e3d6000fd5b505050505050565b600073ffffffffffffffffffffffffffffffffffffffff16600460009054906101000a900473ffffffffffffffffffffffffffffffffffffffff1673ffffffffffffffffffffffffffffffffffffffff1614156115ef576040517fab9bf64900000000000000000000000000000000000000000000000000000000815260040160405180910390fd5b600460009054906101000a900473ffffffffffffffffffffffffffffffffffffffff1673ffffffffffffffffffffffffffffffffffffffff1663b39d820483836040518363ffffffff1660e01b815260040161164c9291906120c6565b600060405180830381600087803b15801561166657600080fd5b505af115801561167a573d6000803e3d6000fd5b505050505050565b60008060009054906101000a900473ffffffffffffffffffffffffffffffffffffffff169050816000806101000a81548173ffffffffffffffffffffffffffffffffffffffff021916908373ffffffffffffffffffffffffffffffffffffffff1602179055508173ffffffffffffffffffffffffffffffffffffffff168173ffffffffffffffffffffffffffffffffffffffff167f8be0079c531659141344cd1fd0a4f28419497f9722a3daafe3b4186f6b6457e060405160405180910390a35050565b600073ffffffffffffffffffffffffffffffffffffffff16600460009054906101000a900473ffffffffffffffffffffffffffffffffffffffff1673ffffffffffffffffffffffffffffffffffffffff1614156117cf576040517fab9bf64900000000000000000000000000000000000000000000000000000000815260040160405180910390fd5b600460009054906101000a900473ffffffffffffffffffffffffffffffffffffffff1673ffffffffffffffffffffffffffffffffffffffff1663c12a307c83836040518363ffffffff1660e01b815260040161182c9291906120c6565b600060405180830381600087803b15801561184657600080fd5b505af115801561185a573d6000803e3d6000fd5b505050505050565b600460149054906101000a900460ff16156118a9576040517fd42863e400000000000000000000000000000000000000000000000000000000815260040160405180910390fd5b565b600033905090565b82805482825590600052602060002090810192821561192c579160200282015b8281111561192b5782518260006101000a81548173ffffffffffffffffffffffffffffffffffffffff021916908373ffffffffffffffffffffffffffffffffffffffff160217905550916020019190600101906118d3565b5b509050611939919061193d565b5090565b5b8082111561195657600081600090555060010161193e565b5090565b600061196d611968846121c0565b61219b565b905080838252602082019050828560208602820111156119905761198f61256d565b5b60005b858110156119c057816119a68882611a7c565b845260208401935060208301925050600181019050611993565b5050509392505050565b60006119dd6119d8846121c0565b61219b565b90508083825260208201905082856020860282011115611a00576119ff61256d565b5b60005b85811015611a305781611a168882611a91565b845260208401935060208301925050600181019050611a03565b5050509392505050565b6000611a4d611a48846121ec565b61219b565b905082815260208101848484011115611a6957611a68612572565b5b611a748482856123eb565b509392505050565b600081359050611a8b8161260a565b92915050565b600081519050611aa08161260a565b92915050565b600082601f830112611abb57611aba612568565b5b8135611acb84826020860161195a565b91505092915050565b600082601f830112611ae957611ae8612568565b5b8151611af98482602086016119ca565b91505092915050565b600081519050611b1181612621565b92915050565b60008083601f840112611b2d57611b2c612568565b5b8235905067ffffffffffffffff811115611b4a57611b49612563565b5b602083019150836001820283011115611b6657611b6561256d565b5b9250929050565b600082601f830112611b8257611b81612568565b5b8135611b92848260208601611a3a565b91505092915050565b600081359050611baa81612638565b92915050565b600081519050611bbf81612638565b92915050565b600060208284031215611bdb57611bda61257c565b5b6000611be984828501611a7c565b91505092915050565b600060208284031215611c0857611c0761257c565b5b6000611c1684828501611a91565b91505092915050565b600060208284031215611c3557611c3461257c565b5b600082013567ffffffffffffffff811115611c5357611c52612577565b5b611c5f84828501611aa6565b91505092915050565b600060208284031215611c7e57611c7d61257c565b5b600082015167ffffffffffffffff811115611c9c57611c9b612577565b5b611ca884828501611ad4565b91505092915050565b600060208284031215611cc757611cc661257c565b5b6000611cd584828501611b02565b91505092915050565b60008060208385031215611cf557611cf461257c565b5b600083013567ffffffffffffffff811115611d1357611d12612577565b5b611d1f85828601611b17565b92509250509250929050565b600060208284031215611d4157611d4061257c565b5b6000611d4f84828501611b9b565b91505092915050565b600060208284031215611d6e57611d6d61257c565b5b6000611d7c84828501611bb0565b91505092915050565b60008060408385031215611d9c57611d9b61257c565b5b6000611daa85828601611b9b565b9250506020611dbb85828601611a7c565b9150509250929050565b600080600060608486031215611dde57611ddd61257c565b5b6000611dec86828701611b9b565b9350506020611dfd86828701611b9b565b925050604084013567ffffffffffffffff811115611e1e57611e1d612577565b5b611e2a86828701611b6d565b9150509250925092565b6000611e408383611e4c565b60208301905092915050565b611e55816123a3565b82525050565b611e64816123a3565b82525050565b6000611e758261222d565b611e7f818561225b565b9350611e8a8361221d565b8060005b83811015611ebb578151611ea28882611e34565b9750611ead8361224e565b925050600181019050611e8e565b5085935050505092915050565b611ed1816123b5565b82525050565b6000611ee282612238565b611eec818561226c565b9350611efc8185602086016123fa565b611f0581612581565b840191505092915050565b6000611f1b82612243565b611f25818561227d565b9350611f358185602086016123fa565b611f3e81612581565b840191505092915050565b6000611f5660268361227d565b9150611f6182612592565b604082019050919050565b6000611f7960208361227d565b9150611f84826125e1565b602082019050919050565b611f98816123e1565b82525050565b6000602082019050611fb36000830184611e5b565b92915050565b6000606082019050611fce6000830186611e5b565b611fdb6020830185611e5b565b611fe86040830184611f8f565b949350505050565b60006040820190506120056000830185611e5b565b6120126020830184611f8f565b9392505050565b600060208201905081810360008301526120338184611e6a565b905092915050565b60006040820190506120506000830185611ec8565b81810360208301526120628184611ed7565b90509392505050565b6000602082019050818103600083015261208481611f49565b9050919050565b600060208201905081810360008301526120a481611f6c565b9050919050565b60006020820190506120c06000830184611f8f565b92915050565b60006040820190506120db6000830185611f8f565b6120e86020830184611e5b565b9392505050565b600060a0820190506121046000830188611f8f565b6121116020830187611e5b565b61211e6040830186611e5b565b61212b6060830185611f8f565b818103608083015261213d8184611f10565b90509695505050505050565b600060408201905061215e6000830185611f8f565b61216b6020830184611ec8565b9392505050565b60006040820190506121876000830185611f8f565b6121946020830184611f8f565b9392505050565b60006121a56121b6565b90506121b1828261242d565b919050565b6000604051905090565b600067ffffffffffffffff8211156121db576121da612534565b5b602082029050602081019050919050565b600067ffffffffffffffff82111561220757612206612534565b5b61221082612581565b9050602081019050919050565b6000819050602082019050919050565b600081519050919050565b600081519050919050565b600081519050919050565b6000602082019050919050565b600082825260208201905092915050565b600082825260208201905092915050565b600082825260208201905092915050565b6000612299826123e1565b91506122a4836123e1565b9250827fffffffffffffffffffffffffffffffffffffffffffffffffffffffffffffffff038211156122d9576122d86124a7565b5b828201905092915050565b60006122ef826123e1565b91506122fa836123e1565b92508261230a576123096124d6565b5b828204905092915050565b6000612320826123e1565b915061232b836123e1565b9250817fffffffffffffffffffffffffffffffffffffffffffffffffffffffffffffffff0483118215151615612364576123636124a7565b5b828202905092915050565b600061237a826123e1565b9150612385836123e1565b925082821015612398576123976124a7565b5b828203905092915050565b60006123ae826123c1565b9050919050565b60008115159050919050565b600073ffffffffffffffffffffffffffffffffffffffff82169050919050565b6000819050919050565b82818337600083830152505050565b60005b838110156124185780820151818401526020810190506123fd565b83811115612427576000848401525b50505050565b61243682612581565b810181811067ffffffffffffffff8211171561245557612454612534565b5b80604052505050565b6000612469826123e1565b91507fffffffffffffffffffffffffffffffffffffffffffffffffffffffffffffffff82141561249c5761249b6124a7565b5b600182019050919050565b7f4e487b7100000000000000000000000000000000000000000000000000000000600052601160045260246000fd5b7f4e487b7100000000000000000000000000000000000000000000000000000000600052601260045260246000fd5b7f4e487b7100000000000000000000000000000000000000000000000000000000600052603260045260246000fd5b7f4e487b7100000000000000000000000000000000000000000000000000000000600052604160045260246000fd5b600080fd5b600080fd5b600080fd5b600080fd5b600080fd5b600080fd5b6000601f19601f8301169050919050565b7f4f776e61626c653a206e6577206f776e657220697320746865207a65726f206160008201527f6464726573730000000000000000000000000000000000000000000000000000602082015250565b7f4f776e61626c653a2063616c6c6572206973206e6f7420746865206f776e6572600082015250565b612613816123a3565b811461261e57600080fd5b50565b61262a816123b5565b811461263557600080fd5b50565b612641816123e1565b811461264c57600080fd5b5056fea2646970667358221220543f74fd1ac5bb1495af83a109fdbabf34d9e0082b9d14a7c0176f92145544e464736f6c63430008070033",
  "linkReferences": {},
  "deployedLinkReferences": {}
}