{
  "_format": "hh-sol-artifact-1",
  "contractName": "CampaignToken",
  "sourceName": "contracts/tokens/CampaignToken.sol",
  "abi": [
    {
      "inputs": [],
      "stateMutability": "nonpayable",
      "type": "constructor"
    },
    {
      "anonymous": false,
      "inputs": [
        {
          "indexed": true,
          "internalType": "address",
          "name": "owner",
          "type": "address"
        },
        {
          "indexed": true,
          "internalType": "address",
          "name": "approved",
          "type": "address"
        },
        {
          "indexed": true,
          "internalType": "uint256",
          "name": "tokenId",
          "type": "uint256"
        }
      ],
      "name": "Approval",
      "type": "event"
    },
    {
      "anonymous": false,
      "inputs": [
        {
          "indexed": true,
          "internalType": "address",
          "name": "owner",
          "type": "address"
        },
        {
          "indexed": true,
          "internalType": "address",
          "name": "operator",
          "type": "address"
        },
        {
          "indexed": false,
          "internalType": "bool",
          "name": "approved",
          "type": "bool"
        }
      ],
      "name": "ApprovalForAll",
      "type": "event"
    },
    {
      "anonymous": false,
      "inputs": [
        {
          "indexed": false,
          "internalType": "uint8",
          "name": "version",
          "type": "uint8"
        }
      ],
      "name": "Initialized",
      "type": "event"
    },
    {
      "anonymous": false,
      "inputs": [
        {
          "indexed": true,
          "internalType": "bytes32",
          "name": "role",
          "type": "bytes32"
        },
        {
          "indexed": true,
          "internalType": "bytes32",
          "name": "previousAdminRole",
          "type": "bytes32"
        },
        {
          "indexed": true,
          "internalType": "bytes32",
          "name": "newAdminRole",
          "type": "bytes32"
        }
      ],
      "name": "RoleAdminChanged",
      "type": "event"
    },
    {
      "anonymous": false,
      "inputs": [
        {
          "indexed": true,
          "internalType": "bytes32",
          "name": "role",
          "type": "bytes32"
        },
        {
          "indexed": true,
          "internalType": "address",
          "name": "account",
          "type": "address"
        },
        {
          "indexed": true,
          "internalType": "address",
          "name": "sender",
          "type": "address"
        }
      ],
      "name": "RoleGranted",
      "type": "event"
    },
    {
      "anonymous": false,
      "inputs": [
        {
          "indexed": true,
          "internalType": "bytes32",
          "name": "role",
          "type": "bytes32"
        },
        {
          "indexed": true,
          "internalType": "address",
          "name": "account",
          "type": "address"
        },
        {
          "indexed": true,
          "internalType": "address",
          "name": "sender",
          "type": "address"
        }
      ],
      "name": "RoleRevoked",
      "type": "event"
    },
    {
      "anonymous": false,
      "inputs": [
        {
          "indexed": true,
          "internalType": "address",
          "name": "from",
          "type": "address"
        },
        {
          "indexed": true,
          "internalType": "address",
          "name": "to",
          "type": "address"
        },
        {
          "indexed": true,
          "internalType": "uint256",
          "name": "tokenId",
          "type": "uint256"
        }
      ],
      "name": "Transfer",
      "type": "event"
    },
    {
      "inputs": [],
      "name": "DEFAULT_ADMIN_ROLE",
      "outputs": [
        {
          "internalType": "bytes32",
          "name": "",
          "type": "bytes32"
        }
      ],
      "stateMutability": "view",
      "type": "function"
    },
    {
      "inputs": [],
      "name": "MINTER_ROLE",
      "outputs": [
        {
          "internalType": "bytes32",
          "name": "",
          "type": "bytes32"
        }
      ],
      "stateMutability": "view",
      "type": "function"
    },
    {
      "inputs": [
        {
          "internalType": "address",
          "name": "to",
          "type": "address"
        },
        {
          "internalType": "uint256",
          "name": "tokenId",
          "type": "uint256"
        }
      ],
      "name": "approve",
      "outputs": [],
      "stateMutability": "nonpayable",
      "type": "function"
    },
    {
      "inputs": [
        {
          "internalType": "address",
          "name": "owner",
          "type": "address"
        }
      ],
      "name": "balanceOf",
      "outputs": [
        {
          "internalType": "uint256",
          "name": "",
          "type": "uint256"
        }
      ],
      "stateMutability": "view",
      "type": "function"
    },
    {
      "inputs": [
        {
          "internalType": "uint256",
          "name": "tokenId",
          "type": "uint256"
        }
      ],
      "name": "getApproved",
      "outputs": [
        {
          "internalType": "address",
          "name": "",
          "type": "address"
        }
      ],
      "stateMutability": "view",
      "type": "function"
    },
    {
      "inputs": [
        {
          "internalType": "bytes32",
          "name": "role",
          "type": "bytes32"
        }
      ],
      "name": "getRoleAdmin",
      "outputs": [
        {
          "internalType": "bytes32",
          "name": "",
          "type": "bytes32"
        }
      ],
      "stateMutability": "view",
      "type": "function"
    },
    {
      "inputs": [
        {
          "internalType": "bytes32",
          "name": "role",
          "type": "bytes32"
        },
        {
          "internalType": "address",
          "name": "account",
          "type": "address"
        }
      ],
      "name": "grantRole",
      "outputs": [],
      "stateMutability": "nonpayable",
      "type": "function"
    },
    {
      "inputs": [
        {
          "internalType": "bytes32",
          "name": "role",
          "type": "bytes32"
        },
        {
          "internalType": "address",
          "name": "account",
          "type": "address"
        }
      ],
      "name": "hasRole",
      "outputs": [
        {
          "internalType": "bool",
          "name": "",
          "type": "bool"
        }
      ],
      "stateMutability": "view",
      "type": "function"
    },
    {
      "inputs": [
        {
          "internalType": "string",
          "name": "_tokenName",
          "type": "string"
        },
        {
          "internalType": "string",
          "name": "_tokenSymbol",
          "type": "string"
        }
      ],
      "name": "initialize",
      "outputs": [],
      "stateMutability": "nonpayable",
      "type": "function"
    },
    {
      "inputs": [
        {
          "internalType": "address",
          "name": "owner",
          "type": "address"
        },
        {
          "internalType": "address",
          "name": "operator",
          "type": "address"
        }
      ],
      "name": "isApprovedForAll",
      "outputs": [
        {
          "internalType": "bool",
          "name": "",
          "type": "bool"
        }
      ],
      "stateMutability": "view",
      "type": "function"
    },
    {
      "inputs": [],
      "name": "name",
      "outputs": [
        {
          "internalType": "string",
          "name": "",
          "type": "string"
        }
      ],
      "stateMutability": "view",
      "type": "function"
    },
    {
      "inputs": [
        {
          "internalType": "uint256",
          "name": "tokenId",
          "type": "uint256"
        }
      ],
      "name": "ownerOf",
      "outputs": [
        {
          "internalType": "address",
          "name": "",
          "type": "address"
        }
      ],
      "stateMutability": "view",
      "type": "function"
    },
    {
      "inputs": [
        {
          "internalType": "bytes32",
          "name": "role",
          "type": "bytes32"
        },
        {
          "internalType": "address",
          "name": "account",
          "type": "address"
        }
      ],
      "name": "renounceRole",
      "outputs": [],
      "stateMutability": "nonpayable",
      "type": "function"
    },
    {
      "inputs": [
        {
          "internalType": "bytes32",
          "name": "role",
          "type": "bytes32"
        },
        {
          "internalType": "address",
          "name": "account",
          "type": "address"
        }
      ],
      "name": "revokeRole",
      "outputs": [],
      "stateMutability": "nonpayable",
      "type": "function"
    },
    {
      "inputs": [
        {
          "internalType": "address",
          "name": "to",
          "type": "address"
        },
        {
          "internalType": "string",
          "name": "uri",
          "type": "string"
        }
      ],
      "name": "safeMint",
      "outputs": [],
      "stateMutability": "nonpayable",
      "type": "function"
    },
    {
      "inputs": [
        {
          "internalType": "address",
          "name": "from",
          "type": "address"
        },
        {
          "internalType": "address",
          "name": "to",
          "type": "address"
        },
        {
          "internalType": "uint256",
          "name": "tokenId",
          "type": "uint256"
        }
      ],
      "name": "safeTransferFrom",
      "outputs": [],
      "stateMutability": "nonpayable",
      "type": "function"
    },
    {
      "inputs": [
        {
          "internalType": "address",
          "name": "from",
          "type": "address"
        },
        {
          "internalType": "address",
          "name": "to",
          "type": "address"
        },
        {
          "internalType": "uint256",
          "name": "tokenId",
          "type": "uint256"
        },
        {
          "internalType": "bytes",
          "name": "data",
          "type": "bytes"
        }
      ],
      "name": "safeTransferFrom",
      "outputs": [],
      "stateMutability": "nonpayable",
      "type": "function"
    },
    {
      "inputs": [
        {
          "internalType": "address",
          "name": "operator",
          "type": "address"
        },
        {
          "internalType": "bool",
          "name": "approved",
          "type": "bool"
        }
      ],
      "name": "setApprovalForAll",
      "outputs": [],
      "stateMutability": "nonpayable",
      "type": "function"
    },
    {
      "inputs": [
        {
          "internalType": "bytes4",
          "name": "interfaceId",
          "type": "bytes4"
        }
      ],
      "name": "supportsInterface",
      "outputs": [
        {
          "internalType": "bool",
          "name": "",
          "type": "bool"
        }
      ],
      "stateMutability": "view",
      "type": "function"
    },
    {
      "inputs": [],
      "name": "symbol",
      "outputs": [
        {
          "internalType": "string",
          "name": "",
          "type": "string"
        }
      ],
      "stateMutability": "view",
      "type": "function"
    },
    {
      "inputs": [
        {
          "internalType": "uint256",
          "name": "tokenId",
          "type": "uint256"
        }
      ],
      "name": "tokenURI",
      "outputs": [
        {
          "internalType": "string",
          "name": "",
          "type": "string"
        }
      ],
      "stateMutability": "view",
      "type": "function"
    },
    {
      "inputs": [
        {
          "internalType": "address",
          "name": "from",
          "type": "address"
        },
        {
          "internalType": "address",
          "name": "to",
          "type": "address"
        },
        {
          "internalType": "uint256",
          "name": "tokenId",
          "type": "uint256"
        }
      ],
      "name": "transferFrom",
      "outputs": [],
      "stateMutability": "nonpayable",
      "type": "function"
    }
  ],
  "bytecode": "0x60806040523480156200001157600080fd5b50620000226200002860201b60201c565b620001d3565b600060019054906101000a900460ff16156200007b576040517f08c379a0000000000000000000000000000000000000000000000000000000008152600401620000729062000127565b60405180910390fd5b60ff801660008054906101000a900460ff1660ff161015620000ed5760ff6000806101000a81548160ff021916908360ff1602179055507f7f26b83ff96e1f2b6a682f133852f6798a09c465da95921460cefb384740249860ff604051620000e4919062000149565b60405180910390a15b565b6000620000fe60278362000166565b91506200010b8262000184565b604082019050919050565b620001218162000177565b82525050565b600060208201905081810360008301526200014281620000ef565b9050919050565b600060208201905062000160600083018462000116565b92915050565b600082825260208201905092915050565b600060ff82169050919050565b7f496e697469616c697a61626c653a20636f6e747261637420697320696e69746960008201527f616c697a696e6700000000000000000000000000000000000000000000000000602082015250565b613a2380620001e36000396000f3fe608060405234801561001057600080fd5b50600436106101425760003560e01c806370a08231116100b8578063b88d4fde1161007c578063b88d4fde14610385578063c87b56dd146103a1578063d204c45e146103d1578063d5391393146103ed578063d547741f1461040b578063e985e9c51461042757610142565b806370a08231146102cd57806391d14854146102fd57806395d89b411461032d578063a217fddf1461034b578063a22cb4651461036957610142565b8063248a9ca31161010a578063248a9ca3146101fd5780632f2ff15d1461022d57806336568abe1461024957806342842e0e146102655780634cd88b76146102815780636352211e1461029d57610142565b806301ffc9a71461014757806306fdde0314610177578063081812fc14610195578063095ea7b3146101c557806323b872dd146101e1575b600080fd5b610161600480360381019061015c919061294a565b610457565b60405161016e9190612e72565b60405180910390f35b61017f610469565b60405161018c9190612ec3565b60405180910390f35b6101af60048036038101906101aa9190612a1c565b6104fb565b6040516101bc9190612e0b565b60405180910390f35b6101df60048036038101906101da919061289d565b610541565b005b6101fb60048036038101906101f6919061272b565b610659565b005b610217600480360381019061021291906128dd565b6106b9565b6040516102249190612e8d565b60405180910390f35b6102476004803603810190610242919061290a565b6106d9565b005b610263600480360381019061025e919061290a565b6106fa565b005b61027f600480360381019061027a919061272b565b61077d565b005b61029b600480360381019061029691906129a4565b61079d565b005b6102b760048036038101906102b29190612a1c565b610926565b6040516102c49190612e0b565b60405180910390f35b6102e760048036038101906102e291906126be565b6109ad565b6040516102f491906130e5565b60405180910390f35b6103176004803603810190610312919061290a565b610a65565b6040516103249190612e72565b60405180910390f35b610335610ad0565b6040516103429190612ec3565b60405180910390f35b610353610b62565b6040516103609190612e8d565b60405180910390f35b610383600480360381019061037e9190612801565b610b69565b005b61039f600480360381019061039a919061277e565b610b7f565b005b6103bb60048036038101906103b69190612a1c565b610be1565b6040516103c89190612ec3565b60405180910390f35b6103eb60048036038101906103e69190612841565b610bf3565b005b6103f5610c4f565b6040516104029190612e8d565b60405180910390f35b6104256004803603810190610420919061290a565b610c73565b005b610441600480360381019061043c91906126eb565b610c94565b60405161044e9190612e72565b60405180910390f35b600061046282610d28565b9050919050565b60606065805461047890613383565b80601f01602080910402602001604051908101604052809291908181526020018280546104a490613383565b80156104f15780601f106104c6576101008083540402835291602001916104f1565b820191906000526020600020905b8154815290600101906020018083116104d457829003601f168201915b5050505050905090565b600061050682610da2565b6069600083815260200190815260200160002060009054906101000a900473ffffffffffffffffffffffffffffffffffffffff169050919050565b600061054c82610926565b90508073ffffffffffffffffffffffffffffffffffffffff168373ffffffffffffffffffffffffffffffffffffffff1614156105bd576040517f08c379a00000000000000000000000000000000000000000000000000000000081526004016105b490613065565b60405180910390fd5b8073ffffffffffffffffffffffffffffffffffffffff166105dc610ded565b73ffffffffffffffffffffffffffffffffffffffff16148061060b575061060a81610605610ded565b610c94565b5b61064a576040517f08c379a000000000000000000000000000000000000000000000000000000000815260040161064190613085565b60405180910390fd5b6106548383610df5565b505050565b61066a610664610ded565b82610eae565b6106a9576040517f08c379a00000000000000000000000000000000000000000000000000000000081526004016106a090612f05565b60405180910390fd5b6106b4838383610f43565b505050565b600060c96000838152602001908152602001600020600101549050919050565b6106e2826106b9565b6106eb81611239565b6106f5838361124d565b505050565b610702610ded565b73ffffffffffffffffffffffffffffffffffffffff168173ffffffffffffffffffffffffffffffffffffffff161461076f576040517f08c379a0000000000000000000000000000000000000000000000000000000008152600401610766906130c5565b60405180910390fd5b610779828261132e565b5050565b61079883838360405180602001604052806000815250610b7f565b505050565b60008060019054906101000a900460ff161590508080156107ce5750600160008054906101000a900460ff1660ff16105b806107fb57506107dd30611410565b1580156107fa5750600160008054906101000a900460ff1660ff16145b5b61083a576040517f08c379a000000000000000000000000000000000000000000000000000000000815260040161083190613005565b60405180910390fd5b60016000806101000a81548160ff021916908360ff1602179055508015610877576001600060016101000a81548160ff0219169083151502179055505b6108818383611433565b610889611490565b6108916114e1565b61089e6000801b3361124d565b6108c87f9f2df0fed2c77648de5860a4cc508cd0818c85b8b8a1ab4ceeef8d981c8956a63361124d565b80156109215760008060016101000a81548160ff0219169083151502179055507f7f26b83ff96e1f2b6a682f133852f6798a09c465da95921460cefb384740249860016040516109189190612ea8565b60405180910390a15b505050565b60008061093283611532565b9050600073ffffffffffffffffffffffffffffffffffffffff168173ffffffffffffffffffffffffffffffffffffffff1614156109a4576040517f08c379a000000000000000000000000000000000000000000000000000000000815260040161099b90613045565b60405180910390fd5b80915050919050565b60008073ffffffffffffffffffffffffffffffffffffffff168273ffffffffffffffffffffffffffffffffffffffff161415610a1e576040517f08c379a0000000000000000000000000000000000000000000000000000000008152600401610a1590612fc5565b60405180910390fd5b606860008373ffffffffffffffffffffffffffffffffffffffff1673ffffffffffffffffffffffffffffffffffffffff168152602001908152602001600020549050919050565b600060c9600084815260200190815260200160002060000160008373ffffffffffffffffffffffffffffffffffffffff1673ffffffffffffffffffffffffffffffffffffffff16815260200190815260200160002060009054906101000a900460ff16905092915050565b606060668054610adf90613383565b80601f0160208091040260200160405190810160405280929190818152602001828054610b0b90613383565b8015610b585780601f10610b2d57610100808354040283529160200191610b58565b820191906000526020600020905b815481529060010190602001808311610b3b57829003601f168201915b5050505050905090565b6000801b81565b610b7b610b74610ded565b838361156f565b5050565b610b90610b8a610ded565b83610eae565b610bcf576040517f08c379a0000000000000000000000000000000000000000000000000000000008152600401610bc690612f05565b60405180910390fd5b610bdb848484846116dc565b50505050565b6060610bec82611738565b9050919050565b7f9f2df0fed2c77648de5860a4cc508cd0818c85b8b8a1ab4ceeef8d981c8956a6610c1d81611239565b6000610c2960fb61184b565b9050610c3560fb611859565b610c3f848261186f565b610c49818461188d565b50505050565b7f9f2df0fed2c77648de5860a4cc508cd0818c85b8b8a1ab4ceeef8d981c8956a681565b610c7c826106b9565b610c8581611239565b610c8f838361132e565b505050565b6000606a60008473ffffffffffffffffffffffffffffffffffffffff1673ffffffffffffffffffffffffffffffffffffffff16815260200190815260200160002060008373ffffffffffffffffffffffffffffffffffffffff1673ffffffffffffffffffffffffffffffffffffffff16815260200190815260200160002060009054906101000a900460ff16905092915050565b60007f7965db0b000000000000000000000000000000000000000000000000000000007bffffffffffffffffffffffffffffffffffffffffffffffffffffffff1916827bffffffffffffffffffffffffffffffffffffffffffffffffffffffff19161480610d9b5750610d9a82611901565b5b9050919050565b610dab816119e3565b610dea576040517f08c379a0000000000000000000000000000000000000000000000000000000008152600401610de190613045565b60405180910390fd5b50565b600033905090565b816069600083815260200190815260200160002060006101000a81548173ffffffffffffffffffffffffffffffffffffffff021916908373ffffffffffffffffffffffffffffffffffffffff160217905550808273ffffffffffffffffffffffffffffffffffffffff16610e6883610926565b73ffffffffffffffffffffffffffffffffffffffff167f8c5be1e5ebec7d5bd14f71427d1e84f3dd0314c0f7b2291e5b200ac8c7c3b92560405160405180910390a45050565b600080610eba83610926565b90508073ffffffffffffffffffffffffffffffffffffffff168473ffffffffffffffffffffffffffffffffffffffff161480610efc5750610efb8185610c94565b5b80610f3a57508373ffffffffffffffffffffffffffffffffffffffff16610f22846104fb565b73ffffffffffffffffffffffffffffffffffffffff16145b91505092915050565b8273ffffffffffffffffffffffffffffffffffffffff16610f6382610926565b73ffffffffffffffffffffffffffffffffffffffff1614610fb9576040517f08c379a0000000000000000000000000000000000000000000000000000000008152600401610fb090612f45565b60405180910390fd5b600073ffffffffffffffffffffffffffffffffffffffff168273ffffffffffffffffffffffffffffffffffffffff161415611029576040517f08c379a000000000000000000000000000000000000000000000000000000000815260040161102090612f85565b60405180910390fd5b611034838383611a24565b8273ffffffffffffffffffffffffffffffffffffffff1661105482610926565b73ffffffffffffffffffffffffffffffffffffffff16146110aa576040517f08c379a00000000000000000000000000000000000000000000000000000000081526004016110a190612f45565b60405180910390fd5b6069600082815260200190815260200160002060006101000a81549073ffffffffffffffffffffffffffffffffffffffff02191690556001606860008573ffffffffffffffffffffffffffffffffffffffff1673ffffffffffffffffffffffffffffffffffffffff168152602001908152602001600020600082825403925050819055506001606860008473ffffffffffffffffffffffffffffffffffffffff1673ffffffffffffffffffffffffffffffffffffffff16815260200190815260200160002060008282540192505081905550816067600083815260200190815260200160002060006101000a81548173ffffffffffffffffffffffffffffffffffffffff021916908373ffffffffffffffffffffffffffffffffffffffff160217905550808273ffffffffffffffffffffffffffffffffffffffff168473ffffffffffffffffffffffffffffffffffffffff167fddf252ad1be2c89b69c2b068fc378daa952ba7f163c4a11628f55a4df523b3ef60405160405180910390a4611234838383611a29565b505050565b61124a81611245610ded565b611a2e565b50565b6112578282610a65565b61132a57600160c9600084815260200190815260200160002060000160008373ffffffffffffffffffffffffffffffffffffffff1673ffffffffffffffffffffffffffffffffffffffff16815260200190815260200160002060006101000a81548160ff0219169083151502179055506112cf610ded565b73ffffffffffffffffffffffffffffffffffffffff168173ffffffffffffffffffffffffffffffffffffffff16837f2f8788117e7eff1d82e926ec794901d17c78024a50270940304540a733656f0d60405160405180910390a45b5050565b6113388282610a65565b1561140c57600060c9600084815260200190815260200160002060000160008373ffffffffffffffffffffffffffffffffffffffff1673ffffffffffffffffffffffffffffffffffffffff16815260200190815260200160002060006101000a81548160ff0219169083151502179055506113b1610ded565b73ffffffffffffffffffffffffffffffffffffffff168173ffffffffffffffffffffffffffffffffffffffff16837ff6391f5c32d9c69d2a47ea670b442974b53935d1edc7fd64eb21e047a839171b60405160405180910390a45b5050565b6000808273ffffffffffffffffffffffffffffffffffffffff163b119050919050565b600060019054906101000a900460ff16611482576040517f08c379a0000000000000000000000000000000000000000000000000000000008152600401611479906130a5565b60405180910390fd5b61148c8282611ab3565b5050565b600060019054906101000a900460ff166114df576040517f08c379a00000000000000000000000000000000000000000000000000000000081526004016114d6906130a5565b60405180910390fd5b565b600060019054906101000a900460ff16611530576040517f08c379a0000000000000000000000000000000000000000000000000000000008152600401611527906130a5565b60405180910390fd5b565b60006067600083815260200190815260200160002060009054906101000a900473ffffffffffffffffffffffffffffffffffffffff169050919050565b8173ffffffffffffffffffffffffffffffffffffffff168373ffffffffffffffffffffffffffffffffffffffff1614156115de576040517f08c379a00000000000000000000000000000000000000000000000000000000081526004016115d590612fa5565b60405180910390fd5b80606a60008573ffffffffffffffffffffffffffffffffffffffff1673ffffffffffffffffffffffffffffffffffffffff16815260200190815260200160002060008473ffffffffffffffffffffffffffffffffffffffff1673ffffffffffffffffffffffffffffffffffffffff16815260200190815260200160002060006101000a81548160ff0219169083151502179055508173ffffffffffffffffffffffffffffffffffffffff168373ffffffffffffffffffffffffffffffffffffffff167f17307eab39ab6107e8899845ad3d59bd9653f200f220920489ca2b5937696c31836040516116cf9190612e72565b60405180910390a3505050565b6116e7848484610f43565b6116f384848484611b34565b611732576040517f08c379a000000000000000000000000000000000000000000000000000000000815260040161172990612f25565b60405180910390fd5b50505050565b606061174382610da2565b600060976000848152602001908152602001600020805461176390613383565b80601f016020809104026020016040519081016040528092919081815260200182805461178f90613383565b80156117dc5780601f106117b1576101008083540402835291602001916117dc565b820191906000526020600020905b8154815290600101906020018083116117bf57829003601f168201915b5050505050905060006117ed611ccb565b9050600081511415611803578192505050611846565b600082511115611838578082604051602001611820929190612dad565b60405160208183030381529060405292505050611846565b61184184611ce2565b925050505b919050565b600081600001549050919050565b6001816000016000828254019250508190555050565b611889828260405180602001604052806000815250611d4a565b5050565b611896826119e3565b6118d5576040517f08c379a00000000000000000000000000000000000000000000000000000000081526004016118cc90612fe5565b60405180910390fd5b806097600084815260200190815260200160002090805190602001906118fc9291906124bd565b505050565b60007f80ac58cd000000000000000000000000000000000000000000000000000000007bffffffffffffffffffffffffffffffffffffffffffffffffffffffff1916827bffffffffffffffffffffffffffffffffffffffffffffffffffffffff191614806119cc57507f5b5e139f000000000000000000000000000000000000000000000000000000007bffffffffffffffffffffffffffffffffffffffffffffffffffffffff1916827bffffffffffffffffffffffffffffffffffffffffffffffffffffffff1916145b806119dc57506119db82611da5565b5b9050919050565b60008073ffffffffffffffffffffffffffffffffffffffff16611a0583611532565b73ffffffffffffffffffffffffffffffffffffffff1614159050919050565b505050565b505050565b611a388282610a65565b611aaf57611a4581611e0f565b611a538360001c6020611e3c565b604051602001611a64929190612dd1565b6040516020818303038152906040526040517f08c379a0000000000000000000000000000000000000000000000000000000008152600401611aa69190612ec3565b60405180910390fd5b5050565b600060019054906101000a900460ff16611b02576040517f08c379a0000000000000000000000000000000000000000000000000000000008152600401611af9906130a5565b60405180910390fd5b8160659080519060200190611b189291906124bd565b508060669080519060200190611b2f9291906124bd565b505050565b6000611b558473ffffffffffffffffffffffffffffffffffffffff16611410565b15611cbe578373ffffffffffffffffffffffffffffffffffffffff1663150b7a02611b7e610ded565b8786866040518563ffffffff1660e01b8152600401611ba09493929190612e26565b602060405180830381600087803b158015611bba57600080fd5b505af1925050508015611beb57506040513d601f19601f82011682018060405250810190611be89190612977565b60015b611c6e573d8060008114611c1b576040519150601f19603f3d011682016040523d82523d6000602084013e611c20565b606091505b50600081511415611c66576040517f08c379a0000000000000000000000000000000000000000000000000000000008152600401611c5d90612f25565b60405180910390fd5b805181602001fd5b63150b7a0260e01b7bffffffffffffffffffffffffffffffffffffffffffffffffffffffff1916817bffffffffffffffffffffffffffffffffffffffffffffffffffffffff191614915050611cc3565b600190505b949350505050565b606060405180602001604052806000815250905090565b6060611ced82610da2565b6000611cf7611ccb565b90506000815111611d175760405180602001604052806000815250611d42565b80611d2184612078565b604051602001611d32929190612dad565b6040516020818303038152906040525b915050919050565b611d548383612150565b611d616000848484611b34565b611da0576040517f08c379a0000000000000000000000000000000000000000000000000000000008152600401611d9790612f25565b60405180910390fd5b505050565b60007f01ffc9a7000000000000000000000000000000000000000000000000000000007bffffffffffffffffffffffffffffffffffffffffffffffffffffffff1916827bffffffffffffffffffffffffffffffffffffffffffffffffffffffff1916149050919050565b6060611e358273ffffffffffffffffffffffffffffffffffffffff16601460ff16611e3c565b9050919050565b606060006002836002611e4f9190613220565b611e5991906131ca565b67ffffffffffffffff811115611e7257611e716134a2565b5b6040519080825280601f01601f191660200182016040528015611ea45781602001600182028036833780820191505090505b5090507f300000000000000000000000000000000000000000000000000000000000000081600081518110611edc57611edb613473565b5b60200101907effffffffffffffffffffffffffffffffffffffffffffffffffffffffffffff1916908160001a9053507f780000000000000000000000000000000000000000000000000000000000000081600181518110611f4057611f3f613473565b5b60200101907effffffffffffffffffffffffffffffffffffffffffffffffffffffffffffff1916908160001a90535060006001846002611f809190613220565b611f8a91906131ca565b90505b600181111561202a577f3031323334353637383961626364656600000000000000000000000000000000600f861660108110611fcc57611fcb613473565b5b1a60f81b828281518110611fe357611fe2613473565b5b60200101907effffffffffffffffffffffffffffffffffffffffffffffffffffffffffffff1916908160001a905350600485901c94508061202390613359565b9050611f8d565b506000841461206e576040517f08c379a000000000000000000000000000000000000000000000000000000000815260040161206590612ee5565b60405180910390fd5b8091505092915050565b6060600060016120878461236a565b01905060008167ffffffffffffffff8111156120a6576120a56134a2565b5b6040519080825280601f01601f1916602001820160405280156120d85781602001600182028036833780820191505090505b509050600082602001820190505b600115612145578080600190039150507f3031323334353637383961626364656600000000000000000000000000000000600a86061a8153600a858161212f5761212e613415565b5b049450600085141561214057612145565b6120e6565b819350505050919050565b600073ffffffffffffffffffffffffffffffffffffffff168273ffffffffffffffffffffffffffffffffffffffff1614156121c0576040517f08c379a00000000000000000000000000000000000000000000000000000000081526004016121b790613025565b60405180910390fd5b6121c9816119e3565b15612209576040517f08c379a000000000000000000000000000000000000000000000000000000000815260040161220090612f65565b60405180910390fd5b61221560008383611a24565b61221e816119e3565b1561225e576040517f08c379a000000000000000000000000000000000000000000000000000000000815260040161225590612f65565b60405180910390fd5b6001606860008473ffffffffffffffffffffffffffffffffffffffff1673ffffffffffffffffffffffffffffffffffffffff16815260200190815260200160002060008282540192505081905550816067600083815260200190815260200160002060006101000a81548173ffffffffffffffffffffffffffffffffffffffff021916908373ffffffffffffffffffffffffffffffffffffffff160217905550808273ffffffffffffffffffffffffffffffffffffffff16600073ffffffffffffffffffffffffffffffffffffffff167fddf252ad1be2c89b69c2b068fc378daa952ba7f163c4a11628f55a4df523b3ef60405160405180910390a461236660008383611a29565b5050565b600080600090507a184f03e93ff9f4daa797ed6e38ed64bf6a1f01000000000000000083106123c8577a184f03e93ff9f4daa797ed6e38ed64bf6a1f01000000000000000083816123be576123bd613415565b5b0492506040810190505b6d04ee2d6d415b85acef81000000008310612405576d04ee2d6d415b85acef810000000083816123fb576123fa613415565b5b0492506020810190505b662386f26fc10000831061243457662386f26fc10000838161242a57612429613415565b5b0492506010810190505b6305f5e100831061245d576305f5e100838161245357612452613415565b5b0492506008810190505b612710831061248257612710838161247857612477613415565b5b0492506004810190505b606483106124a5576064838161249b5761249a613415565b5b0492506002810190505b600a83106124b4576001810190505b80915050919050565b8280546124c990613383565b90600052602060002090601f0160209004810192826124eb5760008555612532565b82601f1061250457805160ff1916838001178555612532565b82800160010185558215612532579182015b82811115612531578251825591602001919060010190612516565b5b50905061253f9190612543565b5090565b5b8082111561255c576000816000905550600101612544565b5090565b600061257361256e84613125565b613100565b90508281526020810184848401111561258f5761258e6134d6565b5b61259a848285613317565b509392505050565b60006125b56125b084613156565b613100565b9050828152602081018484840111156125d1576125d06134d6565b5b6125dc848285613317565b509392505050565b6000813590506125f38161397a565b92915050565b60008135905061260881613991565b92915050565b60008135905061261d816139a8565b92915050565b600081359050612632816139bf565b92915050565b600081519050612647816139bf565b92915050565b600082601f830112612662576126616134d1565b5b8135612672848260208601612560565b91505092915050565b600082601f8301126126905761268f6134d1565b5b81356126a08482602086016125a2565b91505092915050565b6000813590506126b8816139d6565b92915050565b6000602082840312156126d4576126d36134e0565b5b60006126e2848285016125e4565b91505092915050565b60008060408385031215612702576127016134e0565b5b6000612710858286016125e4565b9250506020612721858286016125e4565b9150509250929050565b600080600060608486031215612744576127436134e0565b5b6000612752868287016125e4565b9350506020612763868287016125e4565b9250506040612774868287016126a9565b9150509250925092565b60008060008060808587031215612798576127976134e0565b5b60006127a6878288016125e4565b94505060206127b7878288016125e4565b93505060406127c8878288016126a9565b925050606085013567ffffffffffffffff8111156127e9576127e86134db565b5b6127f58782880161264d565b91505092959194509250565b60008060408385031215612818576128176134e0565b5b6000612826858286016125e4565b9250506020612837858286016125f9565b9150509250929050565b60008060408385031215612858576128576134e0565b5b6000612866858286016125e4565b925050602083013567ffffffffffffffff811115612887576128866134db565b5b6128938582860161267b565b9150509250929050565b600080604083850312156128b4576128b36134e0565b5b60006128c2858286016125e4565b92505060206128d3858286016126a9565b9150509250929050565b6000602082840312156128f3576128f26134e0565b5b60006129018482850161260e565b91505092915050565b60008060408385031215612921576129206134e0565b5b600061292f8582860161260e565b9250506020612940858286016125e4565b9150509250929050565b6000602082840312156129605761295f6134e0565b5b600061296e84828501612623565b91505092915050565b60006020828403121561298d5761298c6134e0565b5b600061299b84828501612638565b91505092915050565b600080604083850312156129bb576129ba6134e0565b5b600083013567ffffffffffffffff8111156129d9576129d86134db565b5b6129e58582860161267b565b925050602083013567ffffffffffffffff811115612a0657612a056134db565b5b612a128582860161267b565b9150509250929050565b600060208284031215612a3257612a316134e0565b5b6000612a40848285016126a9565b91505092915050565b612a528161327a565b82525050565b612a618161328c565b82525050565b612a7081613298565b82525050565b6000612a8182613187565b612a8b818561319d565b9350612a9b818560208601613326565b612aa4816134e5565b840191505092915050565b612ab881613305565b82525050565b6000612ac982613192565b612ad381856131ae565b9350612ae3818560208601613326565b612aec816134e5565b840191505092915050565b6000612b0282613192565b612b0c81856131bf565b9350612b1c818560208601613326565b80840191505092915050565b6000612b356020836131ae565b9150612b40826134f6565b602082019050919050565b6000612b58602d836131ae565b9150612b638261351f565b604082019050919050565b6000612b7b6032836131ae565b9150612b868261356e565b604082019050919050565b6000612b9e6025836131ae565b9150612ba9826135bd565b604082019050919050565b6000612bc1601c836131ae565b9150612bcc8261360c565b602082019050919050565b6000612be46024836131ae565b9150612bef82613635565b604082019050919050565b6000612c076019836131ae565b9150612c1282613684565b602082019050919050565b6000612c2a6029836131ae565b9150612c35826136ad565b604082019050919050565b6000612c4d602e836131ae565b9150612c58826136fc565b604082019050919050565b6000612c70602e836131ae565b9150612c7b8261374b565b604082019050919050565b6000612c936020836131ae565b9150612c9e8261379a565b602082019050919050565b6000612cb66018836131ae565b9150612cc1826137c3565b602082019050919050565b6000612cd96021836131ae565b9150612ce4826137ec565b604082019050919050565b6000612cfc603d836131ae565b9150612d078261383b565b604082019050919050565b6000612d1f602b836131ae565b9150612d2a8261388a565b604082019050919050565b6000612d426017836131bf565b9150612d4d826138d9565b601782019050919050565b6000612d656011836131bf565b9150612d7082613902565b601182019050919050565b6000612d88602f836131ae565b9150612d938261392b565b604082019050919050565b612da7816132ee565b82525050565b6000612db98285612af7565b9150612dc58284612af7565b91508190509392505050565b6000612ddc82612d35565b9150612de88285612af7565b9150612df382612d58565b9150612dff8284612af7565b91508190509392505050565b6000602082019050612e206000830184612a49565b92915050565b6000608082019050612e3b6000830187612a49565b612e486020830186612a49565b612e556040830185612d9e565b8181036060830152612e678184612a76565b905095945050505050565b6000602082019050612e876000830184612a58565b92915050565b6000602082019050612ea26000830184612a67565b92915050565b6000602082019050612ebd6000830184612aaf565b92915050565b60006020820190508181036000830152612edd8184612abe565b905092915050565b60006020820190508181036000830152612efe81612b28565b9050919050565b60006020820190508181036000830152612f1e81612b4b565b9050919050565b60006020820190508181036000830152612f3e81612b6e565b9050919050565b60006020820190508181036000830152612f5e81612b91565b9050919050565b60006020820190508181036000830152612f7e81612bb4565b9050919050565b60006020820190508181036000830152612f9e81612bd7565b9050919050565b60006020820190508181036000830152612fbe81612bfa565b9050919050565b60006020820190508181036000830152612fde81612c1d565b9050919050565b60006020820190508181036000830152612ffe81612c40565b9050919050565b6000602082019050818103600083015261301e81612c63565b9050919050565b6000602082019050818103600083015261303e81612c86565b9050919050565b6000602082019050818103600083015261305e81612ca9565b9050919050565b6000602082019050818103600083015261307e81612ccc565b9050919050565b6000602082019050818103600083015261309e81612cef565b9050919050565b600060208201905081810360008301526130be81612d12565b9050919050565b600060208201905081810360008301526130de81612d7b565b9050919050565b60006020820190506130fa6000830184612d9e565b92915050565b600061310a61311b565b905061311682826133b5565b919050565b6000604051905090565b600067ffffffffffffffff8211156131405761313f6134a2565b5b613149826134e5565b9050602081019050919050565b600067ffffffffffffffff821115613171576131706134a2565b5b61317a826134e5565b9050602081019050919050565b600081519050919050565b600081519050919050565b600082825260208201905092915050565b600082825260208201905092915050565b600081905092915050565b60006131d5826132ee565b91506131e0836132ee565b9250827fffffffffffffffffffffffffffffffffffffffffffffffffffffffffffffffff03821115613215576132146133e6565b5b828201905092915050565b600061322b826132ee565b9150613236836132ee565b9250817fffffffffffffffffffffffffffffffffffffffffffffffffffffffffffffffff048311821515161561326f5761326e6133e6565b5b828202905092915050565b6000613285826132ce565b9050919050565b60008115159050919050565b6000819050919050565b60007fffffffff0000000000000000000000000000000000000000000000000000000082169050919050565b600073ffffffffffffffffffffffffffffffffffffffff82169050919050565b6000819050919050565b600060ff82169050919050565b6000613310826132f8565b9050919050565b82818337600083830152505050565b60005b83811015613344578082015181840152602081019050613329565b83811115613353576000848401525b50505050565b6000613364826132ee565b91506000821415613378576133776133e6565b5b600182039050919050565b6000600282049050600182168061339b57607f821691505b602082108114156133af576133ae613444565b5b50919050565b6133be826134e5565b810181811067ffffffffffffffff821117156133dd576133dc6134a2565b5b80604052505050565b7f4e487b7100000000000000000000000000000000000000000000000000000000600052601160045260246000fd5b7f4e487b7100000000000000000000000000000000000000000000000000000000600052601260045260246000fd5b7f4e487b7100000000000000000000000000000000000000000000000000000000600052602260045260246000fd5b7f4e487b7100000000000000000000000000000000000000000000000000000000600052603260045260246000fd5b7f4e487b7100000000000000000000000000000000000000000000000000000000600052604160045260246000fd5b600080fd5b600080fd5b600080fd5b600080fd5b6000601f19601f8301169050919050565b7f537472696e67733a20686578206c656e67746820696e73756666696369656e74600082015250565b7f4552433732313a2063616c6c6572206973206e6f7420746f6b656e206f776e6560008201527f72206f7220617070726f76656400000000000000000000000000000000000000602082015250565b7f4552433732313a207472616e7366657220746f206e6f6e20455243373231526560008201527f63656976657220696d706c656d656e7465720000000000000000000000000000602082015250565b7f4552433732313a207472616e736665722066726f6d20696e636f72726563742060008201527f6f776e6572000000000000000000000000000000000000000000000000000000602082015250565b7f4552433732313a20746f6b656e20616c7265616479206d696e74656400000000600082015250565b7f4552433732313a207472616e7366657220746f20746865207a65726f2061646460008201527f7265737300000000000000000000000000000000000000000000000000000000602082015250565b7f4552433732313a20617070726f766520746f2063616c6c657200000000000000600082015250565b7f4552433732313a2061646472657373207a65726f206973206e6f74206120766160008201527f6c6964206f776e65720000000000000000000000000000000000000000000000602082015250565b7f45524337323155524953746f726167653a2055524920736574206f66206e6f6e60008201527f6578697374656e7420746f6b656e000000000000000000000000000000000000602082015250565b7f496e697469616c697a61626c653a20636f6e747261637420697320616c72656160008201527f647920696e697469616c697a6564000000000000000000000000000000000000602082015250565b7f4552433732313a206d696e7420746f20746865207a65726f2061646472657373600082015250565b7f4552433732313a20696e76616c696420746f6b656e2049440000000000000000600082015250565b7f4552433732313a20617070726f76616c20746f2063757272656e74206f776e6560008201527f7200000000000000000000000000000000000000000000000000000000000000602082015250565b7f4552433732313a20617070726f76652063616c6c6572206973206e6f7420746f60008201527f6b656e206f776e6572206f7220617070726f76656420666f7220616c6c000000602082015250565b7f496e697469616c697a61626c653a20636f6e7472616374206973206e6f74206960008201527f6e697469616c697a696e67000000000000000000000000000000000000000000602082015250565b7f416363657373436f6e74726f6c3a206163636f756e7420000000000000000000600082015250565b7f206973206d697373696e6720726f6c6520000000000000000000000000000000600082015250565b7f416363657373436f6e74726f6c3a2063616e206f6e6c792072656e6f756e636560008201527f20726f6c657320666f722073656c660000000000000000000000000000000000602082015250565b6139838161327a565b811461398e57600080fd5b50565b61399a8161328c565b81146139a557600080fd5b50565b6139b181613298565b81146139bc57600080fd5b50565b6139c8816132a2565b81146139d357600080fd5b50565b6139df816132ee565b81146139ea57600080fd5b5056fea264697066735822122070c59a449b701984e6b1f130de3170f56040c7b0fa0e4df7c3c903c8dd561a7064736f6c63430008070033",
  "linkReferences": {},
  "deployedLinkReferences": {}
}