{
  "_format": "hh-sol-artifact-1",
  "contractName": "CampaignTokenFactory",
  "sourceName": "contracts/tokens/CampaignTokenFactory.sol",
  "abi": [
    {
      "inputs": [
        {
          "internalType": "address",
          "name": "_implementationContract",
          "type": "address"
        }
      ],
      "stateMutability": "nonpayable",
      "type": "constructor"
    },
    {
      "anonymous": false,
      "inputs": [
        {
          "indexed": true,
          "internalType": "address",
          "name": "previousOwner",
          "type": "address"
        },
        {
          "indexed": true,
          "internalType": "address",
          "name": "newOwner",
          "type": "address"
        }
      ],
      "name": "OwnershipTransferred",
      "type": "event"
    },
    {
      "inputs": [
        {
          "internalType": "string",
          "name": "_tokenName",
          "type": "string"
        },
        {
          "internalType": "string",
          "name": "_tokenSymbol",
          "type": "string"
        },
        {
          "internalType": "address",
          "name": "_campaignContractAddress",
          "type": "address"
        }
      ],
      "name": "deployNewCampaignToken",
      "outputs": [],
      "stateMutability": "nonpayable",
      "type": "function"
    },
    {
      "inputs": [],
      "name": "owner",
      "outputs": [
        {
          "internalType": "address",
          "name": "",
          "type": "address"
        }
      ],
      "stateMutability": "view",
      "type": "function"
    },
    {
      "inputs": [],
      "name": "renounceOwnership",
      "outputs": [],
      "stateMutability": "nonpayable",
      "type": "function"
    },
    {
      "inputs": [
        {
          "internalType": "address",
          "name": "newOwner",
          "type": "address"
        }
      ],
      "name": "transferOwnership",
      "outputs": [],
      "stateMutability": "nonpayable",
      "type": "function"
    }
  ],
  "bytecode": "0x608060405234801561001057600080fd5b50604051610d22380380610d2283398181016040528101906100329190610176565b61004e61004361009560201b60201c565b61009d60201b60201c565b80600160006101000a81548173ffffffffffffffffffffffffffffffffffffffff021916908373ffffffffffffffffffffffffffffffffffffffff160217905550506101f1565b600033905090565b60008060009054906101000a900473ffffffffffffffffffffffffffffffffffffffff169050816000806101000a81548173ffffffffffffffffffffffffffffffffffffffff021916908373ffffffffffffffffffffffffffffffffffffffff1602179055508173ffffffffffffffffffffffffffffffffffffffff168173ffffffffffffffffffffffffffffffffffffffff167f8be0079c531659141344cd1fd0a4f28419497f9722a3daafe3b4186f6b6457e060405160405180910390a35050565b600081519050610170816101da565b92915050565b60006020828403121561018c5761018b6101d5565b5b600061019a84828501610161565b91505092915050565b60006101ae826101b5565b9050919050565b600073ffffffffffffffffffffffffffffffffffffffff82169050919050565b600080fd5b6101e3816101a3565b81146101ee57600080fd5b50565b610b22806102006000396000f3fe608060405234801561001057600080fd5b506004361061004c5760003560e01c8063715018a6146100515780638da5cb5b1461005b578063b4e4d6b814610079578063f2fde38b14610095575b600080fd5b6100596100b1565b005b6100636100c5565b60405161007091906107cd565b60405180910390f35b610093600480360381019061008e9190610682565b6100ee565b005b6100af60048036038101906100aa9190610628565b6102eb565b005b6100b961036f565b6100c360006103ed565b565b60008060009054906101000a900473ffffffffffffffffffffffffffffffffffffffff16905090565b6100f661036f565b6000610123600160009054906101000a900473ffffffffffffffffffffffffffffffffffffffff166104b1565b90508073ffffffffffffffffffffffffffffffffffffffff16634cd88b7685856040518363ffffffff1660e01b8152600401610160929190610811565b600060405180830381600087803b15801561017a57600080fd5b505af115801561018e573d6000803e3d6000fd5b5050505060008173ffffffffffffffffffffffffffffffffffffffff1663d53913936040518163ffffffff1660e01b815260040160206040518083038186803b1580156101da57600080fd5b505afa1580156101ee573d6000803e3d6000fd5b505050506040513d601f19601f820116820180604052508101906102129190610655565b90508173ffffffffffffffffffffffffffffffffffffffff16632f2ff15d82856040518363ffffffff1660e01b815260040161024f9291906107e8565b600060405180830381600087803b15801561026957600080fd5b505af115801561027d573d6000803e3d6000fd5b505050506002829080600181540180825580915050600190039060005260206000200160009091909190916101000a81548173ffffffffffffffffffffffffffffffffffffffff021916908373ffffffffffffffffffffffffffffffffffffffff1602179055505050505050565b6102f361036f565b600073ffffffffffffffffffffffffffffffffffffffff168173ffffffffffffffffffffffffffffffffffffffff161415610363576040517f08c379a000000000000000000000000000000000000000000000000000000000815260040161035a90610848565b60405180910390fd5b61036c816103ed565b50565b610377610586565b73ffffffffffffffffffffffffffffffffffffffff166103956100c5565b73ffffffffffffffffffffffffffffffffffffffff16146103eb576040517f08c379a00000000000000000000000000000000000000000000000000000000081526004016103e290610888565b60405180910390fd5b565b60008060009054906101000a900473ffffffffffffffffffffffffffffffffffffffff169050816000806101000a81548173ffffffffffffffffffffffffffffffffffffffff021916908373ffffffffffffffffffffffffffffffffffffffff1602179055508173ffffffffffffffffffffffffffffffffffffffff168173ffffffffffffffffffffffffffffffffffffffff167f8be0079c531659141344cd1fd0a4f28419497f9722a3daafe3b4186f6b6457e060405160405180910390a35050565b60006040517f3d602d80600a3d3981f3363d3d373d3d3d363d7300000000000000000000000081528260601b60148201527f5af43d82803e903d91602b57fd5bf3000000000000000000000000000000000060288201526037816000f0915050600073ffffffffffffffffffffffffffffffffffffffff168173ffffffffffffffffffffffffffffffffffffffff161415610581576040517f08c379a000000000000000000000000000000000000000000000000000000000815260040161057890610868565b60405180910390fd5b919050565b600033905090565b60006105a161059c846108cd565b6108a8565b9050828152602081018484840111156105bd576105bc6109fd565b5b6105c8848285610956565b509392505050565b6000813590506105df81610abe565b92915050565b6000815190506105f481610ad5565b92915050565b600082601f83011261060f5761060e6109f8565b5b813561061f84826020860161058e565b91505092915050565b60006020828403121561063e5761063d610a07565b5b600061064c848285016105d0565b91505092915050565b60006020828403121561066b5761066a610a07565b5b6000610679848285016105e5565b91505092915050565b60008060006060848603121561069b5761069a610a07565b5b600084013567ffffffffffffffff8111156106b9576106b8610a02565b5b6106c5868287016105fa565b935050602084013567ffffffffffffffff8111156106e6576106e5610a02565b5b6106f2868287016105fa565b9250506040610703868287016105d0565b9150509250925092565b6107168161091a565b82525050565b6107258161092c565b82525050565b6000610736826108fe565b6107408185610909565b9350610750818560208601610965565b61075981610a0c565b840191505092915050565b6000610771602683610909565b915061077c82610a1d565b604082019050919050565b6000610794601683610909565b915061079f82610a6c565b602082019050919050565b60006107b7602083610909565b91506107c282610a95565b602082019050919050565b60006020820190506107e2600083018461070d565b92915050565b60006040820190506107fd600083018561071c565b61080a602083018461070d565b9392505050565b6000604082019050818103600083015261082b818561072b565b9050818103602083015261083f818461072b565b90509392505050565b6000602082019050818103600083015261086181610764565b9050919050565b6000602082019050818103600083015261088181610787565b9050919050565b600060208201905081810360008301526108a1816107aa565b9050919050565b60006108b26108c3565b90506108be8282610998565b919050565b6000604051905090565b600067ffffffffffffffff8211156108e8576108e76109c9565b5b6108f182610a0c565b9050602081019050919050565b600081519050919050565b600082825260208201905092915050565b600061092582610936565b9050919050565b6000819050919050565b600073ffffffffffffffffffffffffffffffffffffffff82169050919050565b82818337600083830152505050565b60005b83811015610983578082015181840152602081019050610968565b83811115610992576000848401525b50505050565b6109a182610a0c565b810181811067ffffffffffffffff821117156109c0576109bf6109c9565b5b80604052505050565b7f4e487b7100000000000000000000000000000000000000000000000000000000600052604160045260246000fd5b600080fd5b600080fd5b600080fd5b600080fd5b6000601f19601f8301169050919050565b7f4f776e61626c653a206e6577206f776e657220697320746865207a65726f206160008201527f6464726573730000000000000000000000000000000000000000000000000000602082015250565b7f455243313136373a20637265617465206661696c656400000000000000000000600082015250565b7f4f776e61626c653a2063616c6c6572206973206e6f7420746865206f776e6572600082015250565b610ac78161091a565b8114610ad257600080fd5b50565b610ade8161092c565b8114610ae957600080fd5b5056fea2646970667358221220cb94d62ea6eb97dc3c45b7b69e94f163ab2f84ff33a568dd07b7315604f6236964736f6c63430008070033",
  "linkReferences": {},
  "deployedLinkReferences": {}
}