{"contracts/Campaign.sol":{"Campaign":{"abi":[{"inputs":[],"stateMutability":"nonpayable","type":"constructor"},{"inputs":[],"name":"Campaign_AmountExceedTotalSupply","type":"error"},{"inputs":[],"name":"Campaign_TokenAmountIsZero","type":"error"},{"inputs":[],"name":"Campaign__AddressIsZeroAddress","type":"error"},{"inputs":[],"name":"Campaign__FundingFinished","type":"error"},{"inputs":[],"name":"Campaign__FundingNotFinished","type":"error"},{"inputs":[],"name":"Campaign__NotTheSubmitter","type":"error"},{"anonymous":false,"inputs":[{"indexed":false,"internalType":"uint8","name":"version","type":"uint8"}],"name":"Initialized","type":"event"},{"anonymous":false,"inputs":[{"indexed":true,"internalType":"address","name":"previousOwner","type":"address"},{"indexed":true,"internalType":"address","name":"newOwner","type":"address"}],"name":"OwnershipTransferred","type":"event"},{"anonymous":false,"inputs":[{"indexed":false,"internalType":"address","name":"newAddress","type":"address"}],"name":"SubmitterAddressChanged","type":"event"},{"anonymous":false,"inputs":[{"indexed":false,"internalType":"address","name":"to","type":"address"},{"indexed":false,"internalType":"uint256","name":"amount","type":"uint256"}],"name":"TokensTransfered","type":"event"},{"anonymous":false,"inputs":[{"indexed":false,"internalType":"address","name":"contributor","type":"address"},{"indexed":false,"internalType":"uint256","name":"amount","type":"uint256"}],"name":"UpdateContributor","type":"event"},{"inputs":[{"internalType":"address","name":"_contributor","type":"address"},{"internalType":"uint256","name":"_amount","type":"uint256"}],"name":"addContributor","outputs":[],"stateMutability":"nonpayable","type":"function"},{"inputs":[{"internalType":"address","name":"","type":"address"}],"name":"contributor","outputs":[{"internalType":"uint256","name":"","type":"uint256"}],"stateMutability":"view","type":"function"},{"inputs":[],"name":"duration","outputs":[{"internalType":"uint256","name":"","type":"uint256"}],"stateMutability":"view","type":"function"},{"inputs":[],"name":"finishFunding","outputs":[],"stateMutability":"nonpayable","type":"function"},{"inputs":[{"internalType":"address","name":"_contributor","type":"address"}],"name":"getContributor","outputs":[{"internalType":"uint256","name":"","type":"uint256"}],"stateMutability":"view","type":"function"},{"inputs":[],"name":"getDuration","outputs":[{"internalType":"uint256","name":"","type":"uint256"}],"stateMutability":"view","type":"function"},{"inputs":[],"name":"getEndDate","outputs":[{"internalType":"uint256","name":"","type":"uint256"}],"stateMutability":"view","type":"function"},{"inputs":[],"name":"getNumberOfContributor","outputs":[{"internalType":"uint256","name":"","type":"uint256"}],"stateMutability":"view","type":"function"},{"inputs":[],"name":"getRemainingFundingTime","outputs":[{"internalType":"uint256","name":"","type":"uint256"}],"stateMutability":"view","type":"function"},{"inputs":[],"name":"getStartDate","outputs":[{"internalType":"uint256","name":"","type":"uint256"}],"stateMutability":"view","type":"function"},{"inputs":[],"name":"getSubmitter","outputs":[{"internalType":"address","name":"","type":"address"}],"stateMutability":"view","type":"function"},{"inputs":[],"name":"getTotalSupply","outputs":[{"internalType":"uint256","name":"","type":"uint256"}],"stateMutability":"view","type":"function"},{"inputs":[{"internalType":"uint256","name":"_duration","type":"uint256"},{"internalType":"address","name":"_submitter","type":"address"},{"internalType":"address","name":"_token","type":"address"}],"name":"initialize","outputs":[],"stateMutability":"nonpayable","type":"function"},{"inputs":[],"name":"isFundingActive","outputs":[{"internalType":"bool","name":"","type":"bool"}],"stateMutability":"view","type":"function"},{"inputs":[],"name":"owner","outputs":[{"internalType":"address","name":"","type":"address"}],"stateMutability":"view","type":"function"},{"inputs":[],"name":"renounceOwnership","outputs":[],"stateMutability":"nonpayable","type":"function"},{"inputs":[],"name":"submitter","outputs":[{"internalType":"address","name":"","type":"address"}],"stateMutability":"view","type":"function"},{"inputs":[],"name":"totalSupply","outputs":[{"internalType":"uint256","name":"","type":"uint256"}],"stateMutability":"view","type":"function"},{"inputs":[{"internalType":"address","name":"newOwner","type":"address"}],"name":"transferOwnership","outputs":[],"stateMutability":"nonpayable","type":"function"},{"inputs":[{"internalType":"address","name":"_to","type":"address"},{"internalType":"uint256","name":"_amount","type":"uint256"}],"name":"transferStableTokens","outputs":[],"stateMutability":"nonpayable","type":"function"},{"inputs":[{"internalType":"address","name":"_submitter","type":"address"}],"name":"updateSubmitterAddress","outputs":[],"stateMutability":"nonpayable","type":"function"}],"evm":{"bytecode":{"linkReferences":{},"object":"60806040523480156200001157600080fd5b50620000226200002860201b60201c565b620001d3565b600060019054906101000a900460ff16156200007b576040517f08c379a0000000000000000000000000000000000000000000000000000000008152600401620000729062000127565b60405180910390fd5b60ff801660008054906101000a900460ff1660ff161015620000ed5760ff6000806101000a81548160ff021916908360ff1602179055507f7f26b83ff96e1f2b6a682f133852f6798a09c465da95921460cefb384740249860ff604051620000e4919062000149565b60405180910390a15b565b6000620000fe60278362000166565b91506200010b8262000184565b604082019050919050565b620001218162000177565b82525050565b600060208201905081810360008301526200014281620000ef565b9050919050565b600060208201905062000160600083018462000116565b92915050565b600082825260208201905092915050565b600060ff82169050919050565b7f496e697469616c697a61626c653a20636f6e747261637420697320696e69746960008201527f616c697a696e6700000000000000000000000000000000000000000000000000602082015250565b61160080620001e36000396000f3fe608060405234801561001057600080fd5b50600436106101375760003560e01c8063ad2e8c9b116100b8578063ceb356051161007c578063ceb35605146102f8578063e0bd7d1514610328578063e67a31a514610344578063ebae46be14610360578063f2fde38b1461036a578063fe5a30d71461038657610137565b8063ad2e8c9b14610264578063b135648814610282578063b4988fd0146102a0578063c4e41b22146102bc578063ca53951d146102da57610137565b806370a84fe4116100ff57806370a84fe4146101e4578063715018a61461020057806378f305c61461020a5780638da5cb5b146102285780638dc45d9a1461024657610137565b80630fb5a6b41461013c57806318160ddd1461015a57806322701a3d146101785780633d8270f514610196578063636d6c9d146101c6575b600080fd5b6101446103a4565b60405161015191906112f5565b60405180910390f35b6101626103aa565b60405161016f91906112f5565b60405180910390f35b6101806103b0565b60405161018d91906112f5565b60405180910390f35b6101b060048036038101906101ab9190611003565b6103ba565b6040516101bd91906112f5565b60405180910390f35b6101ce610403565b6040516101db919061121f565b60405180910390f35b6101fe60048036038101906101f99190611003565b61041a565b005b61020861050d565b005b610212610521565b60405161021f91906112f5565b60405180910390f35b61023061052b565b60405161023d91906111db565b60405180910390f35b61024e610555565b60405161025b91906111db565b60405180910390f35b61026c61057b565b60405161027991906112f5565b60405180910390f35b61028a610585565b60405161029791906112f5565b60405180910390f35b6102ba60048036038101906102b5919061109d565b61058f565b005b6102c461078f565b6040516102d191906112f5565b60405180910390f35b6102e2610799565b6040516102ef91906111db565b60405180910390f35b610312600480360381019061030d9190611003565b6107c3565b60405161031f91906112f5565b60405180910390f35b610342600480360381019061033d9190611030565b6107db565b005b61035e60048036038101906103599190611030565b6109de565b005b610368610ca5565b005b610384600480360381019061037f9190611003565b610cec565b005b61038e610d70565b60405161039b91906112f5565b60405180910390f35b60655481565b60665481565b6000606c54905090565b6000606b60008373ffffffffffffffffffffffffffffffffffffffff1673ffffffffffffffffffffffffffffffffffffffff168152602001908152602001600020549050919050565b6000606960149054906101000a900460ff16905090565b610422610d9b565b600073ffffffffffffffffffffffffffffffffffffffff168173ffffffffffffffffffffffffffffffffffffffff161415610492576040517f08c379a000000000000000000000000000000000000000000000000000000000815260040161048990611255565b60405180910390fd5b80606960006101000a81548173ffffffffffffffffffffffffffffffffffffffff021916908373ffffffffffffffffffffffffffffffffffffffff1602179055507f1617854bea3963c5538d74739e0115563c2cf0c7481642f43c90eb94a453f0c18160405161050291906111db565b60405180910390a150565b610515610d9b565b61051f6000610e19565b565b6000606754905090565b6000603360009054906101000a900473ffffffffffffffffffffffffffffffffffffffff16905090565b606960009054906101000a900473ffffffffffffffffffffffffffffffffffffffff1681565b6000606554905090565b6000606854905090565b60008060019054906101000a900460ff161590508080156105c05750600160008054906101000a900460ff1660ff16105b806105ed57506105cf30610edf565b1580156105ec5750600160008054906101000a900460ff1660ff16145b5b61062c576040517f08c379a000000000000000000000000000000000000000000000000000000000815260040161062390611295565b60405180910390fd5b60016000806101000a81548160ff021916908360ff1602179055508015610669576001600060016101000a81548160ff0219169083151502179055505b8360658190555082606960006101000a81548173ffffffffffffffffffffffffffffffffffffffff021916908373ffffffffffffffffffffffffffffffffffffffff16021790555081606a60006101000a81548173ffffffffffffffffffffffffffffffffffffffff021916908373ffffffffffffffffffffffffffffffffffffffff16021790555042606781905550836067546107079190611321565b6068819055506001606960146101000a81548160ff021916908315150217905550610730610f02565b80156107895760008060016101000a81548160ff0219169083151502179055507f7f26b83ff96e1f2b6a682f133852f6798a09c465da95921460cefb38474024986001604051610780919061123a565b60405180910390a15b50505050565b6000606654905090565b6000606960009054906101000a900473ffffffffffffffffffffffffffffffffffffffff16905090565b606b6020528060005260406000206000915090505481565b6107e3610d9b565b600073ffffffffffffffffffffffffffffffffffffffff168273ffffffffffffffffffffffffffffffffffffffff161415610853576040517f08c379a000000000000000000000000000000000000000000000000000000000815260040161084a90611255565b60405180910390fd5b60001515606960149054906101000a900460ff16151514156108a1576040517fb4fbe6ed00000000000000000000000000000000000000000000000000000000815260040160405180910390fd5b80606b60008473ffffffffffffffffffffffffffffffffffffffff1673ffffffffffffffffffffffffffffffffffffffff168152602001908152602001600020546108ec9190611321565b606b60008473ffffffffffffffffffffffffffffffffffffffff1673ffffffffffffffffffffffffffffffffffffffff168152602001908152602001600020819055506001606c60008282546109429190611321565b92505081905550806066600082825461095b9190611321565b925050819055507f84d28c8df6c0c66c1b9604d24b222f20a3ebb752c68b984d2eb7fd99e982e4a482606b60008573ffffffffffffffffffffffffffffffffffffffff1673ffffffffffffffffffffffffffffffffffffffff168152602001908152602001600020546040516109d29291906111f6565b60405180910390a15050565b606960009054906101000a900473ffffffffffffffffffffffffffffffffffffffff1673ffffffffffffffffffffffffffffffffffffffff163373ffffffffffffffffffffffffffffffffffffffff1614610a65576040517fab0b798900000000000000000000000000000000000000000000000000000000815260040160405180910390fd5b60011515606960149054906101000a900460ff1615151415610ab3576040517f7fd60da200000000000000000000000000000000000000000000000000000000815260040160405180910390fd5b6000811415610aee576040517f23980e3a00000000000000000000000000000000000000000000000000000000815260040160405180910390fd5b600073ffffffffffffffffffffffffffffffffffffffff168273ffffffffffffffffffffffffffffffffffffffff161415610b55576040517f3a80886f00000000000000000000000000000000000000000000000000000000815260040160405180910390fd5b6000606654905081811015610b96576040517ffe271bd100000000000000000000000000000000000000000000000000000000815260040160405180910390fd5b606a60009054906101000a900473ffffffffffffffffffffffffffffffffffffffff1673ffffffffffffffffffffffffffffffffffffffff1663a9059cbb84846040518363ffffffff1660e01b8152600401610bf39291906111f6565b602060405180830381600087803b158015610c0d57600080fd5b505af1158015610c21573d6000803e3d6000fd5b505050506040513d601f19601f82011682018060405250810190610c459190611070565b610c4e57600080fd5b8160666000828254610c609190611377565b925050819055507fa267b5cf59cf96d97abf36d29c63cf7bdef867c208ca8575c47f2cafda39abc98383604051610c989291906111f6565b60405180910390a1505050565b6068544210610cce576000606960146101000a81548160ff021916908315150217905550610cea565b6001606960146101000a81548160ff0219169083151502179055505b565b610cf4610d9b565b600073ffffffffffffffffffffffffffffffffffffffff168173ffffffffffffffffffffffffffffffffffffffff161415610d64576040517f08c379a0000000000000000000000000000000000000000000000000000000008152600401610d5b90611275565b60405180910390fd5b610d6d81610e19565b50565b6000804260685411610d83576000610d92565b42606854610d919190611377565b5b90508091505090565b610da3610f5b565b73ffffffffffffffffffffffffffffffffffffffff16610dc161052b565b73ffffffffffffffffffffffffffffffffffffffff1614610e17576040517f08c379a0000000000000000000000000000000000000000000000000000000008152600401610e0e906112b5565b60405180910390fd5b565b6000603360009054906101000a900473ffffffffffffffffffffffffffffffffffffffff16905081603360006101000a81548173ffffffffffffffffffffffffffffffffffffffff021916908373ffffffffffffffffffffffffffffffffffffffff1602179055508173ffffffffffffffffffffffffffffffffffffffff168173ffffffffffffffffffffffffffffffffffffffff167f8be0079c531659141344cd1fd0a4f28419497f9722a3daafe3b4186f6b6457e060405160405180910390a35050565b6000808273ffffffffffffffffffffffffffffffffffffffff163b119050919050565b600060019054906101000a900460ff16610f51576040517f08c379a0000000000000000000000000000000000000000000000000000000008152600401610f48906112d5565b60405180910390fd5b610f59610f63565b565b600033905090565b600060019054906101000a900460ff16610fb2576040517f08c379a0000000000000000000000000000000000000000000000000000000008152600401610fa9906112d5565b60405180910390fd5b610fc2610fbd610f5b565b610e19565b565b600081359050610fd381611585565b92915050565b600081519050610fe88161159c565b92915050565b600081359050610ffd816115b3565b92915050565b60006020828403121561101957611018611441565b5b600061102784828501610fc4565b91505092915050565b6000806040838503121561104757611046611441565b5b600061105585828601610fc4565b925050602061106685828601610fee565b9150509250929050565b60006020828403121561108657611085611441565b5b600061109484828501610fd9565b91505092915050565b6000806000606084860312156110b6576110b5611441565b5b60006110c486828701610fee565b93505060206110d586828701610fc4565b92505060406110e686828701610fc4565b9150509250925092565b6110f9816113ab565b82525050565b611108816113bd565b82525050565b61111781611400565b82525050565b600061112a600f83611310565b915061113582611446565b602082019050919050565b600061114d602683611310565b91506111588261146f565b604082019050919050565b6000611170602e83611310565b915061117b826114be565b604082019050919050565b6000611193602083611310565b915061119e8261150d565b602082019050919050565b60006111b6602b83611310565b91506111c182611536565b604082019050919050565b6111d5816113e9565b82525050565b60006020820190506111f060008301846110f0565b92915050565b600060408201905061120b60008301856110f0565b61121860208301846111cc565b9392505050565b600060208201905061123460008301846110ff565b92915050565b600060208201905061124f600083018461110e565b92915050565b6000602082019050818103600083015261126e8161111d565b9050919050565b6000602082019050818103600083015261128e81611140565b9050919050565b600060208201905081810360008301526112ae81611163565b9050919050565b600060208201905081810360008301526112ce81611186565b9050919050565b600060208201905081810360008301526112ee816111a9565b9050919050565b600060208201905061130a60008301846111cc565b92915050565b600082825260208201905092915050565b600061132c826113e9565b9150611337836113e9565b9250827fffffffffffffffffffffffffffffffffffffffffffffffffffffffffffffffff0382111561136c5761136b611412565b5b828201905092915050565b6000611382826113e9565b915061138d836113e9565b9250828210156113a05761139f611412565b5b828203905092915050565b60006113b6826113c9565b9050919050565b60008115159050919050565b600073ffffffffffffffffffffffffffffffffffffffff82169050919050565b6000819050919050565b600060ff82169050919050565b600061140b826113f3565b9050919050565b7f4e487b7100000000000000000000000000000000000000000000000000000000600052601160045260246000fd5b600080fd5b7f496e76616c696420616464726573730000000000000000000000000000000000600082015250565b7f4f776e61626c653a206e6577206f776e657220697320746865207a65726f206160008201527f6464726573730000000000000000000000000000000000000000000000000000602082015250565b7f496e697469616c697a61626c653a20636f6e747261637420697320616c72656160008201527f647920696e697469616c697a6564000000000000000000000000000000000000602082015250565b7f4f776e61626c653a2063616c6c6572206973206e6f7420746865206f776e6572600082015250565b7f496e697469616c697a61626c653a20636f6e7472616374206973206e6f74206960008201527f6e697469616c697a696e67000000000000000000000000000000000000000000602082015250565b61158e816113ab565b811461159957600080fd5b50565b6115a5816113bd565b81146115b057600080fd5b50565b6115bc816113e9565b81146115c757600080fd5b5056fea2646970667358221220886c38e94e1d0cea207f27d2683b750c399b6a748cf9ee5c76ef5d5ff58bcbb164736f6c63430008070033","opcodes":"PUSH1 0x80 PUSH1 0x40 MSTORE CALLVALUE DUP1 ISZERO PUSH3 0x11 JUMPI PUSH1 0x0 DUP1 REVERT JUMPDEST POP PUSH3 0x22 PUSH3 0x28 PUSH1 0x20 SHL PUSH1 0x20 SHR JUMP JUMPDEST PUSH3 0x1D3 JUMP JUMPDEST PUSH1 0x0 PUSH1 0x1 SWAP1 SLOAD SWAP1 PUSH2 0x100 EXP SWAP1 DIV PUSH1 0xFF AND ISZERO PUSH3 0x7B JUMPI PUSH1 0x40 MLOAD PUSH32 0x8C379A000000000000000000000000000000000000000000000000000000000 DUP2 MSTORE PUSH1 0x4 ADD PUSH3 0x72 SWAP1 PUSH3 0x127 JUMP JUMPDEST PUSH1 0x40 MLOAD DUP1 SWAP2 SUB SWAP1 REVERT JUMPDEST PUSH1 0xFF DUP1 AND PUSH1 0x0 DUP1 SLOAD SWAP1 PUSH2 0x100 EXP SWAP1 DIV PUSH1 0xFF AND PUSH1 0xFF AND LT ISZERO PUSH3 0xED JUMPI PUSH1 0xFF PUSH1 0x0 DUP1 PUSH2 0x100 EXP DUP2 SLOAD DUP2 PUSH1 0xFF MUL NOT AND SWAP1 DUP4 PUSH1 0xFF AND MUL OR SWAP1 SSTORE POP PUSH32 0x7F26B83FF96E1F2B6A682F133852F6798A09C465DA95921460CEFB3847402498 PUSH1 0xFF PUSH1 0x40 MLOAD PUSH3 0xE4 SWAP2 SWAP1 PUSH3 0x149 JUMP JUMPDEST PUSH1 0x40 MLOAD DUP1 SWAP2 SUB SWAP1 LOG1 JUMPDEST JUMP JUMPDEST PUSH1 0x0 PUSH3 0xFE PUSH1 0x27 DUP4 PUSH3 0x166 JUMP JUMPDEST SWAP2 POP PUSH3 0x10B DUP3 PUSH3 0x184 JUMP JUMPDEST PUSH1 0x40 DUP3 ADD SWAP1 POP SWAP2 SWAP1 POP JUMP JUMPDEST PUSH3 0x121 DUP2 PUSH3 0x177 JUMP JUMPDEST DUP3 MSTORE POP POP JUMP JUMPDEST PUSH1 0x0 PUSH1 0x20 DUP3 ADD SWAP1 POP DUP2 DUP2 SUB PUSH1 0x0 DUP4 ADD MSTORE PUSH3 0x142 DUP2 PUSH3 0xEF JUMP JUMPDEST SWAP1 POP SWAP2 SWAP1 POP JUMP JUMPDEST PUSH1 0x0 PUSH1 0x20 DUP3 ADD SWAP1 POP PUSH3 0x160 PUSH1 0x0 DUP4 ADD DUP5 PUSH3 0x116 JUMP JUMPDEST SWAP3 SWAP2 POP POP JUMP JUMPDEST PUSH1 0x0 DUP3 DUP3 MSTORE PUSH1 0x20 DUP3 ADD SWAP1 POP SWAP3 SWAP2 POP POP JUMP JUMPDEST PUSH1 0x0 PUSH1 0xFF DUP3 AND SWAP1 POP SWAP2 SWAP1 POP JUMP JUMPDEST PUSH32 0x496E697469616C697A61626C653A20636F6E747261637420697320696E697469 PUSH1 0x0 DUP3 ADD MSTORE PUSH32 0x616C697A696E6700000000000000000000000000000000000000000000000000 PUSH1 0x20 DUP3 ADD MSTORE POP JUMP JUMPDEST PUSH2 0x1600 DUP1 PUSH3 0x1E3 PUSH1 0x0 CODECOPY PUSH1 0x0 RETURN INVALID PUSH1 0x80 PUSH1 0x40 MSTORE CALLVALUE DUP1 ISZERO PUSH2 0x10 JUMPI PUSH1 0x0 DUP1 REVERT JUMPDEST POP PUSH1 0x4 CALLDATASIZE LT PUSH2 0x137 JUMPI PUSH1 0x0 CALLDATALOAD PUSH1 0xE0 SHR DUP1 PUSH4 0xAD2E8C9B GT PUSH2 0xB8 JUMPI DUP1 PUSH4 0xCEB35605 GT PUSH2 0x7C JUMPI DUP1 PUSH4 0xCEB35605 EQ PUSH2 0x2F8 JUMPI DUP1 PUSH4 0xE0BD7D15 EQ PUSH2 0x328 JUMPI DUP1 PUSH4 0xE67A31A5 EQ PUSH2 0x344 JUMPI DUP1 PUSH4 0xEBAE46BE EQ PUSH2 0x360 JUMPI DUP1 PUSH4 0xF2FDE38B EQ PUSH2 0x36A JUMPI DUP1 PUSH4 0xFE5A30D7 EQ PUSH2 0x386 JUMPI PUSH2 0x137 JUMP JUMPDEST DUP1 PUSH4 0xAD2E8C9B EQ PUSH2 0x264 JUMPI DUP1 PUSH4 0xB1356488 EQ PUSH2 0x282 JUMPI DUP1 PUSH4 0xB4988FD0 EQ PUSH2 0x2A0 JUMPI DUP1 PUSH4 0xC4E41B22 EQ PUSH2 0x2BC JUMPI DUP1 PUSH4 0xCA53951D EQ PUSH2 0x2DA JUMPI PUSH2 0x137 JUMP JUMPDEST DUP1 PUSH4 0x70A84FE4 GT PUSH2 0xFF JUMPI DUP1 PUSH4 0x70A84FE4 EQ PUSH2 0x1E4 JUMPI DUP1 PUSH4 0x715018A6 EQ PUSH2 0x200 JUMPI DUP1 PUSH4 0x78F305C6 EQ PUSH2 0x20A JUMPI DUP1 PUSH4 0x8DA5CB5B EQ PUSH2 0x228 JUMPI DUP1 PUSH4 0x8DC45D9A EQ PUSH2 0x246 JUMPI PUSH2 0x137 JUMP JUMPDEST DUP1 PUSH4 0xFB5A6B4 EQ PUSH2 0x13C JUMPI DUP1 PUSH4 0x18160DDD EQ PUSH2 0x15A JUMPI DUP1 PUSH4 0x22701A3D EQ PUSH2 0x178 JUMPI DUP1 PUSH4 0x3D8270F5 EQ PUSH2 0x196 JUMPI DUP1 PUSH4 0x636D6C9D EQ PUSH2 0x1C6 JUMPI JUMPDEST PUSH1 0x0 DUP1 REVERT JUMPDEST PUSH2 0x144 PUSH2 0x3A4 JUMP JUMPDEST PUSH1 0x40 MLOAD PUSH2 0x151 SWAP2 SWAP1 PUSH2 0x12F5 JUMP JUMPDEST PUSH1 0x40 MLOAD DUP1 SWAP2 SUB SWAP1 RETURN JUMPDEST PUSH2 0x162 PUSH2 0x3AA JUMP JUMPDEST PUSH1 0x40 MLOAD PUSH2 0x16F SWAP2 SWAP1 PUSH2 0x12F5 JUMP JUMPDEST PUSH1 0x40 MLOAD DUP1 SWAP2 SUB SWAP1 RETURN JUMPDEST PUSH2 0x180 PUSH2 0x3B0 JUMP JUMPDEST PUSH1 0x40 MLOAD PUSH2 0x18D SWAP2 SWAP1 PUSH2 0x12F5 JUMP JUMPDEST PUSH1 0x40 MLOAD DUP1 SWAP2 SUB SWAP1 RETURN JUMPDEST PUSH2 0x1B0 PUSH1 0x4 DUP1 CALLDATASIZE SUB DUP2 ADD SWAP1 PUSH2 0x1AB SWAP2 SWAP1 PUSH2 0x1003 JUMP JUMPDEST PUSH2 0x3BA JUMP JUMPDEST PUSH1 0x40 MLOAD PUSH2 0x1BD SWAP2 SWAP1 PUSH2 0x12F5 JUMP JUMPDEST PUSH1 0x40 MLOAD DUP1 SWAP2 SUB SWAP1 RETURN JUMPDEST PUSH2 0x1CE PUSH2 0x403 JUMP JUMPDEST PUSH1 0x40 MLOAD PUSH2 0x1DB SWAP2 SWAP1 PUSH2 0x121F JUMP JUMPDEST PUSH1 0x40 MLOAD DUP1 SWAP2 SUB SWAP1 RETURN JUMPDEST PUSH2 0x1FE PUSH1 0x4 DUP1 CALLDATASIZE SUB DUP2 ADD SWAP1 PUSH2 0x1F9 SWAP2 SWAP1 PUSH2 0x1003 JUMP JUMPDEST PUSH2 0x41A JUMP JUMPDEST STOP JUMPDEST PUSH2 0x208 PUSH2 0x50D JUMP JUMPDEST STOP JUMPDEST PUSH2 0x212 PUSH2 0x521 JUMP JUMPDEST PUSH1 0x40 MLOAD PUSH2 0x21F SWAP2 SWAP1 PUSH2 0x12F5 JUMP JUMPDEST PUSH1 0x40 MLOAD DUP1 SWAP2 SUB SWAP1 RETURN JUMPDEST PUSH2 0x230 PUSH2 0x52B JUMP JUMPDEST PUSH1 0x40 MLOAD PUSH2 0x23D SWAP2 SWAP1 PUSH2 0x11DB JUMP JUMPDEST PUSH1 0x40 MLOAD DUP1 SWAP2 SUB SWAP1 RETURN JUMPDEST PUSH2 0x24E PUSH2 0x555 JUMP JUMPDEST PUSH1 0x40 MLOAD PUSH2 0x25B SWAP2 SWAP1 PUSH2 0x11DB JUMP JUMPDEST PUSH1 0x40 MLOAD DUP1 SWAP2 SUB SWAP1 RETURN JUMPDEST PUSH2 0x26C PUSH2 0x57B JUMP JUMPDEST PUSH1 0x40 MLOAD PUSH2 0x279 SWAP2 SWAP1 PUSH2 0x12F5 JUMP JUMPDEST PUSH1 0x40 MLOAD DUP1 SWAP2 SUB SWAP1 RETURN JUMPDEST PUSH2 0x28A PUSH2 0x585 JUMP JUMPDEST PUSH1 0x40 MLOAD PUSH2 0x297 SWAP2 SWAP1 PUSH2 0x12F5 JUMP JUMPDEST PUSH1 0x40 MLOAD DUP1 SWAP2 SUB SWAP1 RETURN JUMPDEST PUSH2 0x2BA PUSH1 0x4 DUP1 CALLDATASIZE SUB DUP2 ADD SWAP1 PUSH2 0x2B5 SWAP2 SWAP1 PUSH2 0x109D JUMP JUMPDEST PUSH2 0x58F JUMP JUMPDEST STOP JUMPDEST PUSH2 0x2C4 PUSH2 0x78F JUMP JUMPDEST PUSH1 0x40 MLOAD PUSH2 0x2D1 SWAP2 SWAP1 PUSH2 0x12F5 JUMP JUMPDEST PUSH1 0x40 MLOAD DUP1 SWAP2 SUB SWAP1 RETURN JUMPDEST PUSH2 0x2E2 PUSH2 0x799 JUMP JUMPDEST PUSH1 0x40 MLOAD PUSH2 0x2EF SWAP2 SWAP1 PUSH2 0x11DB JUMP JUMPDEST PUSH1 0x40 MLOAD DUP1 SWAP2 SUB SWAP1 RETURN JUMPDEST PUSH2 0x312 PUSH1 0x4 DUP1 CALLDATASIZE SUB DUP2 ADD SWAP1 PUSH2 0x30D SWAP2 SWAP1 PUSH2 0x1003 JUMP JUMPDEST PUSH2 0x7C3 JUMP JUMPDEST PUSH1 0x40 MLOAD PUSH2 0x31F SWAP2 SWAP1 PUSH2 0x12F5 JUMP JUMPDEST PUSH1 0x40 MLOAD DUP1 SWAP2 SUB SWAP1 RETURN JUMPDEST PUSH2 0x342 PUSH1 0x4 DUP1 CALLDATASIZE SUB DUP2 ADD SWAP1 PUSH2 0x33D SWAP2 SWAP1 PUSH2 0x1030 JUMP JUMPDEST PUSH2 0x7DB JUMP JUMPDEST STOP JUMPDEST PUSH2 0x35E PUSH1 0x4 DUP1 CALLDATASIZE SUB DUP2 ADD SWAP1 PUSH2 0x359 SWAP2 SWAP1 PUSH2 0x1030 JUMP JUMPDEST PUSH2 0x9DE JUMP JUMPDEST STOP JUMPDEST PUSH2 0x368 PUSH2 0xCA5 JUMP JUMPDEST STOP JUMPDEST PUSH2 0x384 PUSH1 0x4 DUP1 CALLDATASIZE SUB DUP2 ADD SWAP1 PUSH2 0x37F SWAP2 SWAP1 PUSH2 0x1003 JUMP JUMPDEST PUSH2 0xCEC JUMP JUMPDEST STOP JUMPDEST PUSH2 0x38E PUSH2 0xD70 JUMP JUMPDEST PUSH1 0x40 MLOAD PUSH2 0x39B SWAP2 SWAP1 PUSH2 0x12F5 JUMP JUMPDEST PUSH1 0x40 MLOAD DUP1 SWAP2 SUB SWAP1 RETURN JUMPDEST PUSH1 0x65 SLOAD DUP2 JUMP JUMPDEST PUSH1 0x66 SLOAD DUP2 JUMP JUMPDEST PUSH1 0x0 PUSH1 0x6C SLOAD SWAP1 POP SWAP1 JUMP JUMPDEST PUSH1 0x0 PUSH1 0x6B PUSH1 0x0 DUP4 PUSH20 0xFFFFFFFFFFFFFFFFFFFFFFFFFFFFFFFFFFFFFFFF AND PUSH20 0xFFFFFFFFFFFFFFFFFFFFFFFFFFFFFFFFFFFFFFFF AND DUP2 MSTORE PUSH1 0x20 ADD SWAP1 DUP2 MSTORE PUSH1 0x20 ADD PUSH1 0x0 KECCAK256 SLOAD SWAP1 POP SWAP2 SWAP1 POP JUMP JUMPDEST PUSH1 0x0 PUSH1 0x69 PUSH1 0x14 SWAP1 SLOAD SWAP1 PUSH2 0x100 EXP SWAP1 DIV PUSH1 0xFF AND SWAP1 POP SWAP1 JUMP JUMPDEST PUSH2 0x422 PUSH2 0xD9B JUMP JUMPDEST PUSH1 0x0 PUSH20 0xFFFFFFFFFFFFFFFFFFFFFFFFFFFFFFFFFFFFFFFF AND DUP2 PUSH20 0xFFFFFFFFFFFFFFFFFFFFFFFFFFFFFFFFFFFFFFFF AND EQ ISZERO PUSH2 0x492 JUMPI PUSH1 0x40 MLOAD PUSH32 0x8C379A000000000000000000000000000000000000000000000000000000000 DUP2 MSTORE PUSH1 0x4 ADD PUSH2 0x489 SWAP1 PUSH2 0x1255 JUMP JUMPDEST PUSH1 0x40 MLOAD DUP1 SWAP2 SUB SWAP1 REVERT JUMPDEST DUP1 PUSH1 0x69 PUSH1 0x0 PUSH2 0x100 EXP DUP2 SLOAD DUP2 PUSH20 0xFFFFFFFFFFFFFFFFFFFFFFFFFFFFFFFFFFFFFFFF MUL NOT AND SWAP1 DUP4 PUSH20 0xFFFFFFFFFFFFFFFFFFFFFFFFFFFFFFFFFFFFFFFF AND MUL OR SWAP1 SSTORE POP PUSH32 0x1617854BEA3963C5538D74739E0115563C2CF0C7481642F43C90EB94A453F0C1 DUP2 PUSH1 0x40 MLOAD PUSH2 0x502 SWAP2 SWAP1 PUSH2 0x11DB JUMP JUMPDEST PUSH1 0x40 MLOAD DUP1 SWAP2 SUB SWAP1 LOG1 POP JUMP JUMPDEST PUSH2 0x515 PUSH2 0xD9B JUMP JUMPDEST PUSH2 0x51F PUSH1 0x0 PUSH2 0xE19 JUMP JUMPDEST JUMP JUMPDEST PUSH1 0x0 PUSH1 0x67 SLOAD SWAP1 POP SWAP1 JUMP JUMPDEST PUSH1 0x0 PUSH1 0x33 PUSH1 0x0 SWAP1 SLOAD SWAP1 PUSH2 0x100 EXP SWAP1 DIV PUSH20 0xFFFFFFFFFFFFFFFFFFFFFFFFFFFFFFFFFFFFFFFF AND SWAP1 POP SWAP1 JUMP JUMPDEST PUSH1 0x69 PUSH1 0x0 SWAP1 SLOAD SWAP1 PUSH2 0x100 EXP SWAP1 DIV PUSH20 0xFFFFFFFFFFFFFFFFFFFFFFFFFFFFFFFFFFFFFFFF AND DUP2 JUMP JUMPDEST PUSH1 0x0 PUSH1 0x65 SLOAD SWAP1 POP SWAP1 JUMP JUMPDEST PUSH1 0x0 PUSH1 0x68 SLOAD SWAP1 POP SWAP1 JUMP JUMPDEST PUSH1 0x0 DUP1 PUSH1 0x1 SWAP1 SLOAD SWAP1 PUSH2 0x100 EXP SWAP1 DIV PUSH1 0xFF AND ISZERO SWAP1 POP DUP1 DUP1 ISZERO PUSH2 0x5C0 JUMPI POP PUSH1 0x1 PUSH1 0x0 DUP1 SLOAD SWAP1 PUSH2 0x100 EXP SWAP1 DIV PUSH1 0xFF AND PUSH1 0xFF AND LT JUMPDEST DUP1 PUSH2 0x5ED JUMPI POP PUSH2 0x5CF ADDRESS PUSH2 0xEDF JUMP JUMPDEST ISZERO DUP1 ISZERO PUSH2 0x5EC JUMPI POP PUSH1 0x1 PUSH1 0x0 DUP1 SLOAD SWAP1 PUSH2 0x100 EXP SWAP1 DIV PUSH1 0xFF AND PUSH1 0xFF AND EQ JUMPDEST JUMPDEST PUSH2 0x62C JUMPI PUSH1 0x40 MLOAD PUSH32 0x8C379A000000000000000000000000000000000000000000000000000000000 DUP2 MSTORE PUSH1 0x4 ADD PUSH2 0x623 SWAP1 PUSH2 0x1295 JUMP JUMPDEST PUSH1 0x40 MLOAD DUP1 SWAP2 SUB SWAP1 REVERT JUMPDEST PUSH1 0x1 PUSH1 0x0 DUP1 PUSH2 0x100 EXP DUP2 SLOAD DUP2 PUSH1 0xFF MUL NOT AND SWAP1 DUP4 PUSH1 0xFF AND MUL OR SWAP1 SSTORE POP DUP1 ISZERO PUSH2 0x669 JUMPI PUSH1 0x1 PUSH1 0x0 PUSH1 0x1 PUSH2 0x100 EXP DUP2 SLOAD DUP2 PUSH1 0xFF MUL NOT AND SWAP1 DUP4 ISZERO ISZERO MUL OR SWAP1 SSTORE POP JUMPDEST DUP4 PUSH1 0x65 DUP2 SWAP1 SSTORE POP DUP3 PUSH1 0x69 PUSH1 0x0 PUSH2 0x100 EXP DUP2 SLOAD DUP2 PUSH20 0xFFFFFFFFFFFFFFFFFFFFFFFFFFFFFFFFFFFFFFFF MUL NOT AND SWAP1 DUP4 PUSH20 0xFFFFFFFFFFFFFFFFFFFFFFFFFFFFFFFFFFFFFFFF AND MUL OR SWAP1 SSTORE POP DUP2 PUSH1 0x6A PUSH1 0x0 PUSH2 0x100 EXP DUP2 SLOAD DUP2 PUSH20 0xFFFFFFFFFFFFFFFFFFFFFFFFFFFFFFFFFFFFFFFF MUL NOT AND SWAP1 DUP4 PUSH20 0xFFFFFFFFFFFFFFFFFFFFFFFFFFFFFFFFFFFFFFFF AND MUL OR SWAP1 SSTORE POP TIMESTAMP PUSH1 0x67 DUP2 SWAP1 SSTORE POP DUP4 PUSH1 0x67 SLOAD PUSH2 0x707 SWAP2 SWAP1 PUSH2 0x1321 JUMP JUMPDEST PUSH1 0x68 DUP2 SWAP1 SSTORE POP PUSH1 0x1 PUSH1 0x69 PUSH1 0x14 PUSH2 0x100 EXP DUP2 SLOAD DUP2 PUSH1 0xFF MUL NOT AND SWAP1 DUP4 ISZERO ISZERO MUL OR SWAP1 SSTORE POP PUSH2 0x730 PUSH2 0xF02 JUMP JUMPDEST DUP1 ISZERO PUSH2 0x789 JUMPI PUSH1 0x0 DUP1 PUSH1 0x1 PUSH2 0x100 EXP DUP2 SLOAD DUP2 PUSH1 0xFF MUL NOT AND SWAP1 DUP4 ISZERO ISZERO MUL OR SWAP1 SSTORE POP PUSH32 0x7F26B83FF96E1F2B6A682F133852F6798A09C465DA95921460CEFB3847402498 PUSH1 0x1 PUSH1 0x40 MLOAD PUSH2 0x780 SWAP2 SWAP1 PUSH2 0x123A JUMP JUMPDEST PUSH1 0x40 MLOAD DUP1 SWAP2 SUB SWAP1 LOG1 JUMPDEST POP POP POP POP JUMP JUMPDEST PUSH1 0x0 PUSH1 0x66 SLOAD SWAP1 POP SWAP1 JUMP JUMPDEST PUSH1 0x0 PUSH1 0x69 PUSH1 0x0 SWAP1 SLOAD SWAP1 PUSH2 0x100 EXP SWAP1 DIV PUSH20 0xFFFFFFFFFFFFFFFFFFFFFFFFFFFFFFFFFFFFFFFF AND SWAP1 POP SWAP1 JUMP JUMPDEST PUSH1 0x6B PUSH1 0x20 MSTORE DUP1 PUSH1 0x0 MSTORE PUSH1 0x40 PUSH1 0x0 KECCAK256 PUSH1 0x0 SWAP2 POP SWAP1 POP SLOAD DUP2 JUMP JUMPDEST PUSH2 0x7E3 PUSH2 0xD9B JUMP JUMPDEST PUSH1 0x0 PUSH20 0xFFFFFFFFFFFFFFFFFFFFFFFFFFFFFFFFFFFFFFFF AND DUP3 PUSH20 0xFFFFFFFFFFFFFFFFFFFFFFFFFFFFFFFFFFFFFFFF AND EQ ISZERO PUSH2 0x853 JUMPI PUSH1 0x40 MLOAD PUSH32 0x8C379A000000000000000000000000000000000000000000000000000000000 DUP2 MSTORE PUSH1 0x4 ADD PUSH2 0x84A SWAP1 PUSH2 0x1255 JUMP JUMPDEST PUSH1 0x40 MLOAD DUP1 SWAP2 SUB SWAP1 REVERT JUMPDEST PUSH1 0x0 ISZERO ISZERO PUSH1 0x69 PUSH1 0x14 SWAP1 SLOAD SWAP1 PUSH2 0x100 EXP SWAP1 DIV PUSH1 0xFF AND ISZERO ISZERO EQ ISZERO PUSH2 0x8A1 JUMPI PUSH1 0x40 MLOAD PUSH32 0xB4FBE6ED00000000000000000000000000000000000000000000000000000000 DUP2 MSTORE PUSH1 0x4 ADD PUSH1 0x40 MLOAD DUP1 SWAP2 SUB SWAP1 REVERT JUMPDEST DUP1 PUSH1 0x6B PUSH1 0x0 DUP5 PUSH20 0xFFFFFFFFFFFFFFFFFFFFFFFFFFFFFFFFFFFFFFFF AND PUSH20 0xFFFFFFFFFFFFFFFFFFFFFFFFFFFFFFFFFFFFFFFF AND DUP2 MSTORE PUSH1 0x20 ADD SWAP1 DUP2 MSTORE PUSH1 0x20 ADD PUSH1 0x0 KECCAK256 SLOAD PUSH2 0x8EC SWAP2 SWAP1 PUSH2 0x1321 JUMP JUMPDEST PUSH1 0x6B PUSH1 0x0 DUP5 PUSH20 0xFFFFFFFFFFFFFFFFFFFFFFFFFFFFFFFFFFFFFFFF AND PUSH20 0xFFFFFFFFFFFFFFFFFFFFFFFFFFFFFFFFFFFFFFFF AND DUP2 MSTORE PUSH1 0x20 ADD SWAP1 DUP2 MSTORE PUSH1 0x20 ADD PUSH1 0x0 KECCAK256 DUP2 SWAP1 SSTORE POP PUSH1 0x1 PUSH1 0x6C PUSH1 0x0 DUP3 DUP3 SLOAD PUSH2 0x942 SWAP2 SWAP1 PUSH2 0x1321 JUMP JUMPDEST SWAP3 POP POP DUP2 SWAP1 SSTORE POP DUP1 PUSH1 0x66 PUSH1 0x0 DUP3 DUP3 SLOAD PUSH2 0x95B SWAP2 SWAP1 PUSH2 0x1321 JUMP JUMPDEST SWAP3 POP POP DUP2 SWAP1 SSTORE POP PUSH32 0x84D28C8DF6C0C66C1B9604D24B222F20A3EBB752C68B984D2EB7FD99E982E4A4 DUP3 PUSH1 0x6B PUSH1 0x0 DUP6 PUSH20 0xFFFFFFFFFFFFFFFFFFFFFFFFFFFFFFFFFFFFFFFF AND PUSH20 0xFFFFFFFFFFFFFFFFFFFFFFFFFFFFFFFFFFFFFFFF AND DUP2 MSTORE PUSH1 0x20 ADD SWAP1 DUP2 MSTORE PUSH1 0x20 ADD PUSH1 0x0 KECCAK256 SLOAD PUSH1 0x40 MLOAD PUSH2 0x9D2 SWAP3 SWAP2 SWAP1 PUSH2 0x11F6 JUMP JUMPDEST PUSH1 0x40 MLOAD DUP1 SWAP2 SUB SWAP1 LOG1 POP POP JUMP JUMPDEST PUSH1 0x69 PUSH1 0x0 SWAP1 SLOAD SWAP1 PUSH2 0x100 EXP SWAP1 DIV PUSH20 0xFFFFFFFFFFFFFFFFFFFFFFFFFFFFFFFFFFFFFFFF AND PUSH20 0xFFFFFFFFFFFFFFFFFFFFFFFFFFFFFFFFFFFFFFFF AND CALLER PUSH20 0xFFFFFFFFFFFFFFFFFFFFFFFFFFFFFFFFFFFFFFFF AND EQ PUSH2 0xA65 JUMPI PUSH1 0x40 MLOAD PUSH32 0xAB0B798900000000000000000000000000000000000000000000000000000000 DUP2 MSTORE PUSH1 0x4 ADD PUSH1 0x40 MLOAD DUP1 SWAP2 SUB SWAP1 REVERT JUMPDEST PUSH1 0x1 ISZERO ISZERO PUSH1 0x69 PUSH1 0x14 SWAP1 SLOAD SWAP1 PUSH2 0x100 EXP SWAP1 DIV PUSH1 0xFF AND ISZERO ISZERO EQ ISZERO PUSH2 0xAB3 JUMPI PUSH1 0x40 MLOAD PUSH32 0x7FD60DA200000000000000000000000000000000000000000000000000000000 DUP2 MSTORE PUSH1 0x4 ADD PUSH1 0x40 MLOAD DUP1 SWAP2 SUB SWAP1 REVERT JUMPDEST PUSH1 0x0 DUP2 EQ ISZERO PUSH2 0xAEE JUMPI PUSH1 0x40 MLOAD PUSH32 0x23980E3A00000000000000000000000000000000000000000000000000000000 DUP2 MSTORE PUSH1 0x4 ADD PUSH1 0x40 MLOAD DUP1 SWAP2 SUB SWAP1 REVERT JUMPDEST PUSH1 0x0 PUSH20 0xFFFFFFFFFFFFFFFFFFFFFFFFFFFFFFFFFFFFFFFF AND DUP3 PUSH20 0xFFFFFFFFFFFFFFFFFFFFFFFFFFFFFFFFFFFFFFFF AND EQ ISZERO PUSH2 0xB55 JUMPI PUSH1 0x40 MLOAD PUSH32 0x3A80886F00000000000000000000000000000000000000000000000000000000 DUP2 MSTORE PUSH1 0x4 ADD PUSH1 0x40 MLOAD DUP1 SWAP2 SUB SWAP1 REVERT JUMPDEST PUSH1 0x0 PUSH1 0x66 SLOAD SWAP1 POP DUP2 DUP2 LT ISZERO PUSH2 0xB96 JUMPI PUSH1 0x40 MLOAD PUSH32 0xFE271BD100000000000000000000000000000000000000000000000000000000 DUP2 MSTORE PUSH1 0x4 ADD PUSH1 0x40 MLOAD DUP1 SWAP2 SUB SWAP1 REVERT JUMPDEST PUSH1 0x6A PUSH1 0x0 SWAP1 SLOAD SWAP1 PUSH2 0x100 EXP SWAP1 DIV PUSH20 0xFFFFFFFFFFFFFFFFFFFFFFFFFFFFFFFFFFFFFFFF AND PUSH20 0xFFFFFFFFFFFFFFFFFFFFFFFFFFFFFFFFFFFFFFFF AND PUSH4 0xA9059CBB DUP5 DUP5 PUSH1 0x40 MLOAD DUP4 PUSH4 0xFFFFFFFF AND PUSH1 0xE0 SHL DUP2 MSTORE PUSH1 0x4 ADD PUSH2 0xBF3 SWAP3 SWAP2 SWAP1 PUSH2 0x11F6 JUMP JUMPDEST PUSH1 0x20 PUSH1 0x40 MLOAD DUP1 DUP4 SUB DUP2 PUSH1 0x0 DUP8 DUP1 EXTCODESIZE ISZERO DUP1 ISZERO PUSH2 0xC0D JUMPI PUSH1 0x0 DUP1 REVERT JUMPDEST POP GAS CALL ISZERO DUP1 ISZERO PUSH2 0xC21 JUMPI RETURNDATASIZE PUSH1 0x0 DUP1 RETURNDATACOPY RETURNDATASIZE PUSH1 0x0 REVERT JUMPDEST POP POP POP POP PUSH1 0x40 MLOAD RETURNDATASIZE PUSH1 0x1F NOT PUSH1 0x1F DUP3 ADD AND DUP3 ADD DUP1 PUSH1 0x40 MSTORE POP DUP2 ADD SWAP1 PUSH2 0xC45 SWAP2 SWAP1 PUSH2 0x1070 JUMP JUMPDEST PUSH2 0xC4E JUMPI PUSH1 0x0 DUP1 REVERT JUMPDEST DUP2 PUSH1 0x66 PUSH1 0x0 DUP3 DUP3 SLOAD PUSH2 0xC60 SWAP2 SWAP1 PUSH2 0x1377 JUMP JUMPDEST SWAP3 POP POP DUP2 SWAP1 SSTORE POP PUSH32 0xA267B5CF59CF96D97ABF36D29C63CF7BDEF867C208CA8575C47F2CAFDA39ABC9 DUP4 DUP4 PUSH1 0x40 MLOAD PUSH2 0xC98 SWAP3 SWAP2 SWAP1 PUSH2 0x11F6 JUMP JUMPDEST PUSH1 0x40 MLOAD DUP1 SWAP2 SUB SWAP1 LOG1 POP POP POP JUMP JUMPDEST PUSH1 0x68 SLOAD TIMESTAMP LT PUSH2 0xCCE JUMPI PUSH1 0x0 PUSH1 0x69 PUSH1 0x14 PUSH2 0x100 EXP DUP2 SLOAD DUP2 PUSH1 0xFF MUL NOT AND SWAP1 DUP4 ISZERO ISZERO MUL OR SWAP1 SSTORE POP PUSH2 0xCEA JUMP JUMPDEST PUSH1 0x1 PUSH1 0x69 PUSH1 0x14 PUSH2 0x100 EXP DUP2 SLOAD DUP2 PUSH1 0xFF MUL NOT AND SWAP1 DUP4 ISZERO ISZERO MUL OR SWAP1 SSTORE POP JUMPDEST JUMP JUMPDEST PUSH2 0xCF4 PUSH2 0xD9B JUMP JUMPDEST PUSH1 0x0 PUSH20 0xFFFFFFFFFFFFFFFFFFFFFFFFFFFFFFFFFFFFFFFF AND DUP2 PUSH20 0xFFFFFFFFFFFFFFFFFFFFFFFFFFFFFFFFFFFFFFFF AND EQ ISZERO PUSH2 0xD64 JUMPI PUSH1 0x40 MLOAD PUSH32 0x8C379A000000000000000000000000000000000000000000000000000000000 DUP2 MSTORE PUSH1 0x4 ADD PUSH2 0xD5B SWAP1 PUSH2 0x1275 JUMP JUMPDEST PUSH1 0x40 MLOAD DUP1 SWAP2 SUB SWAP1 REVERT JUMPDEST PUSH2 0xD6D DUP2 PUSH2 0xE19 JUMP JUMPDEST POP JUMP JUMPDEST PUSH1 0x0 DUP1 TIMESTAMP PUSH1 0x68 SLOAD GT PUSH2 0xD83 JUMPI PUSH1 0x0 PUSH2 0xD92 JUMP JUMPDEST TIMESTAMP PUSH1 0x68 SLOAD PUSH2 0xD91 SWAP2 SWAP1 PUSH2 0x1377 JUMP JUMPDEST JUMPDEST SWAP1 POP DUP1 SWAP2 POP POP SWAP1 JUMP JUMPDEST PUSH2 0xDA3 PUSH2 0xF5B JUMP JUMPDEST PUSH20 0xFFFFFFFFFFFFFFFFFFFFFFFFFFFFFFFFFFFFFFFF AND PUSH2 0xDC1 PUSH2 0x52B JUMP JUMPDEST PUSH20 0xFFFFFFFFFFFFFFFFFFFFFFFFFFFFFFFFFFFFFFFF AND EQ PUSH2 0xE17 JUMPI PUSH1 0x40 MLOAD PUSH32 0x8C379A000000000000000000000000000000000000000000000000000000000 DUP2 MSTORE PUSH1 0x4 ADD PUSH2 0xE0E SWAP1 PUSH2 0x12B5 JUMP JUMPDEST PUSH1 0x40 MLOAD DUP1 SWAP2 SUB SWAP1 REVERT JUMPDEST JUMP JUMPDEST PUSH1 0x0 PUSH1 0x33 PUSH1 0x0 SWAP1 SLOAD SWAP1 PUSH2 0x100 EXP SWAP1 DIV PUSH20 0xFFFFFFFFFFFFFFFFFFFFFFFFFFFFFFFFFFFFFFFF AND SWAP1 POP DUP2 PUSH1 0x33 PUSH1 0x0 PUSH2 0x100 EXP DUP2 SLOAD DUP2 PUSH20 0xFFFFFFFFFFFFFFFFFFFFFFFFFFFFFFFFFFFFFFFF MUL NOT AND SWAP1 DUP4 PUSH20 0xFFFFFFFFFFFFFFFFFFFFFFFFFFFFFFFFFFFFFFFF AND MUL OR SWAP1 SSTORE POP DUP2 PUSH20 0xFFFFFFFFFFFFFFFFFFFFFFFFFFFFFFFFFFFFFFFF AND DUP2 PUSH20 0xFFFFFFFFFFFFFFFFFFFFFFFFFFFFFFFFFFFFFFFF AND PUSH32 0x8BE0079C531659141344CD1FD0A4F28419497F9722A3DAAFE3B4186F6B6457E0 PUSH1 0x40 MLOAD PUSH1 0x40 MLOAD DUP1 SWAP2 SUB SWAP1 LOG3 POP POP JUMP JUMPDEST PUSH1 0x0 DUP1 DUP3 PUSH20 0xFFFFFFFFFFFFFFFFFFFFFFFFFFFFFFFFFFFFFFFF AND EXTCODESIZE GT SWAP1 POP SWAP2 SWAP1 POP JUMP JUMPDEST PUSH1 0x0 PUSH1 0x1 SWAP1 SLOAD SWAP1 PUSH2 0x100 EXP SWAP1 DIV PUSH1 0xFF AND PUSH2 0xF51 JUMPI PUSH1 0x40 MLOAD PUSH32 0x8C379A000000000000000000000000000000000000000000000000000000000 DUP2 MSTORE PUSH1 0x4 ADD PUSH2 0xF48 SWAP1 PUSH2 0x12D5 JUMP JUMPDEST PUSH1 0x40 MLOAD DUP1 SWAP2 SUB SWAP1 REVERT JUMPDEST PUSH2 0xF59 PUSH2 0xF63 JUMP JUMPDEST JUMP JUMPDEST PUSH1 0x0 CALLER SWAP1 POP SWAP1 JUMP JUMPDEST PUSH1 0x0 PUSH1 0x1 SWAP1 SLOAD SWAP1 PUSH2 0x100 EXP SWAP1 DIV PUSH1 0xFF AND PUSH2 0xFB2 JUMPI PUSH1 0x40 MLOAD PUSH32 0x8C379A000000000000000000000000000000000000000000000000000000000 DUP2 MSTORE PUSH1 0x4 ADD PUSH2 0xFA9 SWAP1 PUSH2 0x12D5 JUMP JUMPDEST PUSH1 0x40 MLOAD DUP1 SWAP2 SUB SWAP1 REVERT JUMPDEST PUSH2 0xFC2 PUSH2 0xFBD PUSH2 0xF5B JUMP JUMPDEST PUSH2 0xE19 JUMP JUMPDEST JUMP JUMPDEST PUSH1 0x0 DUP2 CALLDATALOAD SWAP1 POP PUSH2 0xFD3 DUP2 PUSH2 0x1585 JUMP JUMPDEST SWAP3 SWAP2 POP POP JUMP JUMPDEST PUSH1 0x0 DUP2 MLOAD SWAP1 POP PUSH2 0xFE8 DUP2 PUSH2 0x159C JUMP JUMPDEST SWAP3 SWAP2 POP POP JUMP JUMPDEST PUSH1 0x0 DUP2 CALLDATALOAD SWAP1 POP PUSH2 0xFFD DUP2 PUSH2 0x15B3 JUMP JUMPDEST SWAP3 SWAP2 POP POP JUMP JUMPDEST PUSH1 0x0 PUSH1 0x20 DUP3 DUP5 SUB SLT ISZERO PUSH2 0x1019 JUMPI PUSH2 0x1018 PUSH2 0x1441 JUMP JUMPDEST JUMPDEST PUSH1 0x0 PUSH2 0x1027 DUP5 DUP3 DUP6 ADD PUSH2 0xFC4 JUMP JUMPDEST SWAP2 POP POP SWAP3 SWAP2 POP POP JUMP JUMPDEST PUSH1 0x0 DUP1 PUSH1 0x40 DUP4 DUP6 SUB SLT ISZERO PUSH2 0x1047 JUMPI PUSH2 0x1046 PUSH2 0x1441 JUMP JUMPDEST JUMPDEST PUSH1 0x0 PUSH2 0x1055 DUP6 DUP3 DUP7 ADD PUSH2 0xFC4 JUMP JUMPDEST SWAP3 POP POP PUSH1 0x20 PUSH2 0x1066 DUP6 DUP3 DUP7 ADD PUSH2 0xFEE JUMP JUMPDEST SWAP2 POP POP SWAP3 POP SWAP3 SWAP1 POP JUMP JUMPDEST PUSH1 0x0 PUSH1 0x20 DUP3 DUP5 SUB SLT ISZERO PUSH2 0x1086 JUMPI PUSH2 0x1085 PUSH2 0x1441 JUMP JUMPDEST JUMPDEST PUSH1 0x0 PUSH2 0x1094 DUP5 DUP3 DUP6 ADD PUSH2 0xFD9 JUMP JUMPDEST SWAP2 POP POP SWAP3 SWAP2 POP POP JUMP JUMPDEST PUSH1 0x0 DUP1 PUSH1 0x0 PUSH1 0x60 DUP5 DUP7 SUB SLT ISZERO PUSH2 0x10B6 JUMPI PUSH2 0x10B5 PUSH2 0x1441 JUMP JUMPDEST JUMPDEST PUSH1 0x0 PUSH2 0x10C4 DUP7 DUP3 DUP8 ADD PUSH2 0xFEE JUMP JUMPDEST SWAP4 POP POP PUSH1 0x20 PUSH2 0x10D5 DUP7 DUP3 DUP8 ADD PUSH2 0xFC4 JUMP JUMPDEST SWAP3 POP POP PUSH1 0x40 PUSH2 0x10E6 DUP7 DUP3 DUP8 ADD PUSH2 0xFC4 JUMP JUMPDEST SWAP2 POP POP SWAP3 POP SWAP3 POP SWAP3 JUMP JUMPDEST PUSH2 0x10F9 DUP2 PUSH2 0x13AB JUMP JUMPDEST DUP3 MSTORE POP POP JUMP JUMPDEST PUSH2 0x1108 DUP2 PUSH2 0x13BD JUMP JUMPDEST DUP3 MSTORE POP POP JUMP JUMPDEST PUSH2 0x1117 DUP2 PUSH2 0x1400 JUMP JUMPDEST DUP3 MSTORE POP POP JUMP JUMPDEST PUSH1 0x0 PUSH2 0x112A PUSH1 0xF DUP4 PUSH2 0x1310 JUMP JUMPDEST SWAP2 POP PUSH2 0x1135 DUP3 PUSH2 0x1446 JUMP JUMPDEST PUSH1 0x20 DUP3 ADD SWAP1 POP SWAP2 SWAP1 POP JUMP JUMPDEST PUSH1 0x0 PUSH2 0x114D PUSH1 0x26 DUP4 PUSH2 0x1310 JUMP JUMPDEST SWAP2 POP PUSH2 0x1158 DUP3 PUSH2 0x146F JUMP JUMPDEST PUSH1 0x40 DUP3 ADD SWAP1 POP SWAP2 SWAP1 POP JUMP JUMPDEST PUSH1 0x0 PUSH2 0x1170 PUSH1 0x2E DUP4 PUSH2 0x1310 JUMP JUMPDEST SWAP2 POP PUSH2 0x117B DUP3 PUSH2 0x14BE JUMP JUMPDEST PUSH1 0x40 DUP3 ADD SWAP1 POP SWAP2 SWAP1 POP JUMP JUMPDEST PUSH1 0x0 PUSH2 0x1193 PUSH1 0x20 DUP4 PUSH2 0x1310 JUMP JUMPDEST SWAP2 POP PUSH2 0x119E DUP3 PUSH2 0x150D JUMP JUMPDEST PUSH1 0x20 DUP3 ADD SWAP1 POP SWAP2 SWAP1 POP JUMP JUMPDEST PUSH1 0x0 PUSH2 0x11B6 PUSH1 0x2B DUP4 PUSH2 0x1310 JUMP JUMPDEST SWAP2 POP PUSH2 0x11C1 DUP3 PUSH2 0x1536 JUMP JUMPDEST PUSH1 0x40 DUP3 ADD SWAP1 POP SWAP2 SWAP1 POP JUMP JUMPDEST PUSH2 0x11D5 DUP2 PUSH2 0x13E9 JUMP JUMPDEST DUP3 MSTORE POP POP JUMP JUMPDEST PUSH1 0x0 PUSH1 0x20 DUP3 ADD SWAP1 POP PUSH2 0x11F0 PUSH1 0x0 DUP4 ADD DUP5 PUSH2 0x10F0 JUMP JUMPDEST SWAP3 SWAP2 POP POP JUMP JUMPDEST PUSH1 0x0 PUSH1 0x40 DUP3 ADD SWAP1 POP PUSH2 0x120B PUSH1 0x0 DUP4 ADD DUP6 PUSH2 0x10F0 JUMP JUMPDEST PUSH2 0x1218 PUSH1 0x20 DUP4 ADD DUP5 PUSH2 0x11CC JUMP JUMPDEST SWAP4 SWAP3 POP POP POP JUMP JUMPDEST PUSH1 0x0 PUSH1 0x20 DUP3 ADD SWAP1 POP PUSH2 0x1234 PUSH1 0x0 DUP4 ADD DUP5 PUSH2 0x10FF JUMP JUMPDEST SWAP3 SWAP2 POP POP JUMP JUMPDEST PUSH1 0x0 PUSH1 0x20 DUP3 ADD SWAP1 POP PUSH2 0x124F PUSH1 0x0 DUP4 ADD DUP5 PUSH2 0x110E JUMP JUMPDEST SWAP3 SWAP2 POP POP JUMP JUMPDEST PUSH1 0x0 PUSH1 0x20 DUP3 ADD SWAP1 POP DUP2 DUP2 SUB PUSH1 0x0 DUP4 ADD MSTORE PUSH2 0x126E DUP2 PUSH2 0x111D JUMP JUMPDEST SWAP1 POP SWAP2 SWAP1 POP JUMP JUMPDEST PUSH1 0x0 PUSH1 0x20 DUP3 ADD SWAP1 POP DUP2 DUP2 SUB PUSH1 0x0 DUP4 ADD MSTORE PUSH2 0x128E DUP2 PUSH2 0x1140 JUMP JUMPDEST SWAP1 POP SWAP2 SWAP1 POP JUMP JUMPDEST PUSH1 0x0 PUSH1 0x20 DUP3 ADD SWAP1 POP DUP2 DUP2 SUB PUSH1 0x0 DUP4 ADD MSTORE PUSH2 0x12AE DUP2 PUSH2 0x1163 JUMP JUMPDEST SWAP1 POP SWAP2 SWAP1 POP JUMP JUMPDEST PUSH1 0x0 PUSH1 0x20 DUP3 ADD SWAP1 POP DUP2 DUP2 SUB PUSH1 0x0 DUP4 ADD MSTORE PUSH2 0x12CE DUP2 PUSH2 0x1186 JUMP JUMPDEST SWAP1 POP SWAP2 SWAP1 POP JUMP JUMPDEST PUSH1 0x0 PUSH1 0x20 DUP3 ADD SWAP1 POP DUP2 DUP2 SUB PUSH1 0x0 DUP4 ADD MSTORE PUSH2 0x12EE DUP2 PUSH2 0x11A9 JUMP JUMPDEST SWAP1 POP SWAP2 SWAP1 POP JUMP JUMPDEST PUSH1 0x0 PUSH1 0x20 DUP3 ADD SWAP1 POP PUSH2 0x130A PUSH1 0x0 DUP4 ADD DUP5 PUSH2 0x11CC JUMP JUMPDEST SWAP3 SWAP2 POP POP JUMP JUMPDEST PUSH1 0x0 DUP3 DUP3 MSTORE PUSH1 0x20 DUP3 ADD SWAP1 POP SWAP3 SWAP2 POP POP JUMP JUMPDEST PUSH1 0x0 PUSH2 0x132C DUP3 PUSH2 0x13E9 JUMP JUMPDEST SWAP2 POP PUSH2 0x1337 DUP4 PUSH2 0x13E9 JUMP JUMPDEST SWAP3 POP DUP3 PUSH32 0xFFFFFFFFFFFFFFFFFFFFFFFFFFFFFFFFFFFFFFFFFFFFFFFFFFFFFFFFFFFFFFFF SUB DUP3 GT ISZERO PUSH2 0x136C JUMPI PUSH2 0x136B PUSH2 0x1412 JUMP JUMPDEST JUMPDEST DUP3 DUP3 ADD SWAP1 POP SWAP3 SWAP2 POP POP JUMP JUMPDEST PUSH1 0x0 PUSH2 0x1382 DUP3 PUSH2 0x13E9 JUMP JUMPDEST SWAP2 POP PUSH2 0x138D DUP4 PUSH2 0x13E9 JUMP JUMPDEST SWAP3 POP DUP3 DUP3 LT ISZERO PUSH2 0x13A0 JUMPI PUSH2 0x139F PUSH2 0x1412 JUMP JUMPDEST JUMPDEST DUP3 DUP3 SUB SWAP1 POP SWAP3 SWAP2 POP POP JUMP JUMPDEST PUSH1 0x0 PUSH2 0x13B6 DUP3 PUSH2 0x13C9 JUMP JUMPDEST SWAP1 POP SWAP2 SWAP1 POP JUMP JUMPDEST PUSH1 0x0 DUP2 ISZERO ISZERO SWAP1 POP SWAP2 SWAP1 POP JUMP JUMPDEST PUSH1 0x0 PUSH20 0xFFFFFFFFFFFFFFFFFFFFFFFFFFFFFFFFFFFFFFFF DUP3 AND SWAP1 POP SWAP2 SWAP1 POP JUMP JUMPDEST PUSH1 0x0 DUP2 SWAP1 POP SWAP2 SWAP1 POP JUMP JUMPDEST PUSH1 0x0 PUSH1 0xFF DUP3 AND SWAP1 POP SWAP2 SWAP1 POP JUMP JUMPDEST PUSH1 0x0 PUSH2 0x140B DUP3 PUSH2 0x13F3 JUMP JUMPDEST SWAP1 POP SWAP2 SWAP1 POP JUMP JUMPDEST PUSH32 0x4E487B7100000000000000000000000000000000000000000000000000000000 PUSH1 0x0 MSTORE PUSH1 0x11 PUSH1 0x4 MSTORE PUSH1 0x24 PUSH1 0x0 REVERT JUMPDEST PUSH1 0x0 DUP1 REVERT JUMPDEST PUSH32 0x496E76616C696420616464726573730000000000000000000000000000000000 PUSH1 0x0 DUP3 ADD MSTORE POP JUMP JUMPDEST PUSH32 0x4F776E61626C653A206E6577206F776E657220697320746865207A65726F2061 PUSH1 0x0 DUP3 ADD MSTORE PUSH32 0x6464726573730000000000000000000000000000000000000000000000000000 PUSH1 0x20 DUP3 ADD MSTORE POP JUMP JUMPDEST PUSH32 0x496E697469616C697A61626C653A20636F6E747261637420697320616C726561 PUSH1 0x0 DUP3 ADD MSTORE PUSH32 0x647920696E697469616C697A6564000000000000000000000000000000000000 PUSH1 0x20 DUP3 ADD MSTORE POP JUMP JUMPDEST PUSH32 0x4F776E61626C653A2063616C6C6572206973206E6F7420746865206F776E6572 PUSH1 0x0 DUP3 ADD MSTORE POP JUMP JUMPDEST PUSH32 0x496E697469616C697A61626C653A20636F6E7472616374206973206E6F742069 PUSH1 0x0 DUP3 ADD MSTORE PUSH32 0x6E697469616C697A696E67000000000000000000000000000000000000000000 PUSH1 0x20 DUP3 ADD MSTORE POP JUMP JUMPDEST PUSH2 0x158E DUP2 PUSH2 0x13AB JUMP JUMPDEST DUP2 EQ PUSH2 0x1599 JUMPI PUSH1 0x0 DUP1 REVERT JUMPDEST POP JUMP JUMPDEST PUSH2 0x15A5 DUP2 PUSH2 0x13BD JUMP JUMPDEST DUP2 EQ PUSH2 0x15B0 JUMPI PUSH1 0x0 DUP1 REVERT JUMPDEST POP JUMP JUMPDEST PUSH2 0x15BC DUP2 PUSH2 0x13E9 JUMP JUMPDEST DUP2 EQ PUSH2 0x15C7 JUMPI PUSH1 0x0 DUP1 REVERT JUMPDEST POP JUMP INVALID LOG2 PUSH5 0x6970667358 0x22 SLT KECCAK256 DUP9 PUSH13 0x38E94E1D0CEA207F27D2683B75 0xC CODECOPY SWAP12 PUSH11 0x748CF9EE5C76EF5D5FF58B 0xCB 0xB1 PUSH5 0x736F6C6343 STOP ADDMOD SMOD STOP CALLER "},"methodIdentifiers":{"addContributor(address,uint256)":"e0bd7d15","contributor(address)":"ceb35605","duration()":"0fb5a6b4","finishFunding()":"ebae46be","getContributor(address)":"3d8270f5","getDuration()":"ad2e8c9b","getEndDate()":"b1356488","getNumberOfContributor()":"22701a3d","getRemainingFundingTime()":"fe5a30d7","getStartDate()":"78f305c6","getSubmitter()":"ca53951d","getTotalSupply()":"c4e41b22","initialize(uint256,address,address)":"b4988fd0","isFundingActive()":"636d6c9d","owner()":"8da5cb5b","renounceOwnership()":"715018a6","submitter()":"8dc45d9a","totalSupply()":"18160ddd","transferOwnership(address)":"f2fde38b","transferStableTokens(address,uint256)":"e67a31a5","updateSubmitterAddress(address)":"70a84fe4"}}}}}