{"contracts/CoinRiseTokenPool.sol":{"CoinRiseTokenPool":{"abi":[{"inputs":[{"internalType":"address","name":"_stableToken","type":"address"},{"internalType":"address","name":"_campaignManagerAddress","type":"address"}],"stateMutability":"nonpayable","type":"constructor"},{"inputs":[],"name":"CoinRiseTokenPool__NotCampaignManager","type":"error"},{"inputs":[],"name":"CoinRiseTokenPool__NotEnoughFreeStableTokens","type":"error"},{"inputs":[],"name":"CoinRiseTokenPool__NotEnoughLockedStableCoins","type":"error"},{"anonymous":false,"inputs":[{"indexed":false,"internalType":"address","name":"campaign","type":"address"},{"indexed":false,"internalType":"uint256","name":"amount","type":"uint256"}],"name":"FundingsSentToCampaign","type":"event"},{"anonymous":false,"inputs":[{"indexed":false,"internalType":"address","name":"newAddress","type":"address"}],"name":"RegistryAddressUpdated","type":"event"},{"anonymous":false,"inputs":[{"indexed":true,"internalType":"bytes32","name":"role","type":"bytes32"},{"indexed":true,"internalType":"bytes32","name":"previousAdminRole","type":"bytes32"},{"indexed":true,"internalType":"bytes32","name":"newAdminRole","type":"bytes32"}],"name":"RoleAdminChanged","type":"event"},{"anonymous":false,"inputs":[{"indexed":true,"internalType":"bytes32","name":"role","type":"bytes32"},{"indexed":true,"internalType":"address","name":"account","type":"address"},{"indexed":true,"internalType":"address","name":"sender","type":"address"}],"name":"RoleGranted","type":"event"},{"anonymous":false,"inputs":[{"indexed":true,"internalType":"bytes32","name":"role","type":"bytes32"},{"indexed":true,"internalType":"address","name":"account","type":"address"},{"indexed":true,"internalType":"address","name":"sender","type":"address"}],"name":"RoleRevoked","type":"event"},{"anonymous":false,"inputs":[{"indexed":false,"internalType":"uint256","name":"lockedTotalSupply","type":"uint256"},{"indexed":false,"internalType":"uint256","name":"freeTotalSupply","type":"uint256"}],"name":"StableTokensUpdated","type":"event"},{"anonymous":false,"inputs":[{"indexed":false,"internalType":"address","name":"to","type":"address"},{"indexed":false,"internalType":"uint256","name":"amount","type":"uint256"}],"name":"WithdrawFreeStableTokenFunds","type":"event"},{"inputs":[],"name":"DEFAULT_ADMIN_ROLE","outputs":[{"internalType":"bytes32","name":"","type":"bytes32"}],"stateMutability":"view","type":"function"},{"inputs":[],"name":"SENDER_ROLE","outputs":[{"internalType":"bytes32","name":"","type":"bytes32"}],"stateMutability":"view","type":"function"},{"inputs":[],"name":"WITHDRAW_ROLE","outputs":[{"internalType":"bytes32","name":"","type":"bytes32"}],"stateMutability":"view","type":"function"},{"inputs":[],"name":"getFreeTotalStableTokenSupply","outputs":[{"internalType":"uint256","name":"","type":"uint256"}],"stateMutability":"view","type":"function"},{"inputs":[],"name":"getLockedTotalStableTokenSupply","outputs":[{"internalType":"uint256","name":"","type":"uint256"}],"stateMutability":"view","type":"function"},{"inputs":[{"internalType":"bytes32","name":"role","type":"bytes32"}],"name":"getRoleAdmin","outputs":[{"internalType":"bytes32","name":"","type":"bytes32"}],"stateMutability":"view","type":"function"},{"inputs":[{"internalType":"bytes32","name":"role","type":"bytes32"},{"internalType":"address","name":"account","type":"address"}],"name":"grantRole","outputs":[],"stateMutability":"nonpayable","type":"function"},{"inputs":[{"internalType":"bytes32","name":"role","type":"bytes32"},{"internalType":"address","name":"account","type":"address"}],"name":"hasRole","outputs":[{"internalType":"bool","name":"","type":"bool"}],"stateMutability":"view","type":"function"},{"inputs":[{"internalType":"bytes32","name":"role","type":"bytes32"},{"internalType":"address","name":"account","type":"address"}],"name":"renounceRole","outputs":[],"stateMutability":"nonpayable","type":"function"},{"inputs":[{"internalType":"bytes32","name":"role","type":"bytes32"},{"internalType":"address","name":"account","type":"address"}],"name":"revokeRole","outputs":[],"stateMutability":"nonpayable","type":"function"},{"inputs":[{"internalType":"address","name":"_campaignAddress","type":"address"},{"internalType":"uint256","name":"_amount","type":"uint256"}],"name":"sendFundsToCampaignContract","outputs":[],"stateMutability":"nonpayable","type":"function"},{"inputs":[{"internalType":"bytes4","name":"interfaceId","type":"bytes4"}],"name":"supportsInterface","outputs":[{"internalType":"bool","name":"","type":"bool"}],"stateMutability":"view","type":"function"},{"inputs":[{"internalType":"uint256","name":"_amount","type":"uint256"},{"internalType":"uint256","name":"_fees","type":"uint256"},{"internalType":"address","name":"from","type":"address"}],"name":"transferStableTokensFromManager","outputs":[],"stateMutability":"nonpayable","type":"function"},{"inputs":[{"internalType":"uint256","name":"_amount","type":"uint256"}],"name":"withdrawFreeStableTokens","outputs":[],"stateMutability":"nonpayable","type":"function"}],"evm":{"bytecode":{"linkReferences":{},"object":"60806040523480156200001157600080fd5b5060405162001aa138038062001aa1833981810160405281019062000037919062000250565b6200004c6000801b33620000d660201b60201c565b81600160006101000a81548173ffffffffffffffffffffffffffffffffffffffff021916908373ffffffffffffffffffffffffffffffffffffffff16021790555080600260006101000a81548173ffffffffffffffffffffffffffffffffffffffff021916908373ffffffffffffffffffffffffffffffffffffffff1602179055505050620002ea565b620000e88282620001c760201b60201c565b620001c357600160008084815260200190815260200160002060000160008373ffffffffffffffffffffffffffffffffffffffff1673ffffffffffffffffffffffffffffffffffffffff16815260200190815260200160002060006101000a81548160ff021916908315150217905550620001686200023160201b60201c565b73ffffffffffffffffffffffffffffffffffffffff168173ffffffffffffffffffffffffffffffffffffffff16837f2f8788117e7eff1d82e926ec794901d17c78024a50270940304540a733656f0d60405160405180910390a45b5050565b600080600084815260200190815260200160002060000160008373ffffffffffffffffffffffffffffffffffffffff1673ffffffffffffffffffffffffffffffffffffffff16815260200190815260200160002060009054906101000a900460ff16905092915050565b600033905090565b6000815190506200024a81620002d0565b92915050565b600080604083850312156200026a5762000269620002cb565b5b60006200027a8582860162000239565b92505060206200028d8582860162000239565b9150509250929050565b6000620002a482620002ab565b9050919050565b600073ffffffffffffffffffffffffffffffffffffffff82169050919050565b600080fd5b620002db8162000297565b8114620002e757600080fd5b50565b6117a780620002fa6000396000f3fe608060405234801561001057600080fd5b50600436106100ea5760003560e01c806391d148541161008c578063d547741f11610066578063d547741f14610249578063e02023a114610265578063e2866d8e14610283578063eebe847a1461029f576100ea565b806391d14854146101dd578063a217fddf1461020d578063c42ef38c1461022b576100ea565b80632f2ff15d116100c85780632f2ff15d1461016b57806336568abe146101875780634c51951c146101a35780638a058a9e146101bf576100ea565b806301ffc9a7146100ef5780631c5e2fd71461011f578063248a9ca31461013b575b600080fd5b61010960048036038101906101049190611056565b6102bd565b60405161011691906112cf565b60405180910390f35b61013960048036038101906101349190610f7c565b610337565b005b61015560048036038101906101509190610fe9565b61050a565b60405161016291906112ea565b60405180910390f35b61018560048036038101906101809190611016565b610529565b005b6101a1600480360381019061019c9190611016565b61054a565b005b6101bd60048036038101906101b891906110b0565b6105cd565b005b6101c761078f565b6040516101d49190611367565b60405180910390f35b6101f760048036038101906101f29190611016565b610799565b60405161020491906112cf565b60405180910390f35b610215610803565b60405161022291906112ea565b60405180910390f35b61023361080a565b60405161024091906112ea565b60405180910390f35b610263600480360381019061025e9190611016565b61082e565b005b61026d61084f565b60405161027a91906112ea565b60405180910390f35b61029d60048036038101906102989190611083565b610873565b005b6102a76109e9565b6040516102b49190611367565b60405180910390f35b60007f7965db0b000000000000000000000000000000000000000000000000000000007bffffffffffffffffffffffffffffffffffffffffffffffffffffffff1916827bffffffffffffffffffffffffffffffffffffffffffffffffffffffff19161480610330575061032f826109f3565b5b9050919050565b338073ffffffffffffffffffffffffffffffffffffffff16600260009054906101000a900473ffffffffffffffffffffffffffffffffffffffff1673ffffffffffffffffffffffffffffffffffffffff16146103bf576040517f1a421b7400000000000000000000000000000000000000000000000000000000815260040160405180910390fd5b8160035410156103fb576040517fad6f02f600000000000000000000000000000000000000000000000000000000815260040160405180910390fd5b600160009054906101000a900473ffffffffffffffffffffffffffffffffffffffff1673ffffffffffffffffffffffffffffffffffffffff1663a9059cbb84846040518363ffffffff1660e01b81526004016104589291906112a6565b602060405180830381600087803b15801561047257600080fd5b505af1158015610486573d6000803e3d6000fd5b505050506040513d601f19601f820116820180604052508101906104aa9190610fbc565b6104b357600080fd5b81600360008282546104c59190611482565b925050819055507f73b5adfd0bc7f9a4f823199986a150a1eeeb5e93cb9409b389f7ef1ee54ae97283836040516104fd9291906112a6565b60405180910390a1505050565b6000806000838152602001908152602001600020600101549050919050565b6105328261050a565b61053b81610a5d565b6105458383610a71565b505050565b610552610b51565b73ffffffffffffffffffffffffffffffffffffffff168173ffffffffffffffffffffffffffffffffffffffff16146105bf576040517f08c379a00000000000000000000000000000000000000000000000000000000081526004016105b690611347565b60405180910390fd5b6105c98282610b59565b5050565b338073ffffffffffffffffffffffffffffffffffffffff16600260009054906101000a900473ffffffffffffffffffffffffffffffffffffffff1673ffffffffffffffffffffffffffffffffffffffff1614610655576040517f1a421b7400000000000000000000000000000000000000000000000000000000815260040160405180910390fd5b600160009054906101000a900473ffffffffffffffffffffffffffffffffffffffff1673ffffffffffffffffffffffffffffffffffffffff166323b872dd8330876040518463ffffffff1660e01b81526004016106b49392919061126f565b602060405180830381600087803b1580156106ce57600080fd5b505af11580156106e2573d6000803e3d6000fd5b505050506040513d601f19601f820116820180604052508101906107069190610fbc565b61070f57600080fd5b828461071b9190611482565b6003600082825461072c91906113d2565b92505081905550826004600082825461074591906113d2565b925050819055507f321b600a72e347eae3fe308860434cb251ab63515c43e1911ddd6b010be66365600354600454604051610781929190611382565b60405180910390a150505050565b6000600354905090565b600080600084815260200190815260200160002060000160008373ffffffffffffffffffffffffffffffffffffffff1673ffffffffffffffffffffffffffffffffffffffff16815260200190815260200160002060009054906101000a900460ff16905092915050565b6000801b81565b7f76d12de99ad2ca162840505be9b657c2e7a650cc3ee0284048f3f9def3c1adf281565b6108378261050a565b61084081610a5d565b61084a8383610b59565b505050565b7f5d8e12c39142ff96d79d04d15d1ba1269e4fe57bb9d26f43523628b34ba108ec81565b7f5d8e12c39142ff96d79d04d15d1ba1269e4fe57bb9d26f43523628b34ba108ec61089d81610a5d565b60006004549050828110156108de576040517fe451ed4e00000000000000000000000000000000000000000000000000000000815260040160405180910390fd5b82816108ea9190611482565b9050600160009054906101000a900473ffffffffffffffffffffffffffffffffffffffff1673ffffffffffffffffffffffffffffffffffffffff1663a9059cbb33856040518363ffffffff1660e01b81526004016109499291906112a6565b602060405180830381600087803b15801561096357600080fd5b505af1158015610977573d6000803e3d6000fd5b505050506040513d601f19601f8201168201806040525081019061099b9190610fbc565b6109a457600080fd5b806004819055507f1cf773a3699c7f5f80df04b8d5daf523fb5b7e2617cc4ea3759576d2f516645c33846040516109dc9291906112a6565b60405180910390a1505050565b6000600454905090565b60007f01ffc9a7000000000000000000000000000000000000000000000000000000007bffffffffffffffffffffffffffffffffffffffffffffffffffffffff1916827bffffffffffffffffffffffffffffffffffffffffffffffffffffffff1916149050919050565b610a6e81610a69610b51565b610c3a565b50565b610a7b8282610799565b610b4d57600160008084815260200190815260200160002060000160008373ffffffffffffffffffffffffffffffffffffffff1673ffffffffffffffffffffffffffffffffffffffff16815260200190815260200160002060006101000a81548160ff021916908315150217905550610af2610b51565b73ffffffffffffffffffffffffffffffffffffffff168173ffffffffffffffffffffffffffffffffffffffff16837f2f8788117e7eff1d82e926ec794901d17c78024a50270940304540a733656f0d60405160405180910390a45b5050565b600033905090565b610b638282610799565b15610c3657600080600084815260200190815260200160002060000160008373ffffffffffffffffffffffffffffffffffffffff1673ffffffffffffffffffffffffffffffffffffffff16815260200190815260200160002060006101000a81548160ff021916908315150217905550610bdb610b51565b73ffffffffffffffffffffffffffffffffffffffff168173ffffffffffffffffffffffffffffffffffffffff16837ff6391f5c32d9c69d2a47ea670b442974b53935d1edc7fd64eb21e047a839171b60405160405180910390a45b5050565b610c448282610799565b610cd357610c698173ffffffffffffffffffffffffffffffffffffffff166014610cd7565b610c778360001c6020610cd7565b604051602001610c88929190611235565b6040516020818303038152906040526040517f08c379a0000000000000000000000000000000000000000000000000000000008152600401610cca9190611305565b60405180910390fd5b5050565b606060006002836002610cea9190611428565b610cf491906113d2565b67ffffffffffffffff811115610d0d57610d0c6115ef565b5b6040519080825280601f01601f191660200182016040528015610d3f5781602001600182028036833780820191505090505b5090507f300000000000000000000000000000000000000000000000000000000000000081600081518110610d7757610d766115c0565b5b60200101907effffffffffffffffffffffffffffffffffffffffffffffffffffffffffffff1916908160001a9053507f780000000000000000000000000000000000000000000000000000000000000081600181518110610ddb57610dda6115c0565b5b60200101907effffffffffffffffffffffffffffffffffffffffffffffffffffffffffffff1916908160001a90535060006001846002610e1b9190611428565b610e2591906113d2565b90505b6001811115610ec5577f3031323334353637383961626364656600000000000000000000000000000000600f861660108110610e6757610e666115c0565b5b1a60f81b828281518110610e7e57610e7d6115c0565b5b60200101907effffffffffffffffffffffffffffffffffffffffffffffffffffffffffffff1916908160001a905350600485901c945080610ebe90611567565b9050610e28565b5060008414610f09576040517f08c379a0000000000000000000000000000000000000000000000000000000008152600401610f0090611327565b60405180910390fd5b8091505092915050565b600081359050610f22816116fe565b92915050565b600081519050610f3781611715565b92915050565b600081359050610f4c8161172c565b92915050565b600081359050610f6181611743565b92915050565b600081359050610f768161175a565b92915050565b60008060408385031215610f9357610f9261161e565b5b6000610fa185828601610f13565b9250506020610fb285828601610f67565b9150509250929050565b600060208284031215610fd257610fd161161e565b5b6000610fe084828501610f28565b91505092915050565b600060208284031215610fff57610ffe61161e565b5b600061100d84828501610f3d565b91505092915050565b6000806040838503121561102d5761102c61161e565b5b600061103b85828601610f3d565b925050602061104c85828601610f13565b9150509250929050565b60006020828403121561106c5761106b61161e565b5b600061107a84828501610f52565b91505092915050565b6000602082840312156110995761109861161e565b5b60006110a784828501610f67565b91505092915050565b6000806000606084860312156110c9576110c861161e565b5b60006110d786828701610f67565b93505060206110e886828701610f67565b92505060406110f986828701610f13565b9150509250925092565b61110c816114b6565b82525050565b61111b816114c8565b82525050565b61112a816114d4565b82525050565b600061113b826113ab565b61114581856113b6565b9350611155818560208601611534565b61115e81611623565b840191505092915050565b6000611174826113ab565b61117e81856113c7565b935061118e818560208601611534565b80840191505092915050565b60006111a76020836113b6565b91506111b282611634565b602082019050919050565b60006111ca6017836113c7565b91506111d58261165d565b601782019050919050565b60006111ed6011836113c7565b91506111f882611686565b601182019050919050565b6000611210602f836113b6565b915061121b826116af565b604082019050919050565b61122f8161152a565b82525050565b6000611240826111bd565b915061124c8285611169565b9150611257826111e0565b91506112638284611169565b91508190509392505050565b60006060820190506112846000830186611103565b6112916020830185611103565b61129e6040830184611226565b949350505050565b60006040820190506112bb6000830185611103565b6112c86020830184611226565b9392505050565b60006020820190506112e46000830184611112565b92915050565b60006020820190506112ff6000830184611121565b92915050565b6000602082019050818103600083015261131f8184611130565b905092915050565b600060208201905081810360008301526113408161119a565b9050919050565b6000602082019050818103600083015261136081611203565b9050919050565b600060208201905061137c6000830184611226565b92915050565b60006040820190506113976000830185611226565b6113a46020830184611226565b9392505050565b600081519050919050565b600082825260208201905092915050565b600081905092915050565b60006113dd8261152a565b91506113e88361152a565b9250827fffffffffffffffffffffffffffffffffffffffffffffffffffffffffffffffff0382111561141d5761141c611591565b5b828201905092915050565b60006114338261152a565b915061143e8361152a565b9250817fffffffffffffffffffffffffffffffffffffffffffffffffffffffffffffffff048311821515161561147757611476611591565b5b828202905092915050565b600061148d8261152a565b91506114988361152a565b9250828210156114ab576114aa611591565b5b828203905092915050565b60006114c18261150a565b9050919050565b60008115159050919050565b6000819050919050565b60007fffffffff0000000000000000000000000000000000000000000000000000000082169050919050565b600073ffffffffffffffffffffffffffffffffffffffff82169050919050565b6000819050919050565b60005b83811015611552578082015181840152602081019050611537565b83811115611561576000848401525b50505050565b60006115728261152a565b9150600082141561158657611585611591565b5b600182039050919050565b7f4e487b7100000000000000000000000000000000000000000000000000000000600052601160045260246000fd5b7f4e487b7100000000000000000000000000000000000000000000000000000000600052603260045260246000fd5b7f4e487b7100000000000000000000000000000000000000000000000000000000600052604160045260246000fd5b600080fd5b6000601f19601f8301169050919050565b7f537472696e67733a20686578206c656e67746820696e73756666696369656e74600082015250565b7f416363657373436f6e74726f6c3a206163636f756e7420000000000000000000600082015250565b7f206973206d697373696e6720726f6c6520000000000000000000000000000000600082015250565b7f416363657373436f6e74726f6c3a2063616e206f6e6c792072656e6f756e636560008201527f20726f6c657320666f722073656c660000000000000000000000000000000000602082015250565b611707816114b6565b811461171257600080fd5b50565b61171e816114c8565b811461172957600080fd5b50565b611735816114d4565b811461174057600080fd5b50565b61174c816114de565b811461175757600080fd5b50565b6117638161152a565b811461176e57600080fd5b5056fea2646970667358221220d3253816c1307d6f7466009d2d86a054c1a5bed598aba47836525a92e931717a64736f6c63430008070033","opcodes":"PUSH1 0x80 PUSH1 0x40 MSTORE CALLVALUE DUP1 ISZERO PUSH3 0x11 JUMPI PUSH1 0x0 DUP1 REVERT JUMPDEST POP PUSH1 0x40 MLOAD PUSH3 0x1AA1 CODESIZE SUB DUP1 PUSH3 0x1AA1 DUP4 CODECOPY DUP2 DUP2 ADD PUSH1 0x40 MSTORE DUP2 ADD SWAP1 PUSH3 0x37 SWAP2 SWAP1 PUSH3 0x250 JUMP JUMPDEST PUSH3 0x4C PUSH1 0x0 DUP1 SHL CALLER PUSH3 0xD6 PUSH1 0x20 SHL PUSH1 0x20 SHR JUMP JUMPDEST DUP2 PUSH1 0x1 PUSH1 0x0 PUSH2 0x100 EXP DUP2 SLOAD DUP2 PUSH20 0xFFFFFFFFFFFFFFFFFFFFFFFFFFFFFFFFFFFFFFFF MUL NOT AND SWAP1 DUP4 PUSH20 0xFFFFFFFFFFFFFFFFFFFFFFFFFFFFFFFFFFFFFFFF AND MUL OR SWAP1 SSTORE POP DUP1 PUSH1 0x2 PUSH1 0x0 PUSH2 0x100 EXP DUP2 SLOAD DUP2 PUSH20 0xFFFFFFFFFFFFFFFFFFFFFFFFFFFFFFFFFFFFFFFF MUL NOT AND SWAP1 DUP4 PUSH20 0xFFFFFFFFFFFFFFFFFFFFFFFFFFFFFFFFFFFFFFFF AND MUL OR SWAP1 SSTORE POP POP POP PUSH3 0x2EA JUMP JUMPDEST PUSH3 0xE8 DUP3 DUP3 PUSH3 0x1C7 PUSH1 0x20 SHL PUSH1 0x20 SHR JUMP JUMPDEST PUSH3 0x1C3 JUMPI PUSH1 0x1 PUSH1 0x0 DUP1 DUP5 DUP2 MSTORE PUSH1 0x20 ADD SWAP1 DUP2 MSTORE PUSH1 0x20 ADD PUSH1 0x0 KECCAK256 PUSH1 0x0 ADD PUSH1 0x0 DUP4 PUSH20 0xFFFFFFFFFFFFFFFFFFFFFFFFFFFFFFFFFFFFFFFF AND PUSH20 0xFFFFFFFFFFFFFFFFFFFFFFFFFFFFFFFFFFFFFFFF AND DUP2 MSTORE PUSH1 0x20 ADD SWAP1 DUP2 MSTORE PUSH1 0x20 ADD PUSH1 0x0 KECCAK256 PUSH1 0x0 PUSH2 0x100 EXP DUP2 SLOAD DUP2 PUSH1 0xFF MUL NOT AND SWAP1 DUP4 ISZERO ISZERO MUL OR SWAP1 SSTORE POP PUSH3 0x168 PUSH3 0x231 PUSH1 0x20 SHL PUSH1 0x20 SHR JUMP JUMPDEST PUSH20 0xFFFFFFFFFFFFFFFFFFFFFFFFFFFFFFFFFFFFFFFF AND DUP2 PUSH20 0xFFFFFFFFFFFFFFFFFFFFFFFFFFFFFFFFFFFFFFFF AND DUP4 PUSH32 0x2F8788117E7EFF1D82E926EC794901D17C78024A50270940304540A733656F0D PUSH1 0x40 MLOAD PUSH1 0x40 MLOAD DUP1 SWAP2 SUB SWAP1 LOG4 JUMPDEST POP POP JUMP JUMPDEST PUSH1 0x0 DUP1 PUSH1 0x0 DUP5 DUP2 MSTORE PUSH1 0x20 ADD SWAP1 DUP2 MSTORE PUSH1 0x20 ADD PUSH1 0x0 KECCAK256 PUSH1 0x0 ADD PUSH1 0x0 DUP4 PUSH20 0xFFFFFFFFFFFFFFFFFFFFFFFFFFFFFFFFFFFFFFFF AND PUSH20 0xFFFFFFFFFFFFFFFFFFFFFFFFFFFFFFFFFFFFFFFF AND DUP2 MSTORE PUSH1 0x20 ADD SWAP1 DUP2 MSTORE PUSH1 0x20 ADD PUSH1 0x0 KECCAK256 PUSH1 0x0 SWAP1 SLOAD SWAP1 PUSH2 0x100 EXP SWAP1 DIV PUSH1 0xFF AND SWAP1 POP SWAP3 SWAP2 POP POP JUMP JUMPDEST PUSH1 0x0 CALLER SWAP1 POP SWAP1 JUMP JUMPDEST PUSH1 0x0 DUP2 MLOAD SWAP1 POP PUSH3 0x24A DUP2 PUSH3 0x2D0 JUMP JUMPDEST SWAP3 SWAP2 POP POP JUMP JUMPDEST PUSH1 0x0 DUP1 PUSH1 0x40 DUP4 DUP6 SUB SLT ISZERO PUSH3 0x26A JUMPI PUSH3 0x269 PUSH3 0x2CB JUMP JUMPDEST JUMPDEST PUSH1 0x0 PUSH3 0x27A DUP6 DUP3 DUP7 ADD PUSH3 0x239 JUMP JUMPDEST SWAP3 POP POP PUSH1 0x20 PUSH3 0x28D DUP6 DUP3 DUP7 ADD PUSH3 0x239 JUMP JUMPDEST SWAP2 POP POP SWAP3 POP SWAP3 SWAP1 POP JUMP JUMPDEST PUSH1 0x0 PUSH3 0x2A4 DUP3 PUSH3 0x2AB JUMP JUMPDEST SWAP1 POP SWAP2 SWAP1 POP JUMP JUMPDEST PUSH1 0x0 PUSH20 0xFFFFFFFFFFFFFFFFFFFFFFFFFFFFFFFFFFFFFFFF DUP3 AND SWAP1 POP SWAP2 SWAP1 POP JUMP JUMPDEST PUSH1 0x0 DUP1 REVERT JUMPDEST PUSH3 0x2DB DUP2 PUSH3 0x297 JUMP JUMPDEST DUP2 EQ PUSH3 0x2E7 JUMPI PUSH1 0x0 DUP1 REVERT JUMPDEST POP JUMP JUMPDEST PUSH2 0x17A7 DUP1 PUSH3 0x2FA PUSH1 0x0 CODECOPY PUSH1 0x0 RETURN INVALID PUSH1 0x80 PUSH1 0x40 MSTORE CALLVALUE DUP1 ISZERO PUSH2 0x10 JUMPI PUSH1 0x0 DUP1 REVERT JUMPDEST POP PUSH1 0x4 CALLDATASIZE LT PUSH2 0xEA JUMPI PUSH1 0x0 CALLDATALOAD PUSH1 0xE0 SHR DUP1 PUSH4 0x91D14854 GT PUSH2 0x8C JUMPI DUP1 PUSH4 0xD547741F GT PUSH2 0x66 JUMPI DUP1 PUSH4 0xD547741F EQ PUSH2 0x249 JUMPI DUP1 PUSH4 0xE02023A1 EQ PUSH2 0x265 JUMPI DUP1 PUSH4 0xE2866D8E EQ PUSH2 0x283 JUMPI DUP1 PUSH4 0xEEBE847A EQ PUSH2 0x29F JUMPI PUSH2 0xEA JUMP JUMPDEST DUP1 PUSH4 0x91D14854 EQ PUSH2 0x1DD JUMPI DUP1 PUSH4 0xA217FDDF EQ PUSH2 0x20D JUMPI DUP1 PUSH4 0xC42EF38C EQ PUSH2 0x22B JUMPI PUSH2 0xEA JUMP JUMPDEST DUP1 PUSH4 0x2F2FF15D GT PUSH2 0xC8 JUMPI DUP1 PUSH4 0x2F2FF15D EQ PUSH2 0x16B JUMPI DUP1 PUSH4 0x36568ABE EQ PUSH2 0x187 JUMPI DUP1 PUSH4 0x4C51951C EQ PUSH2 0x1A3 JUMPI DUP1 PUSH4 0x8A058A9E EQ PUSH2 0x1BF JUMPI PUSH2 0xEA JUMP JUMPDEST DUP1 PUSH4 0x1FFC9A7 EQ PUSH2 0xEF JUMPI DUP1 PUSH4 0x1C5E2FD7 EQ PUSH2 0x11F JUMPI DUP1 PUSH4 0x248A9CA3 EQ PUSH2 0x13B JUMPI JUMPDEST PUSH1 0x0 DUP1 REVERT JUMPDEST PUSH2 0x109 PUSH1 0x4 DUP1 CALLDATASIZE SUB DUP2 ADD SWAP1 PUSH2 0x104 SWAP2 SWAP1 PUSH2 0x1056 JUMP JUMPDEST PUSH2 0x2BD JUMP JUMPDEST PUSH1 0x40 MLOAD PUSH2 0x116 SWAP2 SWAP1 PUSH2 0x12CF JUMP JUMPDEST PUSH1 0x40 MLOAD DUP1 SWAP2 SUB SWAP1 RETURN JUMPDEST PUSH2 0x139 PUSH1 0x4 DUP1 CALLDATASIZE SUB DUP2 ADD SWAP1 PUSH2 0x134 SWAP2 SWAP1 PUSH2 0xF7C JUMP JUMPDEST PUSH2 0x337 JUMP JUMPDEST STOP JUMPDEST PUSH2 0x155 PUSH1 0x4 DUP1 CALLDATASIZE SUB DUP2 ADD SWAP1 PUSH2 0x150 SWAP2 SWAP1 PUSH2 0xFE9 JUMP JUMPDEST PUSH2 0x50A JUMP JUMPDEST PUSH1 0x40 MLOAD PUSH2 0x162 SWAP2 SWAP1 PUSH2 0x12EA JUMP JUMPDEST PUSH1 0x40 MLOAD DUP1 SWAP2 SUB SWAP1 RETURN JUMPDEST PUSH2 0x185 PUSH1 0x4 DUP1 CALLDATASIZE SUB DUP2 ADD SWAP1 PUSH2 0x180 SWAP2 SWAP1 PUSH2 0x1016 JUMP JUMPDEST PUSH2 0x529 JUMP JUMPDEST STOP JUMPDEST PUSH2 0x1A1 PUSH1 0x4 DUP1 CALLDATASIZE SUB DUP2 ADD SWAP1 PUSH2 0x19C SWAP2 SWAP1 PUSH2 0x1016 JUMP JUMPDEST PUSH2 0x54A JUMP JUMPDEST STOP JUMPDEST PUSH2 0x1BD PUSH1 0x4 DUP1 CALLDATASIZE SUB DUP2 ADD SWAP1 PUSH2 0x1B8 SWAP2 SWAP1 PUSH2 0x10B0 JUMP JUMPDEST PUSH2 0x5CD JUMP JUMPDEST STOP JUMPDEST PUSH2 0x1C7 PUSH2 0x78F JUMP JUMPDEST PUSH1 0x40 MLOAD PUSH2 0x1D4 SWAP2 SWAP1 PUSH2 0x1367 JUMP JUMPDEST PUSH1 0x40 MLOAD DUP1 SWAP2 SUB SWAP1 RETURN JUMPDEST PUSH2 0x1F7 PUSH1 0x4 DUP1 CALLDATASIZE SUB DUP2 ADD SWAP1 PUSH2 0x1F2 SWAP2 SWAP1 PUSH2 0x1016 JUMP JUMPDEST PUSH2 0x799 JUMP JUMPDEST PUSH1 0x40 MLOAD PUSH2 0x204 SWAP2 SWAP1 PUSH2 0x12CF JUMP JUMPDEST PUSH1 0x40 MLOAD DUP1 SWAP2 SUB SWAP1 RETURN JUMPDEST PUSH2 0x215 PUSH2 0x803 JUMP JUMPDEST PUSH1 0x40 MLOAD PUSH2 0x222 SWAP2 SWAP1 PUSH2 0x12EA JUMP JUMPDEST PUSH1 0x40 MLOAD DUP1 SWAP2 SUB SWAP1 RETURN JUMPDEST PUSH2 0x233 PUSH2 0x80A JUMP JUMPDEST PUSH1 0x40 MLOAD PUSH2 0x240 SWAP2 SWAP1 PUSH2 0x12EA JUMP JUMPDEST PUSH1 0x40 MLOAD DUP1 SWAP2 SUB SWAP1 RETURN JUMPDEST PUSH2 0x263 PUSH1 0x4 DUP1 CALLDATASIZE SUB DUP2 ADD SWAP1 PUSH2 0x25E SWAP2 SWAP1 PUSH2 0x1016 JUMP JUMPDEST PUSH2 0x82E JUMP JUMPDEST STOP JUMPDEST PUSH2 0x26D PUSH2 0x84F JUMP JUMPDEST PUSH1 0x40 MLOAD PUSH2 0x27A SWAP2 SWAP1 PUSH2 0x12EA JUMP JUMPDEST PUSH1 0x40 MLOAD DUP1 SWAP2 SUB SWAP1 RETURN JUMPDEST PUSH2 0x29D PUSH1 0x4 DUP1 CALLDATASIZE SUB DUP2 ADD SWAP1 PUSH2 0x298 SWAP2 SWAP1 PUSH2 0x1083 JUMP JUMPDEST PUSH2 0x873 JUMP JUMPDEST STOP JUMPDEST PUSH2 0x2A7 PUSH2 0x9E9 JUMP JUMPDEST PUSH1 0x40 MLOAD PUSH2 0x2B4 SWAP2 SWAP1 PUSH2 0x1367 JUMP JUMPDEST PUSH1 0x40 MLOAD DUP1 SWAP2 SUB SWAP1 RETURN JUMPDEST PUSH1 0x0 PUSH32 0x7965DB0B00000000000000000000000000000000000000000000000000000000 PUSH28 0xFFFFFFFFFFFFFFFFFFFFFFFFFFFFFFFFFFFFFFFFFFFFFFFFFFFFFFFF NOT AND DUP3 PUSH28 0xFFFFFFFFFFFFFFFFFFFFFFFFFFFFFFFFFFFFFFFFFFFFFFFFFFFFFFFF NOT AND EQ DUP1 PUSH2 0x330 JUMPI POP PUSH2 0x32F DUP3 PUSH2 0x9F3 JUMP JUMPDEST JUMPDEST SWAP1 POP SWAP2 SWAP1 POP JUMP JUMPDEST CALLER DUP1 PUSH20 0xFFFFFFFFFFFFFFFFFFFFFFFFFFFFFFFFFFFFFFFF AND PUSH1 0x2 PUSH1 0x0 SWAP1 SLOAD SWAP1 PUSH2 0x100 EXP SWAP1 DIV PUSH20 0xFFFFFFFFFFFFFFFFFFFFFFFFFFFFFFFFFFFFFFFF AND PUSH20 0xFFFFFFFFFFFFFFFFFFFFFFFFFFFFFFFFFFFFFFFF AND EQ PUSH2 0x3BF JUMPI PUSH1 0x40 MLOAD PUSH32 0x1A421B7400000000000000000000000000000000000000000000000000000000 DUP2 MSTORE PUSH1 0x4 ADD PUSH1 0x40 MLOAD DUP1 SWAP2 SUB SWAP1 REVERT JUMPDEST DUP2 PUSH1 0x3 SLOAD LT ISZERO PUSH2 0x3FB JUMPI PUSH1 0x40 MLOAD PUSH32 0xAD6F02F600000000000000000000000000000000000000000000000000000000 DUP2 MSTORE PUSH1 0x4 ADD PUSH1 0x40 MLOAD DUP1 SWAP2 SUB SWAP1 REVERT JUMPDEST PUSH1 0x1 PUSH1 0x0 SWAP1 SLOAD SWAP1 PUSH2 0x100 EXP SWAP1 DIV PUSH20 0xFFFFFFFFFFFFFFFFFFFFFFFFFFFFFFFFFFFFFFFF AND PUSH20 0xFFFFFFFFFFFFFFFFFFFFFFFFFFFFFFFFFFFFFFFF AND PUSH4 0xA9059CBB DUP5 DUP5 PUSH1 0x40 MLOAD DUP4 PUSH4 0xFFFFFFFF AND PUSH1 0xE0 SHL DUP2 MSTORE PUSH1 0x4 ADD PUSH2 0x458 SWAP3 SWAP2 SWAP1 PUSH2 0x12A6 JUMP JUMPDEST PUSH1 0x20 PUSH1 0x40 MLOAD DUP1 DUP4 SUB DUP2 PUSH1 0x0 DUP8 DUP1 EXTCODESIZE ISZERO DUP1 ISZERO PUSH2 0x472 JUMPI PUSH1 0x0 DUP1 REVERT JUMPDEST POP GAS CALL ISZERO DUP1 ISZERO PUSH2 0x486 JUMPI RETURNDATASIZE PUSH1 0x0 DUP1 RETURNDATACOPY RETURNDATASIZE PUSH1 0x0 REVERT JUMPDEST POP POP POP POP PUSH1 0x40 MLOAD RETURNDATASIZE PUSH1 0x1F NOT PUSH1 0x1F DUP3 ADD AND DUP3 ADD DUP1 PUSH1 0x40 MSTORE POP DUP2 ADD SWAP1 PUSH2 0x4AA SWAP2 SWAP1 PUSH2 0xFBC JUMP JUMPDEST PUSH2 0x4B3 JUMPI PUSH1 0x0 DUP1 REVERT JUMPDEST DUP2 PUSH1 0x3 PUSH1 0x0 DUP3 DUP3 SLOAD PUSH2 0x4C5 SWAP2 SWAP1 PUSH2 0x1482 JUMP JUMPDEST SWAP3 POP POP DUP2 SWAP1 SSTORE POP PUSH32 0x73B5ADFD0BC7F9A4F823199986A150A1EEEB5E93CB9409B389F7EF1EE54AE972 DUP4 DUP4 PUSH1 0x40 MLOAD PUSH2 0x4FD SWAP3 SWAP2 SWAP1 PUSH2 0x12A6 JUMP JUMPDEST PUSH1 0x40 MLOAD DUP1 SWAP2 SUB SWAP1 LOG1 POP POP POP JUMP JUMPDEST PUSH1 0x0 DUP1 PUSH1 0x0 DUP4 DUP2 MSTORE PUSH1 0x20 ADD SWAP1 DUP2 MSTORE PUSH1 0x20 ADD PUSH1 0x0 KECCAK256 PUSH1 0x1 ADD SLOAD SWAP1 POP SWAP2 SWAP1 POP JUMP JUMPDEST PUSH2 0x532 DUP3 PUSH2 0x50A JUMP JUMPDEST PUSH2 0x53B DUP2 PUSH2 0xA5D JUMP JUMPDEST PUSH2 0x545 DUP4 DUP4 PUSH2 0xA71 JUMP JUMPDEST POP POP POP JUMP JUMPDEST PUSH2 0x552 PUSH2 0xB51 JUMP JUMPDEST PUSH20 0xFFFFFFFFFFFFFFFFFFFFFFFFFFFFFFFFFFFFFFFF AND DUP2 PUSH20 0xFFFFFFFFFFFFFFFFFFFFFFFFFFFFFFFFFFFFFFFF AND EQ PUSH2 0x5BF JUMPI PUSH1 0x40 MLOAD PUSH32 0x8C379A000000000000000000000000000000000000000000000000000000000 DUP2 MSTORE PUSH1 0x4 ADD PUSH2 0x5B6 SWAP1 PUSH2 0x1347 JUMP JUMPDEST PUSH1 0x40 MLOAD DUP1 SWAP2 SUB SWAP1 REVERT JUMPDEST PUSH2 0x5C9 DUP3 DUP3 PUSH2 0xB59 JUMP JUMPDEST POP POP JUMP JUMPDEST CALLER DUP1 PUSH20 0xFFFFFFFFFFFFFFFFFFFFFFFFFFFFFFFFFFFFFFFF AND PUSH1 0x2 PUSH1 0x0 SWAP1 SLOAD SWAP1 PUSH2 0x100 EXP SWAP1 DIV PUSH20 0xFFFFFFFFFFFFFFFFFFFFFFFFFFFFFFFFFFFFFFFF AND PUSH20 0xFFFFFFFFFFFFFFFFFFFFFFFFFFFFFFFFFFFFFFFF AND EQ PUSH2 0x655 JUMPI PUSH1 0x40 MLOAD PUSH32 0x1A421B7400000000000000000000000000000000000000000000000000000000 DUP2 MSTORE PUSH1 0x4 ADD PUSH1 0x40 MLOAD DUP1 SWAP2 SUB SWAP1 REVERT JUMPDEST PUSH1 0x1 PUSH1 0x0 SWAP1 SLOAD SWAP1 PUSH2 0x100 EXP SWAP1 DIV PUSH20 0xFFFFFFFFFFFFFFFFFFFFFFFFFFFFFFFFFFFFFFFF AND PUSH20 0xFFFFFFFFFFFFFFFFFFFFFFFFFFFFFFFFFFFFFFFF AND PUSH4 0x23B872DD DUP4 ADDRESS DUP8 PUSH1 0x40 MLOAD DUP5 PUSH4 0xFFFFFFFF AND PUSH1 0xE0 SHL DUP2 MSTORE PUSH1 0x4 ADD PUSH2 0x6B4 SWAP4 SWAP3 SWAP2 SWAP1 PUSH2 0x126F JUMP JUMPDEST PUSH1 0x20 PUSH1 0x40 MLOAD DUP1 DUP4 SUB DUP2 PUSH1 0x0 DUP8 DUP1 EXTCODESIZE ISZERO DUP1 ISZERO PUSH2 0x6CE JUMPI PUSH1 0x0 DUP1 REVERT JUMPDEST POP GAS CALL ISZERO DUP1 ISZERO PUSH2 0x6E2 JUMPI RETURNDATASIZE PUSH1 0x0 DUP1 RETURNDATACOPY RETURNDATASIZE PUSH1 0x0 REVERT JUMPDEST POP POP POP POP PUSH1 0x40 MLOAD RETURNDATASIZE PUSH1 0x1F NOT PUSH1 0x1F DUP3 ADD AND DUP3 ADD DUP1 PUSH1 0x40 MSTORE POP DUP2 ADD SWAP1 PUSH2 0x706 SWAP2 SWAP1 PUSH2 0xFBC JUMP JUMPDEST PUSH2 0x70F JUMPI PUSH1 0x0 DUP1 REVERT JUMPDEST DUP3 DUP5 PUSH2 0x71B SWAP2 SWAP1 PUSH2 0x1482 JUMP JUMPDEST PUSH1 0x3 PUSH1 0x0 DUP3 DUP3 SLOAD PUSH2 0x72C SWAP2 SWAP1 PUSH2 0x13D2 JUMP JUMPDEST SWAP3 POP POP DUP2 SWAP1 SSTORE POP DUP3 PUSH1 0x4 PUSH1 0x0 DUP3 DUP3 SLOAD PUSH2 0x745 SWAP2 SWAP1 PUSH2 0x13D2 JUMP JUMPDEST SWAP3 POP POP DUP2 SWAP1 SSTORE POP PUSH32 0x321B600A72E347EAE3FE308860434CB251AB63515C43E1911DDD6B010BE66365 PUSH1 0x3 SLOAD PUSH1 0x4 SLOAD PUSH1 0x40 MLOAD PUSH2 0x781 SWAP3 SWAP2 SWAP1 PUSH2 0x1382 JUMP JUMPDEST PUSH1 0x40 MLOAD DUP1 SWAP2 SUB SWAP1 LOG1 POP POP POP POP JUMP JUMPDEST PUSH1 0x0 PUSH1 0x3 SLOAD SWAP1 POP SWAP1 JUMP JUMPDEST PUSH1 0x0 DUP1 PUSH1 0x0 DUP5 DUP2 MSTORE PUSH1 0x20 ADD SWAP1 DUP2 MSTORE PUSH1 0x20 ADD PUSH1 0x0 KECCAK256 PUSH1 0x0 ADD PUSH1 0x0 DUP4 PUSH20 0xFFFFFFFFFFFFFFFFFFFFFFFFFFFFFFFFFFFFFFFF AND PUSH20 0xFFFFFFFFFFFFFFFFFFFFFFFFFFFFFFFFFFFFFFFF AND DUP2 MSTORE PUSH1 0x20 ADD SWAP1 DUP2 MSTORE PUSH1 0x20 ADD PUSH1 0x0 KECCAK256 PUSH1 0x0 SWAP1 SLOAD SWAP1 PUSH2 0x100 EXP SWAP1 DIV PUSH1 0xFF AND SWAP1 POP SWAP3 SWAP2 POP POP JUMP JUMPDEST PUSH1 0x0 DUP1 SHL DUP2 JUMP JUMPDEST PUSH32 0x76D12DE99AD2CA162840505BE9B657C2E7A650CC3EE0284048F3F9DEF3C1ADF2 DUP2 JUMP JUMPDEST PUSH2 0x837 DUP3 PUSH2 0x50A JUMP JUMPDEST PUSH2 0x840 DUP2 PUSH2 0xA5D JUMP JUMPDEST PUSH2 0x84A DUP4 DUP4 PUSH2 0xB59 JUMP JUMPDEST POP POP POP JUMP JUMPDEST PUSH32 0x5D8E12C39142FF96D79D04D15D1BA1269E4FE57BB9D26F43523628B34BA108EC DUP2 JUMP JUMPDEST PUSH32 0x5D8E12C39142FF96D79D04D15D1BA1269E4FE57BB9D26F43523628B34BA108EC PUSH2 0x89D DUP2 PUSH2 0xA5D JUMP JUMPDEST PUSH1 0x0 PUSH1 0x4 SLOAD SWAP1 POP DUP3 DUP2 LT ISZERO PUSH2 0x8DE JUMPI PUSH1 0x40 MLOAD PUSH32 0xE451ED4E00000000000000000000000000000000000000000000000000000000 DUP2 MSTORE PUSH1 0x4 ADD PUSH1 0x40 MLOAD DUP1 SWAP2 SUB SWAP1 REVERT JUMPDEST DUP3 DUP2 PUSH2 0x8EA SWAP2 SWAP1 PUSH2 0x1482 JUMP JUMPDEST SWAP1 POP PUSH1 0x1 PUSH1 0x0 SWAP1 SLOAD SWAP1 PUSH2 0x100 EXP SWAP1 DIV PUSH20 0xFFFFFFFFFFFFFFFFFFFFFFFFFFFFFFFFFFFFFFFF AND PUSH20 0xFFFFFFFFFFFFFFFFFFFFFFFFFFFFFFFFFFFFFFFF AND PUSH4 0xA9059CBB CALLER DUP6 PUSH1 0x40 MLOAD DUP4 PUSH4 0xFFFFFFFF AND PUSH1 0xE0 SHL DUP2 MSTORE PUSH1 0x4 ADD PUSH2 0x949 SWAP3 SWAP2 SWAP1 PUSH2 0x12A6 JUMP JUMPDEST PUSH1 0x20 PUSH1 0x40 MLOAD DUP1 DUP4 SUB DUP2 PUSH1 0x0 DUP8 DUP1 EXTCODESIZE ISZERO DUP1 ISZERO PUSH2 0x963 JUMPI PUSH1 0x0 DUP1 REVERT JUMPDEST POP GAS CALL ISZERO DUP1 ISZERO PUSH2 0x977 JUMPI RETURNDATASIZE PUSH1 0x0 DUP1 RETURNDATACOPY RETURNDATASIZE PUSH1 0x0 REVERT JUMPDEST POP POP POP POP PUSH1 0x40 MLOAD RETURNDATASIZE PUSH1 0x1F NOT PUSH1 0x1F DUP3 ADD AND DUP3 ADD DUP1 PUSH1 0x40 MSTORE POP DUP2 ADD SWAP1 PUSH2 0x99B SWAP2 SWAP1 PUSH2 0xFBC JUMP JUMPDEST PUSH2 0x9A4 JUMPI PUSH1 0x0 DUP1 REVERT JUMPDEST DUP1 PUSH1 0x4 DUP2 SWAP1 SSTORE POP PUSH32 0x1CF773A3699C7F5F80DF04B8D5DAF523FB5B7E2617CC4EA3759576D2F516645C CALLER DUP5 PUSH1 0x40 MLOAD PUSH2 0x9DC SWAP3 SWAP2 SWAP1 PUSH2 0x12A6 JUMP JUMPDEST PUSH1 0x40 MLOAD DUP1 SWAP2 SUB SWAP1 LOG1 POP POP POP JUMP JUMPDEST PUSH1 0x0 PUSH1 0x4 SLOAD SWAP1 POP SWAP1 JUMP JUMPDEST PUSH1 0x0 PUSH32 0x1FFC9A700000000000000000000000000000000000000000000000000000000 PUSH28 0xFFFFFFFFFFFFFFFFFFFFFFFFFFFFFFFFFFFFFFFFFFFFFFFFFFFFFFFF NOT AND DUP3 PUSH28 0xFFFFFFFFFFFFFFFFFFFFFFFFFFFFFFFFFFFFFFFFFFFFFFFFFFFFFFFF NOT AND EQ SWAP1 POP SWAP2 SWAP1 POP JUMP JUMPDEST PUSH2 0xA6E DUP2 PUSH2 0xA69 PUSH2 0xB51 JUMP JUMPDEST PUSH2 0xC3A JUMP JUMPDEST POP JUMP JUMPDEST PUSH2 0xA7B DUP3 DUP3 PUSH2 0x799 JUMP JUMPDEST PUSH2 0xB4D JUMPI PUSH1 0x1 PUSH1 0x0 DUP1 DUP5 DUP2 MSTORE PUSH1 0x20 ADD SWAP1 DUP2 MSTORE PUSH1 0x20 ADD PUSH1 0x0 KECCAK256 PUSH1 0x0 ADD PUSH1 0x0 DUP4 PUSH20 0xFFFFFFFFFFFFFFFFFFFFFFFFFFFFFFFFFFFFFFFF AND PUSH20 0xFFFFFFFFFFFFFFFFFFFFFFFFFFFFFFFFFFFFFFFF AND DUP2 MSTORE PUSH1 0x20 ADD SWAP1 DUP2 MSTORE PUSH1 0x20 ADD PUSH1 0x0 KECCAK256 PUSH1 0x0 PUSH2 0x100 EXP DUP2 SLOAD DUP2 PUSH1 0xFF MUL NOT AND SWAP1 DUP4 ISZERO ISZERO MUL OR SWAP1 SSTORE POP PUSH2 0xAF2 PUSH2 0xB51 JUMP JUMPDEST PUSH20 0xFFFFFFFFFFFFFFFFFFFFFFFFFFFFFFFFFFFFFFFF AND DUP2 PUSH20 0xFFFFFFFFFFFFFFFFFFFFFFFFFFFFFFFFFFFFFFFF AND DUP4 PUSH32 0x2F8788117E7EFF1D82E926EC794901D17C78024A50270940304540A733656F0D PUSH1 0x40 MLOAD PUSH1 0x40 MLOAD DUP1 SWAP2 SUB SWAP1 LOG4 JUMPDEST POP POP JUMP JUMPDEST PUSH1 0x0 CALLER SWAP1 POP SWAP1 JUMP JUMPDEST PUSH2 0xB63 DUP3 DUP3 PUSH2 0x799 JUMP JUMPDEST ISZERO PUSH2 0xC36 JUMPI PUSH1 0x0 DUP1 PUSH1 0x0 DUP5 DUP2 MSTORE PUSH1 0x20 ADD SWAP1 DUP2 MSTORE PUSH1 0x20 ADD PUSH1 0x0 KECCAK256 PUSH1 0x0 ADD PUSH1 0x0 DUP4 PUSH20 0xFFFFFFFFFFFFFFFFFFFFFFFFFFFFFFFFFFFFFFFF AND PUSH20 0xFFFFFFFFFFFFFFFFFFFFFFFFFFFFFFFFFFFFFFFF AND DUP2 MSTORE PUSH1 0x20 ADD SWAP1 DUP2 MSTORE PUSH1 0x20 ADD PUSH1 0x0 KECCAK256 PUSH1 0x0 PUSH2 0x100 EXP DUP2 SLOAD DUP2 PUSH1 0xFF MUL NOT AND SWAP1 DUP4 ISZERO ISZERO MUL OR SWAP1 SSTORE POP PUSH2 0xBDB PUSH2 0xB51 JUMP JUMPDEST PUSH20 0xFFFFFFFFFFFFFFFFFFFFFFFFFFFFFFFFFFFFFFFF AND DUP2 PUSH20 0xFFFFFFFFFFFFFFFFFFFFFFFFFFFFFFFFFFFFFFFF AND DUP4 PUSH32 0xF6391F5C32D9C69D2A47EA670B442974B53935D1EDC7FD64EB21E047A839171B PUSH1 0x40 MLOAD PUSH1 0x40 MLOAD DUP1 SWAP2 SUB SWAP1 LOG4 JUMPDEST POP POP JUMP JUMPDEST PUSH2 0xC44 DUP3 DUP3 PUSH2 0x799 JUMP JUMPDEST PUSH2 0xCD3 JUMPI PUSH2 0xC69 DUP2 PUSH20 0xFFFFFFFFFFFFFFFFFFFFFFFFFFFFFFFFFFFFFFFF AND PUSH1 0x14 PUSH2 0xCD7 JUMP JUMPDEST PUSH2 0xC77 DUP4 PUSH1 0x0 SHR PUSH1 0x20 PUSH2 0xCD7 JUMP JUMPDEST PUSH1 0x40 MLOAD PUSH1 0x20 ADD PUSH2 0xC88 SWAP3 SWAP2 SWAP1 PUSH2 0x1235 JUMP JUMPDEST PUSH1 0x40 MLOAD PUSH1 0x20 DUP2 DUP4 SUB SUB DUP2 MSTORE SWAP1 PUSH1 0x40 MSTORE PUSH1 0x40 MLOAD PUSH32 0x8C379A000000000000000000000000000000000000000000000000000000000 DUP2 MSTORE PUSH1 0x4 ADD PUSH2 0xCCA SWAP2 SWAP1 PUSH2 0x1305 JUMP JUMPDEST PUSH1 0x40 MLOAD DUP1 SWAP2 SUB SWAP1 REVERT JUMPDEST POP POP JUMP JUMPDEST PUSH1 0x60 PUSH1 0x0 PUSH1 0x2 DUP4 PUSH1 0x2 PUSH2 0xCEA SWAP2 SWAP1 PUSH2 0x1428 JUMP JUMPDEST PUSH2 0xCF4 SWAP2 SWAP1 PUSH2 0x13D2 JUMP JUMPDEST PUSH8 0xFFFFFFFFFFFFFFFF DUP2 GT ISZERO PUSH2 0xD0D JUMPI PUSH2 0xD0C PUSH2 0x15EF JUMP JUMPDEST JUMPDEST PUSH1 0x40 MLOAD SWAP1 DUP1 DUP3 MSTORE DUP1 PUSH1 0x1F ADD PUSH1 0x1F NOT AND PUSH1 0x20 ADD DUP3 ADD PUSH1 0x40 MSTORE DUP1 ISZERO PUSH2 0xD3F JUMPI DUP2 PUSH1 0x20 ADD PUSH1 0x1 DUP3 MUL DUP1 CALLDATASIZE DUP4 CALLDATACOPY DUP1 DUP3 ADD SWAP2 POP POP SWAP1 POP JUMPDEST POP SWAP1 POP PUSH32 0x3000000000000000000000000000000000000000000000000000000000000000 DUP2 PUSH1 0x0 DUP2 MLOAD DUP2 LT PUSH2 0xD77 JUMPI PUSH2 0xD76 PUSH2 0x15C0 JUMP JUMPDEST JUMPDEST PUSH1 0x20 ADD ADD SWAP1 PUSH31 0xFFFFFFFFFFFFFFFFFFFFFFFFFFFFFFFFFFFFFFFFFFFFFFFFFFFFFFFFFFFFFF NOT AND SWAP1 DUP2 PUSH1 0x0 BYTE SWAP1 MSTORE8 POP PUSH32 0x7800000000000000000000000000000000000000000000000000000000000000 DUP2 PUSH1 0x1 DUP2 MLOAD DUP2 LT PUSH2 0xDDB JUMPI PUSH2 0xDDA PUSH2 0x15C0 JUMP JUMPDEST JUMPDEST PUSH1 0x20 ADD ADD SWAP1 PUSH31 0xFFFFFFFFFFFFFFFFFFFFFFFFFFFFFFFFFFFFFFFFFFFFFFFFFFFFFFFFFFFFFF NOT AND SWAP1 DUP2 PUSH1 0x0 BYTE SWAP1 MSTORE8 POP PUSH1 0x0 PUSH1 0x1 DUP5 PUSH1 0x2 PUSH2 0xE1B SWAP2 SWAP1 PUSH2 0x1428 JUMP JUMPDEST PUSH2 0xE25 SWAP2 SWAP1 PUSH2 0x13D2 JUMP JUMPDEST SWAP1 POP JUMPDEST PUSH1 0x1 DUP2 GT ISZERO PUSH2 0xEC5 JUMPI PUSH32 0x3031323334353637383961626364656600000000000000000000000000000000 PUSH1 0xF DUP7 AND PUSH1 0x10 DUP2 LT PUSH2 0xE67 JUMPI PUSH2 0xE66 PUSH2 0x15C0 JUMP JUMPDEST JUMPDEST BYTE PUSH1 0xF8 SHL DUP3 DUP3 DUP2 MLOAD DUP2 LT PUSH2 0xE7E JUMPI PUSH2 0xE7D PUSH2 0x15C0 JUMP JUMPDEST JUMPDEST PUSH1 0x20 ADD ADD SWAP1 PUSH31 0xFFFFFFFFFFFFFFFFFFFFFFFFFFFFFFFFFFFFFFFFFFFFFFFFFFFFFFFFFFFFFF NOT AND SWAP1 DUP2 PUSH1 0x0 BYTE SWAP1 MSTORE8 POP PUSH1 0x4 DUP6 SWAP1 SHR SWAP5 POP DUP1 PUSH2 0xEBE SWAP1 PUSH2 0x1567 JUMP JUMPDEST SWAP1 POP PUSH2 0xE28 JUMP JUMPDEST POP PUSH1 0x0 DUP5 EQ PUSH2 0xF09 JUMPI PUSH1 0x40 MLOAD PUSH32 0x8C379A000000000000000000000000000000000000000000000000000000000 DUP2 MSTORE PUSH1 0x4 ADD PUSH2 0xF00 SWAP1 PUSH2 0x1327 JUMP JUMPDEST PUSH1 0x40 MLOAD DUP1 SWAP2 SUB SWAP1 REVERT JUMPDEST DUP1 SWAP2 POP POP SWAP3 SWAP2 POP POP JUMP JUMPDEST PUSH1 0x0 DUP2 CALLDATALOAD SWAP1 POP PUSH2 0xF22 DUP2 PUSH2 0x16FE JUMP JUMPDEST SWAP3 SWAP2 POP POP JUMP JUMPDEST PUSH1 0x0 DUP2 MLOAD SWAP1 POP PUSH2 0xF37 DUP2 PUSH2 0x1715 JUMP JUMPDEST SWAP3 SWAP2 POP POP JUMP JUMPDEST PUSH1 0x0 DUP2 CALLDATALOAD SWAP1 POP PUSH2 0xF4C DUP2 PUSH2 0x172C JUMP JUMPDEST SWAP3 SWAP2 POP POP JUMP JUMPDEST PUSH1 0x0 DUP2 CALLDATALOAD SWAP1 POP PUSH2 0xF61 DUP2 PUSH2 0x1743 JUMP JUMPDEST SWAP3 SWAP2 POP POP JUMP JUMPDEST PUSH1 0x0 DUP2 CALLDATALOAD SWAP1 POP PUSH2 0xF76 DUP2 PUSH2 0x175A JUMP JUMPDEST SWAP3 SWAP2 POP POP JUMP JUMPDEST PUSH1 0x0 DUP1 PUSH1 0x40 DUP4 DUP6 SUB SLT ISZERO PUSH2 0xF93 JUMPI PUSH2 0xF92 PUSH2 0x161E JUMP JUMPDEST JUMPDEST PUSH1 0x0 PUSH2 0xFA1 DUP6 DUP3 DUP7 ADD PUSH2 0xF13 JUMP JUMPDEST SWAP3 POP POP PUSH1 0x20 PUSH2 0xFB2 DUP6 DUP3 DUP7 ADD PUSH2 0xF67 JUMP JUMPDEST SWAP2 POP POP SWAP3 POP SWAP3 SWAP1 POP JUMP JUMPDEST PUSH1 0x0 PUSH1 0x20 DUP3 DUP5 SUB SLT ISZERO PUSH2 0xFD2 JUMPI PUSH2 0xFD1 PUSH2 0x161E JUMP JUMPDEST JUMPDEST PUSH1 0x0 PUSH2 0xFE0 DUP5 DUP3 DUP6 ADD PUSH2 0xF28 JUMP JUMPDEST SWAP2 POP POP SWAP3 SWAP2 POP POP JUMP JUMPDEST PUSH1 0x0 PUSH1 0x20 DUP3 DUP5 SUB SLT ISZERO PUSH2 0xFFF JUMPI PUSH2 0xFFE PUSH2 0x161E JUMP JUMPDEST JUMPDEST PUSH1 0x0 PUSH2 0x100D DUP5 DUP3 DUP6 ADD PUSH2 0xF3D JUMP JUMPDEST SWAP2 POP POP SWAP3 SWAP2 POP POP JUMP JUMPDEST PUSH1 0x0 DUP1 PUSH1 0x40 DUP4 DUP6 SUB SLT ISZERO PUSH2 0x102D JUMPI PUSH2 0x102C PUSH2 0x161E JUMP JUMPDEST JUMPDEST PUSH1 0x0 PUSH2 0x103B DUP6 DUP3 DUP7 ADD PUSH2 0xF3D JUMP JUMPDEST SWAP3 POP POP PUSH1 0x20 PUSH2 0x104C DUP6 DUP3 DUP7 ADD PUSH2 0xF13 JUMP JUMPDEST SWAP2 POP POP SWAP3 POP SWAP3 SWAP1 POP JUMP JUMPDEST PUSH1 0x0 PUSH1 0x20 DUP3 DUP5 SUB SLT ISZERO PUSH2 0x106C JUMPI PUSH2 0x106B PUSH2 0x161E JUMP JUMPDEST JUMPDEST PUSH1 0x0 PUSH2 0x107A DUP5 DUP3 DUP6 ADD PUSH2 0xF52 JUMP JUMPDEST SWAP2 POP POP SWAP3 SWAP2 POP POP JUMP JUMPDEST PUSH1 0x0 PUSH1 0x20 DUP3 DUP5 SUB SLT ISZERO PUSH2 0x1099 JUMPI PUSH2 0x1098 PUSH2 0x161E JUMP JUMPDEST JUMPDEST PUSH1 0x0 PUSH2 0x10A7 DUP5 DUP3 DUP6 ADD PUSH2 0xF67 JUMP JUMPDEST SWAP2 POP POP SWAP3 SWAP2 POP POP JUMP JUMPDEST PUSH1 0x0 DUP1 PUSH1 0x0 PUSH1 0x60 DUP5 DUP7 SUB SLT ISZERO PUSH2 0x10C9 JUMPI PUSH2 0x10C8 PUSH2 0x161E JUMP JUMPDEST JUMPDEST PUSH1 0x0 PUSH2 0x10D7 DUP7 DUP3 DUP8 ADD PUSH2 0xF67 JUMP JUMPDEST SWAP4 POP POP PUSH1 0x20 PUSH2 0x10E8 DUP7 DUP3 DUP8 ADD PUSH2 0xF67 JUMP JUMPDEST SWAP3 POP POP PUSH1 0x40 PUSH2 0x10F9 DUP7 DUP3 DUP8 ADD PUSH2 0xF13 JUMP JUMPDEST SWAP2 POP POP SWAP3 POP SWAP3 POP SWAP3 JUMP JUMPDEST PUSH2 0x110C DUP2 PUSH2 0x14B6 JUMP JUMPDEST DUP3 MSTORE POP POP JUMP JUMPDEST PUSH2 0x111B DUP2 PUSH2 0x14C8 JUMP JUMPDEST DUP3 MSTORE POP POP JUMP JUMPDEST PUSH2 0x112A DUP2 PUSH2 0x14D4 JUMP JUMPDEST DUP3 MSTORE POP POP JUMP JUMPDEST PUSH1 0x0 PUSH2 0x113B DUP3 PUSH2 0x13AB JUMP JUMPDEST PUSH2 0x1145 DUP2 DUP6 PUSH2 0x13B6 JUMP JUMPDEST SWAP4 POP PUSH2 0x1155 DUP2 DUP6 PUSH1 0x20 DUP7 ADD PUSH2 0x1534 JUMP JUMPDEST PUSH2 0x115E DUP2 PUSH2 0x1623 JUMP JUMPDEST DUP5 ADD SWAP2 POP POP SWAP3 SWAP2 POP POP JUMP JUMPDEST PUSH1 0x0 PUSH2 0x1174 DUP3 PUSH2 0x13AB JUMP JUMPDEST PUSH2 0x117E DUP2 DUP6 PUSH2 0x13C7 JUMP JUMPDEST SWAP4 POP PUSH2 0x118E DUP2 DUP6 PUSH1 0x20 DUP7 ADD PUSH2 0x1534 JUMP JUMPDEST DUP1 DUP5 ADD SWAP2 POP POP SWAP3 SWAP2 POP POP JUMP JUMPDEST PUSH1 0x0 PUSH2 0x11A7 PUSH1 0x20 DUP4 PUSH2 0x13B6 JUMP JUMPDEST SWAP2 POP PUSH2 0x11B2 DUP3 PUSH2 0x1634 JUMP JUMPDEST PUSH1 0x20 DUP3 ADD SWAP1 POP SWAP2 SWAP1 POP JUMP JUMPDEST PUSH1 0x0 PUSH2 0x11CA PUSH1 0x17 DUP4 PUSH2 0x13C7 JUMP JUMPDEST SWAP2 POP PUSH2 0x11D5 DUP3 PUSH2 0x165D JUMP JUMPDEST PUSH1 0x17 DUP3 ADD SWAP1 POP SWAP2 SWAP1 POP JUMP JUMPDEST PUSH1 0x0 PUSH2 0x11ED PUSH1 0x11 DUP4 PUSH2 0x13C7 JUMP JUMPDEST SWAP2 POP PUSH2 0x11F8 DUP3 PUSH2 0x1686 JUMP JUMPDEST PUSH1 0x11 DUP3 ADD SWAP1 POP SWAP2 SWAP1 POP JUMP JUMPDEST PUSH1 0x0 PUSH2 0x1210 PUSH1 0x2F DUP4 PUSH2 0x13B6 JUMP JUMPDEST SWAP2 POP PUSH2 0x121B DUP3 PUSH2 0x16AF JUMP JUMPDEST PUSH1 0x40 DUP3 ADD SWAP1 POP SWAP2 SWAP1 POP JUMP JUMPDEST PUSH2 0x122F DUP2 PUSH2 0x152A JUMP JUMPDEST DUP3 MSTORE POP POP JUMP JUMPDEST PUSH1 0x0 PUSH2 0x1240 DUP3 PUSH2 0x11BD JUMP JUMPDEST SWAP2 POP PUSH2 0x124C DUP3 DUP6 PUSH2 0x1169 JUMP JUMPDEST SWAP2 POP PUSH2 0x1257 DUP3 PUSH2 0x11E0 JUMP JUMPDEST SWAP2 POP PUSH2 0x1263 DUP3 DUP5 PUSH2 0x1169 JUMP JUMPDEST SWAP2 POP DUP2 SWAP1 POP SWAP4 SWAP3 POP POP POP JUMP JUMPDEST PUSH1 0x0 PUSH1 0x60 DUP3 ADD SWAP1 POP PUSH2 0x1284 PUSH1 0x0 DUP4 ADD DUP7 PUSH2 0x1103 JUMP JUMPDEST PUSH2 0x1291 PUSH1 0x20 DUP4 ADD DUP6 PUSH2 0x1103 JUMP JUMPDEST PUSH2 0x129E PUSH1 0x40 DUP4 ADD DUP5 PUSH2 0x1226 JUMP JUMPDEST SWAP5 SWAP4 POP POP POP POP JUMP JUMPDEST PUSH1 0x0 PUSH1 0x40 DUP3 ADD SWAP1 POP PUSH2 0x12BB PUSH1 0x0 DUP4 ADD DUP6 PUSH2 0x1103 JUMP JUMPDEST PUSH2 0x12C8 PUSH1 0x20 DUP4 ADD DUP5 PUSH2 0x1226 JUMP JUMPDEST SWAP4 SWAP3 POP POP POP JUMP JUMPDEST PUSH1 0x0 PUSH1 0x20 DUP3 ADD SWAP1 POP PUSH2 0x12E4 PUSH1 0x0 DUP4 ADD DUP5 PUSH2 0x1112 JUMP JUMPDEST SWAP3 SWAP2 POP POP JUMP JUMPDEST PUSH1 0x0 PUSH1 0x20 DUP3 ADD SWAP1 POP PUSH2 0x12FF PUSH1 0x0 DUP4 ADD DUP5 PUSH2 0x1121 JUMP JUMPDEST SWAP3 SWAP2 POP POP JUMP JUMPDEST PUSH1 0x0 PUSH1 0x20 DUP3 ADD SWAP1 POP DUP2 DUP2 SUB PUSH1 0x0 DUP4 ADD MSTORE PUSH2 0x131F DUP2 DUP5 PUSH2 0x1130 JUMP JUMPDEST SWAP1 POP SWAP3 SWAP2 POP POP JUMP JUMPDEST PUSH1 0x0 PUSH1 0x20 DUP3 ADD SWAP1 POP DUP2 DUP2 SUB PUSH1 0x0 DUP4 ADD MSTORE PUSH2 0x1340 DUP2 PUSH2 0x119A JUMP JUMPDEST SWAP1 POP SWAP2 SWAP1 POP JUMP JUMPDEST PUSH1 0x0 PUSH1 0x20 DUP3 ADD SWAP1 POP DUP2 DUP2 SUB PUSH1 0x0 DUP4 ADD MSTORE PUSH2 0x1360 DUP2 PUSH2 0x1203 JUMP JUMPDEST SWAP1 POP SWAP2 SWAP1 POP JUMP JUMPDEST PUSH1 0x0 PUSH1 0x20 DUP3 ADD SWAP1 POP PUSH2 0x137C PUSH1 0x0 DUP4 ADD DUP5 PUSH2 0x1226 JUMP JUMPDEST SWAP3 SWAP2 POP POP JUMP JUMPDEST PUSH1 0x0 PUSH1 0x40 DUP3 ADD SWAP1 POP PUSH2 0x1397 PUSH1 0x0 DUP4 ADD DUP6 PUSH2 0x1226 JUMP JUMPDEST PUSH2 0x13A4 PUSH1 0x20 DUP4 ADD DUP5 PUSH2 0x1226 JUMP JUMPDEST SWAP4 SWAP3 POP POP POP JUMP JUMPDEST PUSH1 0x0 DUP2 MLOAD SWAP1 POP SWAP2 SWAP1 POP JUMP JUMPDEST PUSH1 0x0 DUP3 DUP3 MSTORE PUSH1 0x20 DUP3 ADD SWAP1 POP SWAP3 SWAP2 POP POP JUMP JUMPDEST PUSH1 0x0 DUP2 SWAP1 POP SWAP3 SWAP2 POP POP JUMP JUMPDEST PUSH1 0x0 PUSH2 0x13DD DUP3 PUSH2 0x152A JUMP JUMPDEST SWAP2 POP PUSH2 0x13E8 DUP4 PUSH2 0x152A JUMP JUMPDEST SWAP3 POP DUP3 PUSH32 0xFFFFFFFFFFFFFFFFFFFFFFFFFFFFFFFFFFFFFFFFFFFFFFFFFFFFFFFFFFFFFFFF SUB DUP3 GT ISZERO PUSH2 0x141D JUMPI PUSH2 0x141C PUSH2 0x1591 JUMP JUMPDEST JUMPDEST DUP3 DUP3 ADD SWAP1 POP SWAP3 SWAP2 POP POP JUMP JUMPDEST PUSH1 0x0 PUSH2 0x1433 DUP3 PUSH2 0x152A JUMP JUMPDEST SWAP2 POP PUSH2 0x143E DUP4 PUSH2 0x152A JUMP JUMPDEST SWAP3 POP DUP2 PUSH32 0xFFFFFFFFFFFFFFFFFFFFFFFFFFFFFFFFFFFFFFFFFFFFFFFFFFFFFFFFFFFFFFFF DIV DUP4 GT DUP3 ISZERO ISZERO AND ISZERO PUSH2 0x1477 JUMPI PUSH2 0x1476 PUSH2 0x1591 JUMP JUMPDEST JUMPDEST DUP3 DUP3 MUL SWAP1 POP SWAP3 SWAP2 POP POP JUMP JUMPDEST PUSH1 0x0 PUSH2 0x148D DUP3 PUSH2 0x152A JUMP JUMPDEST SWAP2 POP PUSH2 0x1498 DUP4 PUSH2 0x152A JUMP JUMPDEST SWAP3 POP DUP3 DUP3 LT ISZERO PUSH2 0x14AB JUMPI PUSH2 0x14AA PUSH2 0x1591 JUMP JUMPDEST JUMPDEST DUP3 DUP3 SUB SWAP1 POP SWAP3 SWAP2 POP POP JUMP JUMPDEST PUSH1 0x0 PUSH2 0x14C1 DUP3 PUSH2 0x150A JUMP JUMPDEST SWAP1 POP SWAP2 SWAP1 POP JUMP JUMPDEST PUSH1 0x0 DUP2 ISZERO ISZERO SWAP1 POP SWAP2 SWAP1 POP JUMP JUMPDEST PUSH1 0x0 DUP2 SWAP1 POP SWAP2 SWAP1 POP JUMP JUMPDEST PUSH1 0x0 PUSH32 0xFFFFFFFF00000000000000000000000000000000000000000000000000000000 DUP3 AND SWAP1 POP SWAP2 SWAP1 POP JUMP JUMPDEST PUSH1 0x0 PUSH20 0xFFFFFFFFFFFFFFFFFFFFFFFFFFFFFFFFFFFFFFFF DUP3 AND SWAP1 POP SWAP2 SWAP1 POP JUMP JUMPDEST PUSH1 0x0 DUP2 SWAP1 POP SWAP2 SWAP1 POP JUMP JUMPDEST PUSH1 0x0 JUMPDEST DUP4 DUP2 LT ISZERO PUSH2 0x1552 JUMPI DUP1 DUP3 ADD MLOAD DUP2 DUP5 ADD MSTORE PUSH1 0x20 DUP2 ADD SWAP1 POP PUSH2 0x1537 JUMP JUMPDEST DUP4 DUP2 GT ISZERO PUSH2 0x1561 JUMPI PUSH1 0x0 DUP5 DUP5 ADD MSTORE JUMPDEST POP POP POP POP JUMP JUMPDEST PUSH1 0x0 PUSH2 0x1572 DUP3 PUSH2 0x152A JUMP JUMPDEST SWAP2 POP PUSH1 0x0 DUP3 EQ ISZERO PUSH2 0x1586 JUMPI PUSH2 0x1585 PUSH2 0x1591 JUMP JUMPDEST JUMPDEST PUSH1 0x1 DUP3 SUB SWAP1 POP SWAP2 SWAP1 POP JUMP JUMPDEST PUSH32 0x4E487B7100000000000000000000000000000000000000000000000000000000 PUSH1 0x0 MSTORE PUSH1 0x11 PUSH1 0x4 MSTORE PUSH1 0x24 PUSH1 0x0 REVERT JUMPDEST PUSH32 0x4E487B7100000000000000000000000000000000000000000000000000000000 PUSH1 0x0 MSTORE PUSH1 0x32 PUSH1 0x4 MSTORE PUSH1 0x24 PUSH1 0x0 REVERT JUMPDEST PUSH32 0x4E487B7100000000000000000000000000000000000000000000000000000000 PUSH1 0x0 MSTORE PUSH1 0x41 PUSH1 0x4 MSTORE PUSH1 0x24 PUSH1 0x0 REVERT JUMPDEST PUSH1 0x0 DUP1 REVERT JUMPDEST PUSH1 0x0 PUSH1 0x1F NOT PUSH1 0x1F DUP4 ADD AND SWAP1 POP SWAP2 SWAP1 POP JUMP JUMPDEST PUSH32 0x537472696E67733A20686578206C656E67746820696E73756666696369656E74 PUSH1 0x0 DUP3 ADD MSTORE POP JUMP JUMPDEST PUSH32 0x416363657373436F6E74726F6C3A206163636F756E7420000000000000000000 PUSH1 0x0 DUP3 ADD MSTORE POP JUMP JUMPDEST PUSH32 0x206973206D697373696E6720726F6C6520000000000000000000000000000000 PUSH1 0x0 DUP3 ADD MSTORE POP JUMP JUMPDEST PUSH32 0x416363657373436F6E74726F6C3A2063616E206F6E6C792072656E6F756E6365 PUSH1 0x0 DUP3 ADD MSTORE PUSH32 0x20726F6C657320666F722073656C660000000000000000000000000000000000 PUSH1 0x20 DUP3 ADD MSTORE POP JUMP JUMPDEST PUSH2 0x1707 DUP2 PUSH2 0x14B6 JUMP JUMPDEST DUP2 EQ PUSH2 0x1712 JUMPI PUSH1 0x0 DUP1 REVERT JUMPDEST POP JUMP JUMPDEST PUSH2 0x171E DUP2 PUSH2 0x14C8 JUMP JUMPDEST DUP2 EQ PUSH2 0x1729 JUMPI PUSH1 0x0 DUP1 REVERT JUMPDEST POP JUMP JUMPDEST PUSH2 0x1735 DUP2 PUSH2 0x14D4 JUMP JUMPDEST DUP2 EQ PUSH2 0x1740 JUMPI PUSH1 0x0 DUP1 REVERT JUMPDEST POP JUMP JUMPDEST PUSH2 0x174C DUP2 PUSH2 0x14DE JUMP JUMPDEST DUP2 EQ PUSH2 0x1757 JUMPI PUSH1 0x0 DUP1 REVERT JUMPDEST POP JUMP JUMPDEST PUSH2 0x1763 DUP2 PUSH2 0x152A JUMP JUMPDEST DUP2 EQ PUSH2 0x176E JUMPI PUSH1 0x0 DUP1 REVERT JUMPDEST POP JUMP INVALID LOG2 PUSH5 0x6970667358 0x22 SLT KECCAK256 0xD3 0x25 CODESIZE AND 0xC1 ADDRESS PUSH30 0x6F7466009D2D86A054C1A5BED598ABA47836525A92E931717A64736F6C63 NUMBER STOP ADDMOD SMOD STOP CALLER "},"methodIdentifiers":{"DEFAULT_ADMIN_ROLE()":"a217fddf","SENDER_ROLE()":"c42ef38c","WITHDRAW_ROLE()":"e02023a1","getFreeTotalStableTokenSupply()":"eebe847a","getLockedTotalStableTokenSupply()":"8a058a9e","getRoleAdmin(bytes32)":"248a9ca3","grantRole(bytes32,address)":"2f2ff15d","hasRole(bytes32,address)":"91d14854","renounceRole(bytes32,address)":"36568abe","revokeRole(bytes32,address)":"d547741f","sendFundsToCampaignContract(address,uint256)":"1c5e2fd7","supportsInterface(bytes4)":"01ffc9a7","transferStableTokensFromManager(uint256,uint256,address)":"4c51951c","withdrawFreeStableTokens(uint256)":"e2866d8e"}}}}}