{
  "_format": "hh-sol-artifact-1",
  "contractName": "CampaignFactory",
  "sourceName": "contracts/CampaignFactory.sol",
  "abi": [
    {
      "inputs": [
        {
          "internalType": "address",
          "name": "_implementationContract",
          "type": "address"
        }
      ],
      "stateMutability": "nonpayable",
      "type": "constructor"
    },
    {
      "anonymous": false,
      "inputs": [
        {
          "indexed": true,
          "internalType": "address",
          "name": "previousOwner",
          "type": "address"
        },
        {
          "indexed": true,
          "internalType": "address",
          "name": "newOwner",
          "type": "address"
        }
      ],
      "name": "OwnershipTransferred",
      "type": "event"
    },
    {
      "inputs": [
        {
          "internalType": "uint256",
          "name": "_deadline",
          "type": "uint256"
        },
        {
          "internalType": "address",
          "name": "_submitter",
          "type": "address"
        },
        {
          "internalType": "address",
          "name": "_token",
          "type": "address"
        },
        {
          "internalType": "uint256",
          "name": "_minAmount",
          "type": "uint256"
        },
        {
          "internalType": "string",
          "name": "_campaignURI",
          "type": "string"
        }
      ],
      "name": "deployNewContract",
      "outputs": [],
      "stateMutability": "nonpayable",
      "type": "function"
    },
    {
      "inputs": [],
      "name": "getDeployedCampaignContracts",
      "outputs": [
        {
          "internalType": "address[]",
          "name": "",
          "type": "address[]"
        }
      ],
      "stateMutability": "view",
      "type": "function"
    },
    {
      "inputs": [],
      "name": "getImplementationContract",
      "outputs": [
        {
          "internalType": "address",
          "name": "",
          "type": "address"
        }
      ],
      "stateMutability": "view",
      "type": "function"
    },
    {
      "inputs": [],
      "name": "getLastDeployedCampaign",
      "outputs": [
        {
          "internalType": "address",
          "name": "",
          "type": "address"
        }
      ],
      "stateMutability": "view",
      "type": "function"
    },
    {
      "inputs": [],
      "name": "owner",
      "outputs": [
        {
          "internalType": "address",
          "name": "",
          "type": "address"
        }
      ],
      "stateMutability": "view",
      "type": "function"
    },
    {
      "inputs": [],
      "name": "renounceOwnership",
      "outputs": [],
      "stateMutability": "nonpayable",
      "type": "function"
    },
    {
      "inputs": [
        {
          "internalType": "address",
          "name": "newOwner",
          "type": "address"
        }
      ],
      "name": "transferOwnership",
      "outputs": [],
      "stateMutability": "nonpayable",
      "type": "function"
    }
  ],
  "bytecode": "0x60806040523480156200001157600080fd5b5060405162000fa138038062000fa1833981810160405281019062000037919062000182565b620000576200004b6200009f60201b60201c565b620000a760201b60201c565b80600160006101000a81548173ffffffffffffffffffffffffffffffffffffffff021916908373ffffffffffffffffffffffffffffffffffffffff1602179055505062000207565b600033905090565b60008060009054906101000a900473ffffffffffffffffffffffffffffffffffffffff169050816000806101000a81548173ffffffffffffffffffffffffffffffffffffffff021916908373ffffffffffffffffffffffffffffffffffffffff1602179055508173ffffffffffffffffffffffffffffffffffffffff168173ffffffffffffffffffffffffffffffffffffffff167f8be0079c531659141344cd1fd0a4f28419497f9722a3daafe3b4186f6b6457e060405160405180910390a35050565b6000815190506200017c81620001ed565b92915050565b6000602082840312156200019b576200019a620001e8565b5b6000620001ab848285016200016b565b91505092915050565b6000620001c182620001c8565b9050919050565b600073ffffffffffffffffffffffffffffffffffffffff82169050919050565b600080fd5b620001f881620001b4565b81146200020457600080fd5b50565b610d8a80620002176000396000f3fe608060405234801561001057600080fd5b506004361061007d5760003560e01c80638871dc881161005b5780638871dc88146100c65780638da5cb5b146100e4578063bd4b63dd14610102578063f2fde38b146101205761007d565b8063675bf59114610082578063715018a61461009e5780637cc957c2146100a8575b600080fd5b61009c60048036038101906100979190610772565b61013c565b005b6100a66102bc565b005b6100b06102d0565b6040516100bd919061094e565b60405180910390f35b6100ce6102fa565b6040516100db9190610969565b60405180910390f35b6100ec610388565b6040516100f9919061094e565b60405180910390f35b61010a6103b1565b604051610117919061094e565b60405180910390f35b61013a60048036038101906101359190610745565b610408565b005b61014461048c565b6000610171600160009054906101000a900473ffffffffffffffffffffffffffffffffffffffff1661050a565b90508073ffffffffffffffffffffffffffffffffffffffff166336ce7df787878787876040518663ffffffff1660e01b81526004016101b49594939291906109eb565b600060405180830381600087803b1580156101ce57600080fd5b505af11580156101e2573d6000803e3d6000fd5b505050508073ffffffffffffffffffffffffffffffffffffffff1663f2fde38b336040518263ffffffff1660e01b815260040161021f919061094e565b600060405180830381600087803b15801561023957600080fd5b505af115801561024d573d6000803e3d6000fd5b505050506002819080600181540180825580915050600190039060005260206000200160009091909190916101000a81548173ffffffffffffffffffffffffffffffffffffffff021916908373ffffffffffffffffffffffffffffffffffffffff160217905550505050505050565b6102c461048c565b6102ce60006105df565b565b6000600160009054906101000a900473ffffffffffffffffffffffffffffffffffffffff16905090565b6060600280548060200260200160405190810160405280929190818152602001828054801561037e57602002820191906000526020600020905b8160009054906101000a900473ffffffffffffffffffffffffffffffffffffffff1673ffffffffffffffffffffffffffffffffffffffff1681526020019060010190808311610334575b5050505050905090565b60008060009054906101000a900473ffffffffffffffffffffffffffffffffffffffff16905090565b6000600260016002805490506103c79190610af0565b815481106103d8576103d7610c02565b5b9060005260206000200160009054906101000a900473ffffffffffffffffffffffffffffffffffffffff16905090565b61041061048c565b600073ffffffffffffffffffffffffffffffffffffffff168173ffffffffffffffffffffffffffffffffffffffff161415610480576040517f08c379a00000000000000000000000000000000000000000000000000000000081526004016104779061098b565b60405180910390fd5b610489816105df565b50565b6104946106a3565b73ffffffffffffffffffffffffffffffffffffffff166104b2610388565b73ffffffffffffffffffffffffffffffffffffffff1614610508576040517f08c379a00000000000000000000000000000000000000000000000000000000081526004016104ff906109cb565b60405180910390fd5b565b60006040517f3d602d80600a3d3981f3363d3d373d3d3d363d7300000000000000000000000081528260601b60148201527f5af43d82803e903d91602b57fd5bf3000000000000000000000000000000000060288201526037816000f0915050600073ffffffffffffffffffffffffffffffffffffffff168173ffffffffffffffffffffffffffffffffffffffff1614156105da576040517f08c379a00000000000000000000000000000000000000000000000000000000081526004016105d1906109ab565b60405180910390fd5b919050565b60008060009054906101000a900473ffffffffffffffffffffffffffffffffffffffff169050816000806101000a81548173ffffffffffffffffffffffffffffffffffffffff021916908373ffffffffffffffffffffffffffffffffffffffff1602179055508173ffffffffffffffffffffffffffffffffffffffff168173ffffffffffffffffffffffffffffffffffffffff167f8be0079c531659141344cd1fd0a4f28419497f9722a3daafe3b4186f6b6457e060405160405180910390a35050565b600033905090565b60006106be6106b984610a6a565b610a45565b9050828152602081018484840111156106da576106d9610c65565b5b6106e5848285610b60565b509392505050565b6000813590506106fc81610d26565b92915050565b600082601f83011261071757610716610c60565b5b81356107278482602086016106ab565b91505092915050565b60008135905061073f81610d3d565b92915050565b60006020828403121561075b5761075a610c6f565b5b6000610769848285016106ed565b91505092915050565b600080600080600060a0868803121561078e5761078d610c6f565b5b600061079c88828901610730565b95505060206107ad888289016106ed565b94505060406107be888289016106ed565b93505060606107cf88828901610730565b925050608086013567ffffffffffffffff8111156107f0576107ef610c6a565b5b6107fc88828901610702565b9150509295509295909350565b60006108158383610821565b60208301905092915050565b61082a81610b24565b82525050565b61083981610b24565b82525050565b600061084a82610aab565b6108548185610ace565b935061085f83610a9b565b8060005b838110156108905781516108778882610809565b975061088283610ac1565b925050600181019050610863565b5085935050505092915050565b60006108a882610ab6565b6108b28185610adf565b93506108c2818560208601610b6f565b6108cb81610c74565b840191505092915050565b60006108e3602683610adf565b91506108ee82610c85565b604082019050919050565b6000610906601683610adf565b915061091182610cd4565b602082019050919050565b6000610929602083610adf565b915061093482610cfd565b602082019050919050565b61094881610b56565b82525050565b60006020820190506109636000830184610830565b92915050565b60006020820190508181036000830152610983818461083f565b905092915050565b600060208201905081810360008301526109a4816108d6565b9050919050565b600060208201905081810360008301526109c4816108f9565b9050919050565b600060208201905081810360008301526109e48161091c565b9050919050565b600060a082019050610a00600083018861093f565b610a0d6020830187610830565b610a1a6040830186610830565b610a27606083018561093f565b8181036080830152610a39818461089d565b90509695505050505050565b6000610a4f610a60565b9050610a5b8282610ba2565b919050565b6000604051905090565b600067ffffffffffffffff821115610a8557610a84610c31565b5b610a8e82610c74565b9050602081019050919050565b6000819050602082019050919050565b600081519050919050565b600081519050919050565b6000602082019050919050565b600082825260208201905092915050565b600082825260208201905092915050565b6000610afb82610b56565b9150610b0683610b56565b925082821015610b1957610b18610bd3565b5b828203905092915050565b6000610b2f82610b36565b9050919050565b600073ffffffffffffffffffffffffffffffffffffffff82169050919050565b6000819050919050565b82818337600083830152505050565b60005b83811015610b8d578082015181840152602081019050610b72565b83811115610b9c576000848401525b50505050565b610bab82610c74565b810181811067ffffffffffffffff82111715610bca57610bc9610c31565b5b80604052505050565b7f4e487b7100000000000000000000000000000000000000000000000000000000600052601160045260246000fd5b7f4e487b7100000000000000000000000000000000000000000000000000000000600052603260045260246000fd5b7f4e487b7100000000000000000000000000000000000000000000000000000000600052604160045260246000fd5b600080fd5b600080fd5b600080fd5b600080fd5b6000601f19601f8301169050919050565b7f4f776e61626c653a206e6577206f776e657220697320746865207a65726f206160008201527f6464726573730000000000000000000000000000000000000000000000000000602082015250565b7f455243313136373a20637265617465206661696c656400000000000000000000600082015250565b7f4f776e61626c653a2063616c6c6572206973206e6f7420746865206f776e6572600082015250565b610d2f81610b24565b8114610d3a57600080fd5b50565b610d4681610b56565b8114610d5157600080fd5b5056fea2646970667358221220e215c91b0da6407f3dd7c59c99c94e5eb46b37419272ff9b6c486851c393e0c564736f6c63430008070033",
  "linkReferences": {},
  "deployedLinkReferences": {}
}