{
  "_format": "hh-sol-artifact-1",
  "contractName": "CampaignFactory",
  "sourceName": "contracts/CampaignFactory.sol",
  "abi": [
    {
      "inputs": [
        {
          "internalType": "address",
          "name": "_implementationContract",
          "type": "address"
        }
      ],
      "stateMutability": "nonpayable",
      "type": "constructor"
    },
    {
      "anonymous": false,
      "inputs": [
        {
          "indexed": true,
          "internalType": "address",
          "name": "previousOwner",
          "type": "address"
        },
        {
          "indexed": true,
          "internalType": "address",
          "name": "newOwner",
          "type": "address"
        }
      ],
      "name": "OwnershipTransferred",
      "type": "event"
    },
    {
      "inputs": [
        {
          "internalType": "uint256",
          "name": "_deadline",
          "type": "uint256"
        },
        {
          "internalType": "address",
          "name": "_submitter",
          "type": "address"
        },
        {
          "internalType": "address",
          "name": "_token",
          "type": "address"
        }
      ],
      "name": "deployNewContract",
      "outputs": [],
      "stateMutability": "nonpayable",
      "type": "function"
    },
    {
      "inputs": [],
      "name": "getDeployedCampaignContracts",
      "outputs": [
        {
          "internalType": "address[]",
          "name": "",
          "type": "address[]"
        }
      ],
      "stateMutability": "view",
      "type": "function"
    },
    {
      "inputs": [],
      "name": "getImplementationContract",
      "outputs": [
        {
          "internalType": "address",
          "name": "",
          "type": "address"
        }
      ],
      "stateMutability": "view",
      "type": "function"
    },
    {
      "inputs": [],
      "name": "getLastDeployedCampaign",
      "outputs": [
        {
          "internalType": "address",
          "name": "",
          "type": "address"
        }
      ],
      "stateMutability": "view",
      "type": "function"
    },
    {
      "inputs": [],
      "name": "owner",
      "outputs": [
        {
          "internalType": "address",
          "name": "",
          "type": "address"
        }
      ],
      "stateMutability": "view",
      "type": "function"
    },
    {
      "inputs": [],
      "name": "renounceOwnership",
      "outputs": [],
      "stateMutability": "nonpayable",
      "type": "function"
    },
    {
      "inputs": [
        {
          "internalType": "address",
          "name": "newOwner",
          "type": "address"
        }
      ],
      "name": "transferOwnership",
      "outputs": [],
      "stateMutability": "nonpayable",
      "type": "function"
    }
  ],
  "bytecode": "0x608060405234801561001057600080fd5b50604051610d51380380610d5183398181016040528101906100329190610176565b61004e61004361009560201b60201c565b61009d60201b60201c565b80600160006101000a81548173ffffffffffffffffffffffffffffffffffffffff021916908373ffffffffffffffffffffffffffffffffffffffff160217905550506101f1565b600033905090565b60008060009054906101000a900473ffffffffffffffffffffffffffffffffffffffff169050816000806101000a81548173ffffffffffffffffffffffffffffffffffffffff021916908373ffffffffffffffffffffffffffffffffffffffff1602179055508173ffffffffffffffffffffffffffffffffffffffff168173ffffffffffffffffffffffffffffffffffffffff167f8be0079c531659141344cd1fd0a4f28419497f9722a3daafe3b4186f6b6457e060405160405180910390a35050565b600081519050610170816101da565b92915050565b60006020828403121561018c5761018b6101d5565b5b600061019a84828501610161565b91505092915050565b60006101ae826101b5565b9050919050565b600073ffffffffffffffffffffffffffffffffffffffff82169050919050565b600080fd5b6101e3816101a3565b81146101ee57600080fd5b50565b610b51806102006000396000f3fe608060405234801561001057600080fd5b506004361061007d5760003560e01c80638da5cb5b1161005b5780638da5cb5b146100c85780638e64be16146100e6578063bd4b63dd14610102578063f2fde38b146101205761007d565b8063715018a6146100825780637cc957c21461008c5780638871dc88146100aa575b600080fd5b61008a61013c565b005b610094610150565b6040516100a1919061085b565b60405180910390f35b6100b261017a565b6040516100bf9190610876565b60405180910390f35b6100d0610208565b6040516100dd919061085b565b60405180910390f35b61010060048036038101906100fb91906106fc565b610231565b005b61010a6103ab565b604051610117919061085b565b60405180910390f35b61013a600480360381019061013591906106cf565b610402565b005b610144610486565b61014e6000610504565b565b6000600160009054906101000a900473ffffffffffffffffffffffffffffffffffffffff16905090565b606060028054806020026020016040519081016040528092919081815260200182805480156101fe57602002820191906000526020600020905b8160009054906101000a900473ffffffffffffffffffffffffffffffffffffffff1673ffffffffffffffffffffffffffffffffffffffff16815260200190600101908083116101b4575b5050505050905090565b60008060009054906101000a900473ffffffffffffffffffffffffffffffffffffffff16905090565b610239610486565b6000610266600160009054906101000a900473ffffffffffffffffffffffffffffffffffffffff166105c8565b90508073ffffffffffffffffffffffffffffffffffffffff1663b4988fd08585856040518463ffffffff1660e01b81526004016102a5939291906108f8565b600060405180830381600087803b1580156102bf57600080fd5b505af11580156102d3573d6000803e3d6000fd5b505050508073ffffffffffffffffffffffffffffffffffffffff1663f2fde38b336040518263ffffffff1660e01b8152600401610310919061085b565b600060405180830381600087803b15801561032a57600080fd5b505af115801561033e573d6000803e3d6000fd5b505050506002819080600181540180825580915050600190039060005260206000200160009091909190916101000a81548173ffffffffffffffffffffffffffffffffffffffff021916908373ffffffffffffffffffffffffffffffffffffffff16021790555050505050565b6000600260016002805490506103c19190610979565b815481106103d2576103d1610a18565b5b9060005260206000200160009054906101000a900473ffffffffffffffffffffffffffffffffffffffff16905090565b61040a610486565b600073ffffffffffffffffffffffffffffffffffffffff168173ffffffffffffffffffffffffffffffffffffffff16141561047a576040517f08c379a000000000000000000000000000000000000000000000000000000000815260040161047190610898565b60405180910390fd5b61048381610504565b50565b61048e61069d565b73ffffffffffffffffffffffffffffffffffffffff166104ac610208565b73ffffffffffffffffffffffffffffffffffffffff1614610502576040517f08c379a00000000000000000000000000000000000000000000000000000000081526004016104f9906108d8565b60405180910390fd5b565b60008060009054906101000a900473ffffffffffffffffffffffffffffffffffffffff169050816000806101000a81548173ffffffffffffffffffffffffffffffffffffffff021916908373ffffffffffffffffffffffffffffffffffffffff1602179055508173ffffffffffffffffffffffffffffffffffffffff168173ffffffffffffffffffffffffffffffffffffffff167f8be0079c531659141344cd1fd0a4f28419497f9722a3daafe3b4186f6b6457e060405160405180910390a35050565b60006040517f3d602d80600a3d3981f3363d3d373d3d3d363d7300000000000000000000000081528260601b60148201527f5af43d82803e903d91602b57fd5bf3000000000000000000000000000000000060288201526037816000f0915050600073ffffffffffffffffffffffffffffffffffffffff168173ffffffffffffffffffffffffffffffffffffffff161415610698576040517f08c379a000000000000000000000000000000000000000000000000000000000815260040161068f906108b8565b60405180910390fd5b919050565b600033905090565b6000813590506106b481610aed565b92915050565b6000813590506106c981610b04565b92915050565b6000602082840312156106e5576106e4610a47565b5b60006106f3848285016106a5565b91505092915050565b60008060006060848603121561071557610714610a47565b5b6000610723868287016106ba565b9350506020610734868287016106a5565b9250506040610745868287016106a5565b9150509250925092565b600061075b8383610767565b60208301905092915050565b610770816109ad565b82525050565b61077f816109ad565b82525050565b60006107908261093f565b61079a8185610957565b93506107a58361092f565b8060005b838110156107d65781516107bd888261074f565b97506107c88361094a565b9250506001810190506107a9565b5085935050505092915050565b60006107f0602683610968565b91506107fb82610a4c565b604082019050919050565b6000610813601683610968565b915061081e82610a9b565b602082019050919050565b6000610836602083610968565b915061084182610ac4565b602082019050919050565b610855816109df565b82525050565b60006020820190506108706000830184610776565b92915050565b600060208201905081810360008301526108908184610785565b905092915050565b600060208201905081810360008301526108b1816107e3565b9050919050565b600060208201905081810360008301526108d181610806565b9050919050565b600060208201905081810360008301526108f181610829565b9050919050565b600060608201905061090d600083018661084c565b61091a6020830185610776565b6109276040830184610776565b949350505050565b6000819050602082019050919050565b600081519050919050565b6000602082019050919050565b600082825260208201905092915050565b600082825260208201905092915050565b6000610984826109df565b915061098f836109df565b9250828210156109a2576109a16109e9565b5b828203905092915050565b60006109b8826109bf565b9050919050565b600073ffffffffffffffffffffffffffffffffffffffff82169050919050565b6000819050919050565b7f4e487b7100000000000000000000000000000000000000000000000000000000600052601160045260246000fd5b7f4e487b7100000000000000000000000000000000000000000000000000000000600052603260045260246000fd5b600080fd5b7f4f776e61626c653a206e6577206f776e657220697320746865207a65726f206160008201527f6464726573730000000000000000000000000000000000000000000000000000602082015250565b7f455243313136373a20637265617465206661696c656400000000000000000000600082015250565b7f4f776e61626c653a2063616c6c6572206973206e6f7420746865206f776e6572600082015250565b610af6816109ad565b8114610b0157600080fd5b50565b610b0d816109df565b8114610b1857600080fd5b5056fea2646970667358221220b34eacd71a27af8cce3ab57b873397a583405321ac8511871eaa7aae3feb232f64736f6c63430008070033",
  "linkReferences": {},
  "deployedLinkReferences": {}
}