{
  "_format": "hh-sol-artifact-1",
  "contractName": "CoinRiseTokenPool",
  "sourceName": "contracts/CoinRiseTokenPool.sol",
  "abi": [
    {
      "inputs": [
        {
          "internalType": "address",
          "name": "_stableToken",
          "type": "address"
        },
        {
          "internalType": "address",
          "name": "_campaignManagerAddress",
          "type": "address"
        }
      ],
      "stateMutability": "nonpayable",
      "type": "constructor"
    },
    {
      "inputs": [],
      "name": "CoinRiseTokenPool__NotCampaignManager",
      "type": "error"
    },
    {
      "inputs": [],
      "name": "CoinRiseTokenPool__NotEnoughFreeStableTokens",
      "type": "error"
    },
    {
      "inputs": [],
      "name": "CoinRiseTokenPool__NotEnoughLockedStableCoins",
      "type": "error"
    },
    {
      "anonymous": false,
      "inputs": [
        {
          "indexed": false,
          "internalType": "address",
          "name": "campaign",
          "type": "address"
        },
        {
          "indexed": false,
          "internalType": "uint256",
          "name": "amount",
          "type": "uint256"
        }
      ],
      "name": "FundingsSentToCampaign",
      "type": "event"
    },
    {
      "anonymous": false,
      "inputs": [
        {
          "indexed": false,
          "internalType": "address",
          "name": "newAddress",
          "type": "address"
        }
      ],
      "name": "RegistryAddressUpdated",
      "type": "event"
    },
    {
      "anonymous": false,
      "inputs": [
        {
          "indexed": true,
          "internalType": "bytes32",
          "name": "role",
          "type": "bytes32"
        },
        {
          "indexed": true,
          "internalType": "bytes32",
          "name": "previousAdminRole",
          "type": "bytes32"
        },
        {
          "indexed": true,
          "internalType": "bytes32",
          "name": "newAdminRole",
          "type": "bytes32"
        }
      ],
      "name": "RoleAdminChanged",
      "type": "event"
    },
    {
      "anonymous": false,
      "inputs": [
        {
          "indexed": true,
          "internalType": "bytes32",
          "name": "role",
          "type": "bytes32"
        },
        {
          "indexed": true,
          "internalType": "address",
          "name": "account",
          "type": "address"
        },
        {
          "indexed": true,
          "internalType": "address",
          "name": "sender",
          "type": "address"
        }
      ],
      "name": "RoleGranted",
      "type": "event"
    },
    {
      "anonymous": false,
      "inputs": [
        {
          "indexed": true,
          "internalType": "bytes32",
          "name": "role",
          "type": "bytes32"
        },
        {
          "indexed": true,
          "internalType": "address",
          "name": "account",
          "type": "address"
        },
        {
          "indexed": true,
          "internalType": "address",
          "name": "sender",
          "type": "address"
        }
      ],
      "name": "RoleRevoked",
      "type": "event"
    },
    {
      "anonymous": false,
      "inputs": [
        {
          "indexed": false,
          "internalType": "uint256",
          "name": "lockedTotalSupply",
          "type": "uint256"
        },
        {
          "indexed": false,
          "internalType": "uint256",
          "name": "freeTotalSupply",
          "type": "uint256"
        }
      ],
      "name": "StableTokensUpdated",
      "type": "event"
    },
    {
      "anonymous": false,
      "inputs": [
        {
          "indexed": false,
          "internalType": "address",
          "name": "to",
          "type": "address"
        },
        {
          "indexed": false,
          "internalType": "uint256",
          "name": "amount",
          "type": "uint256"
        }
      ],
      "name": "WithdrawFreeStableTokenFunds",
      "type": "event"
    },
    {
      "inputs": [],
      "name": "DEFAULT_ADMIN_ROLE",
      "outputs": [
        {
          "internalType": "bytes32",
          "name": "",
          "type": "bytes32"
        }
      ],
      "stateMutability": "view",
      "type": "function"
    },
    {
      "inputs": [],
      "name": "SENDER_ROLE",
      "outputs": [
        {
          "internalType": "bytes32",
          "name": "",
          "type": "bytes32"
        }
      ],
      "stateMutability": "view",
      "type": "function"
    },
    {
      "inputs": [],
      "name": "WITHDRAW_ROLE",
      "outputs": [
        {
          "internalType": "bytes32",
          "name": "",
          "type": "bytes32"
        }
      ],
      "stateMutability": "view",
      "type": "function"
    },
    {
      "inputs": [],
      "name": "getFreeTotalStableTokenSupply",
      "outputs": [
        {
          "internalType": "uint256",
          "name": "",
          "type": "uint256"
        }
      ],
      "stateMutability": "view",
      "type": "function"
    },
    {
      "inputs": [],
      "name": "getLockedTotalStableTokenSupply",
      "outputs": [
        {
          "internalType": "uint256",
          "name": "",
          "type": "uint256"
        }
      ],
      "stateMutability": "view",
      "type": "function"
    },
    {
      "inputs": [
        {
          "internalType": "bytes32",
          "name": "role",
          "type": "bytes32"
        }
      ],
      "name": "getRoleAdmin",
      "outputs": [
        {
          "internalType": "bytes32",
          "name": "",
          "type": "bytes32"
        }
      ],
      "stateMutability": "view",
      "type": "function"
    },
    {
      "inputs": [
        {
          "internalType": "bytes32",
          "name": "role",
          "type": "bytes32"
        },
        {
          "internalType": "address",
          "name": "account",
          "type": "address"
        }
      ],
      "name": "grantRole",
      "outputs": [],
      "stateMutability": "nonpayable",
      "type": "function"
    },
    {
      "inputs": [
        {
          "internalType": "bytes32",
          "name": "role",
          "type": "bytes32"
        },
        {
          "internalType": "address",
          "name": "account",
          "type": "address"
        }
      ],
      "name": "hasRole",
      "outputs": [
        {
          "internalType": "bool",
          "name": "",
          "type": "bool"
        }
      ],
      "stateMutability": "view",
      "type": "function"
    },
    {
      "inputs": [
        {
          "internalType": "bytes32",
          "name": "role",
          "type": "bytes32"
        },
        {
          "internalType": "address",
          "name": "account",
          "type": "address"
        }
      ],
      "name": "renounceRole",
      "outputs": [],
      "stateMutability": "nonpayable",
      "type": "function"
    },
    {
      "inputs": [
        {
          "internalType": "bytes32",
          "name": "role",
          "type": "bytes32"
        },
        {
          "internalType": "address",
          "name": "account",
          "type": "address"
        }
      ],
      "name": "revokeRole",
      "outputs": [],
      "stateMutability": "nonpayable",
      "type": "function"
    },
    {
      "inputs": [
        {
          "internalType": "address",
          "name": "_campaignAddress",
          "type": "address"
        },
        {
          "internalType": "uint256",
          "name": "_amount",
          "type": "uint256"
        }
      ],
      "name": "sendFundsToCampaignContract",
      "outputs": [],
      "stateMutability": "nonpayable",
      "type": "function"
    },
    {
      "inputs": [
        {
          "internalType": "bytes4",
          "name": "interfaceId",
          "type": "bytes4"
        }
      ],
      "name": "supportsInterface",
      "outputs": [
        {
          "internalType": "bool",
          "name": "",
          "type": "bool"
        }
      ],
      "stateMutability": "view",
      "type": "function"
    },
    {
      "inputs": [
        {
          "internalType": "uint256",
          "name": "_amount",
          "type": "uint256"
        },
        {
          "internalType": "uint256",
          "name": "_fees",
          "type": "uint256"
        },
        {
          "internalType": "address",
          "name": "from",
          "type": "address"
        }
      ],
      "name": "transferStableTokensFromManager",
      "outputs": [],
      "stateMutability": "nonpayable",
      "type": "function"
    },
    {
      "inputs": [
        {
          "internalType": "uint256",
          "name": "_amount",
          "type": "uint256"
        }
      ],
      "name": "withdrawFreeStableTokens",
      "outputs": [],
      "stateMutability": "nonpayable",
      "type": "function"
    }
  ],
  "bytecode": "0x60806040523480156200001157600080fd5b5060405162001aa138038062001aa1833981810160405281019062000037919062000250565b6200004c6000801b33620000d660201b60201c565b81600160006101000a81548173ffffffffffffffffffffffffffffffffffffffff021916908373ffffffffffffffffffffffffffffffffffffffff16021790555080600260006101000a81548173ffffffffffffffffffffffffffffffffffffffff021916908373ffffffffffffffffffffffffffffffffffffffff1602179055505050620002ea565b620000e88282620001c760201b60201c565b620001c357600160008084815260200190815260200160002060000160008373ffffffffffffffffffffffffffffffffffffffff1673ffffffffffffffffffffffffffffffffffffffff16815260200190815260200160002060006101000a81548160ff021916908315150217905550620001686200023160201b60201c565b73ffffffffffffffffffffffffffffffffffffffff168173ffffffffffffffffffffffffffffffffffffffff16837f2f8788117e7eff1d82e926ec794901d17c78024a50270940304540a733656f0d60405160405180910390a45b5050565b600080600084815260200190815260200160002060000160008373ffffffffffffffffffffffffffffffffffffffff1673ffffffffffffffffffffffffffffffffffffffff16815260200190815260200160002060009054906101000a900460ff16905092915050565b600033905090565b6000815190506200024a81620002d0565b92915050565b600080604083850312156200026a5762000269620002cb565b5b60006200027a8582860162000239565b92505060206200028d8582860162000239565b9150509250929050565b6000620002a482620002ab565b9050919050565b600073ffffffffffffffffffffffffffffffffffffffff82169050919050565b600080fd5b620002db8162000297565b8114620002e757600080fd5b50565b6117a780620002fa6000396000f3fe608060405234801561001057600080fd5b50600436106100ea5760003560e01c806391d148541161008c578063d547741f11610066578063d547741f14610249578063e02023a114610265578063e2866d8e14610283578063eebe847a1461029f576100ea565b806391d14854146101dd578063a217fddf1461020d578063c42ef38c1461022b576100ea565b80632f2ff15d116100c85780632f2ff15d1461016b57806336568abe146101875780634c51951c146101a35780638a058a9e146101bf576100ea565b806301ffc9a7146100ef5780631c5e2fd71461011f578063248a9ca31461013b575b600080fd5b61010960048036038101906101049190611056565b6102bd565b60405161011691906112cf565b60405180910390f35b61013960048036038101906101349190610f7c565b610337565b005b61015560048036038101906101509190610fe9565b61050a565b60405161016291906112ea565b60405180910390f35b61018560048036038101906101809190611016565b610529565b005b6101a1600480360381019061019c9190611016565b61054a565b005b6101bd60048036038101906101b891906110b0565b6105cd565b005b6101c761078f565b6040516101d49190611367565b60405180910390f35b6101f760048036038101906101f29190611016565b610799565b60405161020491906112cf565b60405180910390f35b610215610803565b60405161022291906112ea565b60405180910390f35b61023361080a565b60405161024091906112ea565b60405180910390f35b610263600480360381019061025e9190611016565b61082e565b005b61026d61084f565b60405161027a91906112ea565b60405180910390f35b61029d60048036038101906102989190611083565b610873565b005b6102a76109e9565b6040516102b49190611367565b60405180910390f35b60007f7965db0b000000000000000000000000000000000000000000000000000000007bffffffffffffffffffffffffffffffffffffffffffffffffffffffff1916827bffffffffffffffffffffffffffffffffffffffffffffffffffffffff19161480610330575061032f826109f3565b5b9050919050565b338073ffffffffffffffffffffffffffffffffffffffff16600260009054906101000a900473ffffffffffffffffffffffffffffffffffffffff1673ffffffffffffffffffffffffffffffffffffffff16146103bf576040517f1a421b7400000000000000000000000000000000000000000000000000000000815260040160405180910390fd5b8160035410156103fb576040517fad6f02f600000000000000000000000000000000000000000000000000000000815260040160405180910390fd5b600160009054906101000a900473ffffffffffffffffffffffffffffffffffffffff1673ffffffffffffffffffffffffffffffffffffffff1663a9059cbb84846040518363ffffffff1660e01b81526004016104589291906112a6565b602060405180830381600087803b15801561047257600080fd5b505af1158015610486573d6000803e3d6000fd5b505050506040513d601f19601f820116820180604052508101906104aa9190610fbc565b6104b357600080fd5b81600360008282546104c59190611482565b925050819055507f73b5adfd0bc7f9a4f823199986a150a1eeeb5e93cb9409b389f7ef1ee54ae97283836040516104fd9291906112a6565b60405180910390a1505050565b6000806000838152602001908152602001600020600101549050919050565b6105328261050a565b61053b81610a5d565b6105458383610a71565b505050565b610552610b51565b73ffffffffffffffffffffffffffffffffffffffff168173ffffffffffffffffffffffffffffffffffffffff16146105bf576040517f08c379a00000000000000000000000000000000000000000000000000000000081526004016105b690611347565b60405180910390fd5b6105c98282610b59565b5050565b338073ffffffffffffffffffffffffffffffffffffffff16600260009054906101000a900473ffffffffffffffffffffffffffffffffffffffff1673ffffffffffffffffffffffffffffffffffffffff1614610655576040517f1a421b7400000000000000000000000000000000000000000000000000000000815260040160405180910390fd5b600160009054906101000a900473ffffffffffffffffffffffffffffffffffffffff1673ffffffffffffffffffffffffffffffffffffffff166323b872dd8330876040518463ffffffff1660e01b81526004016106b49392919061126f565b602060405180830381600087803b1580156106ce57600080fd5b505af11580156106e2573d6000803e3d6000fd5b505050506040513d601f19601f820116820180604052508101906107069190610fbc565b61070f57600080fd5b828461071b9190611482565b6003600082825461072c91906113d2565b92505081905550826004600082825461074591906113d2565b925050819055507f321b600a72e347eae3fe308860434cb251ab63515c43e1911ddd6b010be66365600354600454604051610781929190611382565b60405180910390a150505050565b6000600354905090565b600080600084815260200190815260200160002060000160008373ffffffffffffffffffffffffffffffffffffffff1673ffffffffffffffffffffffffffffffffffffffff16815260200190815260200160002060009054906101000a900460ff16905092915050565b6000801b81565b7f76d12de99ad2ca162840505be9b657c2e7a650cc3ee0284048f3f9def3c1adf281565b6108378261050a565b61084081610a5d565b61084a8383610b59565b505050565b7f5d8e12c39142ff96d79d04d15d1ba1269e4fe57bb9d26f43523628b34ba108ec81565b7f5d8e12c39142ff96d79d04d15d1ba1269e4fe57bb9d26f43523628b34ba108ec61089d81610a5d565b60006004549050828110156108de576040517fe451ed4e00000000000000000000000000000000000000000000000000000000815260040160405180910390fd5b82816108ea9190611482565b9050600160009054906101000a900473ffffffffffffffffffffffffffffffffffffffff1673ffffffffffffffffffffffffffffffffffffffff1663a9059cbb33856040518363ffffffff1660e01b81526004016109499291906112a6565b602060405180830381600087803b15801561096357600080fd5b505af1158015610977573d6000803e3d6000fd5b505050506040513d601f19601f8201168201806040525081019061099b9190610fbc565b6109a457600080fd5b806004819055507f1cf773a3699c7f5f80df04b8d5daf523fb5b7e2617cc4ea3759576d2f516645c33846040516109dc9291906112a6565b60405180910390a1505050565b6000600454905090565b60007f01ffc9a7000000000000000000000000000000000000000000000000000000007bffffffffffffffffffffffffffffffffffffffffffffffffffffffff1916827bffffffffffffffffffffffffffffffffffffffffffffffffffffffff1916149050919050565b610a6e81610a69610b51565b610c3a565b50565b610a7b8282610799565b610b4d57600160008084815260200190815260200160002060000160008373ffffffffffffffffffffffffffffffffffffffff1673ffffffffffffffffffffffffffffffffffffffff16815260200190815260200160002060006101000a81548160ff021916908315150217905550610af2610b51565b73ffffffffffffffffffffffffffffffffffffffff168173ffffffffffffffffffffffffffffffffffffffff16837f2f8788117e7eff1d82e926ec794901d17c78024a50270940304540a733656f0d60405160405180910390a45b5050565b600033905090565b610b638282610799565b15610c3657600080600084815260200190815260200160002060000160008373ffffffffffffffffffffffffffffffffffffffff1673ffffffffffffffffffffffffffffffffffffffff16815260200190815260200160002060006101000a81548160ff021916908315150217905550610bdb610b51565b73ffffffffffffffffffffffffffffffffffffffff168173ffffffffffffffffffffffffffffffffffffffff16837ff6391f5c32d9c69d2a47ea670b442974b53935d1edc7fd64eb21e047a839171b60405160405180910390a45b5050565b610c448282610799565b610cd357610c698173ffffffffffffffffffffffffffffffffffffffff166014610cd7565b610c778360001c6020610cd7565b604051602001610c88929190611235565b6040516020818303038152906040526040517f08c379a0000000000000000000000000000000000000000000000000000000008152600401610cca9190611305565b60405180910390fd5b5050565b606060006002836002610cea9190611428565b610cf491906113d2565b67ffffffffffffffff811115610d0d57610d0c6115ef565b5b6040519080825280601f01601f191660200182016040528015610d3f5781602001600182028036833780820191505090505b5090507f300000000000000000000000000000000000000000000000000000000000000081600081518110610d7757610d766115c0565b5b60200101907effffffffffffffffffffffffffffffffffffffffffffffffffffffffffffff1916908160001a9053507f780000000000000000000000000000000000000000000000000000000000000081600181518110610ddb57610dda6115c0565b5b60200101907effffffffffffffffffffffffffffffffffffffffffffffffffffffffffffff1916908160001a90535060006001846002610e1b9190611428565b610e2591906113d2565b90505b6001811115610ec5577f3031323334353637383961626364656600000000000000000000000000000000600f861660108110610e6757610e666115c0565b5b1a60f81b828281518110610e7e57610e7d6115c0565b5b60200101907effffffffffffffffffffffffffffffffffffffffffffffffffffffffffffff1916908160001a905350600485901c945080610ebe90611567565b9050610e28565b5060008414610f09576040517f08c379a0000000000000000000000000000000000000000000000000000000008152600401610f0090611327565b60405180910390fd5b8091505092915050565b600081359050610f22816116fe565b92915050565b600081519050610f3781611715565b92915050565b600081359050610f4c8161172c565b92915050565b600081359050610f6181611743565b92915050565b600081359050610f768161175a565b92915050565b60008060408385031215610f9357610f9261161e565b5b6000610fa185828601610f13565b9250506020610fb285828601610f67565b9150509250929050565b600060208284031215610fd257610fd161161e565b5b6000610fe084828501610f28565b91505092915050565b600060208284031215610fff57610ffe61161e565b5b600061100d84828501610f3d565b91505092915050565b6000806040838503121561102d5761102c61161e565b5b600061103b85828601610f3d565b925050602061104c85828601610f13565b9150509250929050565b60006020828403121561106c5761106b61161e565b5b600061107a84828501610f52565b91505092915050565b6000602082840312156110995761109861161e565b5b60006110a784828501610f67565b91505092915050565b6000806000606084860312156110c9576110c861161e565b5b60006110d786828701610f67565b93505060206110e886828701610f67565b92505060406110f986828701610f13565b9150509250925092565b61110c816114b6565b82525050565b61111b816114c8565b82525050565b61112a816114d4565b82525050565b600061113b826113ab565b61114581856113b6565b9350611155818560208601611534565b61115e81611623565b840191505092915050565b6000611174826113ab565b61117e81856113c7565b935061118e818560208601611534565b80840191505092915050565b60006111a76020836113b6565b91506111b282611634565b602082019050919050565b60006111ca6017836113c7565b91506111d58261165d565b601782019050919050565b60006111ed6011836113c7565b91506111f882611686565b601182019050919050565b6000611210602f836113b6565b915061121b826116af565b604082019050919050565b61122f8161152a565b82525050565b6000611240826111bd565b915061124c8285611169565b9150611257826111e0565b91506112638284611169565b91508190509392505050565b60006060820190506112846000830186611103565b6112916020830185611103565b61129e6040830184611226565b949350505050565b60006040820190506112bb6000830185611103565b6112c86020830184611226565b9392505050565b60006020820190506112e46000830184611112565b92915050565b60006020820190506112ff6000830184611121565b92915050565b6000602082019050818103600083015261131f8184611130565b905092915050565b600060208201905081810360008301526113408161119a565b9050919050565b6000602082019050818103600083015261136081611203565b9050919050565b600060208201905061137c6000830184611226565b92915050565b60006040820190506113976000830185611226565b6113a46020830184611226565b9392505050565b600081519050919050565b600082825260208201905092915050565b600081905092915050565b60006113dd8261152a565b91506113e88361152a565b9250827fffffffffffffffffffffffffffffffffffffffffffffffffffffffffffffffff0382111561141d5761141c611591565b5b828201905092915050565b60006114338261152a565b915061143e8361152a565b9250817fffffffffffffffffffffffffffffffffffffffffffffffffffffffffffffffff048311821515161561147757611476611591565b5b828202905092915050565b600061148d8261152a565b91506114988361152a565b9250828210156114ab576114aa611591565b5b828203905092915050565b60006114c18261150a565b9050919050565b60008115159050919050565b6000819050919050565b60007fffffffff0000000000000000000000000000000000000000000000000000000082169050919050565b600073ffffffffffffffffffffffffffffffffffffffff82169050919050565b6000819050919050565b60005b83811015611552578082015181840152602081019050611537565b83811115611561576000848401525b50505050565b60006115728261152a565b9150600082141561158657611585611591565b5b600182039050919050565b7f4e487b7100000000000000000000000000000000000000000000000000000000600052601160045260246000fd5b7f4e487b7100000000000000000000000000000000000000000000000000000000600052603260045260246000fd5b7f4e487b7100000000000000000000000000000000000000000000000000000000600052604160045260246000fd5b600080fd5b6000601f19601f8301169050919050565b7f537472696e67733a20686578206c656e67746820696e73756666696369656e74600082015250565b7f416363657373436f6e74726f6c3a206163636f756e7420000000000000000000600082015250565b7f206973206d697373696e6720726f6c6520000000000000000000000000000000600082015250565b7f416363657373436f6e74726f6c3a2063616e206f6e6c792072656e6f756e636560008201527f20726f6c657320666f722073656c660000000000000000000000000000000000602082015250565b611707816114b6565b811461171257600080fd5b50565b61171e816114c8565b811461172957600080fd5b50565b611735816114d4565b811461174057600080fd5b50565b61174c816114de565b811461175757600080fd5b50565b6117638161152a565b811461176e57600080fd5b5056fea2646970667358221220d3253816c1307d6f7466009d2d86a054c1a5bed598aba47836525a92e931717a64736f6c63430008070033",
  "linkReferences": {},
  "deployedLinkReferences": {}
}