{
  "_format": "hh-sol-artifact-1",
  "contractName": "CoinRiseTokenPool",
  "sourceName": "contracts/CoinRiseTokenPool.sol",
  "abi": [
    {
      "inputs": [
        {
          "internalType": "address",
          "name": "_stableToken",
          "type": "address"
        },
        {
          "internalType": "address",
          "name": "_campaignManagerAddress",
          "type": "address"
        }
      ],
      "stateMutability": "nonpayable",
      "type": "constructor"
    },
    {
      "inputs": [],
      "name": "CoinRiseTokenPool__NotEnoughContributorStableTokens",
      "type": "error"
    },
    {
      "inputs": [],
      "name": "CoinRiseTokenPool__NotEnoughFreeStableTokens",
      "type": "error"
    },
    {
      "inputs": [],
      "name": "CoinRiseTokenPool__NotEnoughLockedStableCoins",
      "type": "error"
    },
    {
      "inputs": [],
      "name": "CoinRiseTokenPool__TokensAlreadyTransfered",
      "type": "error"
    },
    {
      "anonymous": false,
      "inputs": [
        {
          "indexed": false,
          "internalType": "address",
          "name": "campaign",
          "type": "address"
        },
        {
          "indexed": false,
          "internalType": "uint256",
          "name": "amount",
          "type": "uint256"
        }
      ],
      "name": "FundingsSentToCampaign",
      "type": "event"
    },
    {
      "anonymous": false,
      "inputs": [
        {
          "indexed": false,
          "internalType": "address",
          "name": "newAddress",
          "type": "address"
        }
      ],
      "name": "RegistryAddressUpdated",
      "type": "event"
    },
    {
      "anonymous": false,
      "inputs": [
        {
          "indexed": true,
          "internalType": "bytes32",
          "name": "role",
          "type": "bytes32"
        },
        {
          "indexed": true,
          "internalType": "bytes32",
          "name": "previousAdminRole",
          "type": "bytes32"
        },
        {
          "indexed": true,
          "internalType": "bytes32",
          "name": "newAdminRole",
          "type": "bytes32"
        }
      ],
      "name": "RoleAdminChanged",
      "type": "event"
    },
    {
      "anonymous": false,
      "inputs": [
        {
          "indexed": true,
          "internalType": "bytes32",
          "name": "role",
          "type": "bytes32"
        },
        {
          "indexed": true,
          "internalType": "address",
          "name": "account",
          "type": "address"
        },
        {
          "indexed": true,
          "internalType": "address",
          "name": "sender",
          "type": "address"
        }
      ],
      "name": "RoleGranted",
      "type": "event"
    },
    {
      "anonymous": false,
      "inputs": [
        {
          "indexed": true,
          "internalType": "bytes32",
          "name": "role",
          "type": "bytes32"
        },
        {
          "indexed": true,
          "internalType": "address",
          "name": "account",
          "type": "address"
        },
        {
          "indexed": true,
          "internalType": "address",
          "name": "sender",
          "type": "address"
        }
      ],
      "name": "RoleRevoked",
      "type": "event"
    },
    {
      "anonymous": false,
      "inputs": [
        {
          "indexed": false,
          "internalType": "uint256",
          "name": "lockedTotalSupply",
          "type": "uint256"
        },
        {
          "indexed": false,
          "internalType": "uint256",
          "name": "freeTotalSupply",
          "type": "uint256"
        },
        {
          "indexed": false,
          "internalType": "uint256",
          "name": "contributorSupply",
          "type": "uint256"
        }
      ],
      "name": "StableTokensUpdated",
      "type": "event"
    },
    {
      "anonymous": false,
      "inputs": [
        {
          "indexed": false,
          "internalType": "address",
          "name": "to",
          "type": "address"
        },
        {
          "indexed": false,
          "internalType": "uint256",
          "name": "amount",
          "type": "uint256"
        }
      ],
      "name": "WithdrawFreeStableTokenFunds",
      "type": "event"
    },
    {
      "inputs": [],
      "name": "DEFAULT_ADMIN_ROLE",
      "outputs": [
        {
          "internalType": "bytes32",
          "name": "",
          "type": "bytes32"
        }
      ],
      "stateMutability": "view",
      "type": "function"
    },
    {
      "inputs": [],
      "name": "MANAGER_ROLE",
      "outputs": [
        {
          "internalType": "bytes32",
          "name": "",
          "type": "bytes32"
        }
      ],
      "stateMutability": "view",
      "type": "function"
    },
    {
      "inputs": [],
      "name": "SENDER_ROLE",
      "outputs": [
        {
          "internalType": "bytes32",
          "name": "",
          "type": "bytes32"
        }
      ],
      "stateMutability": "view",
      "type": "function"
    },
    {
      "inputs": [],
      "name": "WITHDRAW_ROLE",
      "outputs": [
        {
          "internalType": "bytes32",
          "name": "",
          "type": "bytes32"
        }
      ],
      "stateMutability": "view",
      "type": "function"
    },
    {
      "inputs": [],
      "name": "getFreeTotalStableTokenSupply",
      "outputs": [
        {
          "internalType": "uint256",
          "name": "",
          "type": "uint256"
        }
      ],
      "stateMutability": "view",
      "type": "function"
    },
    {
      "inputs": [],
      "name": "getLockedTotalStableTokenSupply",
      "outputs": [
        {
          "internalType": "uint256",
          "name": "",
          "type": "uint256"
        }
      ],
      "stateMutability": "view",
      "type": "function"
    },
    {
      "inputs": [
        {
          "internalType": "bytes32",
          "name": "role",
          "type": "bytes32"
        }
      ],
      "name": "getRoleAdmin",
      "outputs": [
        {
          "internalType": "bytes32",
          "name": "",
          "type": "bytes32"
        }
      ],
      "stateMutability": "view",
      "type": "function"
    },
    {
      "inputs": [
        {
          "internalType": "bytes32",
          "name": "role",
          "type": "bytes32"
        },
        {
          "internalType": "address",
          "name": "account",
          "type": "address"
        }
      ],
      "name": "grantRole",
      "outputs": [],
      "stateMutability": "nonpayable",
      "type": "function"
    },
    {
      "inputs": [
        {
          "internalType": "bytes32",
          "name": "role",
          "type": "bytes32"
        },
        {
          "internalType": "address",
          "name": "account",
          "type": "address"
        }
      ],
      "name": "hasRole",
      "outputs": [
        {
          "internalType": "bool",
          "name": "",
          "type": "bool"
        }
      ],
      "stateMutability": "view",
      "type": "function"
    },
    {
      "inputs": [
        {
          "internalType": "bytes32",
          "name": "role",
          "type": "bytes32"
        },
        {
          "internalType": "address",
          "name": "account",
          "type": "address"
        }
      ],
      "name": "renounceRole",
      "outputs": [],
      "stateMutability": "nonpayable",
      "type": "function"
    },
    {
      "inputs": [
        {
          "internalType": "bytes32",
          "name": "role",
          "type": "bytes32"
        },
        {
          "internalType": "address",
          "name": "account",
          "type": "address"
        }
      ],
      "name": "revokeRole",
      "outputs": [],
      "stateMutability": "nonpayable",
      "type": "function"
    },
    {
      "inputs": [
        {
          "internalType": "address",
          "name": "_campaignAddress",
          "type": "address"
        },
        {
          "internalType": "uint256",
          "name": "_amount",
          "type": "uint256"
        }
      ],
      "name": "sendFundsToCampaignContract",
      "outputs": [],
      "stateMutability": "nonpayable",
      "type": "function"
    },
    {
      "inputs": [
        {
          "internalType": "uint256",
          "name": "_amount",
          "type": "uint256"
        },
        {
          "internalType": "address",
          "name": "_to",
          "type": "address"
        }
      ],
      "name": "sendTokensToContributor",
      "outputs": [],
      "stateMutability": "nonpayable",
      "type": "function"
    },
    {
      "inputs": [
        {
          "internalType": "uint256",
          "name": "_amount",
          "type": "uint256"
        },
        {
          "internalType": "uint256",
          "name": "_fees",
          "type": "uint256"
        }
      ],
      "name": "setNewTotalSupplies",
      "outputs": [],
      "stateMutability": "nonpayable",
      "type": "function"
    },
    {
      "inputs": [
        {
          "internalType": "bytes4",
          "name": "interfaceId",
          "type": "bytes4"
        }
      ],
      "name": "supportsInterface",
      "outputs": [
        {
          "internalType": "bool",
          "name": "",
          "type": "bool"
        }
      ],
      "stateMutability": "view",
      "type": "function"
    },
    {
      "inputs": [
        {
          "internalType": "uint256",
          "name": "_amount",
          "type": "uint256"
        },
        {
          "internalType": "address",
          "name": "_campaignAddress",
          "type": "address"
        }
      ],
      "name": "transferStableTokensToContributorPool",
      "outputs": [],
      "stateMutability": "nonpayable",
      "type": "function"
    },
    {
      "inputs": [
        {
          "internalType": "uint256",
          "name": "_amount",
          "type": "uint256"
        }
      ],
      "name": "withdrawFreeStableTokens",
      "outputs": [],
      "stateMutability": "nonpayable",
      "type": "function"
    }
  ],
  "bytecode": "0x60806040523480156200001157600080fd5b5060405162001db938038062001db9833981810160405281019062000037919062000259565b6200004c6000801b33620000df60201b60201c565b6200007e7f241ecf16d79d0f8dbfb92cbc07fe17840425976cf0667f022fe9877caa831b0882620000df60201b60201c565b81600160006101000a81548173ffffffffffffffffffffffffffffffffffffffff021916908373ffffffffffffffffffffffffffffffffffffffff1602179055506000600481905550600060058190555060006003819055505050620002f3565b620000f18282620001d060201b60201c565b620001cc57600160008084815260200190815260200160002060000160008373ffffffffffffffffffffffffffffffffffffffff1673ffffffffffffffffffffffffffffffffffffffff16815260200190815260200160002060006101000a81548160ff021916908315150217905550620001716200023a60201b60201c565b73ffffffffffffffffffffffffffffffffffffffff168173ffffffffffffffffffffffffffffffffffffffff16837f2f8788117e7eff1d82e926ec794901d17c78024a50270940304540a733656f0d60405160405180910390a45b5050565b600080600084815260200190815260200160002060000160008373ffffffffffffffffffffffffffffffffffffffff1673ffffffffffffffffffffffffffffffffffffffff16815260200190815260200160002060009054906101000a900460ff16905092915050565b600033905090565b6000815190506200025381620002d9565b92915050565b60008060408385031215620002735762000272620002d4565b5b6000620002838582860162000242565b9250506020620002968582860162000242565b9150509250929050565b6000620002ad82620002b4565b9050919050565b600073ffffffffffffffffffffffffffffffffffffffff82169050919050565b600080fd5b620002e481620002a0565b8114620002f057600080fd5b50565b611ab680620003036000396000f3fe608060405234801561001057600080fd5b506004361061010b5760003560e01c8063b39d8204116100a2578063d547741f11610071578063d547741f146102a2578063e02023a1146102be578063e2866d8e146102dc578063ec87621c146102f8578063eebe847a146103165761010b565b8063b39d820414610230578063c12a307c1461024c578063c42ef38c14610268578063cff5b2d2146102865761010b565b806336568abe116100de57806336568abe146101a85780638a058a9e146101c457806391d14854146101e2578063a217fddf146102125761010b565b806301ffc9a7146101105780631c5e2fd714610140578063248a9ca31461015c5780632f2ff15d1461018c575b600080fd5b61012a60048036038101906101259190611361565b610334565b60405161013791906115d0565b60405180910390f35b61015a60048036038101906101559190611287565b6103ae565b005b610176600480360381019061017191906112f4565b610605565b60405161018391906115eb565b60405180910390f35b6101a660048036038101906101a19190611321565b610624565b005b6101c260048036038101906101bd9190611321565b610645565b005b6101cc6106c8565b6040516101d99190611668565b60405180910390f35b6101fc60048036038101906101f79190611321565b6106d2565b60405161020991906115d0565b60405180910390f35b61021a61073c565b60405161022791906115eb565b60405180910390f35b61024a600480360381019061024591906113bb565b610743565b005b610266600480360381019061026191906113bb565b6108c7565b005b610270610a44565b60405161027d91906115eb565b60405180910390f35b6102a0600480360381019061029b91906113fb565b610a68565b005b6102bc60048036038101906102b79190611321565b610b15565b005b6102c6610b36565b6040516102d391906115eb565b60405180910390f35b6102f660048036038101906102f1919061138e565b610b5a565b005b610300610cd0565b60405161030d91906115eb565b60405180910390f35b61031e610cf4565b60405161032b9190611668565b60405180910390f35b60007f7965db0b000000000000000000000000000000000000000000000000000000007bffffffffffffffffffffffffffffffffffffffffffffffffffffffff1916827bffffffffffffffffffffffffffffffffffffffffffffffffffffffff191614806103a757506103a682610cfe565b5b9050919050565b7f241ecf16d79d0f8dbfb92cbc07fe17840425976cf0667f022fe9877caa831b086103d881610d68565b6000600660008573ffffffffffffffffffffffffffffffffffffffff1673ffffffffffffffffffffffffffffffffffffffff16815260200190815260200160002060009054906101000a900460ff1690508015610461576040517ffc24c9a200000000000000000000000000000000000000000000000000000000815260040160405180910390fd5b82600354101561049d576040517fad6f02f600000000000000000000000000000000000000000000000000000000815260040160405180910390fd5b600160009054906101000a900473ffffffffffffffffffffffffffffffffffffffff1673ffffffffffffffffffffffffffffffffffffffff1663a9059cbb85856040518363ffffffff1660e01b81526004016104fa9291906115a7565b602060405180830381600087803b15801561051457600080fd5b505af1158015610528573d6000803e3d6000fd5b505050506040513d601f19601f8201168201806040525081019061054c91906112c7565b61055557600080fd5b82600360008282546105679190611791565b925050819055506001600660008673ffffffffffffffffffffffffffffffffffffffff1673ffffffffffffffffffffffffffffffffffffffff16815260200190815260200160002060006101000a81548160ff0219169083151502179055507f73b5adfd0bc7f9a4f823199986a150a1eeeb5e93cb9409b389f7ef1ee54ae97284846040516105f79291906115a7565b60405180910390a150505050565b6000806000838152602001908152602001600020600101549050919050565b61062d82610605565b61063681610d68565b6106408383610d7c565b505050565b61064d610e5c565b73ffffffffffffffffffffffffffffffffffffffff168173ffffffffffffffffffffffffffffffffffffffff16146106ba576040517f08c379a00000000000000000000000000000000000000000000000000000000081526004016106b190611648565b60405180910390fd5b6106c48282610e64565b5050565b6000600354905090565b600080600084815260200190815260200160002060000160008373ffffffffffffffffffffffffffffffffffffffff1673ffffffffffffffffffffffffffffffffffffffff16815260200190815260200160002060009054906101000a900460ff16905092915050565b6000801b81565b7f241ecf16d79d0f8dbfb92cbc07fe17840425976cf0667f022fe9877caa831b0861076d81610d68565b6000600660008473ffffffffffffffffffffffffffffffffffffffff1673ffffffffffffffffffffffffffffffffffffffff16815260200190815260200160002060009054906101000a900460ff16905080156107f6576040517ffc24c9a200000000000000000000000000000000000000000000000000000000815260040160405180910390fd5b836005600082825461080891906116e1565b9250508190555083600360008282546108219190611791565b925050819055506001600660008573ffffffffffffffffffffffffffffffffffffffff1673ffffffffffffffffffffffffffffffffffffffff16815260200190815260200160002060006101000a81548160ff0219169083151502179055507f70c0751db83a4d27c9b09aab89115d392f154ed165e13fa709fa2bf055ef1d696003546004546005546040516108b993929190611683565b60405180910390a150505050565b7f241ecf16d79d0f8dbfb92cbc07fe17840425976cf0667f022fe9877caa831b086108f181610d68565b82600554101561092d576040517f31e1e3f200000000000000000000000000000000000000000000000000000000815260040160405180910390fd5b826005600082825461093f9190611791565b92505081905550600160009054906101000a900473ffffffffffffffffffffffffffffffffffffffff1673ffffffffffffffffffffffffffffffffffffffff1663a9059cbb83856040518363ffffffff1660e01b81526004016109a39291906115a7565b602060405180830381600087803b1580156109bd57600080fd5b505af11580156109d1573d6000803e3d6000fd5b505050506040513d601f19601f820116820180604052508101906109f591906112c7565b6109fe57600080fd5b7f70c0751db83a4d27c9b09aab89115d392f154ed165e13fa709fa2bf055ef1d69600354600454600554604051610a3793929190611683565b60405180910390a1505050565b7f76d12de99ad2ca162840505be9b657c2e7a650cc3ee0284048f3f9def3c1adf281565b7f241ecf16d79d0f8dbfb92cbc07fe17840425976cf0667f022fe9877caa831b08610a9281610d68565b8183610a9e9190611791565b60036000828254610aaf91906116e1565b925050819055508160046000828254610ac891906116e1565b925050819055507f70c0751db83a4d27c9b09aab89115d392f154ed165e13fa709fa2bf055ef1d69600354600454600554604051610b0893929190611683565b60405180910390a1505050565b610b1e82610605565b610b2781610d68565b610b318383610e64565b505050565b7f5d8e12c39142ff96d79d04d15d1ba1269e4fe57bb9d26f43523628b34ba108ec81565b7f5d8e12c39142ff96d79d04d15d1ba1269e4fe57bb9d26f43523628b34ba108ec610b8481610d68565b6000600454905082811015610bc5576040517fe451ed4e00000000000000000000000000000000000000000000000000000000815260040160405180910390fd5b8281610bd19190611791565b9050600160009054906101000a900473ffffffffffffffffffffffffffffffffffffffff1673ffffffffffffffffffffffffffffffffffffffff1663a9059cbb33856040518363ffffffff1660e01b8152600401610c309291906115a7565b602060405180830381600087803b158015610c4a57600080fd5b505af1158015610c5e573d6000803e3d6000fd5b505050506040513d601f19601f82011682018060405250810190610c8291906112c7565b610c8b57600080fd5b806004819055507f1cf773a3699c7f5f80df04b8d5daf523fb5b7e2617cc4ea3759576d2f516645c3384604051610cc39291906115a7565b60405180910390a1505050565b7f241ecf16d79d0f8dbfb92cbc07fe17840425976cf0667f022fe9877caa831b0881565b6000600454905090565b60007f01ffc9a7000000000000000000000000000000000000000000000000000000007bffffffffffffffffffffffffffffffffffffffffffffffffffffffff1916827bffffffffffffffffffffffffffffffffffffffffffffffffffffffff1916149050919050565b610d7981610d74610e5c565b610f45565b50565b610d8682826106d2565b610e5857600160008084815260200190815260200160002060000160008373ffffffffffffffffffffffffffffffffffffffff1673ffffffffffffffffffffffffffffffffffffffff16815260200190815260200160002060006101000a81548160ff021916908315150217905550610dfd610e5c565b73ffffffffffffffffffffffffffffffffffffffff168173ffffffffffffffffffffffffffffffffffffffff16837f2f8788117e7eff1d82e926ec794901d17c78024a50270940304540a733656f0d60405160405180910390a45b5050565b600033905090565b610e6e82826106d2565b15610f4157600080600084815260200190815260200160002060000160008373ffffffffffffffffffffffffffffffffffffffff1673ffffffffffffffffffffffffffffffffffffffff16815260200190815260200160002060006101000a81548160ff021916908315150217905550610ee6610e5c565b73ffffffffffffffffffffffffffffffffffffffff168173ffffffffffffffffffffffffffffffffffffffff16837ff6391f5c32d9c69d2a47ea670b442974b53935d1edc7fd64eb21e047a839171b60405160405180910390a45b5050565b610f4f82826106d2565b610fde57610f748173ffffffffffffffffffffffffffffffffffffffff166014610fe2565b610f828360001c6020610fe2565b604051602001610f9392919061156d565b6040516020818303038152906040526040517f08c379a0000000000000000000000000000000000000000000000000000000008152600401610fd59190611606565b60405180910390fd5b5050565b606060006002836002610ff59190611737565b610fff91906116e1565b67ffffffffffffffff811115611018576110176118fe565b5b6040519080825280601f01601f19166020018201604052801561104a5781602001600182028036833780820191505090505b5090507f300000000000000000000000000000000000000000000000000000000000000081600081518110611082576110816118cf565b5b60200101907effffffffffffffffffffffffffffffffffffffffffffffffffffffffffffff1916908160001a9053507f7800000000000000000000000000000000000000000000000000000000000000816001815181106110e6576110e56118cf565b5b60200101907effffffffffffffffffffffffffffffffffffffffffffffffffffffffffffff1916908160001a905350600060018460026111269190611737565b61113091906116e1565b90505b60018111156111d0577f3031323334353637383961626364656600000000000000000000000000000000600f861660108110611172576111716118cf565b5b1a60f81b828281518110611189576111886118cf565b5b60200101907effffffffffffffffffffffffffffffffffffffffffffffffffffffffffffff1916908160001a905350600485901c9450806111c990611876565b9050611133565b5060008414611214576040517f08c379a000000000000000000000000000000000000000000000000000000000815260040161120b90611628565b60405180910390fd5b8091505092915050565b60008135905061122d81611a0d565b92915050565b60008151905061124281611a24565b92915050565b60008135905061125781611a3b565b92915050565b60008135905061126c81611a52565b92915050565b60008135905061128181611a69565b92915050565b6000806040838503121561129e5761129d61192d565b5b60006112ac8582860161121e565b92505060206112bd85828601611272565b9150509250929050565b6000602082840312156112dd576112dc61192d565b5b60006112eb84828501611233565b91505092915050565b60006020828403121561130a5761130961192d565b5b600061131884828501611248565b91505092915050565b600080604083850312156113385761133761192d565b5b600061134685828601611248565b92505060206113578582860161121e565b9150509250929050565b6000602082840312156113775761137661192d565b5b60006113858482850161125d565b91505092915050565b6000602082840312156113a4576113a361192d565b5b60006113b284828501611272565b91505092915050565b600080604083850312156113d2576113d161192d565b5b60006113e085828601611272565b92505060206113f18582860161121e565b9150509250929050565b600080604083850312156114125761141161192d565b5b600061142085828601611272565b925050602061143185828601611272565b9150509250929050565b611444816117c5565b82525050565b611453816117d7565b82525050565b611462816117e3565b82525050565b6000611473826116ba565b61147d81856116c5565b935061148d818560208601611843565b61149681611932565b840191505092915050565b60006114ac826116ba565b6114b681856116d6565b93506114c6818560208601611843565b80840191505092915050565b60006114df6020836116c5565b91506114ea82611943565b602082019050919050565b60006115026017836116d6565b915061150d8261196c565b601782019050919050565b60006115256011836116d6565b915061153082611995565b601182019050919050565b6000611548602f836116c5565b9150611553826119be565b604082019050919050565b61156781611839565b82525050565b6000611578826114f5565b915061158482856114a1565b915061158f82611518565b915061159b82846114a1565b91508190509392505050565b60006040820190506115bc600083018561143b565b6115c9602083018461155e565b9392505050565b60006020820190506115e5600083018461144a565b92915050565b60006020820190506116006000830184611459565b92915050565b600060208201905081810360008301526116208184611468565b905092915050565b60006020820190508181036000830152611641816114d2565b9050919050565b600060208201905081810360008301526116618161153b565b9050919050565b600060208201905061167d600083018461155e565b92915050565b6000606082019050611698600083018661155e565b6116a5602083018561155e565b6116b2604083018461155e565b949350505050565b600081519050919050565b600082825260208201905092915050565b600081905092915050565b60006116ec82611839565b91506116f783611839565b9250827fffffffffffffffffffffffffffffffffffffffffffffffffffffffffffffffff0382111561172c5761172b6118a0565b5b828201905092915050565b600061174282611839565b915061174d83611839565b9250817fffffffffffffffffffffffffffffffffffffffffffffffffffffffffffffffff0483118215151615611786576117856118a0565b5b828202905092915050565b600061179c82611839565b91506117a783611839565b9250828210156117ba576117b96118a0565b5b828203905092915050565b60006117d082611819565b9050919050565b60008115159050919050565b6000819050919050565b60007fffffffff0000000000000000000000000000000000000000000000000000000082169050919050565b600073ffffffffffffffffffffffffffffffffffffffff82169050919050565b6000819050919050565b60005b83811015611861578082015181840152602081019050611846565b83811115611870576000848401525b50505050565b600061188182611839565b91506000821415611895576118946118a0565b5b600182039050919050565b7f4e487b7100000000000000000000000000000000000000000000000000000000600052601160045260246000fd5b7f4e487b7100000000000000000000000000000000000000000000000000000000600052603260045260246000fd5b7f4e487b7100000000000000000000000000000000000000000000000000000000600052604160045260246000fd5b600080fd5b6000601f19601f8301169050919050565b7f537472696e67733a20686578206c656e67746820696e73756666696369656e74600082015250565b7f416363657373436f6e74726f6c3a206163636f756e7420000000000000000000600082015250565b7f206973206d697373696e6720726f6c6520000000000000000000000000000000600082015250565b7f416363657373436f6e74726f6c3a2063616e206f6e6c792072656e6f756e636560008201527f20726f6c657320666f722073656c660000000000000000000000000000000000602082015250565b611a16816117c5565b8114611a2157600080fd5b50565b611a2d816117d7565b8114611a3857600080fd5b50565b611a44816117e3565b8114611a4f57600080fd5b50565b611a5b816117ed565b8114611a6657600080fd5b50565b611a7281611839565b8114611a7d57600080fd5b5056fea264697066735822122066ea9d1c83df11f28d8b7fe87899f2c4a880df52ca71b23cf2900e326d4bacf464736f6c63430008070033",
  "linkReferences": {},
  "deployedLinkReferences": {}
}