{
  "_format": "hh-sol-artifact-1",
  "contractName": "SwapToken",
  "sourceName": "contracts/swap.sol",
  "abi": [
    {
      "inputs": [
        {
          "internalType": "contract ISwapRouter",
          "name": "_swapRouter",
          "type": "address"
        },
        {
          "internalType": "address",
          "name": "_maticAddress",
          "type": "address"
        },
        {
          "internalType": "address",
          "name": "_daiAddress",
          "type": "address"
        }
      ],
      "stateMutability": "nonpayable",
      "type": "constructor"
    },
    {
      "inputs": [],
      "name": "DAI",
      "outputs": [
        {
          "internalType": "address",
          "name": "",
          "type": "address"
        }
      ],
      "stateMutability": "view",
      "type": "function"
    },
    {
      "inputs": [],
      "name": "WMATIC",
      "outputs": [
        {
          "internalType": "address",
          "name": "",
          "type": "address"
        }
      ],
      "stateMutability": "view",
      "type": "function"
    },
    {
      "inputs": [
        {
          "internalType": "uint256",
          "name": "amountIn",
          "type": "uint256"
        }
      ],
      "name": "swapExactInputSingle",
      "outputs": [
        {
          "internalType": "uint256",
          "name": "amountOut",
          "type": "uint256"
        }
      ],
      "stateMutability": "nonpayable",
      "type": "function"
    },
    {
      "inputs": [
        {
          "internalType": "uint256",
          "name": "amountOut",
          "type": "uint256"
        },
        {
          "internalType": "uint256",
          "name": "amountInMaximum",
          "type": "uint256"
        }
      ],
      "name": "swapExactOutputSingle",
      "outputs": [
        {
          "internalType": "uint256",
          "name": "amountIn",
          "type": "uint256"
        }
      ],
      "stateMutability": "nonpayable",
      "type": "function"
    },
    {
      "inputs": [],
      "name": "swapRouter",
      "outputs": [
        {
          "internalType": "contract ISwapRouter",
          "name": "",
          "type": "address"
        }
      ],
      "stateMutability": "view",
      "type": "function"
    }
  ],
  "bytecode": "0x60806040523480156200001157600080fd5b506040516200133538038062001335833981810160405281019062000037919062000130565b826000806101000a81548173ffffffffffffffffffffffffffffffffffffffff021916908373ffffffffffffffffffffffffffffffffffffffff16021790555081600160006101000a81548173ffffffffffffffffffffffffffffffffffffffff021916908373ffffffffffffffffffffffffffffffffffffffff16021790555080600260006101000a81548173ffffffffffffffffffffffffffffffffffffffff021916908373ffffffffffffffffffffffffffffffffffffffff1602179055505050506200020d565b6000815190506200011381620001d9565b92915050565b6000815190506200012a81620001f3565b92915050565b6000806000606084860312156200014c576200014b620001d4565b5b60006200015c8682870162000119565b93505060206200016f8682870162000102565b9250506040620001828682870162000102565b9150509250925092565b60006200019982620001b4565b9050919050565b6000620001ad826200018c565b9050919050565b600073ffffffffffffffffffffffffffffffffffffffff82169050919050565b600080fd5b620001e4816200018c565b8114620001f057600080fd5b50565b620001fe81620001a0565b81146200020a57600080fd5b50565b611118806200021d6000396000f3fe608060405234801561001057600080fd5b50600436106100575760003560e01c80634d95cad91461005c57806373bd43ad1461007a578063c31c9c07146100aa578063c4b69a18146100c8578063e0bab4c4146100f8575b600080fd5b610064610116565b6040516100719190610da1565b60405180910390f35b610094600480360381019061008f9190610aa9565b61013c565b6040516100a19190610ecf565b60405180910390f35b6100b261034f565b6040516100bf9190610e1c565b60405180910390f35b6100e260048036038101906100dd9190610b03565b610373565b6040516100ef9190610ecf565b60405180910390f35b610100610615565b60405161010d9190610da1565b60405180910390f35b600160009054906101000a900473ffffffffffffffffffffffffffffffffffffffff1681565b600061016c600160009054906101000a900473ffffffffffffffffffffffffffffffffffffffff1633308561063b565b6101b9600160009054906101000a900473ffffffffffffffffffffffffffffffffffffffff1660008054906101000a900473ffffffffffffffffffffffffffffffffffffffff1684610793565b6000604051806101000160405280600160009054906101000a900473ffffffffffffffffffffffffffffffffffffffff1673ffffffffffffffffffffffffffffffffffffffff168152602001600260009054906101000a900473ffffffffffffffffffffffffffffffffffffffff1673ffffffffffffffffffffffffffffffffffffffff168152602001610bb862ffffff1681526020013373ffffffffffffffffffffffffffffffffffffffff16815260200142815260200184815260200160008152602001600073ffffffffffffffffffffffffffffffffffffffff16815250905060008054906101000a900473ffffffffffffffffffffffffffffffffffffffff1673ffffffffffffffffffffffffffffffffffffffff1663414bf389826040518263ffffffff1660e01b81526004016102f59190610e97565b602060405180830381600087803b15801561030f57600080fd5b505af1158015610323573d6000803e3d6000fd5b505050506040513d601f19601f820116820180604052508101906103479190610ad6565b915050919050565b60008054906101000a900473ffffffffffffffffffffffffffffffffffffffff1681565b60006103a3600160009054906101000a900473ffffffffffffffffffffffffffffffffffffffff1633308561063b565b6103f0600160009054906101000a900473ffffffffffffffffffffffffffffffffffffffff1660008054906101000a900473ffffffffffffffffffffffffffffffffffffffff1684610793565b6000604051806101000160405280600160009054906101000a900473ffffffffffffffffffffffffffffffffffffffff1673ffffffffffffffffffffffffffffffffffffffff168152602001600260009054906101000a900473ffffffffffffffffffffffffffffffffffffffff1673ffffffffffffffffffffffffffffffffffffffff168152602001610bb862ffffff1681526020013373ffffffffffffffffffffffffffffffffffffffff168152602001428152602001858152602001848152602001600073ffffffffffffffffffffffffffffffffffffffff16815250905060008054906101000a900473ffffffffffffffffffffffffffffffffffffffff1673ffffffffffffffffffffffffffffffffffffffff1663db3e2198826040518263ffffffff1660e01b815260040161052b9190610eb3565b602060405180830381600087803b15801561054557600080fd5b505af1158015610559573d6000803e3d6000fd5b505050506040513d601f19601f8201168201806040525081019061057d9190610ad6565b91508282101561060e576105d5600160009054906101000a900473ffffffffffffffffffffffffffffffffffffffff1660008054906101000a900473ffffffffffffffffffffffffffffffffffffffff166000610793565b61060d600160009054906101000a900473ffffffffffffffffffffffffffffffffffffffff163384866106089190610f11565b6108e8565b5b5092915050565b600260009054906101000a900473ffffffffffffffffffffffffffffffffffffffff1681565b6000808573ffffffffffffffffffffffffffffffffffffffff166323b872dd60e01b86868660405160240161067293929190610dbc565b604051602081830303815290604052907bffffffffffffffffffffffffffffffffffffffffffffffffffffffff19166020820180517bffffffffffffffffffffffffffffffffffffffffffffffffffffffff83818316178352505050506040516106dc9190610d8a565b6000604051808303816000865af19150503d8060008114610719576040519150601f19603f3d011682016040523d82523d6000602084013e61071e565b606091505b509150915081801561074c575060008151148061074b57508080602001905181019061074a9190610a7c565b5b5b61078b576040517f08c379a000000000000000000000000000000000000000000000000000000000815260040161078290610e77565b60405180910390fd5b505050505050565b6000808473ffffffffffffffffffffffffffffffffffffffff1663095ea7b360e01b85856040516024016107c8929190610df3565b604051602081830303815290604052907bffffffffffffffffffffffffffffffffffffffffffffffffffffffff19166020820180517bffffffffffffffffffffffffffffffffffffffffffffffffffffffff83818316178352505050506040516108329190610d8a565b6000604051808303816000865af19150503d806000811461086f576040519150601f19603f3d011682016040523d82523d6000602084013e610874565b606091505b50915091508180156108a257506000815114806108a15750808060200190518101906108a09190610a7c565b5b5b6108e1576040517f08c379a00000000000000000000000000000000000000000000000000000000081526004016108d890610e37565b60405180910390fd5b5050505050565b6000808473ffffffffffffffffffffffffffffffffffffffff1663a9059cbb60e01b858560405160240161091d929190610df3565b604051602081830303815290604052907bffffffffffffffffffffffffffffffffffffffffffffffffffffffff19166020820180517bffffffffffffffffffffffffffffffffffffffffffffffffffffffff83818316178352505050506040516109879190610d8a565b6000604051808303816000865af19150503d80600081146109c4576040519150601f19603f3d011682016040523d82523d6000602084013e6109c9565b606091505b50915091508180156109f757506000815114806109f65750808060200190518101906109f59190610a7c565b5b5b610a36576040517f08c379a0000000000000000000000000000000000000000000000000000000008152600401610a2d90610e57565b60405180910390fd5b5050505050565b600081519050610a4c816110b4565b92915050565b600081359050610a61816110cb565b92915050565b600081519050610a76816110cb565b92915050565b600060208284031215610a9257610a91611034565b5b6000610aa084828501610a3d565b91505092915050565b600060208284031215610abf57610abe611034565b5b6000610acd84828501610a52565b91505092915050565b600060208284031215610aec57610aeb611034565b5b6000610afa84828501610a67565b91505092915050565b60008060408385031215610b1a57610b19611034565b5b6000610b2885828601610a52565b9250506020610b3985828601610a52565b9150509250929050565b610b4c81610f45565b82525050565b610b5b81610f45565b82525050565b6000610b6c82610eea565b610b768185610ef5565b9350610b86818560208601610fd2565b80840191505092915050565b610b9b81610f9c565b82525050565b6000610bae600283610f00565b9150610bb982611039565b602082019050919050565b6000610bd1600283610f00565b9150610bdc82611062565b602082019050919050565b6000610bf4600383610f00565b9150610bff8261108b565b602082019050919050565b61010082016000820151610c216000850182610b43565b506020820151610c346020850182610b43565b506040820151610c476040850182610d5d565b506060820151610c5a6060850182610b43565b506080820151610c6d6080850182610d6c565b5060a0820151610c8060a0850182610d6c565b5060c0820151610c9360c0850182610d6c565b5060e0820151610ca660e0850182610d4e565b50505050565b61010082016000820151610cc36000850182610b43565b506020820151610cd66020850182610b43565b506040820151610ce96040850182610d5d565b506060820151610cfc6060850182610b43565b506080820151610d0f6080850182610d6c565b5060a0820151610d2260a0850182610d6c565b5060c0820151610d3560c0850182610d6c565b5060e0820151610d4860e0850182610d4e565b50505050565b610d5781610f63565b82525050565b610d6681610f83565b82525050565b610d7581610f92565b82525050565b610d8481610f92565b82525050565b6000610d968284610b61565b915081905092915050565b6000602082019050610db66000830184610b52565b92915050565b6000606082019050610dd16000830186610b52565b610dde6020830185610b52565b610deb6040830184610d7b565b949350505050565b6000604082019050610e086000830185610b52565b610e156020830184610d7b565b9392505050565b6000602082019050610e316000830184610b92565b92915050565b60006020820190508181036000830152610e5081610ba1565b9050919050565b60006020820190508181036000830152610e7081610bc4565b9050919050565b60006020820190508181036000830152610e9081610be7565b9050919050565b600061010082019050610ead6000830184610c0a565b92915050565b600061010082019050610ec96000830184610cac565b92915050565b6000602082019050610ee46000830184610d7b565b92915050565b600081519050919050565b600081905092915050565b600082825260208201905092915050565b6000610f1c82610f92565b9150610f2783610f92565b925082821015610f3a57610f39611005565b5b828203905092915050565b6000610f5082610f63565b9050919050565b60008115159050919050565b600073ffffffffffffffffffffffffffffffffffffffff82169050919050565b600062ffffff82169050919050565b6000819050919050565b6000610fa782610fae565b9050919050565b6000610fb982610fc0565b9050919050565b6000610fcb82610f63565b9050919050565b60005b83811015610ff0578082015181840152602081019050610fd5565b83811115610fff576000848401525b50505050565b7f4e487b7100000000000000000000000000000000000000000000000000000000600052601160045260246000fd5b600080fd5b7f5341000000000000000000000000000000000000000000000000000000000000600082015250565b7f5354000000000000000000000000000000000000000000000000000000000000600082015250565b7f5354460000000000000000000000000000000000000000000000000000000000600082015250565b6110bd81610f57565b81146110c857600080fd5b50565b6110d481610f92565b81146110df57600080fd5b5056fea2646970667358221220f810b909ebdcfac39dea9a36dc9f50453f5f9403cd6676c358482cc4f7c653fb64736f6c63430008070033",
  "linkReferences": {},
  "deployedLinkReferences": {}
}