{
  "_format": "hh-sol-artifact-1",
  "contractName": "MockToken",
  "sourceName": "contracts/test/tokens/MockToken.sol",
  "abi": [
    {
      "inputs": [
        {
          "internalType": "string",
          "name": "_name",
          "type": "string"
        },
        {
          "internalType": "string",
          "name": "_symbol",
          "type": "string"
        }
      ],
      "stateMutability": "nonpayable",
      "type": "constructor"
    },
    {
      "anonymous": false,
      "inputs": [
        {
          "indexed": true,
          "internalType": "address",
          "name": "owner",
          "type": "address"
        },
        {
          "indexed": true,
          "internalType": "address",
          "name": "spender",
          "type": "address"
        },
        {
          "indexed": false,
          "internalType": "uint256",
          "name": "value",
          "type": "uint256"
        }
      ],
      "name": "Approval",
      "type": "event"
    },
    {
      "anonymous": false,
      "inputs": [
        {
          "indexed": true,
          "internalType": "address",
          "name": "from",
          "type": "address"
        },
        {
          "indexed": true,
          "internalType": "address",
          "name": "to",
          "type": "address"
        },
        {
          "indexed": false,
          "internalType": "uint256",
          "name": "value",
          "type": "uint256"
        }
      ],
      "name": "Transfer",
      "type": "event"
    },
    {
      "inputs": [],
      "name": "DOMAIN_SEPARATOR",
      "outputs": [
        {
          "internalType": "bytes32",
          "name": "",
          "type": "bytes32"
        }
      ],
      "stateMutability": "view",
      "type": "function"
    },
    {
      "inputs": [
        {
          "internalType": "address",
          "name": "owner",
          "type": "address"
        },
        {
          "internalType": "address",
          "name": "spender",
          "type": "address"
        }
      ],
      "name": "allowance",
      "outputs": [
        {
          "internalType": "uint256",
          "name": "",
          "type": "uint256"
        }
      ],
      "stateMutability": "view",
      "type": "function"
    },
    {
      "inputs": [
        {
          "internalType": "address",
          "name": "spender",
          "type": "address"
        },
        {
          "internalType": "uint256",
          "name": "amount",
          "type": "uint256"
        }
      ],
      "name": "approve",
      "outputs": [
        {
          "internalType": "bool",
          "name": "",
          "type": "bool"
        }
      ],
      "stateMutability": "nonpayable",
      "type": "function"
    },
    {
      "inputs": [
        {
          "internalType": "address",
          "name": "account",
          "type": "address"
        }
      ],
      "name": "balanceOf",
      "outputs": [
        {
          "internalType": "uint256",
          "name": "",
          "type": "uint256"
        }
      ],
      "stateMutability": "view",
      "type": "function"
    },
    {
      "inputs": [
        {
          "internalType": "address",
          "name": "_account",
          "type": "address"
        },
        {
          "internalType": "uint256",
          "name": "_amount",
          "type": "uint256"
        }
      ],
      "name": "burn",
      "outputs": [],
      "stateMutability": "nonpayable",
      "type": "function"
    },
    {
      "inputs": [],
      "name": "decimals",
      "outputs": [
        {
          "internalType": "uint8",
          "name": "",
          "type": "uint8"
        }
      ],
      "stateMutability": "view",
      "type": "function"
    },
    {
      "inputs": [
        {
          "internalType": "address",
          "name": "spender",
          "type": "address"
        },
        {
          "internalType": "uint256",
          "name": "subtractedValue",
          "type": "uint256"
        }
      ],
      "name": "decreaseAllowance",
      "outputs": [
        {
          "internalType": "bool",
          "name": "",
          "type": "bool"
        }
      ],
      "stateMutability": "nonpayable",
      "type": "function"
    },
    {
      "inputs": [
        {
          "internalType": "address",
          "name": "spender",
          "type": "address"
        },
        {
          "internalType": "uint256",
          "name": "addedValue",
          "type": "uint256"
        }
      ],
      "name": "increaseAllowance",
      "outputs": [
        {
          "internalType": "bool",
          "name": "",
          "type": "bool"
        }
      ],
      "stateMutability": "nonpayable",
      "type": "function"
    },
    {
      "inputs": [
        {
          "internalType": "address",
          "name": "_to",
          "type": "address"
        },
        {
          "internalType": "uint256",
          "name": "_amount",
          "type": "uint256"
        }
      ],
      "name": "mint",
      "outputs": [],
      "stateMutability": "nonpayable",
      "type": "function"
    },
    {
      "inputs": [],
      "name": "name",
      "outputs": [
        {
          "internalType": "string",
          "name": "",
          "type": "string"
        }
      ],
      "stateMutability": "view",
      "type": "function"
    },
    {
      "inputs": [
        {
          "internalType": "address",
          "name": "owner",
          "type": "address"
        }
      ],
      "name": "nonces",
      "outputs": [
        {
          "internalType": "uint256",
          "name": "",
          "type": "uint256"
        }
      ],
      "stateMutability": "view",
      "type": "function"
    },
    {
      "inputs": [
        {
          "internalType": "address",
          "name": "owner",
          "type": "address"
        },
        {
          "internalType": "address",
          "name": "spender",
          "type": "address"
        },
        {
          "internalType": "uint256",
          "name": "value",
          "type": "uint256"
        },
        {
          "internalType": "uint256",
          "name": "deadline",
          "type": "uint256"
        },
        {
          "internalType": "uint8",
          "name": "v",
          "type": "uint8"
        },
        {
          "internalType": "bytes32",
          "name": "r",
          "type": "bytes32"
        },
        {
          "internalType": "bytes32",
          "name": "s",
          "type": "bytes32"
        }
      ],
      "name": "permit",
      "outputs": [],
      "stateMutability": "nonpayable",
      "type": "function"
    },
    {
      "inputs": [],
      "name": "symbol",
      "outputs": [
        {
          "internalType": "string",
          "name": "",
          "type": "string"
        }
      ],
      "stateMutability": "view",
      "type": "function"
    },
    {
      "inputs": [],
      "name": "totalSupply",
      "outputs": [
        {
          "internalType": "uint256",
          "name": "",
          "type": "uint256"
        }
      ],
      "stateMutability": "view",
      "type": "function"
    },
    {
      "inputs": [
        {
          "internalType": "address",
          "name": "to",
          "type": "address"
        },
        {
          "internalType": "uint256",
          "name": "amount",
          "type": "uint256"
        }
      ],
      "name": "transfer",
      "outputs": [
        {
          "internalType": "bool",
          "name": "",
          "type": "bool"
        }
      ],
      "stateMutability": "nonpayable",
      "type": "function"
    },
    {
      "inputs": [
        {
          "internalType": "address",
          "name": "from",
          "type": "address"
        },
        {
          "internalType": "address",
          "name": "to",
          "type": "address"
        },
        {
          "internalType": "uint256",
          "name": "amount",
          "type": "uint256"
        }
      ],
      "name": "transferFrom",
      "outputs": [
        {
          "internalType": "bool",
          "name": "",
          "type": "bool"
        }
      ],
      "stateMutability": "nonpayable",
      "type": "function"
    }
  ],
  "bytecode": "0x6101406040523480156200001257600080fd5b5060405162002b3338038062002b338339818101604052810190620000389190620002ce565b81806040518060400160405280600181526020017f3100000000000000000000000000000000000000000000000000000000000000815250848481600390805190602001906200008a929190620001a0565b508060049080519060200190620000a3929190620001a0565b50505060008280519060200120905060008280519060200120905060007f8b73c3c69bb8fe3d512ecc4cf759cc79239f7b179b0ffacaa9a75d522b39400f90508260e081815250508161010081815250504660a081815250506200010f8184846200016460201b60201c565b608081815250503073ffffffffffffffffffffffffffffffffffffffff1660c08173ffffffffffffffffffffffffffffffffffffffff1660601b815250508061012081815250505050505050505050620005af565b600083838346306040516020016200018195949392919062000386565b6040516020818303038152906040528051906020012090509392505050565b828054620001ae90620004c0565b90600052602060002090601f016020900481019282620001d257600085556200021e565b82601f10620001ed57805160ff19168380011785556200021e565b828001600101855582156200021e579182015b828111156200021d57825182559160200191906001019062000200565b5b5090506200022d919062000231565b5090565b5b808211156200024c57600081600090555060010162000232565b5090565b60006200026762000261846200040c565b620003e3565b9050828152602081018484840111156200028657620002856200058f565b5b620002938482856200048a565b509392505050565b600082601f830112620002b357620002b26200058a565b5b8151620002c584826020860162000250565b91505092915050565b60008060408385031215620002e857620002e762000599565b5b600083015167ffffffffffffffff81111562000309576200030862000594565b5b62000317858286016200029b565b925050602083015167ffffffffffffffff8111156200033b576200033a62000594565b5b62000349858286016200029b565b9150509250929050565b6200035e8162000442565b82525050565b6200036f8162000456565b82525050565b620003808162000480565b82525050565b600060a0820190506200039d600083018862000364565b620003ac602083018762000364565b620003bb604083018662000364565b620003ca606083018562000375565b620003d9608083018462000353565b9695505050505050565b6000620003ef62000402565b9050620003fd8282620004f6565b919050565b6000604051905090565b600067ffffffffffffffff8211156200042a57620004296200055b565b5b62000435826200059e565b9050602081019050919050565b60006200044f8262000460565b9050919050565b6000819050919050565b600073ffffffffffffffffffffffffffffffffffffffff82169050919050565b6000819050919050565b60005b83811015620004aa5780820151818401526020810190506200048d565b83811115620004ba576000848401525b50505050565b60006002820490506001821680620004d957607f821691505b60208210811415620004f057620004ef6200052c565b5b50919050565b62000501826200059e565b810181811067ffffffffffffffff821117156200052357620005226200055b565b5b80604052505050565b7f4e487b7100000000000000000000000000000000000000000000000000000000600052602260045260246000fd5b7f4e487b7100000000000000000000000000000000000000000000000000000000600052604160045260246000fd5b600080fd5b600080fd5b600080fd5b600080fd5b6000601f19601f8301169050919050565b60805160a05160c05160601c60e0516101005161012051612531620006026000396000610de301526000610e2501526000610e0401526000610d3901526000610d8f01526000610db801526125316000f3fe608060405234801561001057600080fd5b50600436106101005760003560e01c806370a0823111610097578063a457c2d711610066578063a457c2d7146102c3578063a9059cbb146102f3578063d505accf14610323578063dd62ed3e1461033f57610100565b806370a08231146102295780637ecebe001461025957806395d89b41146102895780639dc29fac146102a757610100565b8063313ce567116100d3578063313ce567146101a15780633644e515146101bf57806339509351146101dd57806340c10f191461020d57610100565b806306fdde0314610105578063095ea7b31461012357806318160ddd1461015357806323b872dd14610171575b600080fd5b61010d61036f565b60405161011a9190611bf0565b60405180910390f35b61013d6004803603810190610138919061175c565b610401565b60405161014a9190611ac1565b60405180910390f35b61015b610424565b6040516101689190611e12565b60405180910390f35b61018b60048036038101906101869190611667565b61042e565b6040516101989190611ac1565b60405180910390f35b6101a961045d565b6040516101b69190611e2d565b60405180910390f35b6101c7610466565b6040516101d49190611adc565b60405180910390f35b6101f760048036038101906101f2919061175c565b610475565b6040516102049190611ac1565b60405180910390f35b6102276004803603810190610222919061175c565b6104ac565b005b610243600480360381019061023e91906115fa565b6104ba565b6040516102509190611e12565b60405180910390f35b610273600480360381019061026e91906115fa565b610502565b6040516102809190611e12565b60405180910390f35b610291610552565b60405161029e9190611bf0565b60405180910390f35b6102c160048036038101906102bc919061175c565b6105e4565b005b6102dd60048036038101906102d8919061175c565b6105f2565b6040516102ea9190611ac1565b60405180910390f35b61030d6004803603810190610308919061175c565b610669565b60405161031a9190611ac1565b60405180910390f35b61033d600480360381019061033891906116ba565b61068c565b005b61035960048036038101906103549190611627565b6107ce565b6040516103669190611e12565b60405180910390f35b60606003805461037e90611f8b565b80601f01602080910402602001604051908101604052809291908181526020018280546103aa90611f8b565b80156103f75780601f106103cc576101008083540402835291602001916103f7565b820191906000526020600020905b8154815290600101906020018083116103da57829003601f168201915b5050505050905090565b60008061040c610855565b905061041981858561085d565b600191505092915050565b6000600254905090565b600080610439610855565b9050610446858285610a28565b610451858585610ab4565b60019150509392505050565b60006012905090565b6000610470610d35565b905090565b600080610480610855565b90506104a181858561049285896107ce565b61049c9190611e6f565b61085d565b600191505092915050565b6104b68282610e4f565b5050565b60008060008373ffffffffffffffffffffffffffffffffffffffff1673ffffffffffffffffffffffffffffffffffffffff168152602001908152602001600020549050919050565b600061054b600560008473ffffffffffffffffffffffffffffffffffffffff1673ffffffffffffffffffffffffffffffffffffffff168152602001908152602001600020610faf565b9050919050565b60606004805461056190611f8b565b80601f016020809104026020016040519081016040528092919081815260200182805461058d90611f8b565b80156105da5780601f106105af576101008083540402835291602001916105da565b820191906000526020600020905b8154815290600101906020018083116105bd57829003601f168201915b5050505050905090565b6105ee8282610fbd565b5050565b6000806105fd610855565b9050600061060b82866107ce565b905083811015610650576040517f08c379a000000000000000000000000000000000000000000000000000000000815260040161064790611dd2565b60405180910390fd5b61065d828686840361085d565b60019250505092915050565b600080610674610855565b9050610681818585610ab4565b600191505092915050565b834211156106cf576040517f08c379a00000000000000000000000000000000000000000000000000000000081526004016106c690611cd2565b60405180910390fd5b60007f6e71edae12b1b97f4d1f60370fef10105fa2faae0126114a169c64845d6126c98888886106fe8c611194565b8960405160200161071496959493929190611af7565b6040516020818303038152906040528051906020012090506000610737826111f2565b905060006107478287878761120c565b90508973ffffffffffffffffffffffffffffffffffffffff168173ffffffffffffffffffffffffffffffffffffffff16146107b7576040517f08c379a00000000000000000000000000000000000000000000000000000000081526004016107ae90611d52565b60405180910390fd5b6107c28a8a8a61085d565b50505050505050505050565b6000600160008473ffffffffffffffffffffffffffffffffffffffff1673ffffffffffffffffffffffffffffffffffffffff16815260200190815260200160002060008373ffffffffffffffffffffffffffffffffffffffff1673ffffffffffffffffffffffffffffffffffffffff16815260200190815260200160002054905092915050565b600033905090565b600073ffffffffffffffffffffffffffffffffffffffff168373ffffffffffffffffffffffffffffffffffffffff1614156108cd576040517f08c379a00000000000000000000000000000000000000000000000000000000081526004016108c490611db2565b60405180910390fd5b600073ffffffffffffffffffffffffffffffffffffffff168273ffffffffffffffffffffffffffffffffffffffff16141561093d576040517f08c379a000000000000000000000000000000000000000000000000000000000815260040161093490611c92565b60405180910390fd5b80600160008573ffffffffffffffffffffffffffffffffffffffff1673ffffffffffffffffffffffffffffffffffffffff16815260200190815260200160002060008473ffffffffffffffffffffffffffffffffffffffff1673ffffffffffffffffffffffffffffffffffffffff168152602001908152602001600020819055508173ffffffffffffffffffffffffffffffffffffffff168373ffffffffffffffffffffffffffffffffffffffff167f8c5be1e5ebec7d5bd14f71427d1e84f3dd0314c0f7b2291e5b200ac8c7c3b92583604051610a1b9190611e12565b60405180910390a3505050565b6000610a3484846107ce565b90507fffffffffffffffffffffffffffffffffffffffffffffffffffffffffffffffff8114610aae5781811015610aa0576040517f08c379a0000000000000000000000000000000000000000000000000000000008152600401610a9790611cb2565b60405180910390fd5b610aad848484840361085d565b5b50505050565b600073ffffffffffffffffffffffffffffffffffffffff168373ffffffffffffffffffffffffffffffffffffffff161415610b24576040517f08c379a0000000000000000000000000000000000000000000000000000000008152600401610b1b90611d92565b60405180910390fd5b600073ffffffffffffffffffffffffffffffffffffffff168273ffffffffffffffffffffffffffffffffffffffff161415610b94576040517f08c379a0000000000000000000000000000000000000000000000000000000008152600401610b8b90611c32565b60405180910390fd5b610b9f838383611237565b60008060008573ffffffffffffffffffffffffffffffffffffffff1673ffffffffffffffffffffffffffffffffffffffff16815260200190815260200160002054905081811015610c25576040517f08c379a0000000000000000000000000000000000000000000000000000000008152600401610c1c90611cf2565b60405180910390fd5b8181036000808673ffffffffffffffffffffffffffffffffffffffff1673ffffffffffffffffffffffffffffffffffffffff16815260200190815260200160002081905550816000808573ffffffffffffffffffffffffffffffffffffffff1673ffffffffffffffffffffffffffffffffffffffff1681526020019081526020016000206000828254610cb89190611e6f565b925050819055508273ffffffffffffffffffffffffffffffffffffffff168473ffffffffffffffffffffffffffffffffffffffff167fddf252ad1be2c89b69c2b068fc378daa952ba7f163c4a11628f55a4df523b3ef84604051610d1c9190611e12565b60405180910390a3610d2f84848461123c565b50505050565b60007f000000000000000000000000000000000000000000000000000000000000000073ffffffffffffffffffffffffffffffffffffffff163073ffffffffffffffffffffffffffffffffffffffff16148015610db157507f000000000000000000000000000000000000000000000000000000000000000046145b15610dde577f00000000000000000000000000000000000000000000000000000000000000009050610e4c565b610e497f00000000000000000000000000000000000000000000000000000000000000007f00000000000000000000000000000000000000000000000000000000000000007f0000000000000000000000000000000000000000000000000000000000000000611241565b90505b90565b600073ffffffffffffffffffffffffffffffffffffffff168273ffffffffffffffffffffffffffffffffffffffff161415610ebf576040517f08c379a0000000000000000000000000000000000000000000000000000000008152600401610eb690611df2565b60405180910390fd5b610ecb60008383611237565b8060026000828254610edd9190611e6f565b92505081905550806000808473ffffffffffffffffffffffffffffffffffffffff1673ffffffffffffffffffffffffffffffffffffffff1681526020019081526020016000206000828254610f329190611e6f565b925050819055508173ffffffffffffffffffffffffffffffffffffffff16600073ffffffffffffffffffffffffffffffffffffffff167fddf252ad1be2c89b69c2b068fc378daa952ba7f163c4a11628f55a4df523b3ef83604051610f979190611e12565b60405180910390a3610fab6000838361123c565b5050565b600081600001549050919050565b600073ffffffffffffffffffffffffffffffffffffffff168273ffffffffffffffffffffffffffffffffffffffff16141561102d576040517f08c379a000000000000000000000000000000000000000000000000000000000815260040161102490611d72565b60405180910390fd5b61103982600083611237565b60008060008473ffffffffffffffffffffffffffffffffffffffff1673ffffffffffffffffffffffffffffffffffffffff168152602001908152602001600020549050818110156110bf576040517f08c379a00000000000000000000000000000000000000000000000000000000081526004016110b690611c52565b60405180910390fd5b8181036000808573ffffffffffffffffffffffffffffffffffffffff1673ffffffffffffffffffffffffffffffffffffffff1681526020019081526020016000208190555081600260008282546111169190611ec5565b92505081905550600073ffffffffffffffffffffffffffffffffffffffff168373ffffffffffffffffffffffffffffffffffffffff167fddf252ad1be2c89b69c2b068fc378daa952ba7f163c4a11628f55a4df523b3ef8460405161117b9190611e12565b60405180910390a361118f8360008461123c565b505050565b600080600560008473ffffffffffffffffffffffffffffffffffffffff1673ffffffffffffffffffffffffffffffffffffffff16815260200190815260200160002090506111e181610faf565b91506111ec8161127b565b50919050565b60006112056111ff610d35565b83611291565b9050919050565b600080600061121d878787876112c4565b9150915061122a816113d1565b8192505050949350505050565b505050565b505050565b6000838383463060405160200161125c959493929190611b58565b6040516020818303038152906040528051906020012090509392505050565b6001816000016000828254019250508190555050565b600082826040516020016112a6929190611a8a565b60405160208183030381529060405280519060200120905092915050565b6000807f7fffffffffffffffffffffffffffffff5d576e7357a4501ddfe92f46681b20a08360001c11156112ff5760006003915091506113c8565b601b8560ff16141580156113175750601c8560ff1614155b156113295760006004915091506113c8565b60006001878787876040516000815260200160405260405161134e9493929190611bab565b6020604051602081039080840390855afa158015611370573d6000803e3d6000fd5b505050602060405103519050600073ffffffffffffffffffffffffffffffffffffffff168173ffffffffffffffffffffffffffffffffffffffff1614156113bf576000600192509250506113c8565b80600092509250505b94509492505050565b600060048111156113e5576113e4611ff6565b5b8160048111156113f8576113f7611ff6565b5b1415611403576115a3565b6001600481111561141757611416611ff6565b5b81600481111561142a57611429611ff6565b5b141561146b576040517f08c379a000000000000000000000000000000000000000000000000000000000815260040161146290611c12565b60405180910390fd5b6002600481111561147f5761147e611ff6565b5b81600481111561149257611491611ff6565b5b14156114d3576040517f08c379a00000000000000000000000000000000000000000000000000000000081526004016114ca90611c72565b60405180910390fd5b600360048111156114e7576114e6611ff6565b5b8160048111156114fa576114f9611ff6565b5b141561153b576040517f08c379a000000000000000000000000000000000000000000000000000000000815260040161153290611d12565b60405180910390fd5b60048081111561154e5761154d611ff6565b5b81600481111561156157611560611ff6565b5b14156115a2576040517f08c379a000000000000000000000000000000000000000000000000000000000815260040161159990611d32565b60405180910390fd5b5b50565b6000813590506115b58161249f565b92915050565b6000813590506115ca816124b6565b92915050565b6000813590506115df816124cd565b92915050565b6000813590506115f4816124e4565b92915050565b6000602082840312156116105761160f612054565b5b600061161e848285016115a6565b91505092915050565b6000806040838503121561163e5761163d612054565b5b600061164c858286016115a6565b925050602061165d858286016115a6565b9150509250929050565b6000806000606084860312156116805761167f612054565b5b600061168e868287016115a6565b935050602061169f868287016115a6565b92505060406116b0868287016115d0565b9150509250925092565b600080600080600080600060e0888a0312156116d9576116d8612054565b5b60006116e78a828b016115a6565b97505060206116f88a828b016115a6565b96505060406117098a828b016115d0565b955050606061171a8a828b016115d0565b945050608061172b8a828b016115e5565b93505060a061173c8a828b016115bb565b92505060c061174d8a828b016115bb565b91505092959891949750929550565b6000806040838503121561177357611772612054565b5b6000611781858286016115a6565b9250506020611792858286016115d0565b9150509250929050565b6117a581611ef9565b82525050565b6117b481611f0b565b82525050565b6117c381611f17565b82525050565b6117da6117d582611f17565b611fbd565b82525050565b60006117eb82611e48565b6117f58185611e53565b9350611805818560208601611f58565b61180e81612059565b840191505092915050565b6000611826601883611e53565b91506118318261206a565b602082019050919050565b6000611849602383611e53565b915061185482612093565b604082019050919050565b600061186c602283611e53565b9150611877826120e2565b604082019050919050565b600061188f601f83611e53565b915061189a82612131565b602082019050919050565b60006118b2602283611e53565b91506118bd8261215a565b604082019050919050565b60006118d5600283611e64565b91506118e0826121a9565b600282019050919050565b60006118f8601d83611e53565b9150611903826121d2565b602082019050919050565b600061191b601d83611e53565b9150611926826121fb565b602082019050919050565b600061193e602683611e53565b915061194982612224565b604082019050919050565b6000611961602283611e53565b915061196c82612273565b604082019050919050565b6000611984602283611e53565b915061198f826122c2565b604082019050919050565b60006119a7601e83611e53565b91506119b282612311565b602082019050919050565b60006119ca602183611e53565b91506119d58261233a565b604082019050919050565b60006119ed602583611e53565b91506119f882612389565b604082019050919050565b6000611a10602483611e53565b9150611a1b826123d8565b604082019050919050565b6000611a33602583611e53565b9150611a3e82612427565b604082019050919050565b6000611a56601f83611e53565b9150611a6182612476565b602082019050919050565b611a7581611f41565b82525050565b611a8481611f4b565b82525050565b6000611a95826118c8565b9150611aa182856117c9565b602082019150611ab182846117c9565b6020820191508190509392505050565b6000602082019050611ad660008301846117ab565b92915050565b6000602082019050611af160008301846117ba565b92915050565b600060c082019050611b0c60008301896117ba565b611b19602083018861179c565b611b26604083018761179c565b611b336060830186611a6c565b611b406080830185611a6c565b611b4d60a0830184611a6c565b979650505050505050565b600060a082019050611b6d60008301886117ba565b611b7a60208301876117ba565b611b8760408301866117ba565b611b946060830185611a6c565b611ba1608083018461179c565b9695505050505050565b6000608082019050611bc060008301876117ba565b611bcd6020830186611a7b565b611bda60408301856117ba565b611be760608301846117ba565b95945050505050565b60006020820190508181036000830152611c0a81846117e0565b905092915050565b60006020820190508181036000830152611c2b81611819565b9050919050565b60006020820190508181036000830152611c4b8161183c565b9050919050565b60006020820190508181036000830152611c6b8161185f565b9050919050565b60006020820190508181036000830152611c8b81611882565b9050919050565b60006020820190508181036000830152611cab816118a5565b9050919050565b60006020820190508181036000830152611ccb816118eb565b9050919050565b60006020820190508181036000830152611ceb8161190e565b9050919050565b60006020820190508181036000830152611d0b81611931565b9050919050565b60006020820190508181036000830152611d2b81611954565b9050919050565b60006020820190508181036000830152611d4b81611977565b9050919050565b60006020820190508181036000830152611d6b8161199a565b9050919050565b60006020820190508181036000830152611d8b816119bd565b9050919050565b60006020820190508181036000830152611dab816119e0565b9050919050565b60006020820190508181036000830152611dcb81611a03565b9050919050565b60006020820190508181036000830152611deb81611a26565b9050919050565b60006020820190508181036000830152611e0b81611a49565b9050919050565b6000602082019050611e276000830184611a6c565b92915050565b6000602082019050611e426000830184611a7b565b92915050565b600081519050919050565b600082825260208201905092915050565b600081905092915050565b6000611e7a82611f41565b9150611e8583611f41565b9250827fffffffffffffffffffffffffffffffffffffffffffffffffffffffffffffffff03821115611eba57611eb9611fc7565b5b828201905092915050565b6000611ed082611f41565b9150611edb83611f41565b925082821015611eee57611eed611fc7565b5b828203905092915050565b6000611f0482611f21565b9050919050565b60008115159050919050565b6000819050919050565b600073ffffffffffffffffffffffffffffffffffffffff82169050919050565b6000819050919050565b600060ff82169050919050565b60005b83811015611f76578082015181840152602081019050611f5b565b83811115611f85576000848401525b50505050565b60006002820490506001821680611fa357607f821691505b60208210811415611fb757611fb6612025565b5b50919050565b6000819050919050565b7f4e487b7100000000000000000000000000000000000000000000000000000000600052601160045260246000fd5b7f4e487b7100000000000000000000000000000000000000000000000000000000600052602160045260246000fd5b7f4e487b7100000000000000000000000000000000000000000000000000000000600052602260045260246000fd5b600080fd5b6000601f19601f8301169050919050565b7f45434453413a20696e76616c6964207369676e61747572650000000000000000600082015250565b7f45524332303a207472616e7366657220746f20746865207a65726f206164647260008201527f6573730000000000000000000000000000000000000000000000000000000000602082015250565b7f45524332303a206275726e20616d6f756e7420657863656564732062616c616e60008201527f6365000000000000000000000000000000000000000000000000000000000000602082015250565b7f45434453413a20696e76616c6964207369676e6174757265206c656e67746800600082015250565b7f45524332303a20617070726f766520746f20746865207a65726f20616464726560008201527f7373000000000000000000000000000000000000000000000000000000000000602082015250565b7f1901000000000000000000000000000000000000000000000000000000000000600082015250565b7f45524332303a20696e73756666696369656e7420616c6c6f77616e6365000000600082015250565b7f45524332305065726d69743a206578706972656420646561646c696e65000000600082015250565b7f45524332303a207472616e7366657220616d6f756e742065786365656473206260008201527f616c616e63650000000000000000000000000000000000000000000000000000602082015250565b7f45434453413a20696e76616c6964207369676e6174757265202773272076616c60008201527f7565000000000000000000000000000000000000000000000000000000000000602082015250565b7f45434453413a20696e76616c6964207369676e6174757265202776272076616c60008201527f7565000000000000000000000000000000000000000000000000000000000000602082015250565b7f45524332305065726d69743a20696e76616c6964207369676e61747572650000600082015250565b7f45524332303a206275726e2066726f6d20746865207a65726f2061646472657360008201527f7300000000000000000000000000000000000000000000000000000000000000602082015250565b7f45524332303a207472616e736665722066726f6d20746865207a65726f20616460008201527f6472657373000000000000000000000000000000000000000000000000000000602082015250565b7f45524332303a20617070726f76652066726f6d20746865207a65726f2061646460008201527f7265737300000000000000000000000000000000000000000000000000000000602082015250565b7f45524332303a2064656372656173656420616c6c6f77616e63652062656c6f7760008201527f207a65726f000000000000000000000000000000000000000000000000000000602082015250565b7f45524332303a206d696e7420746f20746865207a65726f206164647265737300600082015250565b6124a881611ef9565b81146124b357600080fd5b50565b6124bf81611f17565b81146124ca57600080fd5b50565b6124d681611f41565b81146124e157600080fd5b50565b6124ed81611f4b565b81146124f857600080fd5b5056fea2646970667358221220beef8d6eb9a12cf0f02147c6371217e06c6bddc7201bc3a43e75ec2359ee042364736f6c63430008070033",
  "linkReferences": {},
  "deployedLinkReferences": {}
}